ARM GAS  C:\Users\juano\AppData\Local\Temp\ccgzKRlT.s 			page 1


   1              		.syntax unified
   2              		.cpu cortex-m3
   3              		.fpu softvfp
   4              		.eabi_attribute 20, 1
   5              		.eabi_attribute 21, 1
   6              		.eabi_attribute 23, 3
   7              		.eabi_attribute 24, 1
   8              		.eabi_attribute 25, 1
   9              		.eabi_attribute 26, 1
  10              		.eabi_attribute 30, 1
  11              		.eabi_attribute 34, 1
  12              		.eabi_attribute 18, 4
  13              		.thumb
  14              		.syntax unified
  15              		.file	"cymetadata.c"
  16              		.text
  17              	.Ltext0:
  18              		.cfi_sections	.debug_frame
  19              		.global	cy_metadata
  20              		.global	cy_meta_flashprotect
  21              		.global	cy_meta_wonvl
  22              		.global	cy_meta_custnvl
  23              		.global	cy_meta_configecc
  24              		.section	.cyconfigecc,"a",%progbits
  25              		.align	2
  26              		.type	cy_meta_configecc, %object
  27              		.size	cy_meta_configecc, 1064
  28              	cy_meta_configecc:
  29 0000 03       		.byte	3
  30 0001 52       		.byte	82
  31 0002 00       		.byte	0
  32 0003 40       		.byte	64
  33 0004 02       		.byte	2
  34 0005 64       		.byte	100
  35 0006 00       		.byte	0
  36 0007 40       		.byte	64
  37 0008 02       		.byte	2
  38 0009 65       		.byte	101
  39 000a 00       		.byte	0
  40 000b 40       		.byte	64
  41 000c 01       		.byte	1
  42 000d 07       		.byte	7
  43 000e 01       		.byte	1
  44 000f 40       		.byte	64
  45 0010 51       		.byte	81
  46 0011 08       		.byte	8
  47 0012 01       		.byte	1
  48 0013 40       		.byte	64
  49 0014 30       		.byte	48
  50 0015 09       		.byte	9
  51 0016 01       		.byte	1
  52 0017 40       		.byte	64
  53 0018 54       		.byte	84
  54 0019 18       		.byte	24
  55 001a 01       		.byte	1
  56 001b 40       		.byte	64
  57 001c 42       		.byte	66
ARM GAS  C:\Users\juano\AppData\Local\Temp\ccgzKRlT.s 			page 2


  58 001d 19       		.byte	25
  59 001e 01       		.byte	1
  60 001f 40       		.byte	64
  61 0020 58       		.byte	88
  62 0021 1A       		.byte	26
  63 0022 01       		.byte	1
  64 0023 40       		.byte	64
  65 0024 46       		.byte	70
  66 0025 1B       		.byte	27
  67 0026 01       		.byte	1
  68 0027 40       		.byte	64
  69 0028 02       		.byte	2
  70 0029 40       		.byte	64
  71 002a 01       		.byte	1
  72 002b 40       		.byte	64
  73 002c 01       		.byte	1
  74 002d 41       		.byte	65
  75 002e 01       		.byte	1
  76 002f 40       		.byte	64
  77 0030 01       		.byte	1
  78 0031 42       		.byte	66
  79 0032 01       		.byte	1
  80 0033 40       		.byte	64
  81 0034 03       		.byte	3
  82 0035 43       		.byte	67
  83 0036 01       		.byte	1
  84 0037 40       		.byte	64
  85 0038 02       		.byte	2
  86 0039 45       		.byte	69
  87 003a 01       		.byte	1
  88 003b 40       		.byte	64
  89 003c 01       		.byte	1
  90 003d 46       		.byte	70
  91 003e 01       		.byte	1
  92 003f 40       		.byte	64
  93 0040 01       		.byte	1
  94 0041 47       		.byte	71
  95 0042 01       		.byte	1
  96 0043 40       		.byte	64
  97 0044 02       		.byte	2
  98 0045 4C       		.byte	76
  99 0046 01       		.byte	1
 100 0047 40       		.byte	64
 101 0048 08       		.byte	8
 102 0049 4D       		.byte	77
 103 004a 01       		.byte	1
 104 004b 40       		.byte	64
 105 004c 04       		.byte	4
 106 004d 50       		.byte	80
 107 004e 01       		.byte	1
 108 004f 40       		.byte	64
 109 0050 01       		.byte	1
 110 0051 51       		.byte	81
 111 0052 01       		.byte	1
 112 0053 40       		.byte	64
 113 0054 10       		.byte	16
 114 0055 80       		.byte	-128
ARM GAS  C:\Users\juano\AppData\Local\Temp\ccgzKRlT.s 			page 3


 115 0056 61       		.byte	97
 116 0057 80       		.byte	-128
 117 0058 64       		.byte	100
 118 0059 40       		.byte	64
 119 005a 88       		.byte	-120
 120 005b 0D       		.byte	13
 121 005c 89       		.byte	-119
 122 005d 38       		.byte	56
 123 005e 89       		.byte	-119
 124 005f 72       		.byte	114
 125 0060 8B       		.byte	-117
 126 0061 0F       		.byte	15
 127 0062 E6       		.byte	-26
 128 0063 02       		.byte	2
 129 0064 03       		.byte	3
 130 0065 04       		.byte	4
 131 0066 06       		.byte	6
 132 0067 02       		.byte	2
 133 0068 07       		.byte	7
 134 0069 03       		.byte	3
 135 006a 0A       		.byte	10
 136 006b 01       		.byte	1
 137 006c 0E       		.byte	14
 138 006d 02       		.byte	2
 139 006e 15       		.byte	21
 140 006f 02       		.byte	2
 141 0070 16       		.byte	22
 142 0071 04       		.byte	4
 143 0072 22       		.byte	34
 144 0073 05       		.byte	5
 145 0074 30       		.byte	48
 146 0075 01       		.byte	1
 147 0076 31       		.byte	49
 148 0077 02       		.byte	2
 149 0078 34       		.byte	52
 150 0079 04       		.byte	4
 151 007a 35       		.byte	53
 152 007b 01       		.byte	1
 153 007c 36       		.byte	54
 154 007d 02       		.byte	2
 155 007e 37       		.byte	55
 156 007f 04       		.byte	4
 157 0080 3E       		.byte	62
 158 0081 50       		.byte	80
 159 0082 40       		.byte	64
 160 0083 40       		.byte	64
 161 0084 41       		.byte	65
 162 0085 06       		.byte	6
 163 0086 45       		.byte	69
 164 0087 D0       		.byte	-48
 165 0088 46       		.byte	70
 166 0089 20       		.byte	32
 167 008a 47       		.byte	71
 168 008b 01       		.byte	1
 169 008c 48       		.byte	72
 170 008d 1A       		.byte	26
 171 008e 49       		.byte	73
ARM GAS  C:\Users\juano\AppData\Local\Temp\ccgzKRlT.s 			page 4


 172 008f FF       		.byte	-1
 173 0090 4A       		.byte	74
 174 0091 FF       		.byte	-1
 175 0092 4B       		.byte	75
 176 0093 FF       		.byte	-1
 177 0094 4D       		.byte	77
 178 0095 A0       		.byte	-96
 179 0096 4F       		.byte	79
 180 0097 04       		.byte	4
 181 0098 50       		.byte	80
 182 0099 18       		.byte	24
 183 009a 52       		.byte	82
 184 009b 80       		.byte	-128
 185 009c 54       		.byte	84
 186 009d 05       		.byte	5
 187 009e 58       		.byte	88
 188 009f 04       		.byte	4
 189 00a0 59       		.byte	89
 190 00a1 04       		.byte	4
 191 00a2 5A       		.byte	90
 192 00a3 04       		.byte	4
 193 00a4 5B       		.byte	91
 194 00a5 04       		.byte	4
 195 00a6 5C       		.byte	92
 196 00a7 11       		.byte	17
 197 00a8 5D       		.byte	93
 198 00a9 11       		.byte	17
 199 00aa 5F       		.byte	95
 200 00ab 01       		.byte	1
 201 00ac 60       		.byte	96
 202 00ad 40       		.byte	64
 203 00ae 62       		.byte	98
 204 00af C0       		.byte	-64
 205 00b0 64       		.byte	100
 206 00b1 40       		.byte	64
 207 00b2 65       		.byte	101
 208 00b3 40       		.byte	64
 209 00b4 66       		.byte	102
 210 00b5 C0       		.byte	-64
 211 00b6 68       		.byte	104
 212 00b7 C0       		.byte	-64
 213 00b8 6A       		.byte	106
 214 00b9 C0       		.byte	-64
 215 00ba 6C       		.byte	108
 216 00bb C0       		.byte	-64
 217 00bc 6E       		.byte	110
 218 00bd C0       		.byte	-64
 219 00be 81       		.byte	-127
 220 00bf 10       		.byte	16
 221 00c0 84       		.byte	-124
 222 00c1 05       		.byte	5
 223 00c2 85       		.byte	-123
 224 00c3 01       		.byte	1
 225 00c4 89       		.byte	-119
 226 00c5 03       		.byte	3
 227 00c6 8A       		.byte	-118
 228 00c7 02       		.byte	2
ARM GAS  C:\Users\juano\AppData\Local\Temp\ccgzKRlT.s 			page 5


 229 00c8 8C       		.byte	-116
 230 00c9 04       		.byte	4
 231 00ca 8D       		.byte	-115
 232 00cb 02       		.byte	2
 233 00cc 8E       		.byte	-114
 234 00cd 01       		.byte	1
 235 00ce 94       		.byte	-108
 236 00cf 05       		.byte	5
 237 00d0 95       		.byte	-107
 238 00d1 18       		.byte	24
 239 00d2 99       		.byte	-103
 240 00d3 08       		.byte	8
 241 00d4 9C       		.byte	-100
 242 00d5 04       		.byte	4
 243 00d6 9D       		.byte	-99
 244 00d7 18       		.byte	24
 245 00d8 9E       		.byte	-98
 246 00d9 01       		.byte	1
 247 00da 9F       		.byte	-97
 248 00db 07       		.byte	7
 249 00dc A1       		.byte	-95
 250 00dd 18       		.byte	24
 251 00de A3       		.byte	-93
 252 00df 07       		.byte	7
 253 00e0 A5       		.byte	-91
 254 00e1 07       		.byte	7
 255 00e2 A7       		.byte	-89
 256 00e3 18       		.byte	24
 257 00e4 AB       		.byte	-85
 258 00e5 07       		.byte	7
 259 00e6 AD       		.byte	-83
 260 00e7 1F       		.byte	31
 261 00e8 AE       		.byte	-82
 262 00e9 02       		.byte	2
 263 00ea B0       		.byte	-80
 264 00eb 04       		.byte	4
 265 00ec B1       		.byte	-79
 266 00ed 03       		.byte	3
 267 00ee B2       		.byte	-78
 268 00ef 01       		.byte	1
 269 00f0 B4       		.byte	-76
 270 00f1 02       		.byte	2
 271 00f2 B7       		.byte	-73
 272 00f3 1C       		.byte	28
 273 00f4 B8       		.byte	-72
 274 00f5 08       		.byte	8
 275 00f6 BB       		.byte	-69
 276 00f7 80       		.byte	-128
 277 00f8 BE       		.byte	-66
 278 00f9 11       		.byte	17
 279 00fa D4       		.byte	-44
 280 00fb 18       		.byte	24
 281 00fc D6       		.byte	-42
 282 00fd 04       		.byte	4
 283 00fe D8       		.byte	-40
 284 00ff 04       		.byte	4
 285 0100 D9       		.byte	-39
ARM GAS  C:\Users\juano\AppData\Local\Temp\ccgzKRlT.s 			page 6


 286 0101 04       		.byte	4
 287 0102 DB       		.byte	-37
 288 0103 04       		.byte	4
 289 0104 DF       		.byte	-33
 290 0105 01       		.byte	1
 291 0106 00       		.byte	0
 292 0107 10       		.byte	16
 293 0108 01       		.byte	1
 294 0109 80       		.byte	-128
 295 010a 02       		.byte	2
 296 010b 01       		.byte	1
 297 010c 03       		.byte	3
 298 010d 20       		.byte	32
 299 010e 04       		.byte	4
 300 010f 88       		.byte	-120
 301 0110 06       		.byte	6
 302 0111 08       		.byte	8
 303 0112 09       		.byte	9
 304 0113 88       		.byte	-120
 305 0114 0F       		.byte	15
 306 0115 20       		.byte	32
 307 0116 12       		.byte	18
 308 0117 02       		.byte	2
 309 0118 17       		.byte	23
 310 0119 01       		.byte	1
 311 011a 18       		.byte	24
 312 011b 14       		.byte	20
 313 011c 19       		.byte	25
 314 011d 01       		.byte	1
 315 011e 1C       		.byte	28
 316 011f 41       		.byte	65
 317 0120 1E       		.byte	30
 318 0121 08       		.byte	8
 319 0122 21       		.byte	33
 320 0123 80       		.byte	-128
 321 0124 22       		.byte	34
 322 0125 01       		.byte	1
 323 0126 27       		.byte	39
 324 0127 89       		.byte	-119
 325 0128 28       		.byte	40
 326 0129 01       		.byte	1
 327 012a 29       		.byte	41
 328 012b 20       		.byte	32
 329 012c 2A       		.byte	42
 330 012d 01       		.byte	1
 331 012e 2B       		.byte	43
 332 012f 20       		.byte	32
 333 0130 31       		.byte	49
 334 0131 94       		.byte	-108
 335 0132 37       		.byte	55
 336 0133 08       		.byte	8
 337 0134 39       		.byte	57
 338 0135 88       		.byte	-120
 339 0136 3A       		.byte	58
 340 0137 22       		.byte	34
 341 0138 3C       		.byte	60
 342 0139 02       		.byte	2
ARM GAS  C:\Users\juano\AppData\Local\Temp\ccgzKRlT.s 			page 7


 343 013a 3E       		.byte	62
 344 013b 08       		.byte	8
 345 013c 47       		.byte	71
 346 013d 01       		.byte	1
 347 013e 4F       		.byte	79
 348 013f 21       		.byte	33
 349 0140 56       		.byte	86
 350 0141 08       		.byte	8
 351 0142 57       		.byte	87
 352 0143 10       		.byte	16
 353 0144 5A       		.byte	90
 354 0145 02       		.byte	2
 355 0146 5E       		.byte	94
 356 0147 08       		.byte	8
 357 0148 5F       		.byte	95
 358 0149 81       		.byte	-127
 359 014a 60       		.byte	96
 360 014b 05       		.byte	5
 361 014c 63       		.byte	99
 362 014d 40       		.byte	64
 363 014e 74       		.byte	116
 364 014f 01       		.byte	1
 365 0150 87       		.byte	-121
 366 0151 40       		.byte	64
 367 0152 C0       		.byte	-64
 368 0153 E7       		.byte	-25
 369 0154 C2       		.byte	-62
 370 0155 25       		.byte	37
 371 0156 C4       		.byte	-60
 372 0157 11       		.byte	17
 373 0158 CA       		.byte	-54
 374 0159 0F       		.byte	15
 375 015a CC       		.byte	-52
 376 015b 4E       		.byte	78
 377 015c CE       		.byte	-50
 378 015d CF       		.byte	-49
 379 015e D0       		.byte	-48
 380 015f 80       		.byte	-128
 381 0160 D2       		.byte	-46
 382 0161 20       		.byte	32
 383 0162 D6       		.byte	-42
 384 0163 D1       		.byte	-47
 385 0164 D8       		.byte	-40
 386 0165 0D       		.byte	13
 387 0166 00       		.byte	0
 388 0167 16       		.byte	22
 389 0168 02       		.byte	2
 390 0169 01       		.byte	1
 391 016a 03       		.byte	3
 392 016b 15       		.byte	21
 393 016c 09       		.byte	9
 394 016d 03       		.byte	3
 395 016e 0B       		.byte	11
 396 016f 14       		.byte	20
 397 0170 10       		.byte	16
 398 0171 18       		.byte	24
 399 0172 11       		.byte	17
ARM GAS  C:\Users\juano\AppData\Local\Temp\ccgzKRlT.s 			page 8


 400 0173 13       		.byte	19
 401 0174 12       		.byte	18
 402 0175 03       		.byte	3
 403 0176 13       		.byte	19
 404 0177 04       		.byte	4
 405 0178 15       		.byte	21
 406 0179 13       		.byte	19
 407 017a 16       		.byte	22
 408 017b 06       		.byte	6
 409 017c 17       		.byte	23
 410 017d 0C       		.byte	12
 411 017e 1B       		.byte	27
 412 017f 08       		.byte	8
 413 0180 1E       		.byte	30
 414 0181 09       		.byte	9
 415 0182 28       		.byte	40
 416 0183 18       		.byte	24
 417 0184 2A       		.byte	42
 418 0185 05       		.byte	5
 419 0186 2D       		.byte	45
 420 0187 0A       		.byte	10
 421 0188 2E       		.byte	46
 422 0189 02       		.byte	2
 423 018a 2F       		.byte	47
 424 018b 14       		.byte	20
 425 018c 30       		.byte	48
 426 018d 07       		.byte	7
 427 018e 33       		.byte	51
 428 018f 0F       		.byte	15
 429 0190 34       		.byte	52
 430 0191 18       		.byte	24
 431 0192 37       		.byte	55
 432 0193 10       		.byte	16
 433 0194 38       		.byte	56
 434 0195 20       		.byte	32
 435 0196 3A       		.byte	58
 436 0197 02       		.byte	2
 437 0198 3B       		.byte	59
 438 0199 08       		.byte	8
 439 019a 3E       		.byte	62
 440 019b 10       		.byte	16
 441 019c 3F       		.byte	63
 442 019d 40       		.byte	64
 443 019e 40       		.byte	64
 444 019f 02       		.byte	2
 445 01a0 47       		.byte	71
 446 01a1 40       		.byte	64
 447 01a2 49       		.byte	73
 448 01a3 FF       		.byte	-1
 449 01a4 4A       		.byte	74
 450 01a5 07       		.byte	7
 451 01a6 4B       		.byte	75
 452 01a7 FF       		.byte	-1
 453 01a8 4C       		.byte	76
 454 01a9 40       		.byte	64
 455 01aa 4D       		.byte	77
 456 01ab 20       		.byte	32
ARM GAS  C:\Users\juano\AppData\Local\Temp\ccgzKRlT.s 			page 9


 457 01ac 4E       		.byte	78
 458 01ad F0       		.byte	-16
 459 01ae 4F       		.byte	79
 460 01af 05       		.byte	5
 461 01b0 50       		.byte	80
 462 01b1 08       		.byte	8
 463 01b2 58       		.byte	88
 464 01b3 04       		.byte	4
 465 01b4 59       		.byte	89
 466 01b5 04       		.byte	4
 467 01b6 5A       		.byte	90
 468 01b7 04       		.byte	4
 469 01b8 5F       		.byte	95
 470 01b9 01       		.byte	1
 471 01ba 60       		.byte	96
 472 01bb 40       		.byte	64
 473 01bc 61       		.byte	97
 474 01bd A8       		.byte	-88
 475 01be 62       		.byte	98
 476 01bf 40       		.byte	64
 477 01c0 63       		.byte	99
 478 01c1 20       		.byte	32
 479 01c2 80       		.byte	-128
 480 01c3 80       		.byte	-128
 481 01c4 81       		.byte	-127
 482 01c5 0C       		.byte	12
 483 01c6 83       		.byte	-125
 484 01c7 11       		.byte	17
 485 01c8 84       		.byte	-124
 486 01c9 E7       		.byte	-25
 487 01ca 86       		.byte	-122
 488 01cb 18       		.byte	24
 489 01cc 8A       		.byte	-118
 490 01cd E3       		.byte	-29
 491 01ce 8C       		.byte	-116
 492 01cf 3C       		.byte	60
 493 01d0 8D       		.byte	-115
 494 01d1 1C       		.byte	28
 495 01d2 8E       		.byte	-114
 496 01d3 C2       		.byte	-62
 497 01d4 8F       		.byte	-113
 498 01d5 02       		.byte	2
 499 01d6 92       		.byte	-110
 500 01d7 04       		.byte	4
 501 01d8 94       		.byte	-108
 502 01d9 C0       		.byte	-64
 503 01da 98       		.byte	-104
 504 01db FF       		.byte	-1
 505 01dc 99       		.byte	-103
 506 01dd 10       		.byte	16
 507 01de 9B       		.byte	-101
 508 01df 0C       		.byte	12
 509 01e0 9C       		.byte	-100
 510 01e1 DC       		.byte	-36
 511 01e2 9E       		.byte	-98
 512 01e3 21       		.byte	33
 513 01e4 9F       		.byte	-97
ARM GAS  C:\Users\juano\AppData\Local\Temp\ccgzKRlT.s 			page 10


 514 01e5 03       		.byte	3
 515 01e6 A0       		.byte	-96
 516 01e7 10       		.byte	16
 517 01e8 A1       		.byte	-95
 518 01e9 14       		.byte	20
 519 01ea A4       		.byte	-92
 520 01eb 08       		.byte	8
 521 01ec A5       		.byte	-91
 522 01ed 09       		.byte	9
 523 01ee A7       		.byte	-89
 524 01ef 10       		.byte	16
 525 01f0 A8       		.byte	-88
 526 01f1 18       		.byte	24
 527 01f2 AC       		.byte	-84
 528 01f3 44       		.byte	68
 529 01f4 AD       		.byte	-83
 530 01f5 10       		.byte	16
 531 01f6 B0       		.byte	-80
 532 01f7 38       		.byte	56
 533 01f8 B4       		.byte	-76
 534 01f9 D8       		.byte	-40
 535 01fa B6       		.byte	-74
 536 01fb 1F       		.byte	31
 537 01fc B7       		.byte	-73
 538 01fd 1F       		.byte	31
 539 01fe BA       		.byte	-70
 540 01ff A0       		.byte	-96
 541 0200 BB       		.byte	-69
 542 0201 08       		.byte	8
 543 0202 D6       		.byte	-42
 544 0203 02       		.byte	2
 545 0204 D7       		.byte	-41
 546 0205 13       		.byte	19
 547 0206 D8       		.byte	-40
 548 0207 04       		.byte	4
 549 0208 D9       		.byte	-39
 550 0209 04       		.byte	4
 551 020a DB       		.byte	-37
 552 020b 04       		.byte	4
 553 020c DF       		.byte	-33
 554 020d 01       		.byte	1
 555 020e 01       		.byte	1
 556 020f A0       		.byte	-96
 557 0210 02       		.byte	2
 558 0211 80       		.byte	-128
 559 0212 03       		.byte	3
 560 0213 20       		.byte	32
 561 0214 06       		.byte	6
 562 0215 80       		.byte	-128
 563 0216 07       		.byte	7
 564 0217 40       		.byte	64
 565 0218 09       		.byte	9
 566 0219 80       		.byte	-128
 567 021a 0A       		.byte	10
 568 021b 18       		.byte	24
 569 021c 0B       		.byte	11
 570 021d 40       		.byte	64
ARM GAS  C:\Users\juano\AppData\Local\Temp\ccgzKRlT.s 			page 11


 571 021e 0C       		.byte	12
 572 021f 41       		.byte	65
 573 0220 0E       		.byte	14
 574 0221 60       		.byte	96
 575 0222 0F       		.byte	15
 576 0223 01       		.byte	1
 577 0224 10       		.byte	16
 578 0225 82       		.byte	-126
 579 0226 13       		.byte	19
 580 0227 14       		.byte	20
 581 0228 16       		.byte	22
 582 0229 01       		.byte	1
 583 022a 17       		.byte	23
 584 022b 20       		.byte	32
 585 022c 18       		.byte	24
 586 022d 80       		.byte	-128
 587 022e 19       		.byte	25
 588 022f 80       		.byte	-128
 589 0230 1B       		.byte	27
 590 0231 22       		.byte	34
 591 0232 1E       		.byte	30
 592 0233 44       		.byte	68
 593 0234 1F       		.byte	31
 594 0235 01       		.byte	1
 595 0236 21       		.byte	33
 596 0237 08       		.byte	8
 597 0238 22       		.byte	34
 598 0239 44       		.byte	68
 599 023a 26       		.byte	38
 600 023b 44       		.byte	68
 601 023c 27       		.byte	39
 602 023d 30       		.byte	48
 603 023e 28       		.byte	40
 604 023f 10       		.byte	16
 605 0240 2B       		.byte	43
 606 0241 81       		.byte	-127
 607 0242 2E       		.byte	46
 608 0243 80       		.byte	-128
 609 0244 32       		.byte	50
 610 0245 40       		.byte	64
 611 0246 33       		.byte	51
 612 0247 10       		.byte	16
 613 0248 34       		.byte	52
 614 0249 11       		.byte	17
 615 024a 36       		.byte	54
 616 024b 34       		.byte	52
 617 024c 3A       		.byte	58
 618 024d 80       		.byte	-128
 619 024e 3B       		.byte	59
 620 024f 02       		.byte	2
 621 0250 3E       		.byte	62
 622 0251 0C       		.byte	12
 623 0252 3F       		.byte	63
 624 0253 21       		.byte	33
 625 0254 42       		.byte	66
 626 0255 30       		.byte	48
 627 0256 46       		.byte	70
ARM GAS  C:\Users\juano\AppData\Local\Temp\ccgzKRlT.s 			page 12


 628 0257 08       		.byte	8
 629 0258 4F       		.byte	79
 630 0259 01       		.byte	1
 631 025a 56       		.byte	86
 632 025b 01       		.byte	1
 633 025c 57       		.byte	87
 634 025d 01       		.byte	1
 635 025e 59       		.byte	89
 636 025f 01       		.byte	1
 637 0260 69       		.byte	105
 638 0261 54       		.byte	84
 639 0262 70       		.byte	112
 640 0263 80       		.byte	-128
 641 0264 71       		.byte	113
 642 0265 14       		.byte	20
 643 0266 72       		.byte	114
 644 0267 02       		.byte	2
 645 0268 73       		.byte	115
 646 0269 14       		.byte	20
 647 026a 94       		.byte	-108
 648 026b 88       		.byte	-120
 649 026c 95       		.byte	-107
 650 026d 88       		.byte	-120
 651 026e 99       		.byte	-103
 652 026f 01       		.byte	1
 653 0270 9D       		.byte	-99
 654 0271 B4       		.byte	-76
 655 0272 9E       		.byte	-98
 656 0273 22       		.byte	34
 657 0274 A1       		.byte	-95
 658 0275 80       		.byte	-128
 659 0276 A5       		.byte	-91
 660 0277 08       		.byte	8
 661 0278 A6       		.byte	-90
 662 0279 02       		.byte	2
 663 027a A7       		.byte	-89
 664 027b 20       		.byte	32
 665 027c B0       		.byte	-80
 666 027d 01       		.byte	1
 667 027e B1       		.byte	-79
 668 027f 08       		.byte	8
 669 0280 B4       		.byte	-76
 670 0281 40       		.byte	64
 671 0282 C0       		.byte	-64
 672 0283 1F       		.byte	31
 673 0284 C2       		.byte	-62
 674 0285 BF       		.byte	-65
 675 0286 C4       		.byte	-60
 676 0287 CF       		.byte	-49
 677 0288 CA       		.byte	-54
 678 0289 1B       		.byte	27
 679 028a CC       		.byte	-52
 680 028b EC       		.byte	-20
 681 028c CE       		.byte	-50
 682 028d A9       		.byte	-87
 683 028e D0       		.byte	-48
 684 028f 20       		.byte	32
ARM GAS  C:\Users\juano\AppData\Local\Temp\ccgzKRlT.s 			page 13


 685 0290 D6       		.byte	-42
 686 0291 01       		.byte	1
 687 0292 01       		.byte	1
 688 0293 10       		.byte	16
 689 0294 05       		.byte	5
 690 0295 C7       		.byte	-57
 691 0296 09       		.byte	9
 692 0297 C7       		.byte	-57
 693 0298 0A       		.byte	10
 694 0299 04       		.byte	4
 695 029a 0C       		.byte	12
 696 029b 02       		.byte	2
 697 029c 0D       		.byte	13
 698 029d 84       		.byte	-124
 699 029e 0F       		.byte	15
 700 029f 41       		.byte	65
 701 02a0 10       		.byte	16
 702 02a1 01       		.byte	1
 703 02a2 15       		.byte	21
 704 02a3 10       		.byte	16
 705 02a4 1F       		.byte	31
 706 02a5 10       		.byte	16
 707 02a6 21       		.byte	33
 708 02a7 20       		.byte	32
 709 02a8 22       		.byte	34
 710 02a9 08       		.byte	8
 711 02aa 24       		.byte	36
 712 02ab 02       		.byte	2
 713 02ac 25       		.byte	37
 714 02ad 01       		.byte	1
 715 02ae 27       		.byte	39
 716 02af 06       		.byte	6
 717 02b0 28       		.byte	40
 718 02b1 02       		.byte	2
 719 02b2 2D       		.byte	45
 720 02b3 42       		.byte	66
 721 02b4 2E       		.byte	46
 722 02b5 08       		.byte	8
 723 02b6 2F       		.byte	47
 724 02b7 89       		.byte	-119
 725 02b8 30       		.byte	48
 726 02b9 01       		.byte	1
 727 02ba 31       		.byte	49
 728 02bb 08       		.byte	8
 729 02bc 33       		.byte	51
 730 02bd 07       		.byte	7
 731 02be 34       		.byte	52
 732 02bf 02       		.byte	2
 733 02c0 35       		.byte	53
 734 02c1 30       		.byte	48
 735 02c2 36       		.byte	54
 736 02c3 0C       		.byte	12
 737 02c4 37       		.byte	55
 738 02c5 C0       		.byte	-64
 739 02c6 39       		.byte	57
 740 02c7 20       		.byte	32
 741 02c8 3E       		.byte	62
ARM GAS  C:\Users\juano\AppData\Local\Temp\ccgzKRlT.s 			page 14


 742 02c9 41       		.byte	65
 743 02ca 40       		.byte	64
 744 02cb 26       		.byte	38
 745 02cc 41       		.byte	65
 746 02cd 03       		.byte	3
 747 02ce 42       		.byte	66
 748 02cf 04       		.byte	4
 749 02d0 44       		.byte	68
 750 02d1 01       		.byte	1
 751 02d2 47       		.byte	71
 752 02d3 EC       		.byte	-20
 753 02d4 48       		.byte	72
 754 02d5 30       		.byte	48
 755 02d6 49       		.byte	73
 756 02d7 FF       		.byte	-1
 757 02d8 4A       		.byte	74
 758 02d9 FF       		.byte	-1
 759 02da 4B       		.byte	75
 760 02db FF       		.byte	-1
 761 02dc 4C       		.byte	76
 762 02dd 62       		.byte	98
 763 02de 4D       		.byte	77
 764 02df A0       		.byte	-96
 765 02e0 4E       		.byte	78
 766 02e1 F0       		.byte	-16
 767 02e2 4F       		.byte	79
 768 02e3 41       		.byte	65
 769 02e4 50       		.byte	80
 770 02e5 0C       		.byte	12
 771 02e6 58       		.byte	88
 772 02e7 04       		.byte	4
 773 02e8 59       		.byte	89
 774 02e9 04       		.byte	4
 775 02ea 5A       		.byte	90
 776 02eb 04       		.byte	4
 777 02ec 5F       		.byte	95
 778 02ed 01       		.byte	1
 779 02ee 66       		.byte	102
 780 02ef 40       		.byte	64
 781 02f0 67       		.byte	103
 782 02f1 02       		.byte	2
 783 02f2 69       		.byte	105
 784 02f3 10       		.byte	16
 785 02f4 6A       		.byte	106
 786 02f5 30       		.byte	48
 787 02f6 6B       		.byte	107
 788 02f7 10       		.byte	16
 789 02f8 6D       		.byte	109
 790 02f9 10       		.byte	16
 791 02fa 6E       		.byte	110
 792 02fb 10       		.byte	16
 793 02fc 6F       		.byte	111
 794 02fd 12       		.byte	18
 795 02fe 83       		.byte	-125
 796 02ff 08       		.byte	8
 797 0300 91       		.byte	-111
 798 0301 01       		.byte	1
ARM GAS  C:\Users\juano\AppData\Local\Temp\ccgzKRlT.s 			page 15


 799 0302 93       		.byte	-109
 800 0303 0E       		.byte	14
 801 0304 95       		.byte	-107
 802 0305 01       		.byte	1
 803 0306 97       		.byte	-105
 804 0307 06       		.byte	6
 805 0308 98       		.byte	-104
 806 0309 01       		.byte	1
 807 030a 9B       		.byte	-101
 808 030b 0C       		.byte	12
 809 030c 9D       		.byte	-99
 810 030d 0C       		.byte	12
 811 030e 9F       		.byte	-97
 812 030f 03       		.byte	3
 813 0310 A3       		.byte	-93
 814 0311 03       		.byte	3
 815 0312 B1       		.byte	-79
 816 0313 0F       		.byte	15
 817 0314 B4       		.byte	-76
 818 0315 01       		.byte	1
 819 0316 BB       		.byte	-69
 820 0317 02       		.byte	2
 821 0318 BE       		.byte	-66
 822 0319 10       		.byte	16
 823 031a C0       		.byte	-64
 824 031b 24       		.byte	36
 825 031c C1       		.byte	-63
 826 031d 01       		.byte	1
 827 031e C5       		.byte	-59
 828 031f EE       		.byte	-18
 829 0320 C6       		.byte	-58
 830 0321 CB       		.byte	-53
 831 0322 C8       		.byte	-56
 832 0323 0F       		.byte	15
 833 0324 C9       		.byte	-55
 834 0325 FF       		.byte	-1
 835 0326 CA       		.byte	-54
 836 0327 FF       		.byte	-1
 837 0328 CB       		.byte	-53
 838 0329 FF       		.byte	-1
 839 032a CE       		.byte	-50
 840 032b F0       		.byte	-16
 841 032c CF       		.byte	-49
 842 032d 44       		.byte	68
 843 032e D0       		.byte	-48
 844 032f 0C       		.byte	12
 845 0330 D4       		.byte	-44
 846 0331 01       		.byte	1
 847 0332 D8       		.byte	-40
 848 0333 04       		.byte	4
 849 0334 D9       		.byte	-39
 850 0335 04       		.byte	4
 851 0336 DA       		.byte	-38
 852 0337 04       		.byte	4
 853 0338 DB       		.byte	-37
 854 0339 04       		.byte	4
 855 033a DF       		.byte	-33
ARM GAS  C:\Users\juano\AppData\Local\Temp\ccgzKRlT.s 			page 16


 856 033b 01       		.byte	1
 857 033c E6       		.byte	-26
 858 033d C0       		.byte	-64
 859 033e EA       		.byte	-22
 860 033f 40       		.byte	64
 861 0340 EB       		.byte	-21
 862 0341 02       		.byte	2
 863 0342 00       		.byte	0
 864 0343 20       		.byte	32
 865 0344 01       		.byte	1
 866 0345 40       		.byte	64
 867 0346 02       		.byte	2
 868 0347 04       		.byte	4
 869 0348 0A       		.byte	10
 870 0349 80       		.byte	-128
 871 034a 0F       		.byte	15
 872 034b 08       		.byte	8
 873 034c 10       		.byte	16
 874 034d 02       		.byte	2
 875 034e 11       		.byte	17
 876 034f 14       		.byte	20
 877 0350 12       		.byte	18
 878 0351 80       		.byte	-128
 879 0352 18       		.byte	24
 880 0353 81       		.byte	-127
 881 0354 19       		.byte	25
 882 0355 30       		.byte	48
 883 0356 1E       		.byte	30
 884 0357 08       		.byte	8
 885 0358 20       		.byte	32
 886 0359 20       		.byte	32
 887 035a 21       		.byte	33
 888 035b 40       		.byte	64
 889 035c 22       		.byte	34
 890 035d A0       		.byte	-96
 891 035e 23       		.byte	35
 892 035f 40       		.byte	64
 893 0360 27       		.byte	39
 894 0361 40       		.byte	64
 895 0362 28       		.byte	40
 896 0363 40       		.byte	64
 897 0364 29       		.byte	41
 898 0365 80       		.byte	-128
 899 0366 2A       		.byte	42
 900 0367 04       		.byte	4
 901 0368 2C       		.byte	44
 902 0369 40       		.byte	64
 903 036a 30       		.byte	48
 904 036b 04       		.byte	4
 905 036c 33       		.byte	51
 906 036d 40       		.byte	64
 907 036e 34       		.byte	52
 908 036f 05       		.byte	5
 909 0370 36       		.byte	54
 910 0371 20       		.byte	32
 911 0372 37       		.byte	55
 912 0373 40       		.byte	64
ARM GAS  C:\Users\juano\AppData\Local\Temp\ccgzKRlT.s 			page 17


 913 0374 39       		.byte	57
 914 0375 94       		.byte	-108
 915 0376 3A       		.byte	58
 916 0377 01       		.byte	1
 917 0378 3F       		.byte	63
 918 0379 32       		.byte	50
 919 037a 40       		.byte	64
 920 037b 01       		.byte	1
 921 037c 41       		.byte	65
 922 037d 08       		.byte	8
 923 037e 43       		.byte	67
 924 037f 22       		.byte	34
 925 0380 44       		.byte	68
 926 0381 45       		.byte	69
 927 0382 46       		.byte	70
 928 0383 01       		.byte	1
 929 0384 47       		.byte	71
 930 0385 20       		.byte	32
 931 0386 49       		.byte	73
 932 0387 10       		.byte	16
 933 0388 4F       		.byte	79
 934 0389 09       		.byte	9
 935 038a 50       		.byte	80
 936 038b 04       		.byte	4
 937 038c 52       		.byte	82
 938 038d 02       		.byte	2
 939 038e 57       		.byte	87
 940 038f 90       		.byte	-112
 941 0390 5E       		.byte	94
 942 0391 88       		.byte	-120
 943 0392 5F       		.byte	95
 944 0393 11       		.byte	17
 945 0394 88       		.byte	-120
 946 0395 02       		.byte	2
 947 0396 89       		.byte	-119
 948 0397 84       		.byte	-124
 949 0398 8C       		.byte	-116
 950 0399 40       		.byte	64
 951 039a 91       		.byte	-111
 952 039b 54       		.byte	84
 953 039c 92       		.byte	-110
 954 039d 80       		.byte	-128
 955 039e 94       		.byte	-108
 956 039f 08       		.byte	8
 957 03a0 95       		.byte	-107
 958 03a1 88       		.byte	-120
 959 03a2 97       		.byte	-105
 960 03a3 40       		.byte	64
 961 03a4 98       		.byte	-104
 962 03a5 41       		.byte	65
 963 03a6 9B       		.byte	-101
 964 03a7 20       		.byte	32
 965 03a8 9D       		.byte	-99
 966 03a9 20       		.byte	32
 967 03aa 9F       		.byte	-97
 968 03ab 40       		.byte	64
 969 03ac A1       		.byte	-95
ARM GAS  C:\Users\juano\AppData\Local\Temp\ccgzKRlT.s 			page 18


 970 03ad 08       		.byte	8
 971 03ae A2       		.byte	-94
 972 03af 40       		.byte	64
 973 03b0 A3       		.byte	-93
 974 03b1 23       		.byte	35
 975 03b2 A4       		.byte	-92
 976 03b3 12       		.byte	18
 977 03b4 A6       		.byte	-90
 978 03b5 A2       		.byte	-94
 979 03b6 A7       		.byte	-89
 980 03b7 90       		.byte	-112
 981 03b8 B0       		.byte	-80
 982 03b9 10       		.byte	16
 983 03ba B2       		.byte	-78
 984 03bb 20       		.byte	32
 985 03bc C0       		.byte	-64
 986 03bd 03       		.byte	3
 987 03be C2       		.byte	-62
 988 03bf 48       		.byte	72
 989 03c0 C4       		.byte	-60
 990 03c1 0F       		.byte	15
 991 03c2 CA       		.byte	-54
 992 03c3 8B       		.byte	-117
 993 03c4 CC       		.byte	-52
 994 03c5 FA       		.byte	-6
 995 03c6 CE       		.byte	-50
 996 03c7 8F       		.byte	-113
 997 03c8 D0       		.byte	-48
 998 03c9 BF       		.byte	-65
 999 03ca D2       		.byte	-46
 1000 03cb 04       		.byte	4
 1001 03cc D6       		.byte	-42
 1002 03cd F0       		.byte	-16
 1003 03ce 32       		.byte	50
 1004 03cf 20       		.byte	32
 1005 03d0 CC       		.byte	-52
 1006 03d1 10       		.byte	16
 1007 03d2 A6       		.byte	-90
 1008 03d3 20       		.byte	32
 1009 03d4 A6       		.byte	-90
 1010 03d5 20       		.byte	32
 1011 03d6 86       		.byte	-122
 1012 03d7 20       		.byte	32
 1013 03d8 A6       		.byte	-90
 1014 03d9 20       		.byte	32
 1015 03da E6       		.byte	-26
 1016 03db 40       		.byte	64
 1017 03dc 5D       		.byte	93
 1018 03dd 08       		.byte	8
 1019 03de D6       		.byte	-42
 1020 03df 01       		.byte	1
 1021 03e0 9D       		.byte	-99
 1022 03e1 08       		.byte	8
 1023 03e2 9D       		.byte	-99
 1024 03e3 08       		.byte	8
 1025 03e4 B5       		.byte	-75
 1026 03e5 08       		.byte	8
ARM GAS  C:\Users\juano\AppData\Local\Temp\ccgzKRlT.s 			page 19


 1027 03e6 E8       		.byte	-24
 1028 03e7 02       		.byte	2
 1029 03e8 10       		.byte	16
 1030 03e9 80       		.byte	-128
 1031 03ea 79       		.byte	121
 1032 03eb 80       		.byte	-128
 1033 03ec 88       		.byte	-120
 1034 03ed 80       		.byte	-128
 1035 03ee 8D       		.byte	-115
 1036 03ef 40       		.byte	64
 1037 03f0 C4       		.byte	-60
 1038 03f1 08       		.byte	8
 1039 03f2 DC       		.byte	-36
 1040 03f3 01       		.byte	1
 1041 03f4 E4       		.byte	-28
 1042 03f5 08       		.byte	8
 1043 03f6 E6       		.byte	-26
 1044 03f7 01       		.byte	1
 1045 03f8 00       		.byte	0
 1046 03f9 03       		.byte	3
 1047 03fa 0C       		.byte	12
 1048 03fb 03       		.byte	3
 1049 03fc 10       		.byte	16
 1050 03fd 01       		.byte	1
 1051 03fe 1C       		.byte	28
 1052 03ff 01       		.byte	1
 1053 0400 00       		.byte	0
 1054 0401 03       		.byte	3
 1055 0402 00       		.byte	0
 1056 0403 00       		.byte	0
 1057 0404 00       		.byte	0
 1058 0405 FE       		.byte	-2
 1059 0406 FE       		.byte	-2
 1060 0407 00       		.byte	0
 1061 0408 00       		.byte	0
 1062 0409 00       		.byte	0
 1063 040a 00       		.byte	0
 1064 040b 00       		.byte	0
 1065 040c 80       		.byte	-128
 1066 040d 00       		.byte	0
 1067 040e 40       		.byte	64
 1068 040f 80       		.byte	-128
 1069 0410 80       		.byte	-128
 1070 0411 00       		.byte	0
 1071 0412 80       		.byte	-128
 1072 0413 00       		.byte	0
 1073 0414 00       		.byte	0
 1074 0415 00       		.byte	0
 1075 0416 00       		.byte	0
 1076 0417 00       		.byte	0
 1077 0418 00       		.byte	0
 1078 0419 0B       		.byte	11
 1079 041a 0B       		.byte	11
 1080 041b 00       		.byte	0
 1081 041c 00       		.byte	0
 1082 041d 00       		.byte	0
 1083 041e 00       		.byte	0
ARM GAS  C:\Users\juano\AppData\Local\Temp\ccgzKRlT.s 			page 20


 1084 041f 00       		.byte	0
 1085 0420 00       		.byte	0
 1086 0421 80       		.byte	-128
 1087 0422 80       		.byte	-128
 1088 0423 00       		.byte	0
 1089 0424 80       		.byte	-128
 1090 0425 00       		.byte	0
 1091 0426 01       		.byte	1
 1092 0427 00       		.byte	0
 1093              		.section	.cywolatch,"a",%progbits
 1094              		.align	2
 1095              		.type	cy_meta_wonvl, %object
 1096              		.size	cy_meta_wonvl, 4
 1097              	cy_meta_wonvl:
 1098 0000 BC       		.byte	-68
 1099 0001 90       		.byte	-112
 1100 0002 AC       		.byte	-84
 1101 0003 AF       		.byte	-81
 1102              		.section	.cycustnvl,"a",%progbits
 1103              		.align	2
 1104              		.type	cy_meta_custnvl, %object
 1105              		.size	cy_meta_custnvl, 4
 1106              	cy_meta_custnvl:
 1107 0000 00       		.byte	0
 1108 0001 00       		.byte	0
 1109 0002 40       		.byte	64
 1110 0003 05       		.byte	5
 1111              		.section	.cymeta,"a",%progbits
 1112              		.align	2
 1113              		.type	cy_metadata, %object
 1114              		.size	cy_metadata, 12
 1115              	cy_metadata:
 1116 0000 00       		.byte	0
 1117 0001 01       		.byte	1
 1118 0002 2E       		.byte	46
 1119 0003 16       		.byte	22
 1120 0004 10       		.byte	16
 1121 0005 69       		.byte	105
 1122 0006 00       		.byte	0
 1123 0007 01       		.byte	1
 1124 0008 00       		.byte	0
 1125 0009 00       		.byte	0
 1126 000a 00       		.byte	0
 1127 000b 00       		.byte	0
 1128              		.section	.cyflashprotect,"a",%progbits
 1129              		.align	2
 1130              		.type	cy_meta_flashprotect, %object
 1131              		.size	cy_meta_flashprotect, 256
 1132              	cy_meta_flashprotect:
 1133 0000 00000000 		.space	256
 1133      00000000 
 1133      00000000 
 1133      00000000 
 1133      00000000 
 1134              		.text
 1135              	.Letext0:
 1136              		.file 1 "c:\\program files (x86)\\cypress\\psoc creator\\4.4\\psoc creator\\import\\gnu\\arm\\5.4.
ARM GAS  C:\Users\juano\AppData\Local\Temp\ccgzKRlT.s 			page 21


 1137              		.file 2 "c:\\program files (x86)\\cypress\\psoc creator\\4.4\\psoc creator\\import\\gnu\\arm\\5.4.
 1138              		.file 3 "Generated_Source\\PSoC5\\cymetadata.c"
