ARM GAS  C:\Users\juano\AppData\Local\Temp\ccf9I4YO.s 			page 1


   1              		.syntax unified
   2              		.cpu cortex-m3
   3              		.fpu softvfp
   4              		.eabi_attribute 20, 1
   5              		.eabi_attribute 21, 1
   6              		.eabi_attribute 23, 3
   7              		.eabi_attribute 24, 1
   8              		.eabi_attribute 25, 1
   9              		.eabi_attribute 26, 1
  10              		.eabi_attribute 30, 1
  11              		.eabi_attribute 34, 1
  12              		.eabi_attribute 18, 4
  13              		.thumb
  14              		.syntax unified
  15              		.file	"LCD.c"
  16              		.text
  17              	.Ltext0:
  18              		.cfi_sections	.debug_frame
  19              		.section	.text.LCD_WrCntrlNib,"ax",%progbits
  20              		.align	2
  21              		.thumb
  22              		.thumb_func
  23              		.type	LCD_WrCntrlNib, %function
  24              	LCD_WrCntrlNib:
  25              	.LFB11:
  26              		.file 1 "Generated_Source\\PSoC5\\LCD.c"
   1:Generated_Source\PSoC5/LCD.c **** /*******************************************************************************
   2:Generated_Source\PSoC5/LCD.c **** * File Name: LCD.c
   3:Generated_Source\PSoC5/LCD.c **** * Version 2.20
   4:Generated_Source\PSoC5/LCD.c **** *
   5:Generated_Source\PSoC5/LCD.c **** * Description:
   6:Generated_Source\PSoC5/LCD.c **** *  This file provides source code for the Character LCD component's API.
   7:Generated_Source\PSoC5/LCD.c **** *
   8:Generated_Source\PSoC5/LCD.c **** * Note:
   9:Generated_Source\PSoC5/LCD.c **** *
  10:Generated_Source\PSoC5/LCD.c **** ********************************************************************************
  11:Generated_Source\PSoC5/LCD.c **** * Copyright 2008-2014, Cypress Semiconductor Corporation.  All rights reserved.
  12:Generated_Source\PSoC5/LCD.c **** * You may use this file only in accordance with the license, terms, conditions,
  13:Generated_Source\PSoC5/LCD.c **** * disclaimers, and limitations in the end user license agreement accompanying
  14:Generated_Source\PSoC5/LCD.c **** * the software package with which this file was provided.
  15:Generated_Source\PSoC5/LCD.c **** *******************************************************************************/
  16:Generated_Source\PSoC5/LCD.c **** 
  17:Generated_Source\PSoC5/LCD.c **** #include "CyLib.h"
  18:Generated_Source\PSoC5/LCD.c **** #include "LCD.h"
  19:Generated_Source\PSoC5/LCD.c **** 
  20:Generated_Source\PSoC5/LCD.c **** 
  21:Generated_Source\PSoC5/LCD.c **** static void LCD_WrDatNib(uint8 nibble) ;
  22:Generated_Source\PSoC5/LCD.c **** static void LCD_WrCntrlNib(uint8 nibble) ;
  23:Generated_Source\PSoC5/LCD.c **** 
  24:Generated_Source\PSoC5/LCD.c **** /* Stores state of component. Indicates whether component is or not
  25:Generated_Source\PSoC5/LCD.c **** * in enable state.
  26:Generated_Source\PSoC5/LCD.c **** */
  27:Generated_Source\PSoC5/LCD.c **** uint8 LCD_enableState = 0u;
  28:Generated_Source\PSoC5/LCD.c **** 
  29:Generated_Source\PSoC5/LCD.c **** uint8 LCD_initVar = 0u;
  30:Generated_Source\PSoC5/LCD.c **** 
  31:Generated_Source\PSoC5/LCD.c **** 
ARM GAS  C:\Users\juano\AppData\Local\Temp\ccf9I4YO.s 			page 2


  32:Generated_Source\PSoC5/LCD.c **** /*******************************************************************************
  33:Generated_Source\PSoC5/LCD.c **** * Function Name: LCD_Init
  34:Generated_Source\PSoC5/LCD.c **** ********************************************************************************
  35:Generated_Source\PSoC5/LCD.c **** *
  36:Generated_Source\PSoC5/LCD.c **** * Summary:
  37:Generated_Source\PSoC5/LCD.c **** *  Performs initialization required for the components normal work.
  38:Generated_Source\PSoC5/LCD.c **** *  This function initializes the LCD hardware module as follows:
  39:Generated_Source\PSoC5/LCD.c **** *        Enables a 4-bit interface
  40:Generated_Source\PSoC5/LCD.c **** *        Clears the display
  41:Generated_Source\PSoC5/LCD.c **** *        Enables the auto cursor increment
  42:Generated_Source\PSoC5/LCD.c **** *        Resets the cursor to start position
  43:Generated_Source\PSoC5/LCD.c **** *  Also, it loads a custom character set to the LCD if it was defined in the customizer.
  44:Generated_Source\PSoC5/LCD.c **** *
  45:Generated_Source\PSoC5/LCD.c **** * Parameters:
  46:Generated_Source\PSoC5/LCD.c **** *  None.
  47:Generated_Source\PSoC5/LCD.c **** *
  48:Generated_Source\PSoC5/LCD.c **** * Return:
  49:Generated_Source\PSoC5/LCD.c **** *  None.
  50:Generated_Source\PSoC5/LCD.c **** *
  51:Generated_Source\PSoC5/LCD.c **** * Reentrant:
  52:Generated_Source\PSoC5/LCD.c **** *  No.
  53:Generated_Source\PSoC5/LCD.c **** *
  54:Generated_Source\PSoC5/LCD.c **** *******************************************************************************/
  55:Generated_Source\PSoC5/LCD.c **** void LCD_Init(void) 
  56:Generated_Source\PSoC5/LCD.c **** {
  57:Generated_Source\PSoC5/LCD.c ****     /* INIT CODE */
  58:Generated_Source\PSoC5/LCD.c ****     CyDelay(40u);                                                        /* Delay 40 ms */
  59:Generated_Source\PSoC5/LCD.c ****     LCD_WrCntrlNib(LCD_DISPLAY_8_BIT_INIT);    /* Selects 8-bit mode */
  60:Generated_Source\PSoC5/LCD.c ****     CyDelay(5u);                                                         /* Delay 5 ms */
  61:Generated_Source\PSoC5/LCD.c ****     LCD_WrCntrlNib(LCD_DISPLAY_8_BIT_INIT);    /* Selects 8-bit mode */
  62:Generated_Source\PSoC5/LCD.c ****     CyDelay(15u);                                                        /* Delay 15 ms */
  63:Generated_Source\PSoC5/LCD.c ****     LCD_WrCntrlNib(LCD_DISPLAY_8_BIT_INIT);    /* Selects 8-bit mode */
  64:Generated_Source\PSoC5/LCD.c ****     CyDelay(1u);                                                         /* Delay 1 ms */
  65:Generated_Source\PSoC5/LCD.c ****     LCD_WrCntrlNib(LCD_DISPLAY_4_BIT_INIT);    /* Selects 4-bit mode */
  66:Generated_Source\PSoC5/LCD.c ****     CyDelay(5u);                                                         /* Delay 5 ms */
  67:Generated_Source\PSoC5/LCD.c **** 
  68:Generated_Source\PSoC5/LCD.c ****     LCD_WriteControl(LCD_CURSOR_AUTO_INCR_ON);    /* Incr Cursor After Writes */
  69:Generated_Source\PSoC5/LCD.c ****     LCD_WriteControl(LCD_DISPLAY_CURSOR_ON);      /* Turn Display, Cursor ON */
  70:Generated_Source\PSoC5/LCD.c ****     LCD_WriteControl(LCD_DISPLAY_2_LINES_5x10);   /* 2 Lines by 5x10 Characters */
  71:Generated_Source\PSoC5/LCD.c ****     LCD_WriteControl(LCD_DISPLAY_CURSOR_OFF);     /* Turn Display, Cursor OFF */
  72:Generated_Source\PSoC5/LCD.c ****     LCD_WriteControl(LCD_CLEAR_DISPLAY);          /* Clear LCD Screen */
  73:Generated_Source\PSoC5/LCD.c ****     LCD_WriteControl(LCD_DISPLAY_ON_CURSOR_OFF);  /* Turn Display ON, Cursor OFF */
  74:Generated_Source\PSoC5/LCD.c ****     LCD_WriteControl(LCD_RESET_CURSOR_POSITION);  /* Set Cursor to 0,0 */
  75:Generated_Source\PSoC5/LCD.c ****     CyDelay(5u);
  76:Generated_Source\PSoC5/LCD.c **** 
  77:Generated_Source\PSoC5/LCD.c ****     #if(LCD_CUSTOM_CHAR_SET != LCD_NONE)
  78:Generated_Source\PSoC5/LCD.c ****         LCD_LoadCustomFonts(LCD_customFonts);
  79:Generated_Source\PSoC5/LCD.c ****     #endif /* LCD_CUSTOM_CHAR_SET != LCD_NONE */
  80:Generated_Source\PSoC5/LCD.c **** }
  81:Generated_Source\PSoC5/LCD.c **** 
  82:Generated_Source\PSoC5/LCD.c **** 
  83:Generated_Source\PSoC5/LCD.c **** /*******************************************************************************
  84:Generated_Source\PSoC5/LCD.c **** * Function Name: LCD_Enable
  85:Generated_Source\PSoC5/LCD.c **** ********************************************************************************
  86:Generated_Source\PSoC5/LCD.c **** *
  87:Generated_Source\PSoC5/LCD.c **** * Summary:
  88:Generated_Source\PSoC5/LCD.c **** *  Turns on the display.
ARM GAS  C:\Users\juano\AppData\Local\Temp\ccf9I4YO.s 			page 3


  89:Generated_Source\PSoC5/LCD.c **** *
  90:Generated_Source\PSoC5/LCD.c **** * Parameters:
  91:Generated_Source\PSoC5/LCD.c **** *  None.
  92:Generated_Source\PSoC5/LCD.c **** *
  93:Generated_Source\PSoC5/LCD.c **** * Return:
  94:Generated_Source\PSoC5/LCD.c **** *  None.
  95:Generated_Source\PSoC5/LCD.c **** *
  96:Generated_Source\PSoC5/LCD.c **** * Reentrant:
  97:Generated_Source\PSoC5/LCD.c **** *  No.
  98:Generated_Source\PSoC5/LCD.c **** *
  99:Generated_Source\PSoC5/LCD.c **** * Theory:
 100:Generated_Source\PSoC5/LCD.c **** *  This function has no effect when it is called the first time as
 101:Generated_Source\PSoC5/LCD.c **** *  LCD_Init() turns on the LCD.
 102:Generated_Source\PSoC5/LCD.c **** *
 103:Generated_Source\PSoC5/LCD.c **** *******************************************************************************/
 104:Generated_Source\PSoC5/LCD.c **** void LCD_Enable(void) 
 105:Generated_Source\PSoC5/LCD.c **** {
 106:Generated_Source\PSoC5/LCD.c ****     LCD_DisplayOn();
 107:Generated_Source\PSoC5/LCD.c ****     LCD_enableState = 1u;
 108:Generated_Source\PSoC5/LCD.c **** }
 109:Generated_Source\PSoC5/LCD.c **** 
 110:Generated_Source\PSoC5/LCD.c **** 
 111:Generated_Source\PSoC5/LCD.c **** /*******************************************************************************
 112:Generated_Source\PSoC5/LCD.c **** * Function Name: LCD_Start
 113:Generated_Source\PSoC5/LCD.c **** ********************************************************************************
 114:Generated_Source\PSoC5/LCD.c **** *
 115:Generated_Source\PSoC5/LCD.c **** * Summary:
 116:Generated_Source\PSoC5/LCD.c **** *  Performs initialization required for the components normal work.
 117:Generated_Source\PSoC5/LCD.c **** *  This function initializes the LCD hardware module as follows:
 118:Generated_Source\PSoC5/LCD.c **** *        Enables 4-bit interface
 119:Generated_Source\PSoC5/LCD.c **** *        Clears the display
 120:Generated_Source\PSoC5/LCD.c **** *        Enables auto cursor increment
 121:Generated_Source\PSoC5/LCD.c **** *        Resets the cursor to start position
 122:Generated_Source\PSoC5/LCD.c **** *  Also, it loads a custom character set to the LCD if it was defined in the customizer.
 123:Generated_Source\PSoC5/LCD.c **** *  If it was not the first call in this project, then it just turns on the
 124:Generated_Source\PSoC5/LCD.c **** *  display
 125:Generated_Source\PSoC5/LCD.c **** *
 126:Generated_Source\PSoC5/LCD.c **** *
 127:Generated_Source\PSoC5/LCD.c **** * Parameters:
 128:Generated_Source\PSoC5/LCD.c **** *  LCD_initVar - global variable.
 129:Generated_Source\PSoC5/LCD.c **** *
 130:Generated_Source\PSoC5/LCD.c **** * Return:
 131:Generated_Source\PSoC5/LCD.c **** *  LCD_initVar - global variable.
 132:Generated_Source\PSoC5/LCD.c **** *
 133:Generated_Source\PSoC5/LCD.c **** * Reentrant:
 134:Generated_Source\PSoC5/LCD.c **** *  No.
 135:Generated_Source\PSoC5/LCD.c **** *
 136:Generated_Source\PSoC5/LCD.c **** *******************************************************************************/
 137:Generated_Source\PSoC5/LCD.c **** void LCD_Start(void) 
 138:Generated_Source\PSoC5/LCD.c **** {
 139:Generated_Source\PSoC5/LCD.c ****     /* If not initialized, perform initialization */
 140:Generated_Source\PSoC5/LCD.c ****     if(LCD_initVar == 0u)
 141:Generated_Source\PSoC5/LCD.c ****     {
 142:Generated_Source\PSoC5/LCD.c ****         LCD_Init();
 143:Generated_Source\PSoC5/LCD.c ****         LCD_initVar = 1u;
 144:Generated_Source\PSoC5/LCD.c ****     }
 145:Generated_Source\PSoC5/LCD.c **** 
ARM GAS  C:\Users\juano\AppData\Local\Temp\ccf9I4YO.s 			page 4


 146:Generated_Source\PSoC5/LCD.c ****     /* Turn on the LCD */
 147:Generated_Source\PSoC5/LCD.c ****     LCD_Enable();
 148:Generated_Source\PSoC5/LCD.c **** }
 149:Generated_Source\PSoC5/LCD.c **** 
 150:Generated_Source\PSoC5/LCD.c **** 
 151:Generated_Source\PSoC5/LCD.c **** /*******************************************************************************
 152:Generated_Source\PSoC5/LCD.c **** * Function Name: LCD_Stop
 153:Generated_Source\PSoC5/LCD.c **** ********************************************************************************
 154:Generated_Source\PSoC5/LCD.c **** *
 155:Generated_Source\PSoC5/LCD.c **** * Summary:
 156:Generated_Source\PSoC5/LCD.c **** *  Turns off the display of the LCD screen.
 157:Generated_Source\PSoC5/LCD.c **** *
 158:Generated_Source\PSoC5/LCD.c **** * Parameters:
 159:Generated_Source\PSoC5/LCD.c **** *  None.
 160:Generated_Source\PSoC5/LCD.c **** *
 161:Generated_Source\PSoC5/LCD.c **** * Return:
 162:Generated_Source\PSoC5/LCD.c **** *  None.
 163:Generated_Source\PSoC5/LCD.c **** *
 164:Generated_Source\PSoC5/LCD.c **** * Reentrant:
 165:Generated_Source\PSoC5/LCD.c **** *  No.
 166:Generated_Source\PSoC5/LCD.c **** *
 167:Generated_Source\PSoC5/LCD.c **** *******************************************************************************/
 168:Generated_Source\PSoC5/LCD.c **** void LCD_Stop(void) 
 169:Generated_Source\PSoC5/LCD.c **** {
 170:Generated_Source\PSoC5/LCD.c ****     /* Calls LCD Off Macro */
 171:Generated_Source\PSoC5/LCD.c ****     LCD_DisplayOff();
 172:Generated_Source\PSoC5/LCD.c ****     LCD_enableState = 0u;
 173:Generated_Source\PSoC5/LCD.c **** }
 174:Generated_Source\PSoC5/LCD.c **** 
 175:Generated_Source\PSoC5/LCD.c **** 
 176:Generated_Source\PSoC5/LCD.c **** /*******************************************************************************
 177:Generated_Source\PSoC5/LCD.c **** *  Function Name: LCD_Position
 178:Generated_Source\PSoC5/LCD.c **** ********************************************************************************
 179:Generated_Source\PSoC5/LCD.c **** *
 180:Generated_Source\PSoC5/LCD.c **** * Summary:
 181:Generated_Source\PSoC5/LCD.c **** *  Moves the active cursor location to a point specified by the input arguments
 182:Generated_Source\PSoC5/LCD.c **** *
 183:Generated_Source\PSoC5/LCD.c **** * Parameters:
 184:Generated_Source\PSoC5/LCD.c **** *  row:    Specific row of LCD module to be written
 185:Generated_Source\PSoC5/LCD.c **** *  column: Column of LCD module to be written
 186:Generated_Source\PSoC5/LCD.c **** *
 187:Generated_Source\PSoC5/LCD.c **** * Return:
 188:Generated_Source\PSoC5/LCD.c **** *  None.
 189:Generated_Source\PSoC5/LCD.c **** *
 190:Generated_Source\PSoC5/LCD.c **** * Note:
 191:Generated_Source\PSoC5/LCD.c **** *  This only applies for LCD displays that use the 2X40 address mode.
 192:Generated_Source\PSoC5/LCD.c **** *  In this case Row 2 starts with a 0x28 offset from Row 1.
 193:Generated_Source\PSoC5/LCD.c **** *  When there are more than 2 rows, each row must be fewer than 20 characters.
 194:Generated_Source\PSoC5/LCD.c **** *
 195:Generated_Source\PSoC5/LCD.c **** *******************************************************************************/
 196:Generated_Source\PSoC5/LCD.c **** void LCD_Position(uint8 row, uint8 column) 
 197:Generated_Source\PSoC5/LCD.c **** {
 198:Generated_Source\PSoC5/LCD.c ****     switch (row)
 199:Generated_Source\PSoC5/LCD.c ****     {
 200:Generated_Source\PSoC5/LCD.c ****         case (uint8)0:
 201:Generated_Source\PSoC5/LCD.c ****             LCD_WriteControl(LCD_ROW_0_START + column);
 202:Generated_Source\PSoC5/LCD.c ****             break;
ARM GAS  C:\Users\juano\AppData\Local\Temp\ccf9I4YO.s 			page 5


 203:Generated_Source\PSoC5/LCD.c ****         case (uint8) 1:
 204:Generated_Source\PSoC5/LCD.c ****             LCD_WriteControl(LCD_ROW_1_START + column);
 205:Generated_Source\PSoC5/LCD.c ****             break;
 206:Generated_Source\PSoC5/LCD.c ****         case (uint8) 2:
 207:Generated_Source\PSoC5/LCD.c ****             LCD_WriteControl(LCD_ROW_2_START + column);
 208:Generated_Source\PSoC5/LCD.c ****             break;
 209:Generated_Source\PSoC5/LCD.c ****         case (uint8) 3:
 210:Generated_Source\PSoC5/LCD.c ****             LCD_WriteControl(LCD_ROW_3_START + column);
 211:Generated_Source\PSoC5/LCD.c ****             break;
 212:Generated_Source\PSoC5/LCD.c ****         default:
 213:Generated_Source\PSoC5/LCD.c ****             /* if default case is hit, invalid row argument was passed.*/
 214:Generated_Source\PSoC5/LCD.c ****             break;
 215:Generated_Source\PSoC5/LCD.c ****     }
 216:Generated_Source\PSoC5/LCD.c **** }
 217:Generated_Source\PSoC5/LCD.c **** 
 218:Generated_Source\PSoC5/LCD.c **** 
 219:Generated_Source\PSoC5/LCD.c **** /*******************************************************************************
 220:Generated_Source\PSoC5/LCD.c **** * Function Name: LCD_PrintString
 221:Generated_Source\PSoC5/LCD.c **** ********************************************************************************
 222:Generated_Source\PSoC5/LCD.c **** *
 223:Generated_Source\PSoC5/LCD.c **** * Summary:
 224:Generated_Source\PSoC5/LCD.c **** *  Writes a zero terminated string to the LCD.
 225:Generated_Source\PSoC5/LCD.c **** *
 226:Generated_Source\PSoC5/LCD.c **** * Parameters:
 227:Generated_Source\PSoC5/LCD.c **** *  string: Pointer to head of char8 array to be written to the LCD module
 228:Generated_Source\PSoC5/LCD.c **** *
 229:Generated_Source\PSoC5/LCD.c **** * Return:
 230:Generated_Source\PSoC5/LCD.c **** *  None.
 231:Generated_Source\PSoC5/LCD.c **** *
 232:Generated_Source\PSoC5/LCD.c **** *******************************************************************************/
 233:Generated_Source\PSoC5/LCD.c **** void LCD_PrintString(char8 const string[]) 
 234:Generated_Source\PSoC5/LCD.c **** {
 235:Generated_Source\PSoC5/LCD.c ****     uint8 indexU8 = 1u;
 236:Generated_Source\PSoC5/LCD.c ****     char8 current = *string;
 237:Generated_Source\PSoC5/LCD.c **** 
 238:Generated_Source\PSoC5/LCD.c ****     /* Until null is reached, print next character */
 239:Generated_Source\PSoC5/LCD.c ****     while((char8) '\0' != current)
 240:Generated_Source\PSoC5/LCD.c ****     {
 241:Generated_Source\PSoC5/LCD.c ****         LCD_WriteData((uint8)current);
 242:Generated_Source\PSoC5/LCD.c ****         current = string[indexU8];
 243:Generated_Source\PSoC5/LCD.c ****         indexU8++;
 244:Generated_Source\PSoC5/LCD.c ****     }
 245:Generated_Source\PSoC5/LCD.c **** }
 246:Generated_Source\PSoC5/LCD.c **** 
 247:Generated_Source\PSoC5/LCD.c **** 
 248:Generated_Source\PSoC5/LCD.c **** /*******************************************************************************
 249:Generated_Source\PSoC5/LCD.c **** *  Function Name: LCD_PutChar
 250:Generated_Source\PSoC5/LCD.c **** ********************************************************************************
 251:Generated_Source\PSoC5/LCD.c **** *
 252:Generated_Source\PSoC5/LCD.c **** * Summary:
 253:Generated_Source\PSoC5/LCD.c **** *  Writes a single character to the current cursor position of the LCD module.
 254:Generated_Source\PSoC5/LCD.c **** *  Custom character names (_CUSTOM_0 through
 255:Generated_Source\PSoC5/LCD.c **** *  _CUSTOM_7) are acceptable as inputs.
 256:Generated_Source\PSoC5/LCD.c **** *
 257:Generated_Source\PSoC5/LCD.c **** * Parameters:
 258:Generated_Source\PSoC5/LCD.c **** *  character: Character to be written to LCD
 259:Generated_Source\PSoC5/LCD.c **** *
ARM GAS  C:\Users\juano\AppData\Local\Temp\ccf9I4YO.s 			page 6


 260:Generated_Source\PSoC5/LCD.c **** * Return:
 261:Generated_Source\PSoC5/LCD.c **** *  None.
 262:Generated_Source\PSoC5/LCD.c **** *
 263:Generated_Source\PSoC5/LCD.c **** *******************************************************************************/
 264:Generated_Source\PSoC5/LCD.c **** void LCD_PutChar(char8 character) 
 265:Generated_Source\PSoC5/LCD.c **** {
 266:Generated_Source\PSoC5/LCD.c ****     LCD_WriteData((uint8)character);
 267:Generated_Source\PSoC5/LCD.c **** }
 268:Generated_Source\PSoC5/LCD.c **** 
 269:Generated_Source\PSoC5/LCD.c **** 
 270:Generated_Source\PSoC5/LCD.c **** /*******************************************************************************
 271:Generated_Source\PSoC5/LCD.c **** *  Function Name: LCD_WriteData
 272:Generated_Source\PSoC5/LCD.c **** ********************************************************************************
 273:Generated_Source\PSoC5/LCD.c **** *
 274:Generated_Source\PSoC5/LCD.c **** * Summary:
 275:Generated_Source\PSoC5/LCD.c **** *  Writes a data byte to the LCD module's Data Display RAM.
 276:Generated_Source\PSoC5/LCD.c **** *
 277:Generated_Source\PSoC5/LCD.c **** * Parameters:
 278:Generated_Source\PSoC5/LCD.c **** *  dByte: Byte to be written to the LCD module
 279:Generated_Source\PSoC5/LCD.c **** *
 280:Generated_Source\PSoC5/LCD.c **** * Return:
 281:Generated_Source\PSoC5/LCD.c **** *  None.
 282:Generated_Source\PSoC5/LCD.c **** *
 283:Generated_Source\PSoC5/LCD.c **** *******************************************************************************/
 284:Generated_Source\PSoC5/LCD.c **** void LCD_WriteData(uint8 dByte) 
 285:Generated_Source\PSoC5/LCD.c **** {
 286:Generated_Source\PSoC5/LCD.c ****     uint8 nibble;
 287:Generated_Source\PSoC5/LCD.c **** 
 288:Generated_Source\PSoC5/LCD.c ****     LCD_IsReady();
 289:Generated_Source\PSoC5/LCD.c ****     nibble = dByte >> LCD_NIBBLE_SHIFT;
 290:Generated_Source\PSoC5/LCD.c **** 
 291:Generated_Source\PSoC5/LCD.c ****     /* Write high nibble */
 292:Generated_Source\PSoC5/LCD.c ****     LCD_WrDatNib(nibble);
 293:Generated_Source\PSoC5/LCD.c **** 
 294:Generated_Source\PSoC5/LCD.c ****     nibble = dByte & LCD_NIBBLE_MASK;
 295:Generated_Source\PSoC5/LCD.c ****     /* Write low nibble */
 296:Generated_Source\PSoC5/LCD.c ****     LCD_WrDatNib(nibble);
 297:Generated_Source\PSoC5/LCD.c **** }
 298:Generated_Source\PSoC5/LCD.c **** 
 299:Generated_Source\PSoC5/LCD.c **** 
 300:Generated_Source\PSoC5/LCD.c **** /*******************************************************************************
 301:Generated_Source\PSoC5/LCD.c **** *  Function Name: LCD_WriteControl
 302:Generated_Source\PSoC5/LCD.c **** ********************************************************************************
 303:Generated_Source\PSoC5/LCD.c **** *
 304:Generated_Source\PSoC5/LCD.c **** * Summary:
 305:Generated_Source\PSoC5/LCD.c **** *  Writes a command byte to the LCD module.
 306:Generated_Source\PSoC5/LCD.c **** *
 307:Generated_Source\PSoC5/LCD.c **** * Parameters:
 308:Generated_Source\PSoC5/LCD.c **** *  cByte:  The byte to be written to theLCD module
 309:Generated_Source\PSoC5/LCD.c **** * 
 310:Generated_Source\PSoC5/LCD.c **** * Return:
 311:Generated_Source\PSoC5/LCD.c **** *  None.
 312:Generated_Source\PSoC5/LCD.c **** *
 313:Generated_Source\PSoC5/LCD.c **** *******************************************************************************/
 314:Generated_Source\PSoC5/LCD.c **** void LCD_WriteControl(uint8 cByte) 
 315:Generated_Source\PSoC5/LCD.c **** {
 316:Generated_Source\PSoC5/LCD.c ****     uint8 nibble;
ARM GAS  C:\Users\juano\AppData\Local\Temp\ccf9I4YO.s 			page 7


 317:Generated_Source\PSoC5/LCD.c **** 
 318:Generated_Source\PSoC5/LCD.c ****     LCD_IsReady();
 319:Generated_Source\PSoC5/LCD.c **** 
 320:Generated_Source\PSoC5/LCD.c ****     nibble = cByte >> LCD_NIBBLE_SHIFT;
 321:Generated_Source\PSoC5/LCD.c ****     
 322:Generated_Source\PSoC5/LCD.c ****     /* WrCntrlNib(High Nibble) */
 323:Generated_Source\PSoC5/LCD.c ****     LCD_WrCntrlNib(nibble);
 324:Generated_Source\PSoC5/LCD.c ****     nibble = cByte & LCD_NIBBLE_MASK;
 325:Generated_Source\PSoC5/LCD.c **** 
 326:Generated_Source\PSoC5/LCD.c ****     /* WrCntrlNib(Low Nibble) */
 327:Generated_Source\PSoC5/LCD.c ****     LCD_WrCntrlNib(nibble);
 328:Generated_Source\PSoC5/LCD.c **** }
 329:Generated_Source\PSoC5/LCD.c **** 
 330:Generated_Source\PSoC5/LCD.c **** 
 331:Generated_Source\PSoC5/LCD.c **** /*******************************************************************************
 332:Generated_Source\PSoC5/LCD.c **** * Function Name: LCD_IsReady
 333:Generated_Source\PSoC5/LCD.c **** ********************************************************************************
 334:Generated_Source\PSoC5/LCD.c **** *
 335:Generated_Source\PSoC5/LCD.c **** * Summary:
 336:Generated_Source\PSoC5/LCD.c **** *  Polls the LCD until the ready bit is set or a timeout occurs.
 337:Generated_Source\PSoC5/LCD.c **** *
 338:Generated_Source\PSoC5/LCD.c **** * Parameters:
 339:Generated_Source\PSoC5/LCD.c **** *  None.
 340:Generated_Source\PSoC5/LCD.c **** *
 341:Generated_Source\PSoC5/LCD.c **** * Return:
 342:Generated_Source\PSoC5/LCD.c **** *  None.
 343:Generated_Source\PSoC5/LCD.c **** *
 344:Generated_Source\PSoC5/LCD.c **** * Note:
 345:Generated_Source\PSoC5/LCD.c **** *  Changes the pins to High-Z.
 346:Generated_Source\PSoC5/LCD.c **** *
 347:Generated_Source\PSoC5/LCD.c **** *******************************************************************************/
 348:Generated_Source\PSoC5/LCD.c **** void LCD_IsReady(void) 
 349:Generated_Source\PSoC5/LCD.c **** {
 350:Generated_Source\PSoC5/LCD.c ****     uint8 value;
 351:Generated_Source\PSoC5/LCD.c ****     uint32 timeout;
 352:Generated_Source\PSoC5/LCD.c ****     timeout = LCD_READY_DELAY;
 353:Generated_Source\PSoC5/LCD.c **** 
 354:Generated_Source\PSoC5/LCD.c ****     /* Clear LCD port*/
 355:Generated_Source\PSoC5/LCD.c ****     LCD_PORT_DR_REG &= ((uint8)(~LCD_PORT_MASK));
 356:Generated_Source\PSoC5/LCD.c **** 
 357:Generated_Source\PSoC5/LCD.c ****     /* PSoC4 has a little different from PSoC3/5 port/pin organization for setting Drive Modes.
 358:Generated_Source\PSoC5/LCD.c ****   
 359:Generated_Source\PSoC5/LCD.c ****     */
 360:Generated_Source\PSoC5/LCD.c ****     #if (CY_PSOC4)
 361:Generated_Source\PSoC5/LCD.c ****         
 362:Generated_Source\PSoC5/LCD.c ****         /* Mask off data pins to clear old values out */
 363:Generated_Source\PSoC5/LCD.c ****         value = LCD_PORT_PC_REG & ((uint32) (~ LCD_DM_DATA_MASK));
 364:Generated_Source\PSoC5/LCD.c ****         /* Load in high Z values for data pins, others unchanged */
 365:Generated_Source\PSoC5/LCD.c ****         LCD_PORT_PC_REG = value | LCD_HIGH_Z_DATA_DM;
 366:Generated_Source\PSoC5/LCD.c **** 
 367:Generated_Source\PSoC5/LCD.c ****     #else
 368:Generated_Source\PSoC5/LCD.c ****     
 369:Generated_Source\PSoC5/LCD.c ****         /* Change Port to High-Z Status on data pins */
 370:Generated_Source\PSoC5/LCD.c **** 
 371:Generated_Source\PSoC5/LCD.c ****         /* Mask off data pins to clear old values out */
 372:Generated_Source\PSoC5/LCD.c ****         value = LCD_PORT_DM0_REG & ((uint8)(~LCD_DATA_MASK));
 373:Generated_Source\PSoC5/LCD.c ****         /* Load in high Z values for data pins, others unchanged */
ARM GAS  C:\Users\juano\AppData\Local\Temp\ccf9I4YO.s 			page 8


 374:Generated_Source\PSoC5/LCD.c ****         LCD_PORT_DM0_REG = value | (LCD_HIGH_Z_DM0 & LCD_DATA_MASK);
 375:Generated_Source\PSoC5/LCD.c **** 
 376:Generated_Source\PSoC5/LCD.c ****         /* Mask off data pins to clear old values out */
 377:Generated_Source\PSoC5/LCD.c ****         value = LCD_PORT_DM1_REG & ((uint8)(~LCD_DATA_MASK));
 378:Generated_Source\PSoC5/LCD.c ****         /* Load in high Z values for data pins, others unchanged */
 379:Generated_Source\PSoC5/LCD.c ****         LCD_PORT_DM1_REG = value;
 380:Generated_Source\PSoC5/LCD.c **** 
 381:Generated_Source\PSoC5/LCD.c ****         /* Mask off data pins to clear old values out */
 382:Generated_Source\PSoC5/LCD.c ****         value = LCD_PORT_DM2_REG & ((uint8)(~LCD_DATA_MASK));
 383:Generated_Source\PSoC5/LCD.c ****         /* Load in high Z values for data pins, others unchanged */
 384:Generated_Source\PSoC5/LCD.c ****         LCD_PORT_DM2_REG = value;
 385:Generated_Source\PSoC5/LCD.c ****     
 386:Generated_Source\PSoC5/LCD.c ****     #endif /* CY_PSOC4 */
 387:Generated_Source\PSoC5/LCD.c ****     
 388:Generated_Source\PSoC5/LCD.c ****     /* Make sure RS is low */
 389:Generated_Source\PSoC5/LCD.c ****     LCD_PORT_DR_REG &= ((uint8)(~LCD_RS));
 390:Generated_Source\PSoC5/LCD.c **** 
 391:Generated_Source\PSoC5/LCD.c ****     /* Set R/W high to read */
 392:Generated_Source\PSoC5/LCD.c ****     LCD_PORT_DR_REG |= LCD_RW;
 393:Generated_Source\PSoC5/LCD.c **** 
 394:Generated_Source\PSoC5/LCD.c ****     do
 395:Generated_Source\PSoC5/LCD.c ****     {
 396:Generated_Source\PSoC5/LCD.c ****         /* 40 ns delay required before rising Enable and 500ns between neighbour Enables */
 397:Generated_Source\PSoC5/LCD.c ****         CyDelayUs(0u);
 398:Generated_Source\PSoC5/LCD.c **** 
 399:Generated_Source\PSoC5/LCD.c ****         /* Set E high */
 400:Generated_Source\PSoC5/LCD.c ****         LCD_PORT_DR_REG |= LCD_E;
 401:Generated_Source\PSoC5/LCD.c **** 
 402:Generated_Source\PSoC5/LCD.c ****         /* 360 ns delay setup time for data pins */
 403:Generated_Source\PSoC5/LCD.c ****         CyDelayUs(1u);
 404:Generated_Source\PSoC5/LCD.c **** 
 405:Generated_Source\PSoC5/LCD.c ****         /* Get port state */
 406:Generated_Source\PSoC5/LCD.c ****         value = LCD_PORT_PS_REG;
 407:Generated_Source\PSoC5/LCD.c **** 
 408:Generated_Source\PSoC5/LCD.c ****         /* Set enable low */
 409:Generated_Source\PSoC5/LCD.c ****         LCD_PORT_DR_REG &= ((uint8)(~LCD_E));
 410:Generated_Source\PSoC5/LCD.c **** 
 411:Generated_Source\PSoC5/LCD.c ****         /* This gives true delay between disabling Enable bit and polling Ready bit */
 412:Generated_Source\PSoC5/LCD.c ****         CyDelayUs(0u);
 413:Generated_Source\PSoC5/LCD.c **** 
 414:Generated_Source\PSoC5/LCD.c ****         /* Extract ready bit */
 415:Generated_Source\PSoC5/LCD.c ****         value &= LCD_READY_BIT;
 416:Generated_Source\PSoC5/LCD.c **** 
 417:Generated_Source\PSoC5/LCD.c ****         /* Set E high as we in 4-bit interface we need extra operation */
 418:Generated_Source\PSoC5/LCD.c ****         LCD_PORT_DR_REG |= LCD_E;
 419:Generated_Source\PSoC5/LCD.c **** 
 420:Generated_Source\PSoC5/LCD.c ****         /* 360 ns delay setup time for data pins */
 421:Generated_Source\PSoC5/LCD.c ****         CyDelayUs(1u);
 422:Generated_Source\PSoC5/LCD.c **** 
 423:Generated_Source\PSoC5/LCD.c ****         /* Set enable low */
 424:Generated_Source\PSoC5/LCD.c ****         LCD_PORT_DR_REG &= ((uint8)(~LCD_E));
 425:Generated_Source\PSoC5/LCD.c **** 
 426:Generated_Source\PSoC5/LCD.c ****         /* If LCD is not ready make a delay */
 427:Generated_Source\PSoC5/LCD.c ****         if (value == 0u)
 428:Generated_Source\PSoC5/LCD.c ****         {
 429:Generated_Source\PSoC5/LCD.c ****             CyDelayUs(10u);
 430:Generated_Source\PSoC5/LCD.c ****         }
ARM GAS  C:\Users\juano\AppData\Local\Temp\ccf9I4YO.s 			page 9


 431:Generated_Source\PSoC5/LCD.c **** 
 432:Generated_Source\PSoC5/LCD.c ****         /* Repeat until bit 4 is not zero or until timeout. */
 433:Generated_Source\PSoC5/LCD.c ****         timeout--;
 434:Generated_Source\PSoC5/LCD.c **** 
 435:Generated_Source\PSoC5/LCD.c ****     } while ((value != 0u) && (timeout > 0u));
 436:Generated_Source\PSoC5/LCD.c **** 
 437:Generated_Source\PSoC5/LCD.c ****     /* Set R/W low to write */
 438:Generated_Source\PSoC5/LCD.c ****     LCD_PORT_DR_REG &= ((uint8)(~LCD_RW));
 439:Generated_Source\PSoC5/LCD.c **** 
 440:Generated_Source\PSoC5/LCD.c ****     /* Clear LCD port*/
 441:Generated_Source\PSoC5/LCD.c ****     LCD_PORT_DR_REG &= ((uint8)(~LCD_PORT_MASK));
 442:Generated_Source\PSoC5/LCD.c **** 
 443:Generated_Source\PSoC5/LCD.c ****     #if (CY_PSOC4)
 444:Generated_Source\PSoC5/LCD.c ****         
 445:Generated_Source\PSoC5/LCD.c ****         /* Mask off data pins to clear old values out */
 446:Generated_Source\PSoC5/LCD.c ****         value = LCD_PORT_PC_REG & ((uint32)(~ LCD_DM_DATA_MASK));
 447:Generated_Source\PSoC5/LCD.c ****         /* Load in high Z values for data pins, others unchanged */
 448:Generated_Source\PSoC5/LCD.c ****         LCD_PORT_PC_REG = value | LCD_STRONG_DATA_DM;
 449:Generated_Source\PSoC5/LCD.c **** 
 450:Generated_Source\PSoC5/LCD.c ****     #else
 451:Generated_Source\PSoC5/LCD.c **** 
 452:Generated_Source\PSoC5/LCD.c ****         /* Change Port to Output (Strong) on data pins */
 453:Generated_Source\PSoC5/LCD.c ****         /* Mask off data pins to clear high z values out. Configure data pins 
 454:Generated_Source\PSoC5/LCD.c ****         * to Strong Drive, others unchanged.
 455:Generated_Source\PSoC5/LCD.c ****         */
 456:Generated_Source\PSoC5/LCD.c ****         LCD_PORT_DM0_REG &= ((uint8)(~LCD_DATA_MASK));
 457:Generated_Source\PSoC5/LCD.c ****         /* Mask off data pins to clear high z values out */
 458:Generated_Source\PSoC5/LCD.c ****         value = LCD_PORT_DM1_REG & ((uint8)(~LCD_DATA_MASK));
 459:Generated_Source\PSoC5/LCD.c ****         /* Configure data pins to Strong Drive, others unchanged */
 460:Generated_Source\PSoC5/LCD.c ****         LCD_PORT_DM1_REG = value | (LCD_STRONG_DM1 & LCD_DATA_MASK);
 461:Generated_Source\PSoC5/LCD.c **** 
 462:Generated_Source\PSoC5/LCD.c ****         /* Mask off data pins to clear high z values out */
 463:Generated_Source\PSoC5/LCD.c ****         value = LCD_PORT_DM2_REG & ((uint8)(~LCD_DATA_MASK));
 464:Generated_Source\PSoC5/LCD.c ****         /* Configure data pins to Strong Drive, others unchanged */
 465:Generated_Source\PSoC5/LCD.c ****         LCD_PORT_DM2_REG = value | (LCD_STRONG_DM2 & LCD_DATA_MASK);
 466:Generated_Source\PSoC5/LCD.c ****     
 467:Generated_Source\PSoC5/LCD.c ****     #endif /* CY_PSOC4 */
 468:Generated_Source\PSoC5/LCD.c **** }
 469:Generated_Source\PSoC5/LCD.c **** 
 470:Generated_Source\PSoC5/LCD.c **** 
 471:Generated_Source\PSoC5/LCD.c **** /*******************************************************************************
 472:Generated_Source\PSoC5/LCD.c **** *  Function Name: LCD_WrDatNib
 473:Generated_Source\PSoC5/LCD.c **** ********************************************************************************
 474:Generated_Source\PSoC5/LCD.c **** *
 475:Generated_Source\PSoC5/LCD.c **** * Summary:
 476:Generated_Source\PSoC5/LCD.c **** *  Writes a data nibble to the LCD module.
 477:Generated_Source\PSoC5/LCD.c **** *
 478:Generated_Source\PSoC5/LCD.c **** * Parameters:
 479:Generated_Source\PSoC5/LCD.c **** *  nibble:  Byte containing nibble in the least significant nibble to be
 480:Generated_Source\PSoC5/LCD.c **** *           written to the LCD module.
 481:Generated_Source\PSoC5/LCD.c **** *
 482:Generated_Source\PSoC5/LCD.c **** * Return:
 483:Generated_Source\PSoC5/LCD.c **** *  None.
 484:Generated_Source\PSoC5/LCD.c **** *
 485:Generated_Source\PSoC5/LCD.c **** *******************************************************************************/
 486:Generated_Source\PSoC5/LCD.c **** static void LCD_WrDatNib(uint8 nibble) 
 487:Generated_Source\PSoC5/LCD.c **** {
ARM GAS  C:\Users\juano\AppData\Local\Temp\ccf9I4YO.s 			page 10


 488:Generated_Source\PSoC5/LCD.c ****     /* RS should be low to select data register */
 489:Generated_Source\PSoC5/LCD.c ****     LCD_PORT_DR_REG |= LCD_RS;
 490:Generated_Source\PSoC5/LCD.c ****     /* Reset RW for write operation */
 491:Generated_Source\PSoC5/LCD.c ****     LCD_PORT_DR_REG &= ((uint8)(~LCD_RW));
 492:Generated_Source\PSoC5/LCD.c **** 
 493:Generated_Source\PSoC5/LCD.c ****     /* Guaranteed delay between Setting RS and RW and setting E bits */
 494:Generated_Source\PSoC5/LCD.c ****     CyDelayUs(0u);
 495:Generated_Source\PSoC5/LCD.c ****     
 496:Generated_Source\PSoC5/LCD.c ****     /* Clear data pins */
 497:Generated_Source\PSoC5/LCD.c ****     LCD_PORT_DR_REG &= ((uint8)(~LCD_DATA_MASK));
 498:Generated_Source\PSoC5/LCD.c **** 
 499:Generated_Source\PSoC5/LCD.c ****     /* Write data, bring E high */
 500:Generated_Source\PSoC5/LCD.c ****     #if(0u != LCD_PORT_SHIFT) /* MISRA forbids shift by 0 so need to handle that */
 501:Generated_Source\PSoC5/LCD.c ****         LCD_PORT_DR_REG |= 
 502:Generated_Source\PSoC5/LCD.c ****             (LCD_E | ((uint8)(((uint8) nibble) << LCD_PORT_SHIFT)));
 503:Generated_Source\PSoC5/LCD.c ****     #else
 504:Generated_Source\PSoC5/LCD.c ****         LCD_PORT_DR_REG |= (LCD_E | nibble);
 505:Generated_Source\PSoC5/LCD.c ****     #endif /* (0u != LCD_PORT_SHIFT) */
 506:Generated_Source\PSoC5/LCD.c **** 
 507:Generated_Source\PSoC5/LCD.c ****     /* Minimum of 230 ns delay */
 508:Generated_Source\PSoC5/LCD.c ****     CyDelayUs(1u);
 509:Generated_Source\PSoC5/LCD.c **** 
 510:Generated_Source\PSoC5/LCD.c ****     LCD_PORT_DR_REG &= ((uint8)(~LCD_E));
 511:Generated_Source\PSoC5/LCD.c **** }
 512:Generated_Source\PSoC5/LCD.c **** 
 513:Generated_Source\PSoC5/LCD.c **** 
 514:Generated_Source\PSoC5/LCD.c **** /*******************************************************************************
 515:Generated_Source\PSoC5/LCD.c **** *  Function Name: LCD_WrCntrlNib
 516:Generated_Source\PSoC5/LCD.c **** ********************************************************************************
 517:Generated_Source\PSoC5/LCD.c **** *
 518:Generated_Source\PSoC5/LCD.c **** * Summary:
 519:Generated_Source\PSoC5/LCD.c **** *  Writes a control nibble to the LCD module.
 520:Generated_Source\PSoC5/LCD.c **** *
 521:Generated_Source\PSoC5/LCD.c **** * Parameters:
 522:Generated_Source\PSoC5/LCD.c **** *  nibble: The byte containing a nibble in the four least significant bits.????
 523:Generated_Source\PSoC5/LCD.c **** *
 524:Generated_Source\PSoC5/LCD.c **** * Return:
 525:Generated_Source\PSoC5/LCD.c **** *  None.
 526:Generated_Source\PSoC5/LCD.c **** *
 527:Generated_Source\PSoC5/LCD.c **** *******************************************************************************/
 528:Generated_Source\PSoC5/LCD.c **** static void LCD_WrCntrlNib(uint8 nibble) 
 529:Generated_Source\PSoC5/LCD.c **** {
  27              		.loc 1 529 0
  28              		.cfi_startproc
  29              		@ args = 0, pretend = 0, frame = 0
  30              		@ frame_needed = 0, uses_anonymous_args = 0
  31              	.LVL0:
  32 0000 10B5     		push	{r4, lr}
  33              		.cfi_def_cfa_offset 8
  34              		.cfi_offset 4, -8
  35              		.cfi_offset 14, -4
 530:Generated_Source\PSoC5/LCD.c ****     /* RS and RW should be low to select instruction register and  write operation respectively */
 531:Generated_Source\PSoC5/LCD.c ****     LCD_PORT_DR_REG &= ((uint8)(~(LCD_RS | LCD_RW)));
  36              		.loc 1 531 0
  37 0002 0C4C     		ldr	r4, .L3
  38 0004 2378     		ldrb	r3, [r4]	@ zero_extendqisi2
  39 0006 03F03F03 		and	r3, r3, #63
ARM GAS  C:\Users\juano\AppData\Local\Temp\ccf9I4YO.s 			page 11


  40 000a 2370     		strb	r3, [r4]
 532:Generated_Source\PSoC5/LCD.c **** 
 533:Generated_Source\PSoC5/LCD.c ****     /* Two following lines of code will give 40ns delay */
 534:Generated_Source\PSoC5/LCD.c ****     /* Clear data pins */
 535:Generated_Source\PSoC5/LCD.c ****     LCD_PORT_DR_REG &= ((uint8)(~LCD_DATA_MASK));
  41              		.loc 1 535 0
  42 000c 2378     		ldrb	r3, [r4]	@ zero_extendqisi2
  43 000e 03F0E103 		and	r3, r3, #225
  44 0012 2370     		strb	r3, [r4]
 536:Generated_Source\PSoC5/LCD.c **** 
 537:Generated_Source\PSoC5/LCD.c ****     /* Write control data and set enable signal */
 538:Generated_Source\PSoC5/LCD.c ****     #if(0u != LCD_PORT_SHIFT) /* MISRA forbids shift by 0 so need to handle that */
 539:Generated_Source\PSoC5/LCD.c ****         LCD_PORT_DR_REG |= 
  45              		.loc 1 539 0
  46 0014 2378     		ldrb	r3, [r4]	@ zero_extendqisi2
 540:Generated_Source\PSoC5/LCD.c ****             (LCD_E | ((uint8)(((uint8) nibble) << LCD_PORT_SHIFT)));
  47              		.loc 1 540 0
  48 0016 4000     		lsls	r0, r0, #1
  49              	.LVL1:
  50 0018 C0B2     		uxtb	r0, r0
 539:Generated_Source\PSoC5/LCD.c ****             (LCD_E | ((uint8)(((uint8) nibble) << LCD_PORT_SHIFT)));
  51              		.loc 1 539 0
  52 001a 1843     		orrs	r0, r0, r3
  53 001c 40F02000 		orr	r0, r0, #32
  54 0020 2070     		strb	r0, [r4]
 541:Generated_Source\PSoC5/LCD.c ****     #else
 542:Generated_Source\PSoC5/LCD.c ****         LCD_PORT_DR_REG |= (LCD_E | nibble);
 543:Generated_Source\PSoC5/LCD.c ****     #endif /* (0u != LCD_PORT_SHIFT) */
 544:Generated_Source\PSoC5/LCD.c **** 
 545:Generated_Source\PSoC5/LCD.c ****     /* Minimum of 230 ns delay */
 546:Generated_Source\PSoC5/LCD.c ****     CyDelayUs(1u);
  55              		.loc 1 546 0
  56 0022 0120     		movs	r0, #1
  57 0024 FFF7FEFF 		bl	CyDelayUs
  58              	.LVL2:
 547:Generated_Source\PSoC5/LCD.c **** 
 548:Generated_Source\PSoC5/LCD.c ****     LCD_PORT_DR_REG &= ((uint8)(~LCD_E));
  59              		.loc 1 548 0
  60 0028 2378     		ldrb	r3, [r4]	@ zero_extendqisi2
  61 002a 03F0DF03 		and	r3, r3, #223
  62 002e 2370     		strb	r3, [r4]
  63 0030 10BD     		pop	{r4, pc}
  64              	.L4:
  65 0032 00BF     		.align	2
  66              	.L3:
  67 0034 00510040 		.word	1073762560
  68              		.cfi_endproc
  69              	.LFE11:
  70              		.size	LCD_WrCntrlNib, .-LCD_WrCntrlNib
  71              		.section	.text.LCD_WrDatNib,"ax",%progbits
  72              		.align	2
  73              		.thumb
  74              		.thumb_func
  75              		.type	LCD_WrDatNib, %function
  76              	LCD_WrDatNib:
  77              	.LFB10:
 487:Generated_Source\PSoC5/LCD.c ****     /* RS should be low to select data register */
ARM GAS  C:\Users\juano\AppData\Local\Temp\ccf9I4YO.s 			page 12


  78              		.loc 1 487 0
  79              		.cfi_startproc
  80              		@ args = 0, pretend = 0, frame = 0
  81              		@ frame_needed = 0, uses_anonymous_args = 0
  82              	.LVL3:
  83 0000 38B5     		push	{r3, r4, r5, lr}
  84              		.cfi_def_cfa_offset 16
  85              		.cfi_offset 3, -16
  86              		.cfi_offset 4, -12
  87              		.cfi_offset 5, -8
  88              		.cfi_offset 14, -4
  89 0002 0546     		mov	r5, r0
 489:Generated_Source\PSoC5/LCD.c ****     /* Reset RW for write operation */
  90              		.loc 1 489 0
  91 0004 0F4C     		ldr	r4, .L7
  92 0006 2378     		ldrb	r3, [r4]	@ zero_extendqisi2
  93 0008 43F04003 		orr	r3, r3, #64
  94 000c 2370     		strb	r3, [r4]
 491:Generated_Source\PSoC5/LCD.c **** 
  95              		.loc 1 491 0
  96 000e 2378     		ldrb	r3, [r4]	@ zero_extendqisi2
  97 0010 03F07F03 		and	r3, r3, #127
  98 0014 2370     		strb	r3, [r4]
 494:Generated_Source\PSoC5/LCD.c ****     
  99              		.loc 1 494 0
 100 0016 0020     		movs	r0, #0
 101              	.LVL4:
 102 0018 FFF7FEFF 		bl	CyDelayUs
 103              	.LVL5:
 497:Generated_Source\PSoC5/LCD.c **** 
 104              		.loc 1 497 0
 105 001c 2378     		ldrb	r3, [r4]	@ zero_extendqisi2
 106 001e 03F0E103 		and	r3, r3, #225
 107 0022 2370     		strb	r3, [r4]
 501:Generated_Source\PSoC5/LCD.c ****             (LCD_E | ((uint8)(((uint8) nibble) << LCD_PORT_SHIFT)));
 108              		.loc 1 501 0
 109 0024 2378     		ldrb	r3, [r4]	@ zero_extendqisi2
 502:Generated_Source\PSoC5/LCD.c ****     #else
 110              		.loc 1 502 0
 111 0026 6D00     		lsls	r5, r5, #1
 112 0028 EDB2     		uxtb	r5, r5
 501:Generated_Source\PSoC5/LCD.c ****             (LCD_E | ((uint8)(((uint8) nibble) << LCD_PORT_SHIFT)));
 113              		.loc 1 501 0
 114 002a 1D43     		orrs	r5, r5, r3
 115 002c 45F02005 		orr	r5, r5, #32
 116 0030 2570     		strb	r5, [r4]
 508:Generated_Source\PSoC5/LCD.c **** 
 117              		.loc 1 508 0
 118 0032 0120     		movs	r0, #1
 119 0034 FFF7FEFF 		bl	CyDelayUs
 120              	.LVL6:
 510:Generated_Source\PSoC5/LCD.c **** }
 121              		.loc 1 510 0
 122 0038 2378     		ldrb	r3, [r4]	@ zero_extendqisi2
 123 003a 03F0DF03 		and	r3, r3, #223
 124 003e 2370     		strb	r3, [r4]
 125 0040 38BD     		pop	{r3, r4, r5, pc}
ARM GAS  C:\Users\juano\AppData\Local\Temp\ccf9I4YO.s 			page 13


 126              	.L8:
 127 0042 00BF     		.align	2
 128              	.L7:
 129 0044 00510040 		.word	1073762560
 130              		.cfi_endproc
 131              	.LFE10:
 132              		.size	LCD_WrDatNib, .-LCD_WrDatNib
 133              		.section	.text.LCD_IsReady,"ax",%progbits
 134              		.align	2
 135              		.global	LCD_IsReady
 136              		.thumb
 137              		.thumb_func
 138              		.type	LCD_IsReady, %function
 139              	LCD_IsReady:
 140              	.LFB9:
 349:Generated_Source\PSoC5/LCD.c ****     uint8 value;
 141              		.loc 1 349 0
 142              		.cfi_startproc
 143              		@ args = 0, pretend = 0, frame = 0
 144              		@ frame_needed = 0, uses_anonymous_args = 0
 145 0000 70B5     		push	{r4, r5, r6, lr}
 146              		.cfi_def_cfa_offset 16
 147              		.cfi_offset 4, -16
 148              		.cfi_offset 5, -12
 149              		.cfi_offset 6, -8
 150              		.cfi_offset 14, -4
 151              	.LVL7:
 355:Generated_Source\PSoC5/LCD.c **** 
 152              		.loc 1 355 0
 153 0002 344B     		ldr	r3, .L14
 154 0004 1A78     		ldrb	r2, [r3]	@ zero_extendqisi2
 155 0006 02F00102 		and	r2, r2, #1
 156 000a 1A70     		strb	r2, [r3]
 372:Generated_Source\PSoC5/LCD.c ****         /* Load in high Z values for data pins, others unchanged */
 157              		.loc 1 372 0
 158 000c 3249     		ldr	r1, .L14+4
 159 000e 0A78     		ldrb	r2, [r1]	@ zero_extendqisi2
 160 0010 02F0E102 		and	r2, r2, #225
 161              	.LVL8:
 374:Generated_Source\PSoC5/LCD.c **** 
 162              		.loc 1 374 0
 163 0014 42F01E02 		orr	r2, r2, #30
 164              	.LVL9:
 165 0018 0A70     		strb	r2, [r1]
 377:Generated_Source\PSoC5/LCD.c ****         /* Load in high Z values for data pins, others unchanged */
 166              		.loc 1 377 0
 167 001a 0131     		adds	r1, r1, #1
 168 001c 0A78     		ldrb	r2, [r1]	@ zero_extendqisi2
 169 001e 02F0E102 		and	r2, r2, #225
 170              	.LVL10:
 379:Generated_Source\PSoC5/LCD.c **** 
 171              		.loc 1 379 0
 172 0022 0A70     		strb	r2, [r1]
 382:Generated_Source\PSoC5/LCD.c ****         /* Load in high Z values for data pins, others unchanged */
 173              		.loc 1 382 0
 174 0024 0131     		adds	r1, r1, #1
 175 0026 0A78     		ldrb	r2, [r1]	@ zero_extendqisi2
ARM GAS  C:\Users\juano\AppData\Local\Temp\ccf9I4YO.s 			page 14


 176              	.LVL11:
 177 0028 02F0E102 		and	r2, r2, #225
 178              	.LVL12:
 384:Generated_Source\PSoC5/LCD.c ****     
 179              		.loc 1 384 0
 180 002c 0A70     		strb	r2, [r1]
 389:Generated_Source\PSoC5/LCD.c **** 
 181              		.loc 1 389 0
 182 002e 1A78     		ldrb	r2, [r3]	@ zero_extendqisi2
 183              	.LVL13:
 184 0030 02F0BF02 		and	r2, r2, #191
 185 0034 1A70     		strb	r2, [r3]
 186              	.LVL14:
 392:Generated_Source\PSoC5/LCD.c **** 
 187              		.loc 1 392 0
 188 0036 1A78     		ldrb	r2, [r3]	@ zero_extendqisi2
 189 0038 42F08002 		orr	r2, r2, #128
 190 003c 1A70     		strb	r2, [r3]
 352:Generated_Source\PSoC5/LCD.c **** 
 191              		.loc 1 352 0
 192 003e 4FF4CA76 		mov	r6, #404
 193              	.LVL15:
 194              	.L12:
 397:Generated_Source\PSoC5/LCD.c **** 
 195              		.loc 1 397 0
 196 0042 0020     		movs	r0, #0
 197 0044 FFF7FEFF 		bl	CyDelayUs
 198              	.LVL16:
 400:Generated_Source\PSoC5/LCD.c **** 
 199              		.loc 1 400 0
 200 0048 224D     		ldr	r5, .L14
 201 004a 2B78     		ldrb	r3, [r5]	@ zero_extendqisi2
 202 004c 43F02003 		orr	r3, r3, #32
 203 0050 2B70     		strb	r3, [r5]
 403:Generated_Source\PSoC5/LCD.c **** 
 204              		.loc 1 403 0
 205 0052 0120     		movs	r0, #1
 206 0054 FFF7FEFF 		bl	CyDelayUs
 207              	.LVL17:
 406:Generated_Source\PSoC5/LCD.c **** 
 208              		.loc 1 406 0
 209 0058 204B     		ldr	r3, .L14+8
 210 005a 1C78     		ldrb	r4, [r3]	@ zero_extendqisi2
 211 005c E4B2     		uxtb	r4, r4
 212              	.LVL18:
 409:Generated_Source\PSoC5/LCD.c **** 
 213              		.loc 1 409 0
 214 005e 2B78     		ldrb	r3, [r5]	@ zero_extendqisi2
 215 0060 03F0DF03 		and	r3, r3, #223
 216 0064 2B70     		strb	r3, [r5]
 412:Generated_Source\PSoC5/LCD.c **** 
 217              		.loc 1 412 0
 218 0066 0020     		movs	r0, #0
 219 0068 FFF7FEFF 		bl	CyDelayUs
 220              	.LVL19:
 415:Generated_Source\PSoC5/LCD.c **** 
 221              		.loc 1 415 0
ARM GAS  C:\Users\juano\AppData\Local\Temp\ccf9I4YO.s 			page 15


 222 006c 04F01004 		and	r4, r4, #16
 223              	.LVL20:
 224 0070 E4B2     		uxtb	r4, r4
 225              	.LVL21:
 418:Generated_Source\PSoC5/LCD.c **** 
 226              		.loc 1 418 0
 227 0072 2B78     		ldrb	r3, [r5]	@ zero_extendqisi2
 228 0074 43F02003 		orr	r3, r3, #32
 229 0078 2B70     		strb	r3, [r5]
 421:Generated_Source\PSoC5/LCD.c **** 
 230              		.loc 1 421 0
 231 007a 0120     		movs	r0, #1
 232 007c FFF7FEFF 		bl	CyDelayUs
 233              	.LVL22:
 424:Generated_Source\PSoC5/LCD.c **** 
 234              		.loc 1 424 0
 235 0080 2B78     		ldrb	r3, [r5]	@ zero_extendqisi2
 236 0082 03F0DF03 		and	r3, r3, #223
 237 0086 2B70     		strb	r3, [r5]
 427:Generated_Source\PSoC5/LCD.c ****         {
 238              		.loc 1 427 0
 239 0088 14B9     		cbnz	r4, .L10
 429:Generated_Source\PSoC5/LCD.c ****         }
 240              		.loc 1 429 0
 241 008a 0A20     		movs	r0, #10
 242 008c FFF7FEFF 		bl	CyDelayUs
 243              	.LVL23:
 244              	.L10:
 433:Generated_Source\PSoC5/LCD.c **** 
 245              		.loc 1 433 0
 246 0090 013E     		subs	r6, r6, #1
 247              	.LVL24:
 435:Generated_Source\PSoC5/LCD.c **** 
 248              		.loc 1 435 0
 249 0092 0CB1     		cbz	r4, .L11
 435:Generated_Source\PSoC5/LCD.c **** 
 250              		.loc 1 435 0 is_stmt 0 discriminator 1
 251 0094 002E     		cmp	r6, #0
 252 0096 D4D1     		bne	.L12
 253              	.L11:
 438:Generated_Source\PSoC5/LCD.c **** 
 254              		.loc 1 438 0 is_stmt 1
 255 0098 0E4B     		ldr	r3, .L14
 256 009a 1A78     		ldrb	r2, [r3]	@ zero_extendqisi2
 257 009c 02F07F02 		and	r2, r2, #127
 258 00a0 1A70     		strb	r2, [r3]
 441:Generated_Source\PSoC5/LCD.c **** 
 259              		.loc 1 441 0
 260 00a2 1A78     		ldrb	r2, [r3]	@ zero_extendqisi2
 261 00a4 02F00102 		and	r2, r2, #1
 262 00a8 1A70     		strb	r2, [r3]
 456:Generated_Source\PSoC5/LCD.c ****         /* Mask off data pins to clear high z values out */
 263              		.loc 1 456 0
 264 00aa 0B4A     		ldr	r2, .L14+4
 265 00ac 1378     		ldrb	r3, [r2]	@ zero_extendqisi2
 266 00ae 03F0E103 		and	r3, r3, #225
 267 00b2 1370     		strb	r3, [r2]
ARM GAS  C:\Users\juano\AppData\Local\Temp\ccf9I4YO.s 			page 16


 458:Generated_Source\PSoC5/LCD.c ****         /* Configure data pins to Strong Drive, others unchanged */
 268              		.loc 1 458 0
 269 00b4 0132     		adds	r2, r2, #1
 270 00b6 1378     		ldrb	r3, [r2]	@ zero_extendqisi2
 271 00b8 03F0E103 		and	r3, r3, #225
 272              	.LVL25:
 460:Generated_Source\PSoC5/LCD.c **** 
 273              		.loc 1 460 0
 274 00bc 43F01E03 		orr	r3, r3, #30
 275              	.LVL26:
 276 00c0 1370     		strb	r3, [r2]
 463:Generated_Source\PSoC5/LCD.c ****         /* Configure data pins to Strong Drive, others unchanged */
 277              		.loc 1 463 0
 278 00c2 0132     		adds	r2, r2, #1
 279 00c4 1378     		ldrb	r3, [r2]	@ zero_extendqisi2
 280 00c6 03F0E103 		and	r3, r3, #225
 281              	.LVL27:
 465:Generated_Source\PSoC5/LCD.c ****     
 282              		.loc 1 465 0
 283 00ca 43F01E03 		orr	r3, r3, #30
 284              	.LVL28:
 285 00ce 1370     		strb	r3, [r2]
 286 00d0 70BD     		pop	{r4, r5, r6, pc}
 287              	.LVL29:
 288              	.L15:
 289 00d2 00BF     		.align	2
 290              	.L14:
 291 00d4 00510040 		.word	1073762560
 292 00d8 02510040 		.word	1073762562
 293 00dc 01510040 		.word	1073762561
 294              		.cfi_endproc
 295              	.LFE9:
 296              		.size	LCD_IsReady, .-LCD_IsReady
 297              		.section	.text.LCD_WriteData,"ax",%progbits
 298              		.align	2
 299              		.global	LCD_WriteData
 300              		.thumb
 301              		.thumb_func
 302              		.type	LCD_WriteData, %function
 303              	LCD_WriteData:
 304              	.LFB7:
 285:Generated_Source\PSoC5/LCD.c ****     uint8 nibble;
 305              		.loc 1 285 0
 306              		.cfi_startproc
 307              		@ args = 0, pretend = 0, frame = 0
 308              		@ frame_needed = 0, uses_anonymous_args = 0
 309              	.LVL30:
 310 0000 10B5     		push	{r4, lr}
 311              		.cfi_def_cfa_offset 8
 312              		.cfi_offset 4, -8
 313              		.cfi_offset 14, -4
 314 0002 0446     		mov	r4, r0
 288:Generated_Source\PSoC5/LCD.c ****     nibble = dByte >> LCD_NIBBLE_SHIFT;
 315              		.loc 1 288 0
 316 0004 FFF7FEFF 		bl	LCD_IsReady
 317              	.LVL31:
 292:Generated_Source\PSoC5/LCD.c **** 
ARM GAS  C:\Users\juano\AppData\Local\Temp\ccf9I4YO.s 			page 17


 318              		.loc 1 292 0
 319 0008 2009     		lsrs	r0, r4, #4
 320 000a FFF7FEFF 		bl	LCD_WrDatNib
 321              	.LVL32:
 296:Generated_Source\PSoC5/LCD.c **** }
 322              		.loc 1 296 0
 323 000e 04F00F00 		and	r0, r4, #15
 324 0012 FFF7FEFF 		bl	LCD_WrDatNib
 325              	.LVL33:
 326 0016 10BD     		pop	{r4, pc}
 327              		.cfi_endproc
 328              	.LFE7:
 329              		.size	LCD_WriteData, .-LCD_WriteData
 330              		.section	.text.LCD_PrintString,"ax",%progbits
 331              		.align	2
 332              		.global	LCD_PrintString
 333              		.thumb
 334              		.thumb_func
 335              		.type	LCD_PrintString, %function
 336              	LCD_PrintString:
 337              	.LFB5:
 234:Generated_Source\PSoC5/LCD.c ****     uint8 indexU8 = 1u;
 338              		.loc 1 234 0
 339              		.cfi_startproc
 340              		@ args = 0, pretend = 0, frame = 0
 341              		@ frame_needed = 0, uses_anonymous_args = 0
 342              	.LVL34:
 343 0000 38B5     		push	{r3, r4, r5, lr}
 344              		.cfi_def_cfa_offset 16
 345              		.cfi_offset 3, -16
 346              		.cfi_offset 4, -12
 347              		.cfi_offset 5, -8
 348              		.cfi_offset 14, -4
 349 0002 0546     		mov	r5, r0
 350              	.LVL35:
 236:Generated_Source\PSoC5/LCD.c **** 
 351              		.loc 1 236 0
 352 0004 0078     		ldrb	r0, [r0]	@ zero_extendqisi2
 353              	.LVL36:
 235:Generated_Source\PSoC5/LCD.c ****     char8 current = *string;
 354              		.loc 1 235 0
 355 0006 0124     		movs	r4, #1
 239:Generated_Source\PSoC5/LCD.c ****     {
 356              		.loc 1 239 0
 357 0008 04E0     		b	.L19
 358              	.LVL37:
 359              	.L20:
 241:Generated_Source\PSoC5/LCD.c ****         current = string[indexU8];
 360              		.loc 1 241 0
 361 000a FFF7FEFF 		bl	LCD_WriteData
 362              	.LVL38:
 242:Generated_Source\PSoC5/LCD.c ****         indexU8++;
 363              		.loc 1 242 0
 364 000e 285D     		ldrb	r0, [r5, r4]	@ zero_extendqisi2
 365              	.LVL39:
 243:Generated_Source\PSoC5/LCD.c ****     }
 366              		.loc 1 243 0
ARM GAS  C:\Users\juano\AppData\Local\Temp\ccf9I4YO.s 			page 18


 367 0010 0134     		adds	r4, r4, #1
 368              	.LVL40:
 369 0012 E4B2     		uxtb	r4, r4
 370              	.LVL41:
 371              	.L19:
 239:Generated_Source\PSoC5/LCD.c ****     {
 372              		.loc 1 239 0
 373 0014 0028     		cmp	r0, #0
 374 0016 F8D1     		bne	.L20
 245:Generated_Source\PSoC5/LCD.c **** 
 375              		.loc 1 245 0
 376 0018 38BD     		pop	{r3, r4, r5, pc}
 377              		.cfi_endproc
 378              	.LFE5:
 379              		.size	LCD_PrintString, .-LCD_PrintString
 380 001a 00BF     		.section	.text.LCD_PutChar,"ax",%progbits
 381              		.align	2
 382              		.global	LCD_PutChar
 383              		.thumb
 384              		.thumb_func
 385              		.type	LCD_PutChar, %function
 386              	LCD_PutChar:
 387              	.LFB6:
 265:Generated_Source\PSoC5/LCD.c ****     LCD_WriteData((uint8)character);
 388              		.loc 1 265 0
 389              		.cfi_startproc
 390              		@ args = 0, pretend = 0, frame = 0
 391              		@ frame_needed = 0, uses_anonymous_args = 0
 392              	.LVL42:
 393 0000 08B5     		push	{r3, lr}
 394              		.cfi_def_cfa_offset 8
 395              		.cfi_offset 3, -8
 396              		.cfi_offset 14, -4
 266:Generated_Source\PSoC5/LCD.c **** }
 397              		.loc 1 266 0
 398 0002 FFF7FEFF 		bl	LCD_WriteData
 399              	.LVL43:
 400 0006 08BD     		pop	{r3, pc}
 401              		.cfi_endproc
 402              	.LFE6:
 403              		.size	LCD_PutChar, .-LCD_PutChar
 404              		.section	.text.LCD_WriteControl,"ax",%progbits
 405              		.align	2
 406              		.global	LCD_WriteControl
 407              		.thumb
 408              		.thumb_func
 409              		.type	LCD_WriteControl, %function
 410              	LCD_WriteControl:
 411              	.LFB8:
 315:Generated_Source\PSoC5/LCD.c ****     uint8 nibble;
 412              		.loc 1 315 0
 413              		.cfi_startproc
 414              		@ args = 0, pretend = 0, frame = 0
 415              		@ frame_needed = 0, uses_anonymous_args = 0
 416              	.LVL44:
 417 0000 10B5     		push	{r4, lr}
 418              		.cfi_def_cfa_offset 8
ARM GAS  C:\Users\juano\AppData\Local\Temp\ccf9I4YO.s 			page 19


 419              		.cfi_offset 4, -8
 420              		.cfi_offset 14, -4
 421 0002 0446     		mov	r4, r0
 318:Generated_Source\PSoC5/LCD.c **** 
 422              		.loc 1 318 0
 423 0004 FFF7FEFF 		bl	LCD_IsReady
 424              	.LVL45:
 323:Generated_Source\PSoC5/LCD.c ****     nibble = cByte & LCD_NIBBLE_MASK;
 425              		.loc 1 323 0
 426 0008 2009     		lsrs	r0, r4, #4
 427 000a FFF7FEFF 		bl	LCD_WrCntrlNib
 428              	.LVL46:
 327:Generated_Source\PSoC5/LCD.c **** }
 429              		.loc 1 327 0
 430 000e 04F00F00 		and	r0, r4, #15
 431 0012 FFF7FEFF 		bl	LCD_WrCntrlNib
 432              	.LVL47:
 433 0016 10BD     		pop	{r4, pc}
 434              		.cfi_endproc
 435              	.LFE8:
 436              		.size	LCD_WriteControl, .-LCD_WriteControl
 437              		.section	.text.LCD_Init,"ax",%progbits
 438              		.align	2
 439              		.global	LCD_Init
 440              		.thumb
 441              		.thumb_func
 442              		.type	LCD_Init, %function
 443              	LCD_Init:
 444              	.LFB0:
  56:Generated_Source\PSoC5/LCD.c ****     /* INIT CODE */
 445              		.loc 1 56 0
 446              		.cfi_startproc
 447              		@ args = 0, pretend = 0, frame = 0
 448              		@ frame_needed = 0, uses_anonymous_args = 0
 449 0000 08B5     		push	{r3, lr}
 450              		.cfi_def_cfa_offset 8
 451              		.cfi_offset 3, -8
 452              		.cfi_offset 14, -4
  58:Generated_Source\PSoC5/LCD.c ****     LCD_WrCntrlNib(LCD_DISPLAY_8_BIT_INIT);    /* Selects 8-bit mode */
 453              		.loc 1 58 0
 454 0002 2820     		movs	r0, #40
 455 0004 FFF7FEFF 		bl	CyDelay
 456              	.LVL48:
  59:Generated_Source\PSoC5/LCD.c ****     CyDelay(5u);                                                         /* Delay 5 ms */
 457              		.loc 1 59 0
 458 0008 0320     		movs	r0, #3
 459 000a FFF7FEFF 		bl	LCD_WrCntrlNib
 460              	.LVL49:
  60:Generated_Source\PSoC5/LCD.c ****     LCD_WrCntrlNib(LCD_DISPLAY_8_BIT_INIT);    /* Selects 8-bit mode */
 461              		.loc 1 60 0
 462 000e 0520     		movs	r0, #5
 463 0010 FFF7FEFF 		bl	CyDelay
 464              	.LVL50:
  61:Generated_Source\PSoC5/LCD.c ****     CyDelay(15u);                                                        /* Delay 15 ms */
 465              		.loc 1 61 0
 466 0014 0320     		movs	r0, #3
 467 0016 FFF7FEFF 		bl	LCD_WrCntrlNib
ARM GAS  C:\Users\juano\AppData\Local\Temp\ccf9I4YO.s 			page 20


 468              	.LVL51:
  62:Generated_Source\PSoC5/LCD.c ****     LCD_WrCntrlNib(LCD_DISPLAY_8_BIT_INIT);    /* Selects 8-bit mode */
 469              		.loc 1 62 0
 470 001a 0F20     		movs	r0, #15
 471 001c FFF7FEFF 		bl	CyDelay
 472              	.LVL52:
  63:Generated_Source\PSoC5/LCD.c ****     CyDelay(1u);                                                         /* Delay 1 ms */
 473              		.loc 1 63 0
 474 0020 0320     		movs	r0, #3
 475 0022 FFF7FEFF 		bl	LCD_WrCntrlNib
 476              	.LVL53:
  64:Generated_Source\PSoC5/LCD.c ****     LCD_WrCntrlNib(LCD_DISPLAY_4_BIT_INIT);    /* Selects 4-bit mode */
 477              		.loc 1 64 0
 478 0026 0120     		movs	r0, #1
 479 0028 FFF7FEFF 		bl	CyDelay
 480              	.LVL54:
  65:Generated_Source\PSoC5/LCD.c ****     CyDelay(5u);                                                         /* Delay 5 ms */
 481              		.loc 1 65 0
 482 002c 0220     		movs	r0, #2
 483 002e FFF7FEFF 		bl	LCD_WrCntrlNib
 484              	.LVL55:
  66:Generated_Source\PSoC5/LCD.c **** 
 485              		.loc 1 66 0
 486 0032 0520     		movs	r0, #5
 487 0034 FFF7FEFF 		bl	CyDelay
 488              	.LVL56:
  68:Generated_Source\PSoC5/LCD.c ****     LCD_WriteControl(LCD_DISPLAY_CURSOR_ON);      /* Turn Display, Cursor ON */
 489              		.loc 1 68 0
 490 0038 0620     		movs	r0, #6
 491 003a FFF7FEFF 		bl	LCD_WriteControl
 492              	.LVL57:
  69:Generated_Source\PSoC5/LCD.c ****     LCD_WriteControl(LCD_DISPLAY_2_LINES_5x10);   /* 2 Lines by 5x10 Characters */
 493              		.loc 1 69 0
 494 003e 0E20     		movs	r0, #14
 495 0040 FFF7FEFF 		bl	LCD_WriteControl
 496              	.LVL58:
  70:Generated_Source\PSoC5/LCD.c ****     LCD_WriteControl(LCD_DISPLAY_CURSOR_OFF);     /* Turn Display, Cursor OFF */
 497              		.loc 1 70 0
 498 0044 2C20     		movs	r0, #44
 499 0046 FFF7FEFF 		bl	LCD_WriteControl
 500              	.LVL59:
  71:Generated_Source\PSoC5/LCD.c ****     LCD_WriteControl(LCD_CLEAR_DISPLAY);          /* Clear LCD Screen */
 501              		.loc 1 71 0
 502 004a 0820     		movs	r0, #8
 503 004c FFF7FEFF 		bl	LCD_WriteControl
 504              	.LVL60:
  72:Generated_Source\PSoC5/LCD.c ****     LCD_WriteControl(LCD_DISPLAY_ON_CURSOR_OFF);  /* Turn Display ON, Cursor OFF */
 505              		.loc 1 72 0
 506 0050 0120     		movs	r0, #1
 507 0052 FFF7FEFF 		bl	LCD_WriteControl
 508              	.LVL61:
  73:Generated_Source\PSoC5/LCD.c ****     LCD_WriteControl(LCD_RESET_CURSOR_POSITION);  /* Set Cursor to 0,0 */
 509              		.loc 1 73 0
 510 0056 0C20     		movs	r0, #12
 511 0058 FFF7FEFF 		bl	LCD_WriteControl
 512              	.LVL62:
  74:Generated_Source\PSoC5/LCD.c ****     CyDelay(5u);
ARM GAS  C:\Users\juano\AppData\Local\Temp\ccf9I4YO.s 			page 21


 513              		.loc 1 74 0
 514 005c 0320     		movs	r0, #3
 515 005e FFF7FEFF 		bl	LCD_WriteControl
 516              	.LVL63:
  75:Generated_Source\PSoC5/LCD.c **** 
 517              		.loc 1 75 0
 518 0062 0520     		movs	r0, #5
 519 0064 FFF7FEFF 		bl	CyDelay
 520              	.LVL64:
 521 0068 08BD     		pop	{r3, pc}
 522              		.cfi_endproc
 523              	.LFE0:
 524              		.size	LCD_Init, .-LCD_Init
 525 006a 00BF     		.section	.text.LCD_Enable,"ax",%progbits
 526              		.align	2
 527              		.global	LCD_Enable
 528              		.thumb
 529              		.thumb_func
 530              		.type	LCD_Enable, %function
 531              	LCD_Enable:
 532              	.LFB1:
 105:Generated_Source\PSoC5/LCD.c ****     LCD_DisplayOn();
 533              		.loc 1 105 0
 534              		.cfi_startproc
 535              		@ args = 0, pretend = 0, frame = 0
 536              		@ frame_needed = 0, uses_anonymous_args = 0
 537 0000 08B5     		push	{r3, lr}
 538              		.cfi_def_cfa_offset 8
 539              		.cfi_offset 3, -8
 540              		.cfi_offset 14, -4
 106:Generated_Source\PSoC5/LCD.c ****     LCD_enableState = 1u;
 541              		.loc 1 106 0
 542 0002 0C20     		movs	r0, #12
 543 0004 FFF7FEFF 		bl	LCD_WriteControl
 544              	.LVL65:
 107:Generated_Source\PSoC5/LCD.c **** }
 545              		.loc 1 107 0
 546 0008 0122     		movs	r2, #1
 547 000a 014B     		ldr	r3, .L30
 548 000c 1A70     		strb	r2, [r3]
 549 000e 08BD     		pop	{r3, pc}
 550              	.L31:
 551              		.align	2
 552              	.L30:
 553 0010 00000000 		.word	.LANCHOR0
 554              		.cfi_endproc
 555              	.LFE1:
 556              		.size	LCD_Enable, .-LCD_Enable
 557              		.section	.text.LCD_Start,"ax",%progbits
 558              		.align	2
 559              		.global	LCD_Start
 560              		.thumb
 561              		.thumb_func
 562              		.type	LCD_Start, %function
 563              	LCD_Start:
 564              	.LFB2:
 138:Generated_Source\PSoC5/LCD.c ****     /* If not initialized, perform initialization */
ARM GAS  C:\Users\juano\AppData\Local\Temp\ccf9I4YO.s 			page 22


 565              		.loc 1 138 0
 566              		.cfi_startproc
 567              		@ args = 0, pretend = 0, frame = 0
 568              		@ frame_needed = 0, uses_anonymous_args = 0
 569 0000 08B5     		push	{r3, lr}
 570              		.cfi_def_cfa_offset 8
 571              		.cfi_offset 3, -8
 572              		.cfi_offset 14, -4
 140:Generated_Source\PSoC5/LCD.c ****     {
 573              		.loc 1 140 0
 574 0002 054B     		ldr	r3, .L35
 575 0004 5B78     		ldrb	r3, [r3, #1]	@ zero_extendqisi2
 576 0006 23B9     		cbnz	r3, .L33
 142:Generated_Source\PSoC5/LCD.c ****         LCD_initVar = 1u;
 577              		.loc 1 142 0
 578 0008 FFF7FEFF 		bl	LCD_Init
 579              	.LVL66:
 143:Generated_Source\PSoC5/LCD.c ****     }
 580              		.loc 1 143 0
 581 000c 0122     		movs	r2, #1
 582 000e 024B     		ldr	r3, .L35
 583 0010 5A70     		strb	r2, [r3, #1]
 584              	.L33:
 147:Generated_Source\PSoC5/LCD.c **** }
 585              		.loc 1 147 0
 586 0012 FFF7FEFF 		bl	LCD_Enable
 587              	.LVL67:
 588 0016 08BD     		pop	{r3, pc}
 589              	.L36:
 590              		.align	2
 591              	.L35:
 592 0018 00000000 		.word	.LANCHOR0
 593              		.cfi_endproc
 594              	.LFE2:
 595              		.size	LCD_Start, .-LCD_Start
 596              		.section	.text.LCD_Stop,"ax",%progbits
 597              		.align	2
 598              		.global	LCD_Stop
 599              		.thumb
 600              		.thumb_func
 601              		.type	LCD_Stop, %function
 602              	LCD_Stop:
 603              	.LFB3:
 169:Generated_Source\PSoC5/LCD.c ****     /* Calls LCD Off Macro */
 604              		.loc 1 169 0
 605              		.cfi_startproc
 606              		@ args = 0, pretend = 0, frame = 0
 607              		@ frame_needed = 0, uses_anonymous_args = 0
 608 0000 08B5     		push	{r3, lr}
 609              		.cfi_def_cfa_offset 8
 610              		.cfi_offset 3, -8
 611              		.cfi_offset 14, -4
 171:Generated_Source\PSoC5/LCD.c ****     LCD_enableState = 0u;
 612              		.loc 1 171 0
 613 0002 0820     		movs	r0, #8
 614 0004 FFF7FEFF 		bl	LCD_WriteControl
 615              	.LVL68:
ARM GAS  C:\Users\juano\AppData\Local\Temp\ccf9I4YO.s 			page 23


 172:Generated_Source\PSoC5/LCD.c **** }
 616              		.loc 1 172 0
 617 0008 0022     		movs	r2, #0
 618 000a 014B     		ldr	r3, .L39
 619 000c 1A70     		strb	r2, [r3]
 620 000e 08BD     		pop	{r3, pc}
 621              	.L40:
 622              		.align	2
 623              	.L39:
 624 0010 00000000 		.word	.LANCHOR0
 625              		.cfi_endproc
 626              	.LFE3:
 627              		.size	LCD_Stop, .-LCD_Stop
 628              		.section	.text.LCD_Position,"ax",%progbits
 629              		.align	2
 630              		.global	LCD_Position
 631              		.thumb
 632              		.thumb_func
 633              		.type	LCD_Position, %function
 634              	LCD_Position:
 635              	.LFB4:
 197:Generated_Source\PSoC5/LCD.c ****     switch (row)
 636              		.loc 1 197 0
 637              		.cfi_startproc
 638              		@ args = 0, pretend = 0, frame = 0
 639              		@ frame_needed = 0, uses_anonymous_args = 0
 640              	.LVL69:
 641 0000 08B5     		push	{r3, lr}
 642              		.cfi_def_cfa_offset 8
 643              		.cfi_offset 3, -8
 644              		.cfi_offset 14, -4
 198:Generated_Source\PSoC5/LCD.c ****     {
 645              		.loc 1 198 0
 646 0002 0328     		cmp	r0, #3
 647 0004 19D8     		bhi	.L41
 648 0006 DFE800F0 		tbb	[pc, r0]
 649              	.L44:
 650 000a 02       		.byte	(.L43-.L44)/2
 651 000b 07       		.byte	(.L45-.L44)/2
 652 000c 0D       		.byte	(.L46-.L44)/2
 653 000d 13       		.byte	(.L47-.L44)/2
 654              		.p2align 1
 655              	.L43:
 201:Generated_Source\PSoC5/LCD.c ****             break;
 656              		.loc 1 201 0
 657 000e 81F08000 		eor	r0, r1, #128
 658              	.LVL70:
 659 0012 FFF7FEFF 		bl	LCD_WriteControl
 660              	.LVL71:
 202:Generated_Source\PSoC5/LCD.c ****         case (uint8) 1:
 661              		.loc 1 202 0
 662 0016 08BD     		pop	{r3, pc}
 663              	.LVL72:
 664              	.L45:
 204:Generated_Source\PSoC5/LCD.c ****             break;
 665              		.loc 1 204 0
 666 0018 A1F14000 		sub	r0, r1, #64
ARM GAS  C:\Users\juano\AppData\Local\Temp\ccf9I4YO.s 			page 24


 667              	.LVL73:
 668 001c C0B2     		uxtb	r0, r0
 669 001e FFF7FEFF 		bl	LCD_WriteControl
 670              	.LVL74:
 205:Generated_Source\PSoC5/LCD.c ****         case (uint8) 2:
 671              		.loc 1 205 0
 672 0022 08BD     		pop	{r3, pc}
 673              	.LVL75:
 674              	.L46:
 207:Generated_Source\PSoC5/LCD.c ****             break;
 675              		.loc 1 207 0
 676 0024 A1F16C00 		sub	r0, r1, #108
 677              	.LVL76:
 678 0028 C0B2     		uxtb	r0, r0
 679 002a FFF7FEFF 		bl	LCD_WriteControl
 680              	.LVL77:
 208:Generated_Source\PSoC5/LCD.c ****         case (uint8) 3:
 681              		.loc 1 208 0
 682 002e 08BD     		pop	{r3, pc}
 683              	.LVL78:
 684              	.L47:
 210:Generated_Source\PSoC5/LCD.c ****             break;
 685              		.loc 1 210 0
 686 0030 A1F12C00 		sub	r0, r1, #44
 687              	.LVL79:
 688 0034 C0B2     		uxtb	r0, r0
 689 0036 FFF7FEFF 		bl	LCD_WriteControl
 690              	.LVL80:
 691              	.L41:
 692 003a 08BD     		pop	{r3, pc}
 693              		.cfi_endproc
 694              	.LFE4:
 695              		.size	LCD_Position, .-LCD_Position
 696              		.global	LCD_initVar
 697              		.global	LCD_enableState
 698              		.bss
 699              		.set	.LANCHOR0,. + 0
 700              		.type	LCD_enableState, %object
 701              		.size	LCD_enableState, 1
 702              	LCD_enableState:
 703 0000 00       		.space	1
 704              		.type	LCD_initVar, %object
 705              		.size	LCD_initVar, 1
 706              	LCD_initVar:
 707 0001 00       		.space	1
 708              		.text
 709              	.Letext0:
 710              		.file 2 "Generated_Source\\PSoC5\\cytypes.h"
 711              		.file 3 "Generated_Source\\PSoC5\\CyLib.h"
