ARM GAS  C:\Users\juano\AppData\Local\Temp\ccvSFdbH.s 			page 1


   1              		.syntax unified
   2              		.cpu cortex-m0
   3              		.fpu softvfp
   4              		.eabi_attribute 20, 1
   5              		.eabi_attribute 21, 1
   6              		.eabi_attribute 23, 3
   7              		.eabi_attribute 24, 1
   8              		.eabi_attribute 25, 1
   9              		.eabi_attribute 26, 1
  10              		.eabi_attribute 30, 1
  11              		.eabi_attribute 34, 0
  12              		.eabi_attribute 18, 4
  13              		.thumb
  14              		.syntax unified
  15              		.file	"cyfitter_cfg.c"
  16              		.text
  17              	.Ltext0:
  18              		.cfi_sections	.debug_frame
  19              		.section	.text.cfg_write_bytes32,"ax",%progbits
  20              		.align	2
  21              		.code	16
  22              		.thumb_func
  23              		.type	cfg_write_bytes32, %function
  24              	cfg_write_bytes32:
  25              	.LFB5:
  26              		.file 1 "Generated_Source\\PSoC4\\cyfitter_cfg.c"
   1:Generated_Source\PSoC4/cyfitter_cfg.c **** 
   2:Generated_Source\PSoC4/cyfitter_cfg.c **** /*******************************************************************************
   3:Generated_Source\PSoC4/cyfitter_cfg.c **** * File Name: cyfitter_cfg.c
   4:Generated_Source\PSoC4/cyfitter_cfg.c **** * 
   5:Generated_Source\PSoC4/cyfitter_cfg.c **** * PSoC Creator  4.4
   6:Generated_Source\PSoC4/cyfitter_cfg.c **** *
   7:Generated_Source\PSoC4/cyfitter_cfg.c **** * Description:
   8:Generated_Source\PSoC4/cyfitter_cfg.c **** * This file contains device initialization code.
   9:Generated_Source\PSoC4/cyfitter_cfg.c **** * Except for the user defined sections in CyClockStartupError(), this file should not be modified.
  10:Generated_Source\PSoC4/cyfitter_cfg.c **** * This file is automatically generated by PSoC Creator.
  11:Generated_Source\PSoC4/cyfitter_cfg.c **** *
  12:Generated_Source\PSoC4/cyfitter_cfg.c **** ********************************************************************************
  13:Generated_Source\PSoC4/cyfitter_cfg.c **** * Copyright (c) 2007-2020 Cypress Semiconductor.  All rights reserved.
  14:Generated_Source\PSoC4/cyfitter_cfg.c **** * You may use this file only in accordance with the license, terms, conditions, 
  15:Generated_Source\PSoC4/cyfitter_cfg.c **** * disclaimers, and limitations in the end user license agreement accompanying 
  16:Generated_Source\PSoC4/cyfitter_cfg.c **** * the software package with which this file was provided.
  17:Generated_Source\PSoC4/cyfitter_cfg.c **** ********************************************************************************/
  18:Generated_Source\PSoC4/cyfitter_cfg.c **** 
  19:Generated_Source\PSoC4/cyfitter_cfg.c **** #include <string.h>
  20:Generated_Source\PSoC4/cyfitter_cfg.c **** #include "cytypes.h"
  21:Generated_Source\PSoC4/cyfitter_cfg.c **** #include "cydevice_trm.h"
  22:Generated_Source\PSoC4/cyfitter_cfg.c **** #include "cyfitter.h"
  23:Generated_Source\PSoC4/cyfitter_cfg.c **** #include "CyLib.h"
  24:Generated_Source\PSoC4/cyfitter_cfg.c **** #include "CyLFClk.h"
  25:Generated_Source\PSoC4/cyfitter_cfg.c **** #include "cyfitter_cfg.h"
  26:Generated_Source\PSoC4/cyfitter_cfg.c **** #include "cyapicallbacks.h"
  27:Generated_Source\PSoC4/cyfitter_cfg.c **** 
  28:Generated_Source\PSoC4/cyfitter_cfg.c **** 
  29:Generated_Source\PSoC4/cyfitter_cfg.c **** #if defined(__GNUC__) || defined(__ARMCC_VERSION)
  30:Generated_Source\PSoC4/cyfitter_cfg.c ****     #define CYPACKED 
  31:Generated_Source\PSoC4/cyfitter_cfg.c ****     #define CYPACKED_ATTR __attribute__ ((packed))
ARM GAS  C:\Users\juano\AppData\Local\Temp\ccvSFdbH.s 			page 2


  32:Generated_Source\PSoC4/cyfitter_cfg.c ****     #define CYALIGNED __attribute__ ((aligned))
  33:Generated_Source\PSoC4/cyfitter_cfg.c ****     #define CY_CFG_UNUSED __attribute__ ((unused))
  34:Generated_Source\PSoC4/cyfitter_cfg.c ****     #ifndef CY_CFG_SECTION
  35:Generated_Source\PSoC4/cyfitter_cfg.c ****         #define CY_CFG_SECTION __attribute__ ((section(".psocinit")))
  36:Generated_Source\PSoC4/cyfitter_cfg.c ****     #endif
  37:Generated_Source\PSoC4/cyfitter_cfg.c ****     
  38:Generated_Source\PSoC4/cyfitter_cfg.c ****     #if defined(__ARMCC_VERSION)
  39:Generated_Source\PSoC4/cyfitter_cfg.c ****         #define CY_CFG_MEMORY_BARRIER() __memory_changed()
  40:Generated_Source\PSoC4/cyfitter_cfg.c ****     #else
  41:Generated_Source\PSoC4/cyfitter_cfg.c ****         #define CY_CFG_MEMORY_BARRIER() __sync_synchronize()
  42:Generated_Source\PSoC4/cyfitter_cfg.c ****     #endif
  43:Generated_Source\PSoC4/cyfitter_cfg.c ****     
  44:Generated_Source\PSoC4/cyfitter_cfg.c **** #elif defined(__ICCARM__)
  45:Generated_Source\PSoC4/cyfitter_cfg.c ****     #include <intrinsics.h>
  46:Generated_Source\PSoC4/cyfitter_cfg.c **** 
  47:Generated_Source\PSoC4/cyfitter_cfg.c ****     #define CYPACKED __packed
  48:Generated_Source\PSoC4/cyfitter_cfg.c ****     #define CYPACKED_ATTR 
  49:Generated_Source\PSoC4/cyfitter_cfg.c ****     #define CYALIGNED _Pragma("data_alignment=4")
  50:Generated_Source\PSoC4/cyfitter_cfg.c ****     #define CY_CFG_UNUSED _Pragma("diag_suppress=Pe177")
  51:Generated_Source\PSoC4/cyfitter_cfg.c ****     #define CY_CFG_SECTION _Pragma("location=\".psocinit\"")
  52:Generated_Source\PSoC4/cyfitter_cfg.c ****     
  53:Generated_Source\PSoC4/cyfitter_cfg.c ****     #define CY_CFG_MEMORY_BARRIER() __DMB()
  54:Generated_Source\PSoC4/cyfitter_cfg.c ****     
  55:Generated_Source\PSoC4/cyfitter_cfg.c **** #else
  56:Generated_Source\PSoC4/cyfitter_cfg.c ****     #error Unsupported toolchain
  57:Generated_Source\PSoC4/cyfitter_cfg.c **** #endif
  58:Generated_Source\PSoC4/cyfitter_cfg.c **** 
  59:Generated_Source\PSoC4/cyfitter_cfg.c **** #ifndef CYCODE
  60:Generated_Source\PSoC4/cyfitter_cfg.c ****     #define CYCODE
  61:Generated_Source\PSoC4/cyfitter_cfg.c **** #endif
  62:Generated_Source\PSoC4/cyfitter_cfg.c **** #ifndef CYDATA
  63:Generated_Source\PSoC4/cyfitter_cfg.c ****     #define CYDATA
  64:Generated_Source\PSoC4/cyfitter_cfg.c **** #endif
  65:Generated_Source\PSoC4/cyfitter_cfg.c **** #ifndef CYFAR
  66:Generated_Source\PSoC4/cyfitter_cfg.c ****     #define CYFAR
  67:Generated_Source\PSoC4/cyfitter_cfg.c **** #endif
  68:Generated_Source\PSoC4/cyfitter_cfg.c **** #ifndef CYXDATA
  69:Generated_Source\PSoC4/cyfitter_cfg.c ****     #define CYXDATA
  70:Generated_Source\PSoC4/cyfitter_cfg.c **** #endif
  71:Generated_Source\PSoC4/cyfitter_cfg.c **** 
  72:Generated_Source\PSoC4/cyfitter_cfg.c **** 
  73:Generated_Source\PSoC4/cyfitter_cfg.c **** CY_CFG_UNUSED
  74:Generated_Source\PSoC4/cyfitter_cfg.c **** static void CYMEMZERO(void *s, size_t n);
  75:Generated_Source\PSoC4/cyfitter_cfg.c **** CY_CFG_UNUSED
  76:Generated_Source\PSoC4/cyfitter_cfg.c **** static void CYMEMZERO(void *s, size_t n)
  77:Generated_Source\PSoC4/cyfitter_cfg.c **** {
  78:Generated_Source\PSoC4/cyfitter_cfg.c **** 	(void)memset(s, 0, n);
  79:Generated_Source\PSoC4/cyfitter_cfg.c **** }
  80:Generated_Source\PSoC4/cyfitter_cfg.c **** CY_CFG_UNUSED
  81:Generated_Source\PSoC4/cyfitter_cfg.c **** static void CYCONFIGCPY(void *dest, const void *src, size_t n);
  82:Generated_Source\PSoC4/cyfitter_cfg.c **** CY_CFG_UNUSED
  83:Generated_Source\PSoC4/cyfitter_cfg.c **** static void CYCONFIGCPY(void *dest, const void *src, size_t n)
  84:Generated_Source\PSoC4/cyfitter_cfg.c **** {
  85:Generated_Source\PSoC4/cyfitter_cfg.c **** 	(void)memcpy(dest, src, n);
  86:Generated_Source\PSoC4/cyfitter_cfg.c **** }
  87:Generated_Source\PSoC4/cyfitter_cfg.c **** CY_CFG_UNUSED
  88:Generated_Source\PSoC4/cyfitter_cfg.c **** static void CYCONFIGCPYCODE(void *dest, const void *src, size_t n);
ARM GAS  C:\Users\juano\AppData\Local\Temp\ccvSFdbH.s 			page 3


  89:Generated_Source\PSoC4/cyfitter_cfg.c **** CY_CFG_UNUSED
  90:Generated_Source\PSoC4/cyfitter_cfg.c **** static void CYCONFIGCPYCODE(void *dest, const void *src, size_t n)
  91:Generated_Source\PSoC4/cyfitter_cfg.c **** {
  92:Generated_Source\PSoC4/cyfitter_cfg.c **** 	(void)memcpy(dest, src, n);
  93:Generated_Source\PSoC4/cyfitter_cfg.c **** }
  94:Generated_Source\PSoC4/cyfitter_cfg.c **** 
  95:Generated_Source\PSoC4/cyfitter_cfg.c **** 
  96:Generated_Source\PSoC4/cyfitter_cfg.c **** 
  97:Generated_Source\PSoC4/cyfitter_cfg.c **** 
  98:Generated_Source\PSoC4/cyfitter_cfg.c **** /* Clock startup error codes                                                   */
  99:Generated_Source\PSoC4/cyfitter_cfg.c **** #define CYCLOCKSTART_NO_ERROR    0u
 100:Generated_Source\PSoC4/cyfitter_cfg.c **** #define CYCLOCKSTART_XTAL_ERROR  1u
 101:Generated_Source\PSoC4/cyfitter_cfg.c **** #define CYCLOCKSTART_32KHZ_ERROR 2u
 102:Generated_Source\PSoC4/cyfitter_cfg.c **** #define CYCLOCKSTART_PLL_ERROR   3u
 103:Generated_Source\PSoC4/cyfitter_cfg.c **** #define CYCLOCKSTART_FLL_ERROR   4u
 104:Generated_Source\PSoC4/cyfitter_cfg.c **** #define CYCLOCKSTART_WCO_ERROR   5u
 105:Generated_Source\PSoC4/cyfitter_cfg.c **** 
 106:Generated_Source\PSoC4/cyfitter_cfg.c **** 
 107:Generated_Source\PSoC4/cyfitter_cfg.c **** #ifdef CY_NEED_CYCLOCKSTARTUPERROR
 108:Generated_Source\PSoC4/cyfitter_cfg.c **** /*******************************************************************************
 109:Generated_Source\PSoC4/cyfitter_cfg.c **** * Function Name: CyClockStartupError
 110:Generated_Source\PSoC4/cyfitter_cfg.c **** ********************************************************************************
 111:Generated_Source\PSoC4/cyfitter_cfg.c **** * Summary:
 112:Generated_Source\PSoC4/cyfitter_cfg.c **** *  If an error is encountered during clock configuration (crystal startup error,
 113:Generated_Source\PSoC4/cyfitter_cfg.c **** *  PLL lock error, etc.), the system will end up here.  Unless reimplemented by
 114:Generated_Source\PSoC4/cyfitter_cfg.c **** *  the customer, this function will stop in an infinite loop.
 115:Generated_Source\PSoC4/cyfitter_cfg.c **** *
 116:Generated_Source\PSoC4/cyfitter_cfg.c **** * Parameters:
 117:Generated_Source\PSoC4/cyfitter_cfg.c **** *   void
 118:Generated_Source\PSoC4/cyfitter_cfg.c **** *
 119:Generated_Source\PSoC4/cyfitter_cfg.c **** * Return:
 120:Generated_Source\PSoC4/cyfitter_cfg.c **** *   void
 121:Generated_Source\PSoC4/cyfitter_cfg.c **** *
 122:Generated_Source\PSoC4/cyfitter_cfg.c **** *******************************************************************************/
 123:Generated_Source\PSoC4/cyfitter_cfg.c **** CY_CFG_UNUSED
 124:Generated_Source\PSoC4/cyfitter_cfg.c **** static void CyClockStartupError(uint8 errorCode);
 125:Generated_Source\PSoC4/cyfitter_cfg.c **** CY_CFG_UNUSED
 126:Generated_Source\PSoC4/cyfitter_cfg.c **** static void CyClockStartupError(uint8 errorCode)
 127:Generated_Source\PSoC4/cyfitter_cfg.c **** {
 128:Generated_Source\PSoC4/cyfitter_cfg.c ****     /* To remove the compiler warning if errorCode not used.                */
 129:Generated_Source\PSoC4/cyfitter_cfg.c ****     errorCode = errorCode;
 130:Generated_Source\PSoC4/cyfitter_cfg.c **** 
 131:Generated_Source\PSoC4/cyfitter_cfg.c ****     /* If we have a clock startup error (bad MHz crystal, PLL lock, etc.),  */
 132:Generated_Source\PSoC4/cyfitter_cfg.c ****     /* we will end up here to allow the customer to implement something to  */
 133:Generated_Source\PSoC4/cyfitter_cfg.c ****     /* deal with the clock condition.                                       */
 134:Generated_Source\PSoC4/cyfitter_cfg.c **** 
 135:Generated_Source\PSoC4/cyfitter_cfg.c **** #ifdef CY_CFG_CLOCK_STARTUP_ERROR_CALLBACK
 136:Generated_Source\PSoC4/cyfitter_cfg.c ****     CY_CFG_Clock_Startup_ErrorCallback();
 137:Generated_Source\PSoC4/cyfitter_cfg.c **** #else
 138:Generated_Source\PSoC4/cyfitter_cfg.c ****     /*  If not using CY_CFG_CLOCK_STARTUP_ERROR_CALLBACK, place your clock startup code here. */
 139:Generated_Source\PSoC4/cyfitter_cfg.c ****     /* `#START CyClockStartupError` */
 140:Generated_Source\PSoC4/cyfitter_cfg.c **** 
 141:Generated_Source\PSoC4/cyfitter_cfg.c **** 
 142:Generated_Source\PSoC4/cyfitter_cfg.c **** 
 143:Generated_Source\PSoC4/cyfitter_cfg.c ****     /* `#END` */
 144:Generated_Source\PSoC4/cyfitter_cfg.c **** 
 145:Generated_Source\PSoC4/cyfitter_cfg.c ****     while(1) {}
ARM GAS  C:\Users\juano\AppData\Local\Temp\ccvSFdbH.s 			page 4


 146:Generated_Source\PSoC4/cyfitter_cfg.c **** #endif /* CY_CFG_CLOCK_STARTUP_ERROR_CALLBACK */
 147:Generated_Source\PSoC4/cyfitter_cfg.c **** }
 148:Generated_Source\PSoC4/cyfitter_cfg.c **** #endif
 149:Generated_Source\PSoC4/cyfitter_cfg.c **** 
 150:Generated_Source\PSoC4/cyfitter_cfg.c **** #define CY_CFG_BASE_ADDR_COUNT 10u
 151:Generated_Source\PSoC4/cyfitter_cfg.c **** CYPACKED typedef struct
 152:Generated_Source\PSoC4/cyfitter_cfg.c **** {
 153:Generated_Source\PSoC4/cyfitter_cfg.c **** 	uint8 offset;
 154:Generated_Source\PSoC4/cyfitter_cfg.c **** 	uint8 value;
 155:Generated_Source\PSoC4/cyfitter_cfg.c **** } CYPACKED_ATTR cy_cfg_addrvalue_t;
 156:Generated_Source\PSoC4/cyfitter_cfg.c **** 
 157:Generated_Source\PSoC4/cyfitter_cfg.c **** 
 158:Generated_Source\PSoC4/cyfitter_cfg.c **** 
 159:Generated_Source\PSoC4/cyfitter_cfg.c **** /*******************************************************************************
 160:Generated_Source\PSoC4/cyfitter_cfg.c **** * Function Name: cfg_write_bytes32
 161:Generated_Source\PSoC4/cyfitter_cfg.c **** ********************************************************************************
 162:Generated_Source\PSoC4/cyfitter_cfg.c **** * Summary:
 163:Generated_Source\PSoC4/cyfitter_cfg.c **** *  This function is used for setting up the chip configuration areas that
 164:Generated_Source\PSoC4/cyfitter_cfg.c **** *  contain relatively sparse data.
 165:Generated_Source\PSoC4/cyfitter_cfg.c **** *
 166:Generated_Source\PSoC4/cyfitter_cfg.c **** * Parameters:
 167:Generated_Source\PSoC4/cyfitter_cfg.c **** *   void
 168:Generated_Source\PSoC4/cyfitter_cfg.c **** *
 169:Generated_Source\PSoC4/cyfitter_cfg.c **** * Return:
 170:Generated_Source\PSoC4/cyfitter_cfg.c **** *   void
 171:Generated_Source\PSoC4/cyfitter_cfg.c **** *
 172:Generated_Source\PSoC4/cyfitter_cfg.c **** *******************************************************************************/
 173:Generated_Source\PSoC4/cyfitter_cfg.c **** static void cfg_write_bytes32(const uint32 addr_table[], const cy_cfg_addrvalue_t data_table[]);
 174:Generated_Source\PSoC4/cyfitter_cfg.c **** static void cfg_write_bytes32(const uint32 addr_table[], const cy_cfg_addrvalue_t data_table[])
 175:Generated_Source\PSoC4/cyfitter_cfg.c **** {
  27              		.loc 1 175 0
  28              		.cfi_startproc
  29              		@ args = 0, pretend = 0, frame = 0
  30              		@ frame_needed = 0, uses_anonymous_args = 0
  31              	.LVL0:
  32 0000 F0B5     		push	{r4, r5, r6, r7, lr}
  33              		.cfi_def_cfa_offset 20
  34              		.cfi_offset 4, -20
  35              		.cfi_offset 5, -16
  36              		.cfi_offset 6, -12
  37              		.cfi_offset 7, -8
  38              		.cfi_offset 14, -4
  39              	.LVL1:
 176:Generated_Source\PSoC4/cyfitter_cfg.c **** 	/* For 32-bit little-endian architectures */
 177:Generated_Source\PSoC4/cyfitter_cfg.c **** 	uint32 i, j = 0u;
  40              		.loc 1 177 0
  41 0002 0025     		movs	r5, #0
 178:Generated_Source\PSoC4/cyfitter_cfg.c **** 	for (i = 0u; i < CY_CFG_BASE_ADDR_COUNT; i++)
  42              		.loc 1 178 0
  43 0004 0027     		movs	r7, #0
  44 0006 11E0     		b	.L2
  45              	.LVL2:
  46              	.L5:
  47              	.LBB2:
 179:Generated_Source\PSoC4/cyfitter_cfg.c **** 	{
 180:Generated_Source\PSoC4/cyfitter_cfg.c **** 		uint32 baseAddr = addr_table[i];
  48              		.loc 1 180 0
ARM GAS  C:\Users\juano\AppData\Local\Temp\ccvSFdbH.s 			page 5


  49 0008 BB00     		lsls	r3, r7, #2
  50 000a C658     		ldr	r6, [r0, r3]
  51              	.LVL3:
 181:Generated_Source\PSoC4/cyfitter_cfg.c **** 		uint8 count = (uint8)baseAddr;
  52              		.loc 1 181 0
  53 000c F3B2     		uxtb	r3, r6
  54              	.LVL4:
 182:Generated_Source\PSoC4/cyfitter_cfg.c **** 		baseAddr &= 0xFFFFFF00u;
  55              		.loc 1 182 0
  56 000e FF22     		movs	r2, #255
  57 0010 9643     		bics	r6, r2
  58              	.LVL5:
 183:Generated_Source\PSoC4/cyfitter_cfg.c **** 		while (count != 0u)
  59              		.loc 1 183 0
  60 0012 08E0     		b	.L3
  61              	.L4:
 184:Generated_Source\PSoC4/cyfitter_cfg.c **** 		{
 185:Generated_Source\PSoC4/cyfitter_cfg.c **** 			CY_SET_REG8((void *)(baseAddr + data_table[j].offset), data_table[j].value);
  62              		.loc 1 185 0
  63 0014 6A00     		lsls	r2, r5, #1
  64 0016 8A18     		adds	r2, r1, r2
  65 0018 1478     		ldrb	r4, [r2]
  66 001a A419     		adds	r4, r4, r6
  67 001c 5278     		ldrb	r2, [r2, #1]
  68 001e 2270     		strb	r2, [r4]
 186:Generated_Source\PSoC4/cyfitter_cfg.c **** 			j++;
  69              		.loc 1 186 0
  70 0020 0135     		adds	r5, r5, #1
  71              	.LVL6:
 187:Generated_Source\PSoC4/cyfitter_cfg.c **** 			count--;
  72              		.loc 1 187 0
  73 0022 013B     		subs	r3, r3, #1
  74              	.LVL7:
  75 0024 DBB2     		uxtb	r3, r3
  76              	.LVL8:
  77              	.L3:
 183:Generated_Source\PSoC4/cyfitter_cfg.c **** 		{
  78              		.loc 1 183 0
  79 0026 002B     		cmp	r3, #0
  80 0028 F4D1     		bne	.L4
  81              	.LBE2:
 178:Generated_Source\PSoC4/cyfitter_cfg.c **** 	{
  82              		.loc 1 178 0 discriminator 2
  83 002a 0137     		adds	r7, r7, #1
  84              	.LVL9:
  85              	.L2:
 178:Generated_Source\PSoC4/cyfitter_cfg.c **** 	{
  86              		.loc 1 178 0 is_stmt 0 discriminator 1
  87 002c 092F     		cmp	r7, #9
  88 002e EBD9     		bls	.L5
 188:Generated_Source\PSoC4/cyfitter_cfg.c **** 		}
 189:Generated_Source\PSoC4/cyfitter_cfg.c **** 	}
 190:Generated_Source\PSoC4/cyfitter_cfg.c **** }
  89              		.loc 1 190 0 is_stmt 1
  90              		@ sp needed
  91              	.LVL10:
  92              	.LVL11:
ARM GAS  C:\Users\juano\AppData\Local\Temp\ccvSFdbH.s 			page 6


  93 0030 F0BD     		pop	{r4, r5, r6, r7, pc}
  94              		.cfi_endproc
  95              	.LFE5:
  96              		.size	cfg_write_bytes32, .-cfg_write_bytes32
  97 0032 C046     		.section	.text.AnalogSetDefault,"ax",%progbits
  98              		.align	2
  99              		.code	16
 100              		.thumb_func
 101              		.type	AnalogSetDefault, %function
 102              	AnalogSetDefault:
 103              	.LFB7:
 191:Generated_Source\PSoC4/cyfitter_cfg.c **** 
 192:Generated_Source\PSoC4/cyfitter_cfg.c **** 
 193:Generated_Source\PSoC4/cyfitter_cfg.c **** /*******************************************************************************
 194:Generated_Source\PSoC4/cyfitter_cfg.c **** * Function Name: ClockSetup
 195:Generated_Source\PSoC4/cyfitter_cfg.c **** ********************************************************************************
 196:Generated_Source\PSoC4/cyfitter_cfg.c **** *
 197:Generated_Source\PSoC4/cyfitter_cfg.c **** * Summary:
 198:Generated_Source\PSoC4/cyfitter_cfg.c **** *   Performs the initialization of all of the clocks in the device based on the
 199:Generated_Source\PSoC4/cyfitter_cfg.c **** *   settings in the Clock tab of the DWR.  This includes enabling the requested
 200:Generated_Source\PSoC4/cyfitter_cfg.c **** *   clocks and setting the necessary dividers to produce the desired frequency. 
 201:Generated_Source\PSoC4/cyfitter_cfg.c **** *
 202:Generated_Source\PSoC4/cyfitter_cfg.c **** * Parameters:
 203:Generated_Source\PSoC4/cyfitter_cfg.c **** *   void
 204:Generated_Source\PSoC4/cyfitter_cfg.c **** *
 205:Generated_Source\PSoC4/cyfitter_cfg.c **** * Return:
 206:Generated_Source\PSoC4/cyfitter_cfg.c **** *   void
 207:Generated_Source\PSoC4/cyfitter_cfg.c **** *
 208:Generated_Source\PSoC4/cyfitter_cfg.c **** *******************************************************************************/
 209:Generated_Source\PSoC4/cyfitter_cfg.c **** static void ClockSetup(void);
 210:Generated_Source\PSoC4/cyfitter_cfg.c **** CY_CFG_SECTION
 211:Generated_Source\PSoC4/cyfitter_cfg.c **** static void ClockSetup(void)
 212:Generated_Source\PSoC4/cyfitter_cfg.c **** {
 213:Generated_Source\PSoC4/cyfitter_cfg.c **** 
 214:Generated_Source\PSoC4/cyfitter_cfg.c **** 	/* Set Flash Cycles based on max possible frequency in case a glitch occurs during ClockSetup(). *
 215:Generated_Source\PSoC4/cyfitter_cfg.c **** 	CY_SET_REG32((void CYXDATA *)(CYREG_CPUSS_FLASH_CTL), (0x0012u));
 216:Generated_Source\PSoC4/cyfitter_cfg.c **** 
 217:Generated_Source\PSoC4/cyfitter_cfg.c **** 	/* Start the WCO */
 218:Generated_Source\PSoC4/cyfitter_cfg.c **** 	CySysClkWcoStart();
 219:Generated_Source\PSoC4/cyfitter_cfg.c **** 	CyDelayCycles(12000000u); /* WCO may take up to 500ms to start */
 220:Generated_Source\PSoC4/cyfitter_cfg.c **** 	(void)CySysClkWcoSetPowerMode(CY_SYS_CLK_WCO_LPM);    /* Switch to the low power mode */
 221:Generated_Source\PSoC4/cyfitter_cfg.c **** 
 222:Generated_Source\PSoC4/cyfitter_cfg.c **** 	/* Setup and trim IMO based on desired frequency. */
 223:Generated_Source\PSoC4/cyfitter_cfg.c **** 	CySysClkWriteImoFreq(48u);
 224:Generated_Source\PSoC4/cyfitter_cfg.c **** 	/* CYDEV_CLK_ILO_CONFIG Starting address: CYDEV_CLK_ILO_CONFIG */
 225:Generated_Source\PSoC4/cyfitter_cfg.c **** 	CY_SET_REG32((void *)(CYREG_CLK_ILO_CONFIG), 0x80000006u);
 226:Generated_Source\PSoC4/cyfitter_cfg.c **** 
 227:Generated_Source\PSoC4/cyfitter_cfg.c **** 	/* CYDEV_WDT_CONFIG Starting address: CYDEV_WDT_CONFIG */
 228:Generated_Source\PSoC4/cyfitter_cfg.c **** 	CY_SET_REG32((void *)(CYREG_WDT_CONFIG), 0x40000000u);
 229:Generated_Source\PSoC4/cyfitter_cfg.c **** 
 230:Generated_Source\PSoC4/cyfitter_cfg.c **** 
 231:Generated_Source\PSoC4/cyfitter_cfg.c **** 	/* Enable fast start mode for XO */
 232:Generated_Source\PSoC4/cyfitter_cfg.c **** 	CY_SET_REG32((void*)CYREG_BLE_BLERD_BB_XO, CY_GET_REG32((void*)CYREG_BLE_BLERD_BB_XO) | (uint32)0x
 233:Generated_Source\PSoC4/cyfitter_cfg.c **** 	CY_SET_REG32((void *)(CYREG_BLE_BLERD_BB_XO_CAPTRIM), 0x00003E2Du);
 234:Generated_Source\PSoC4/cyfitter_cfg.c **** 	/*Set XTAL(ECO) divider*/
 235:Generated_Source\PSoC4/cyfitter_cfg.c **** 	CY_SET_REG32((void *)(CYREG_BLE_BLESS_XTAL_CLK_DIV_CONFIG), 0x00000000u);
 236:Generated_Source\PSoC4/cyfitter_cfg.c **** 	/* Disable Crystal Stable Interrupt before enabling ECO */
ARM GAS  C:\Users\juano\AppData\Local\Temp\ccvSFdbH.s 			page 7


 237:Generated_Source\PSoC4/cyfitter_cfg.c **** 	CY_SET_REG32((void*)CYREG_BLE_BLESS_LL_DSM_CTRL, CY_GET_REG32((void*)CYREG_BLE_BLESS_LL_DSM_CTRL) 
 238:Generated_Source\PSoC4/cyfitter_cfg.c **** 	/* Start the ECO and do not check status since it is not needed for HFCLK */
 239:Generated_Source\PSoC4/cyfitter_cfg.c **** 	(void)CySysClkEcoStart(2000u);
 240:Generated_Source\PSoC4/cyfitter_cfg.c **** 	CyDelayUs(1500u); /* Wait to stabilize */
 241:Generated_Source\PSoC4/cyfitter_cfg.c **** 
 242:Generated_Source\PSoC4/cyfitter_cfg.c **** 	/* Setup phase aligned clocks */
 243:Generated_Source\PSoC4/cyfitter_cfg.c **** 	CY_SET_REG32((void *)CYREG_PERI_DIV_16_CTL1, 0x000F9F00u);
 244:Generated_Source\PSoC4/cyfitter_cfg.c **** 	CY_SET_REG32((void *)CYREG_PERI_DIV_CMD, 0x8000FF41u);
 245:Generated_Source\PSoC4/cyfitter_cfg.c **** 	CY_SET_REG32((void *)CYREG_PERI_DIV_16_CTL0, 0x00003300u);
 246:Generated_Source\PSoC4/cyfitter_cfg.c **** 	CY_SET_REG32((void *)CYREG_PERI_DIV_CMD, 0x8000FF40u);
 247:Generated_Source\PSoC4/cyfitter_cfg.c **** 
 248:Generated_Source\PSoC4/cyfitter_cfg.c **** 	/* CYDEV_CLK_IMO_CONFIG Starting address: CYDEV_CLK_IMO_CONFIG */
 249:Generated_Source\PSoC4/cyfitter_cfg.c **** 	CY_SET_REG32((void *)(CYREG_CLK_IMO_CONFIG), 0x80000000u);
 250:Generated_Source\PSoC4/cyfitter_cfg.c **** 
 251:Generated_Source\PSoC4/cyfitter_cfg.c **** 	/* CYDEV_CLK_SELECT Starting address: CYDEV_CLK_SELECT */
 252:Generated_Source\PSoC4/cyfitter_cfg.c **** 	CY_SET_REG32((void *)(CYREG_CLK_SELECT), 0x00040000u);
 253:Generated_Source\PSoC4/cyfitter_cfg.c **** 
 254:Generated_Source\PSoC4/cyfitter_cfg.c **** 	/* CYDEV_PERI_PCLK_CTL14 Starting address: CYDEV_PERI_PCLK_CTL14 */
 255:Generated_Source\PSoC4/cyfitter_cfg.c **** 	CY_SET_REG32((void *)(CYREG_PERI_PCLK_CTL14), 0x00000041u);
 256:Generated_Source\PSoC4/cyfitter_cfg.c **** 
 257:Generated_Source\PSoC4/cyfitter_cfg.c **** 	/* CYDEV_PERI_PCLK_CTL12 Starting address: CYDEV_PERI_PCLK_CTL12 */
 258:Generated_Source\PSoC4/cyfitter_cfg.c **** 	CY_SET_REG32((void *)(CYREG_PERI_PCLK_CTL12), 0x00000040u);
 259:Generated_Source\PSoC4/cyfitter_cfg.c **** 
 260:Generated_Source\PSoC4/cyfitter_cfg.c **** 	(void)CyIntSetVector(8u, &CySysWdtIsr);
 261:Generated_Source\PSoC4/cyfitter_cfg.c **** 	CyIntEnable(8u);
 262:Generated_Source\PSoC4/cyfitter_cfg.c **** 	CY_SET_REG32((void *)(CYREG_WDT_CONFIG), 0x40000000u);
 263:Generated_Source\PSoC4/cyfitter_cfg.c **** }
 264:Generated_Source\PSoC4/cyfitter_cfg.c **** 
 265:Generated_Source\PSoC4/cyfitter_cfg.c **** 
 266:Generated_Source\PSoC4/cyfitter_cfg.c **** /* Analog API Functions */
 267:Generated_Source\PSoC4/cyfitter_cfg.c **** 
 268:Generated_Source\PSoC4/cyfitter_cfg.c **** 
 269:Generated_Source\PSoC4/cyfitter_cfg.c **** /*******************************************************************************
 270:Generated_Source\PSoC4/cyfitter_cfg.c **** * Function Name: AnalogSetDefault
 271:Generated_Source\PSoC4/cyfitter_cfg.c **** ********************************************************************************
 272:Generated_Source\PSoC4/cyfitter_cfg.c **** *
 273:Generated_Source\PSoC4/cyfitter_cfg.c **** * Summary:
 274:Generated_Source\PSoC4/cyfitter_cfg.c **** *  Sets up the analog portions of the chip to default values based on chip
 275:Generated_Source\PSoC4/cyfitter_cfg.c **** *  configuration options from the project.
 276:Generated_Source\PSoC4/cyfitter_cfg.c **** *
 277:Generated_Source\PSoC4/cyfitter_cfg.c **** * Parameters:
 278:Generated_Source\PSoC4/cyfitter_cfg.c **** *  void
 279:Generated_Source\PSoC4/cyfitter_cfg.c **** *
 280:Generated_Source\PSoC4/cyfitter_cfg.c **** * Return:
 281:Generated_Source\PSoC4/cyfitter_cfg.c **** *  void
 282:Generated_Source\PSoC4/cyfitter_cfg.c **** *
 283:Generated_Source\PSoC4/cyfitter_cfg.c **** *******************************************************************************/
 284:Generated_Source\PSoC4/cyfitter_cfg.c **** static void AnalogSetDefault(void);
 285:Generated_Source\PSoC4/cyfitter_cfg.c **** static void AnalogSetDefault(void)
 286:Generated_Source\PSoC4/cyfitter_cfg.c **** {
 104              		.loc 1 286 0
 105              		.cfi_startproc
 106              		@ args = 0, pretend = 0, frame = 0
 107              		@ frame_needed = 0, uses_anonymous_args = 0
 108              		@ link register save eliminated.
 287:Generated_Source\PSoC4/cyfitter_cfg.c **** 	CY_SET_XTND_REG32((void CYFAR *)CYREG_CTBM0_DFT_CTRL, 0x00000003u);
 109              		.loc 1 287 0
ARM GAS  C:\Users\juano\AppData\Local\Temp\ccvSFdbH.s 			page 8


 110 0000 0323     		movs	r3, #3
 111 0002 044A     		ldr	r2, .L7
 112 0004 1360     		str	r3, [r2]
 288:Generated_Source\PSoC4/cyfitter_cfg.c **** 	CY_SET_XTND_REG32((void CYFAR *)CYREG_CTBM1_DFT_CTRL, 0x00000003u);
 113              		.loc 1 288 0
 114 0006 044A     		ldr	r2, .L7+4
 115 0008 1360     		str	r3, [r2]
 289:Generated_Source\PSoC4/cyfitter_cfg.c **** 	CY_SET_XTND_REG32((void CYFAR *)CYREG_PASS_DSAB_DSAB_CTRL, 0x00000000u);
 116              		.loc 1 289 0
 117 000a 0022     		movs	r2, #0
 118 000c 034B     		ldr	r3, .L7+8
 119 000e 1A60     		str	r2, [r3]
 290:Generated_Source\PSoC4/cyfitter_cfg.c **** }
 120              		.loc 1 290 0
 121              		@ sp needed
 122 0010 7047     		bx	lr
 123              	.L8:
 124 0012 C046     		.align	2
 125              	.L7:
 126 0014 30003040 		.word	1076887600
 127 0018 30003140 		.word	1076953136
 128 001c 000E3F40 		.word	1077874176
 129              		.cfi_endproc
 130              	.LFE7:
 131              		.size	AnalogSetDefault, .-AnalogSetDefault
 132              		.section	.text.CYMEMZERO,"ax",%progbits
 133              		.align	2
 134              		.code	16
 135              		.thumb_func
 136              		.type	CYMEMZERO, %function
 137              	CYMEMZERO:
 138              	.LFB2:
  77:Generated_Source\PSoC4/cyfitter_cfg.c **** 	(void)memset(s, 0, n);
 139              		.loc 1 77 0
 140              		.cfi_startproc
 141              		@ args = 0, pretend = 0, frame = 0
 142              		@ frame_needed = 0, uses_anonymous_args = 0
 143              	.LVL12:
 144 0000 10B5     		push	{r4, lr}
 145              		.cfi_def_cfa_offset 8
 146              		.cfi_offset 4, -8
 147              		.cfi_offset 14, -4
 148 0002 0A00     		movs	r2, r1
  78:Generated_Source\PSoC4/cyfitter_cfg.c **** }
 149              		.loc 1 78 0
 150 0004 0021     		movs	r1, #0
 151              	.LVL13:
 152 0006 FFF7FEFF 		bl	memset
 153              	.LVL14:
  79:Generated_Source\PSoC4/cyfitter_cfg.c **** CY_CFG_UNUSED
 154              		.loc 1 79 0
 155              		@ sp needed
 156 000a 10BD     		pop	{r4, pc}
 157              		.cfi_endproc
 158              	.LFE2:
 159              		.size	CYMEMZERO, .-CYMEMZERO
 160              		.section	.text.CYCONFIGCPYCODE,"ax",%progbits
ARM GAS  C:\Users\juano\AppData\Local\Temp\ccvSFdbH.s 			page 9


 161              		.align	2
 162              		.code	16
 163              		.thumb_func
 164              		.type	CYCONFIGCPYCODE, %function
 165              	CYCONFIGCPYCODE:
 166              	.LFB4:
  91:Generated_Source\PSoC4/cyfitter_cfg.c **** 	(void)memcpy(dest, src, n);
 167              		.loc 1 91 0
 168              		.cfi_startproc
 169              		@ args = 0, pretend = 0, frame = 0
 170              		@ frame_needed = 0, uses_anonymous_args = 0
 171              	.LVL15:
 172 0000 10B5     		push	{r4, lr}
 173              		.cfi_def_cfa_offset 8
 174              		.cfi_offset 4, -8
 175              		.cfi_offset 14, -4
  92:Generated_Source\PSoC4/cyfitter_cfg.c **** }
 176              		.loc 1 92 0
 177 0002 FFF7FEFF 		bl	memcpy
 178              	.LVL16:
  93:Generated_Source\PSoC4/cyfitter_cfg.c **** 
 179              		.loc 1 93 0
 180              		@ sp needed
 181 0006 10BD     		pop	{r4, pc}
 182              		.cfi_endproc
 183              	.LFE4:
 184              		.size	CYCONFIGCPYCODE, .-CYCONFIGCPYCODE
 185              		.section	.psocinit,"ax",%progbits
 186              		.align	2
 187              		.code	16
 188              		.thumb_func
 189              		.type	ClockSetup, %function
 190              	ClockSetup:
 191              	.LFB6:
 212:Generated_Source\PSoC4/cyfitter_cfg.c **** 
 192              		.loc 1 212 0
 193              		.cfi_startproc
 194              		@ args = 0, pretend = 0, frame = 0
 195              		@ frame_needed = 0, uses_anonymous_args = 0
 196 0000 70B5     		push	{r4, r5, r6, lr}
 197              		.cfi_def_cfa_offset 16
 198              		.cfi_offset 4, -16
 199              		.cfi_offset 5, -12
 200              		.cfi_offset 6, -8
 201              		.cfi_offset 14, -4
 215:Generated_Source\PSoC4/cyfitter_cfg.c **** 
 202              		.loc 1 215 0
 203 0002 1222     		movs	r2, #18
 204 0004 264B     		ldr	r3, .L12
 205 0006 1A60     		str	r2, [r3]
 218:Generated_Source\PSoC4/cyfitter_cfg.c **** 	CyDelayCycles(12000000u); /* WCO may take up to 500ms to start */
 206              		.loc 1 218 0
 207 0008 FFF7FEFF 		bl	CySysClkWcoStart
 208              	.LVL17:
 219:Generated_Source\PSoC4/cyfitter_cfg.c **** 	(void)CySysClkWcoSetPowerMode(CY_SYS_CLK_WCO_LPM);    /* Switch to the low power mode */
 209              		.loc 1 219 0
 210 000c 2548     		ldr	r0, .L12+4
ARM GAS  C:\Users\juano\AppData\Local\Temp\ccvSFdbH.s 			page 10


 211 000e FFF7FEFF 		bl	CyDelayCycles
 212              	.LVL18:
 220:Generated_Source\PSoC4/cyfitter_cfg.c **** 
 213              		.loc 1 220 0
 214 0012 0120     		movs	r0, #1
 215 0014 FFF7FEFF 		bl	CySysClkWcoSetPowerMode
 216              	.LVL19:
 223:Generated_Source\PSoC4/cyfitter_cfg.c **** 	/* CYDEV_CLK_ILO_CONFIG Starting address: CYDEV_CLK_ILO_CONFIG */
 217              		.loc 1 223 0
 218 0018 3020     		movs	r0, #48
 219 001a FFF7FEFF 		bl	CySysClkWriteImoFreq
 220              	.LVL20:
 225:Generated_Source\PSoC4/cyfitter_cfg.c **** 
 221              		.loc 1 225 0
 222 001e 224A     		ldr	r2, .L12+8
 223 0020 224B     		ldr	r3, .L12+12
 224 0022 1A60     		str	r2, [r3]
 228:Generated_Source\PSoC4/cyfitter_cfg.c **** 
 225              		.loc 1 228 0
 226 0024 224C     		ldr	r4, .L12+16
 227 0026 8025     		movs	r5, #128
 228 0028 ED05     		lsls	r5, r5, #23
 229 002a 2560     		str	r5, [r4]
 232:Generated_Source\PSoC4/cyfitter_cfg.c **** 	CY_SET_REG32((void *)(CYREG_BLE_BLERD_BB_XO_CAPTRIM), 0x00003E2Du);
 230              		.loc 1 232 0
 231 002c 214A     		ldr	r2, .L12+20
 232 002e 1168     		ldr	r1, [r2]
 233 0030 0223     		movs	r3, #2
 234 0032 0B43     		orrs	r3, r1
 235 0034 1360     		str	r3, [r2]
 233:Generated_Source\PSoC4/cyfitter_cfg.c **** 	/*Set XTAL(ECO) divider*/
 236              		.loc 1 233 0
 237 0036 204A     		ldr	r2, .L12+24
 238 0038 204B     		ldr	r3, .L12+28
 239 003a 1A60     		str	r2, [r3]
 235:Generated_Source\PSoC4/cyfitter_cfg.c **** 	/* Disable Crystal Stable Interrupt before enabling ECO */
 240              		.loc 1 235 0
 241 003c 0022     		movs	r2, #0
 242 003e 204B     		ldr	r3, .L12+32
 243 0040 1A60     		str	r2, [r3]
 237:Generated_Source\PSoC4/cyfitter_cfg.c **** 	/* Start the ECO and do not check status since it is not needed for HFCLK */
 244              		.loc 1 237 0
 245 0042 204A     		ldr	r2, .L12+36
 246 0044 1368     		ldr	r3, [r2]
 247 0046 0821     		movs	r1, #8
 248 0048 8B43     		bics	r3, r1
 249 004a 1360     		str	r3, [r2]
 239:Generated_Source\PSoC4/cyfitter_cfg.c **** 	CyDelayUs(1500u); /* Wait to stabilize */
 250              		.loc 1 239 0
 251 004c FA20     		movs	r0, #250
 252 004e C000     		lsls	r0, r0, #3
 253 0050 FFF7FEFF 		bl	CySysClkEcoStart
 254              	.LVL21:
 240:Generated_Source\PSoC4/cyfitter_cfg.c **** 
 255              		.loc 1 240 0
 256 0054 1C48     		ldr	r0, .L12+40
 257 0056 FFF7FEFF 		bl	CyDelayUs
ARM GAS  C:\Users\juano\AppData\Local\Temp\ccvSFdbH.s 			page 11


 258              	.LVL22:
 243:Generated_Source\PSoC4/cyfitter_cfg.c **** 	CY_SET_REG32((void *)CYREG_PERI_DIV_CMD, 0x8000FF41u);
 259              		.loc 1 243 0
 260 005a 1C4A     		ldr	r2, .L12+44
 261 005c 1C4B     		ldr	r3, .L12+48
 262 005e 1A60     		str	r2, [r3]
 244:Generated_Source\PSoC4/cyfitter_cfg.c **** 	CY_SET_REG32((void *)CYREG_PERI_DIV_16_CTL0, 0x00003300u);
 263              		.loc 1 244 0
 264 0060 1C4B     		ldr	r3, .L12+52
 265 0062 1D4A     		ldr	r2, .L12+56
 266 0064 1A60     		str	r2, [r3]
 245:Generated_Source\PSoC4/cyfitter_cfg.c **** 	CY_SET_REG32((void *)CYREG_PERI_DIV_CMD, 0x8000FF40u);
 267              		.loc 1 245 0
 268 0066 CC21     		movs	r1, #204
 269 0068 8901     		lsls	r1, r1, #6
 270 006a 1C4A     		ldr	r2, .L12+60
 271 006c 1160     		str	r1, [r2]
 246:Generated_Source\PSoC4/cyfitter_cfg.c **** 
 272              		.loc 1 246 0
 273 006e 1C4A     		ldr	r2, .L12+64
 274 0070 1A60     		str	r2, [r3]
 249:Generated_Source\PSoC4/cyfitter_cfg.c **** 
 275              		.loc 1 249 0
 276 0072 8022     		movs	r2, #128
 277 0074 1206     		lsls	r2, r2, #24
 278 0076 1B4B     		ldr	r3, .L12+68
 279 0078 1A60     		str	r2, [r3]
 252:Generated_Source\PSoC4/cyfitter_cfg.c **** 
 280              		.loc 1 252 0
 281 007a 8022     		movs	r2, #128
 282 007c D202     		lsls	r2, r2, #11
 283 007e 1A4B     		ldr	r3, .L12+72
 284 0080 1A60     		str	r2, [r3]
 255:Generated_Source\PSoC4/cyfitter_cfg.c **** 
 285              		.loc 1 255 0
 286 0082 4122     		movs	r2, #65
 287 0084 194B     		ldr	r3, .L12+76
 288 0086 1A60     		str	r2, [r3]
 258:Generated_Source\PSoC4/cyfitter_cfg.c **** 
 289              		.loc 1 258 0
 290 0088 013A     		subs	r2, r2, #1
 291 008a 194B     		ldr	r3, .L12+80
 292 008c 1A60     		str	r2, [r3]
 260:Generated_Source\PSoC4/cyfitter_cfg.c **** 	CyIntEnable(8u);
 293              		.loc 1 260 0
 294 008e 1949     		ldr	r1, .L12+84
 295 0090 0820     		movs	r0, #8
 296 0092 FFF7FEFF 		bl	CyIntSetVector
 297              	.LVL23:
 261:Generated_Source\PSoC4/cyfitter_cfg.c **** 	CY_SET_REG32((void *)(CYREG_WDT_CONFIG), 0x40000000u);
 298              		.loc 1 261 0
 299 0096 0820     		movs	r0, #8
 300 0098 FFF7FEFF 		bl	CyIntEnable
 301              	.LVL24:
 262:Generated_Source\PSoC4/cyfitter_cfg.c **** }
 302              		.loc 1 262 0
 303 009c 2560     		str	r5, [r4]
ARM GAS  C:\Users\juano\AppData\Local\Temp\ccvSFdbH.s 			page 12


 263:Generated_Source\PSoC4/cyfitter_cfg.c **** 
 304              		.loc 1 263 0
 305              		@ sp needed
 306 009e 70BD     		pop	{r4, r5, r6, pc}
 307              	.L13:
 308              		.align	2
 309              	.L12:
 310 00a0 30001040 		.word	1074790448
 311 00a4 001BB700 		.word	12000000
 312 00a8 06000080 		.word	-2147483642
 313 00ac 04010B40 		.word	1074462980
 314 00b0 0C020B40 		.word	1074463244
 315 00b4 78002E40 		.word	1076756600
 316 00b8 2D3E0000 		.word	15917
 317 00bc 7C002E40 		.word	1076756604
 318 00c0 64F02E40 		.word	1076818020
 319 00c4 6CF02E40 		.word	1076818028
 320 00c8 DC050000 		.word	1500
 321 00cc 009F0F00 		.word	1023744
 322 00d0 04030140 		.word	1073808132
 323 00d4 00000140 		.word	1073807360
 324 00d8 41FF0080 		.word	-2147418303
 325 00dc 00030140 		.word	1073808128
 326 00e0 40FF0080 		.word	-2147418304
 327 00e4 08010B40 		.word	1074462984
 328 00e8 00010B40 		.word	1074462976
 329 00ec 38010140 		.word	1073807672
 330 00f0 30010140 		.word	1073807664
 331 00f4 00000000 		.word	CySysWdtIsr
 332              		.cfi_endproc
 333              	.LFE6:
 334              		.size	ClockSetup, .-ClockSetup
 335              		.align	2
 336              		.global	cyfitter_cfg
 337              		.code	16
 338              		.thumb_func
 339              		.type	cyfitter_cfg, %function
 340              	cyfitter_cfg:
 341              	.LFB8:
 291:Generated_Source\PSoC4/cyfitter_cfg.c **** 
 292:Generated_Source\PSoC4/cyfitter_cfg.c **** 
 293:Generated_Source\PSoC4/cyfitter_cfg.c **** 
 294:Generated_Source\PSoC4/cyfitter_cfg.c **** 
 295:Generated_Source\PSoC4/cyfitter_cfg.c **** /*******************************************************************************
 296:Generated_Source\PSoC4/cyfitter_cfg.c **** * Function Name: cyfitter_cfg
 297:Generated_Source\PSoC4/cyfitter_cfg.c **** ********************************************************************************
 298:Generated_Source\PSoC4/cyfitter_cfg.c **** * Summary:
 299:Generated_Source\PSoC4/cyfitter_cfg.c **** *  This function is called by the start-up code for the selected device. It
 300:Generated_Source\PSoC4/cyfitter_cfg.c **** *  performs all of the necessary device configuration based on the design
 301:Generated_Source\PSoC4/cyfitter_cfg.c **** *  settings.  This includes settings from the Design Wide Resources (DWR) such
 302:Generated_Source\PSoC4/cyfitter_cfg.c **** *  as Clocks and Pins as well as any component configuration that is necessary.
 303:Generated_Source\PSoC4/cyfitter_cfg.c **** *
 304:Generated_Source\PSoC4/cyfitter_cfg.c **** * Parameters:
 305:Generated_Source\PSoC4/cyfitter_cfg.c **** *   void
 306:Generated_Source\PSoC4/cyfitter_cfg.c **** *
 307:Generated_Source\PSoC4/cyfitter_cfg.c **** * Return:
 308:Generated_Source\PSoC4/cyfitter_cfg.c **** *   void
ARM GAS  C:\Users\juano\AppData\Local\Temp\ccvSFdbH.s 			page 13


 309:Generated_Source\PSoC4/cyfitter_cfg.c **** *
 310:Generated_Source\PSoC4/cyfitter_cfg.c **** *******************************************************************************/
 311:Generated_Source\PSoC4/cyfitter_cfg.c **** CY_CFG_SECTION
 312:Generated_Source\PSoC4/cyfitter_cfg.c **** void cyfitter_cfg(void)
 313:Generated_Source\PSoC4/cyfitter_cfg.c **** {
 342              		.loc 1 313 0
 343              		.cfi_startproc
 344              		@ args = 0, pretend = 0, frame = 0
 345              		@ frame_needed = 0, uses_anonymous_args = 0
 346 00f8 70B5     		push	{r4, r5, r6, lr}
 347              		.cfi_def_cfa_offset 16
 348              		.cfi_offset 4, -16
 349              		.cfi_offset 5, -12
 350              		.cfi_offset 6, -8
 351              		.cfi_offset 14, -4
 314:Generated_Source\PSoC4/cyfitter_cfg.c **** 	/* Disable interrupts by default. Let user enable if/when they want. */
 315:Generated_Source\PSoC4/cyfitter_cfg.c **** 	CyGlobalIntDisable;
 352              		.loc 1 315 0
 353              		.syntax divided
 354              	@ 315 "Generated_Source\PSoC4\cyfitter_cfg.c" 1
 355 00fa 72B6     		CPSID   i
 356              	@ 0 "" 2
 316:Generated_Source\PSoC4/cyfitter_cfg.c **** 
 317:Generated_Source\PSoC4/cyfitter_cfg.c **** 	CY_SET_REG32((void *)(CYREG_BLE_BLESS_LL_DSM_CTRL), 0x00000000u);
 357              		.loc 1 317 0
 358              		.thumb
 359              		.syntax unified
 360 00fc 0022     		movs	r2, #0
 361 00fe 434B     		ldr	r3, .L19
 362 0100 1A60     		str	r2, [r3]
 318:Generated_Source\PSoC4/cyfitter_cfg.c **** 
 319:Generated_Source\PSoC4/cyfitter_cfg.c **** 	/* Enable the clock in the interrupt controller for the routed interrupts */
 320:Generated_Source\PSoC4/cyfitter_cfg.c **** 	CY_SET_REG8((void *)CYREG_UDB_UDBIF_INT_CLK_CTL, 0x01u);
 363              		.loc 1 320 0
 364 0102 0132     		adds	r2, r2, #1
 365 0104 424B     		ldr	r3, .L19+4
 366 0106 1A70     		strb	r2, [r3]
 367              	.LVL25:
 368              	.LBB3:
 321:Generated_Source\PSoC4/cyfitter_cfg.c **** 	{
 322:Generated_Source\PSoC4/cyfitter_cfg.c **** 		static const uint32 CYCODE cy_cfg_addr_table[] = {
 323:Generated_Source\PSoC4/cyfitter_cfg.c **** 			0x400F0004u, /* Base address: 0x400F0000 Count: 4 */
 324:Generated_Source\PSoC4/cyfitter_cfg.c **** 			0x400F3076u, /* Base address: 0x400F3000 Count: 118 */
 325:Generated_Source\PSoC4/cyfitter_cfg.c **** 			0x400F3143u, /* Base address: 0x400F3100 Count: 67 */
 326:Generated_Source\PSoC4/cyfitter_cfg.c **** 			0x400F322Du, /* Base address: 0x400F3200 Count: 45 */
 327:Generated_Source\PSoC4/cyfitter_cfg.c **** 			0x400F3347u, /* Base address: 0x400F3300 Count: 71 */
 328:Generated_Source\PSoC4/cyfitter_cfg.c **** 			0x400F4002u, /* Base address: 0x400F4000 Count: 2 */
 329:Generated_Source\PSoC4/cyfitter_cfg.c **** 			0x400F410Cu, /* Base address: 0x400F4100 Count: 12 */
 330:Generated_Source\PSoC4/cyfitter_cfg.c **** 			0x400F4202u, /* Base address: 0x400F4200 Count: 2 */
 331:Generated_Source\PSoC4/cyfitter_cfg.c **** 			0x400F4303u, /* Base address: 0x400F4300 Count: 3 */
 332:Generated_Source\PSoC4/cyfitter_cfg.c **** 			0x400F6002u, /* Base address: 0x400F6000 Count: 2 */
 333:Generated_Source\PSoC4/cyfitter_cfg.c **** 		};
 334:Generated_Source\PSoC4/cyfitter_cfg.c **** 
 335:Generated_Source\PSoC4/cyfitter_cfg.c **** 		static const cy_cfg_addrvalue_t CYCODE cy_cfg_data_table[] = {
 336:Generated_Source\PSoC4/cyfitter_cfg.c **** 			{0x80u, 0x38u},
 337:Generated_Source\PSoC4/cyfitter_cfg.c **** 			{0x81u, 0x0Fu},
 338:Generated_Source\PSoC4/cyfitter_cfg.c **** 			{0x82u, 0x0Du},
ARM GAS  C:\Users\juano\AppData\Local\Temp\ccvSFdbH.s 			page 14


 339:Generated_Source\PSoC4/cyfitter_cfg.c **** 			{0x83u, 0x72u},
 340:Generated_Source\PSoC4/cyfitter_cfg.c **** 			{0x01u, 0x41u},
 341:Generated_Source\PSoC4/cyfitter_cfg.c **** 			{0x02u, 0x20u},
 342:Generated_Source\PSoC4/cyfitter_cfg.c **** 			{0x04u, 0x01u},
 343:Generated_Source\PSoC4/cyfitter_cfg.c **** 			{0x06u, 0x0Eu},
 344:Generated_Source\PSoC4/cyfitter_cfg.c **** 			{0x07u, 0xE3u},
 345:Generated_Source\PSoC4/cyfitter_cfg.c **** 			{0x09u, 0x0Fu},
 346:Generated_Source\PSoC4/cyfitter_cfg.c **** 			{0x0Bu, 0xF0u},
 347:Generated_Source\PSoC4/cyfitter_cfg.c **** 			{0x0Du, 0xFFu},
 348:Generated_Source\PSoC4/cyfitter_cfg.c **** 			{0x10u, 0x1Cu},
 349:Generated_Source\PSoC4/cyfitter_cfg.c **** 			{0x12u, 0x03u},
 350:Generated_Source\PSoC4/cyfitter_cfg.c **** 			{0x15u, 0xC3u},
 351:Generated_Source\PSoC4/cyfitter_cfg.c **** 			{0x16u, 0x08u},
 352:Generated_Source\PSoC4/cyfitter_cfg.c **** 			{0x19u, 0x82u},
 353:Generated_Source\PSoC4/cyfitter_cfg.c **** 			{0x1Au, 0x20u},
 354:Generated_Source\PSoC4/cyfitter_cfg.c **** 			{0x1Du, 0x08u},
 355:Generated_Source\PSoC4/cyfitter_cfg.c **** 			{0x21u, 0x0Cu},
 356:Generated_Source\PSoC4/cyfitter_cfg.c **** 			{0x22u, 0x1Cu},
 357:Generated_Source\PSoC4/cyfitter_cfg.c **** 			{0x23u, 0xF3u},
 358:Generated_Source\PSoC4/cyfitter_cfg.c **** 			{0x24u, 0x01u},
 359:Generated_Source\PSoC4/cyfitter_cfg.c **** 			{0x25u, 0x0Cu},
 360:Generated_Source\PSoC4/cyfitter_cfg.c **** 			{0x26u, 0x16u},
 361:Generated_Source\PSoC4/cyfitter_cfg.c **** 			{0x29u, 0x04u},
 362:Generated_Source\PSoC4/cyfitter_cfg.c **** 			{0x2Au, 0x03u},
 363:Generated_Source\PSoC4/cyfitter_cfg.c **** 			{0x2Du, 0xF3u},
 364:Generated_Source\PSoC4/cyfitter_cfg.c **** 			{0x2Fu, 0x0Cu},
 365:Generated_Source\PSoC4/cyfitter_cfg.c **** 			{0x30u, 0x0Fu},
 366:Generated_Source\PSoC4/cyfitter_cfg.c **** 			{0x31u, 0xC0u},
 367:Generated_Source\PSoC4/cyfitter_cfg.c **** 			{0x32u, 0x1Au},
 368:Generated_Source\PSoC4/cyfitter_cfg.c **** 			{0x33u, 0x2Cu},
 369:Generated_Source\PSoC4/cyfitter_cfg.c **** 			{0x34u, 0x20u},
 370:Generated_Source\PSoC4/cyfitter_cfg.c **** 			{0x35u, 0x10u},
 371:Generated_Source\PSoC4/cyfitter_cfg.c **** 			{0x37u, 0x0Fu},
 372:Generated_Source\PSoC4/cyfitter_cfg.c **** 			{0x39u, 0x20u},
 373:Generated_Source\PSoC4/cyfitter_cfg.c **** 			{0x3Au, 0x0Au},
 374:Generated_Source\PSoC4/cyfitter_cfg.c **** 			{0x3Bu, 0x88u},
 375:Generated_Source\PSoC4/cyfitter_cfg.c **** 			{0x3Eu, 0x10u},
 376:Generated_Source\PSoC4/cyfitter_cfg.c **** 			{0x40u, 0x02u},
 377:Generated_Source\PSoC4/cyfitter_cfg.c **** 			{0x46u, 0x40u},
 378:Generated_Source\PSoC4/cyfitter_cfg.c **** 			{0x49u, 0xFFu},
 379:Generated_Source\PSoC4/cyfitter_cfg.c **** 			{0x4Au, 0x07u},
 380:Generated_Source\PSoC4/cyfitter_cfg.c **** 			{0x4Bu, 0xFFu},
 381:Generated_Source\PSoC4/cyfitter_cfg.c **** 			{0x4Cu, 0x40u},
 382:Generated_Source\PSoC4/cyfitter_cfg.c **** 			{0x4Du, 0x20u},
 383:Generated_Source\PSoC4/cyfitter_cfg.c **** 			{0x4Eu, 0xF0u},
 384:Generated_Source\PSoC4/cyfitter_cfg.c **** 			{0x4Fu, 0x05u},
 385:Generated_Source\PSoC4/cyfitter_cfg.c **** 			{0x50u, 0x08u},
 386:Generated_Source\PSoC4/cyfitter_cfg.c **** 			{0x54u, 0x18u},
 387:Generated_Source\PSoC4/cyfitter_cfg.c **** 			{0x56u, 0x04u},
 388:Generated_Source\PSoC4/cyfitter_cfg.c **** 			{0x58u, 0x04u},
 389:Generated_Source\PSoC4/cyfitter_cfg.c **** 			{0x59u, 0x04u},
 390:Generated_Source\PSoC4/cyfitter_cfg.c **** 			{0x5Au, 0x04u},
 391:Generated_Source\PSoC4/cyfitter_cfg.c **** 			{0x5Bu, 0x04u},
 392:Generated_Source\PSoC4/cyfitter_cfg.c **** 			{0x5Cu, 0x11u},
 393:Generated_Source\PSoC4/cyfitter_cfg.c **** 			{0x5Du, 0x11u},
 394:Generated_Source\PSoC4/cyfitter_cfg.c **** 			{0x5Fu, 0x01u},
 395:Generated_Source\PSoC4/cyfitter_cfg.c **** 			{0x60u, 0x40u},
ARM GAS  C:\Users\juano\AppData\Local\Temp\ccvSFdbH.s 			page 15


 396:Generated_Source\PSoC4/cyfitter_cfg.c **** 			{0x61u, 0xA8u},
 397:Generated_Source\PSoC4/cyfitter_cfg.c **** 			{0x62u, 0x40u},
 398:Generated_Source\PSoC4/cyfitter_cfg.c **** 			{0x63u, 0x20u},
 399:Generated_Source\PSoC4/cyfitter_cfg.c **** 			{0x82u, 0x20u},
 400:Generated_Source\PSoC4/cyfitter_cfg.c **** 			{0x84u, 0x2Cu},
 401:Generated_Source\PSoC4/cyfitter_cfg.c **** 			{0x86u, 0x11u},
 402:Generated_Source\PSoC4/cyfitter_cfg.c **** 			{0x88u, 0x40u},
 403:Generated_Source\PSoC4/cyfitter_cfg.c **** 			{0x8Cu, 0x1Cu},
 404:Generated_Source\PSoC4/cyfitter_cfg.c **** 			{0x8Du, 0x03u},
 405:Generated_Source\PSoC4/cyfitter_cfg.c **** 			{0x8Eu, 0x22u},
 406:Generated_Source\PSoC4/cyfitter_cfg.c **** 			{0x8Fu, 0x04u},
 407:Generated_Source\PSoC4/cyfitter_cfg.c **** 			{0x90u, 0x80u},
 408:Generated_Source\PSoC4/cyfitter_cfg.c **** 			{0x92u, 0x03u},
 409:Generated_Source\PSoC4/cyfitter_cfg.c **** 			{0x93u, 0x08u},
 410:Generated_Source\PSoC4/cyfitter_cfg.c **** 			{0x94u, 0x30u},
 411:Generated_Source\PSoC4/cyfitter_cfg.c **** 			{0x95u, 0x20u},
 412:Generated_Source\PSoC4/cyfitter_cfg.c **** 			{0x96u, 0x0Cu},
 413:Generated_Source\PSoC4/cyfitter_cfg.c **** 			{0x97u, 0x45u},
 414:Generated_Source\PSoC4/cyfitter_cfg.c **** 			{0x99u, 0xD3u},
 415:Generated_Source\PSoC4/cyfitter_cfg.c **** 			{0x9Bu, 0x0Cu},
 416:Generated_Source\PSoC4/cyfitter_cfg.c **** 			{0x9Cu, 0x14u},
 417:Generated_Source\PSoC4/cyfitter_cfg.c **** 			{0xA0u, 0x09u},
 418:Generated_Source\PSoC4/cyfitter_cfg.c **** 			{0xA1u, 0x8Au},
 419:Generated_Source\PSoC4/cyfitter_cfg.c **** 			{0xA2u, 0x10u},
 420:Generated_Source\PSoC4/cyfitter_cfg.c **** 			{0xA3u, 0x14u},
 421:Generated_Source\PSoC4/cyfitter_cfg.c **** 			{0xA6u, 0x20u},
 422:Generated_Source\PSoC4/cyfitter_cfg.c **** 			{0xA8u, 0x10u},
 423:Generated_Source\PSoC4/cyfitter_cfg.c **** 			{0xA9u, 0xD3u},
 424:Generated_Source\PSoC4/cyfitter_cfg.c **** 			{0xABu, 0x04u},
 425:Generated_Source\PSoC4/cyfitter_cfg.c **** 			{0xB0u, 0x1Fu},
 426:Generated_Source\PSoC4/cyfitter_cfg.c **** 			{0xB2u, 0x20u},
 427:Generated_Source\PSoC4/cyfitter_cfg.c **** 			{0xB3u, 0xC0u},
 428:Generated_Source\PSoC4/cyfitter_cfg.c **** 			{0xB4u, 0x40u},
 429:Generated_Source\PSoC4/cyfitter_cfg.c **** 			{0xB5u, 0x0Fu},
 430:Generated_Source\PSoC4/cyfitter_cfg.c **** 			{0xB6u, 0x80u},
 431:Generated_Source\PSoC4/cyfitter_cfg.c **** 			{0xB7u, 0x30u},
 432:Generated_Source\PSoC4/cyfitter_cfg.c **** 			{0xB9u, 0x88u},
 433:Generated_Source\PSoC4/cyfitter_cfg.c **** 			{0xBBu, 0x20u},
 434:Generated_Source\PSoC4/cyfitter_cfg.c **** 			{0xBEu, 0x54u},
 435:Generated_Source\PSoC4/cyfitter_cfg.c **** 			{0xBFu, 0x04u},
 436:Generated_Source\PSoC4/cyfitter_cfg.c **** 			{0xC0u, 0x32u},
 437:Generated_Source\PSoC4/cyfitter_cfg.c **** 			{0xC1u, 0x06u},
 438:Generated_Source\PSoC4/cyfitter_cfg.c **** 			{0xC6u, 0x0Cu},
 439:Generated_Source\PSoC4/cyfitter_cfg.c **** 			{0xC7u, 0xBEu},
 440:Generated_Source\PSoC4/cyfitter_cfg.c **** 			{0xC8u, 0x34u},
 441:Generated_Source\PSoC4/cyfitter_cfg.c **** 			{0xC9u, 0xFFu},
 442:Generated_Source\PSoC4/cyfitter_cfg.c **** 			{0xCAu, 0xFFu},
 443:Generated_Source\PSoC4/cyfitter_cfg.c **** 			{0xCBu, 0xFFu},
 444:Generated_Source\PSoC4/cyfitter_cfg.c **** 			{0xCEu, 0xF0u},
 445:Generated_Source\PSoC4/cyfitter_cfg.c **** 			{0xCFu, 0x44u},
 446:Generated_Source\PSoC4/cyfitter_cfg.c **** 			{0xD0u, 0x0Cu},
 447:Generated_Source\PSoC4/cyfitter_cfg.c **** 			{0xD4u, 0x01u},
 448:Generated_Source\PSoC4/cyfitter_cfg.c **** 			{0xD8u, 0x04u},
 449:Generated_Source\PSoC4/cyfitter_cfg.c **** 			{0xD9u, 0x04u},
 450:Generated_Source\PSoC4/cyfitter_cfg.c **** 			{0xDAu, 0x04u},
 451:Generated_Source\PSoC4/cyfitter_cfg.c **** 			{0xDBu, 0x04u},
 452:Generated_Source\PSoC4/cyfitter_cfg.c **** 			{0xDCu, 0x11u},
ARM GAS  C:\Users\juano\AppData\Local\Temp\ccvSFdbH.s 			page 16


 453:Generated_Source\PSoC4/cyfitter_cfg.c **** 			{0xDDu, 0x11u},
 454:Generated_Source\PSoC4/cyfitter_cfg.c **** 			{0xDFu, 0x01u},
 455:Generated_Source\PSoC4/cyfitter_cfg.c **** 			{0xE6u, 0xC0u},
 456:Generated_Source\PSoC4/cyfitter_cfg.c **** 			{0xEAu, 0x40u},
 457:Generated_Source\PSoC4/cyfitter_cfg.c **** 			{0xEBu, 0x02u},
 458:Generated_Source\PSoC4/cyfitter_cfg.c **** 			{0x01u, 0x08u},
 459:Generated_Source\PSoC4/cyfitter_cfg.c **** 			{0x02u, 0x80u},
 460:Generated_Source\PSoC4/cyfitter_cfg.c **** 			{0x04u, 0x80u},
 461:Generated_Source\PSoC4/cyfitter_cfg.c **** 			{0x05u, 0x08u},
 462:Generated_Source\PSoC4/cyfitter_cfg.c **** 			{0x06u, 0x88u},
 463:Generated_Source\PSoC4/cyfitter_cfg.c **** 			{0x0Au, 0x80u},
 464:Generated_Source\PSoC4/cyfitter_cfg.c **** 			{0x0Bu, 0x24u},
 465:Generated_Source\PSoC4/cyfitter_cfg.c **** 			{0x0Eu, 0x60u},
 466:Generated_Source\PSoC4/cyfitter_cfg.c **** 			{0x0Fu, 0x02u},
 467:Generated_Source\PSoC4/cyfitter_cfg.c **** 			{0x10u, 0x40u},
 468:Generated_Source\PSoC4/cyfitter_cfg.c **** 			{0x12u, 0x08u},
 469:Generated_Source\PSoC4/cyfitter_cfg.c **** 			{0x13u, 0x08u},
 470:Generated_Source\PSoC4/cyfitter_cfg.c **** 			{0x14u, 0x40u},
 471:Generated_Source\PSoC4/cyfitter_cfg.c **** 			{0x15u, 0x28u},
 472:Generated_Source\PSoC4/cyfitter_cfg.c **** 			{0x17u, 0x01u},
 473:Generated_Source\PSoC4/cyfitter_cfg.c **** 			{0x18u, 0x84u},
 474:Generated_Source\PSoC4/cyfitter_cfg.c **** 			{0x19u, 0x0Au},
 475:Generated_Source\PSoC4/cyfitter_cfg.c **** 			{0x1Au, 0x80u},
 476:Generated_Source\PSoC4/cyfitter_cfg.c **** 			{0x1Bu, 0x08u},
 477:Generated_Source\PSoC4/cyfitter_cfg.c **** 			{0x1Eu, 0x58u},
 478:Generated_Source\PSoC4/cyfitter_cfg.c **** 			{0x1Fu, 0x40u},
 479:Generated_Source\PSoC4/cyfitter_cfg.c **** 			{0x20u, 0x02u},
 480:Generated_Source\PSoC4/cyfitter_cfg.c **** 			{0x22u, 0x01u},
 481:Generated_Source\PSoC4/cyfitter_cfg.c **** 			{0x23u, 0x14u},
 482:Generated_Source\PSoC4/cyfitter_cfg.c **** 			{0x26u, 0x10u},
 483:Generated_Source\PSoC4/cyfitter_cfg.c **** 			{0x27u, 0x19u},
 484:Generated_Source\PSoC4/cyfitter_cfg.c **** 			{0x29u, 0x55u},
 485:Generated_Source\PSoC4/cyfitter_cfg.c **** 			{0x2Du, 0x22u},
 486:Generated_Source\PSoC4/cyfitter_cfg.c **** 			{0x2Fu, 0x08u},
 487:Generated_Source\PSoC4/cyfitter_cfg.c **** 			{0x30u, 0x90u},
 488:Generated_Source\PSoC4/cyfitter_cfg.c **** 			{0x32u, 0x04u},
 489:Generated_Source\PSoC4/cyfitter_cfg.c **** 			{0x36u, 0x18u},
 490:Generated_Source\PSoC4/cyfitter_cfg.c **** 			{0x37u, 0x01u},
 491:Generated_Source\PSoC4/cyfitter_cfg.c **** 			{0x38u, 0x48u},
 492:Generated_Source\PSoC4/cyfitter_cfg.c **** 			{0x3Au, 0x01u},
 493:Generated_Source\PSoC4/cyfitter_cfg.c **** 			{0x3Bu, 0x10u},
 494:Generated_Source\PSoC4/cyfitter_cfg.c **** 			{0x3Eu, 0x80u},
 495:Generated_Source\PSoC4/cyfitter_cfg.c **** 			{0x43u, 0x10u},
 496:Generated_Source\PSoC4/cyfitter_cfg.c **** 			{0x46u, 0x04u},
 497:Generated_Source\PSoC4/cyfitter_cfg.c **** 			{0x47u, 0x08u},
 498:Generated_Source\PSoC4/cyfitter_cfg.c **** 			{0x48u, 0x01u},
 499:Generated_Source\PSoC4/cyfitter_cfg.c **** 			{0x49u, 0x40u},
 500:Generated_Source\PSoC4/cyfitter_cfg.c **** 			{0x4Du, 0x20u},
 501:Generated_Source\PSoC4/cyfitter_cfg.c **** 			{0x51u, 0x14u},
 502:Generated_Source\PSoC4/cyfitter_cfg.c **** 			{0x52u, 0x0Cu},
 503:Generated_Source\PSoC4/cyfitter_cfg.c **** 			{0x53u, 0x10u},
 504:Generated_Source\PSoC4/cyfitter_cfg.c **** 			{0x56u, 0x88u},
 505:Generated_Source\PSoC4/cyfitter_cfg.c **** 			{0x57u, 0x01u},
 506:Generated_Source\PSoC4/cyfitter_cfg.c **** 			{0x5Au, 0x02u},
 507:Generated_Source\PSoC4/cyfitter_cfg.c **** 			{0x5Eu, 0x08u},
 508:Generated_Source\PSoC4/cyfitter_cfg.c **** 			{0x5Fu, 0xA2u},
 509:Generated_Source\PSoC4/cyfitter_cfg.c **** 			{0x60u, 0x04u},
ARM GAS  C:\Users\juano\AppData\Local\Temp\ccvSFdbH.s 			page 17


 510:Generated_Source\PSoC4/cyfitter_cfg.c **** 			{0x62u, 0x40u},
 511:Generated_Source\PSoC4/cyfitter_cfg.c **** 			{0x63u, 0x40u},
 512:Generated_Source\PSoC4/cyfitter_cfg.c **** 			{0x82u, 0x10u},
 513:Generated_Source\PSoC4/cyfitter_cfg.c **** 			{0x83u, 0x80u},
 514:Generated_Source\PSoC4/cyfitter_cfg.c **** 			{0x87u, 0x40u},
 515:Generated_Source\PSoC4/cyfitter_cfg.c **** 			{0xC0u, 0xFCu},
 516:Generated_Source\PSoC4/cyfitter_cfg.c **** 			{0xC2u, 0xBEu},
 517:Generated_Source\PSoC4/cyfitter_cfg.c **** 			{0xC4u, 0x7Eu},
 518:Generated_Source\PSoC4/cyfitter_cfg.c **** 			{0xCAu, 0xAFu},
 519:Generated_Source\PSoC4/cyfitter_cfg.c **** 			{0xCCu, 0xEEu},
 520:Generated_Source\PSoC4/cyfitter_cfg.c **** 			{0xCEu, 0x1Fu},
 521:Generated_Source\PSoC4/cyfitter_cfg.c **** 			{0xD0u, 0x64u},
 522:Generated_Source\PSoC4/cyfitter_cfg.c **** 			{0xD2u, 0x20u},
 523:Generated_Source\PSoC4/cyfitter_cfg.c **** 			{0xD6u, 0xF1u},
 524:Generated_Source\PSoC4/cyfitter_cfg.c **** 			{0xD8u, 0x0Du},
 525:Generated_Source\PSoC4/cyfitter_cfg.c **** 			{0x03u, 0x01u},
 526:Generated_Source\PSoC4/cyfitter_cfg.c **** 			{0x07u, 0x02u},
 527:Generated_Source\PSoC4/cyfitter_cfg.c **** 			{0x0Fu, 0x01u},
 528:Generated_Source\PSoC4/cyfitter_cfg.c **** 			{0x14u, 0x04u},
 529:Generated_Source\PSoC4/cyfitter_cfg.c **** 			{0x1Au, 0x07u},
 530:Generated_Source\PSoC4/cyfitter_cfg.c **** 			{0x1Eu, 0x01u},
 531:Generated_Source\PSoC4/cyfitter_cfg.c **** 			{0x2Eu, 0x08u},
 532:Generated_Source\PSoC4/cyfitter_cfg.c **** 			{0x2Fu, 0x02u},
 533:Generated_Source\PSoC4/cyfitter_cfg.c **** 			{0x30u, 0x01u},
 534:Generated_Source\PSoC4/cyfitter_cfg.c **** 			{0x32u, 0x02u},
 535:Generated_Source\PSoC4/cyfitter_cfg.c **** 			{0x33u, 0x02u},
 536:Generated_Source\PSoC4/cyfitter_cfg.c **** 			{0x34u, 0x04u},
 537:Generated_Source\PSoC4/cyfitter_cfg.c **** 			{0x35u, 0x01u},
 538:Generated_Source\PSoC4/cyfitter_cfg.c **** 			{0x36u, 0x08u},
 539:Generated_Source\PSoC4/cyfitter_cfg.c **** 			{0x3Bu, 0x02u},
 540:Generated_Source\PSoC4/cyfitter_cfg.c **** 			{0x3Fu, 0x14u},
 541:Generated_Source\PSoC4/cyfitter_cfg.c **** 			{0x40u, 0x10u},
 542:Generated_Source\PSoC4/cyfitter_cfg.c **** 			{0x41u, 0x05u},
 543:Generated_Source\PSoC4/cyfitter_cfg.c **** 			{0x45u, 0xD1u},
 544:Generated_Source\PSoC4/cyfitter_cfg.c **** 			{0x46u, 0x02u},
 545:Generated_Source\PSoC4/cyfitter_cfg.c **** 			{0x48u, 0x07u},
 546:Generated_Source\PSoC4/cyfitter_cfg.c **** 			{0x49u, 0xFFu},
 547:Generated_Source\PSoC4/cyfitter_cfg.c **** 			{0x4Au, 0xFFu},
 548:Generated_Source\PSoC4/cyfitter_cfg.c **** 			{0x4Bu, 0xFFu},
 549:Generated_Source\PSoC4/cyfitter_cfg.c **** 			{0x4Du, 0xA0u},
 550:Generated_Source\PSoC4/cyfitter_cfg.c **** 			{0x4Fu, 0x04u},
 551:Generated_Source\PSoC4/cyfitter_cfg.c **** 			{0x50u, 0x18u},
 552:Generated_Source\PSoC4/cyfitter_cfg.c **** 			{0x52u, 0x80u},
 553:Generated_Source\PSoC4/cyfitter_cfg.c **** 			{0x54u, 0x05u},
 554:Generated_Source\PSoC4/cyfitter_cfg.c **** 			{0x58u, 0x04u},
 555:Generated_Source\PSoC4/cyfitter_cfg.c **** 			{0x59u, 0x04u},
 556:Generated_Source\PSoC4/cyfitter_cfg.c **** 			{0x5Au, 0x04u},
 557:Generated_Source\PSoC4/cyfitter_cfg.c **** 			{0x5Bu, 0x04u},
 558:Generated_Source\PSoC4/cyfitter_cfg.c **** 			{0x5Cu, 0x13u},
 559:Generated_Source\PSoC4/cyfitter_cfg.c **** 			{0x5Du, 0x33u},
 560:Generated_Source\PSoC4/cyfitter_cfg.c **** 			{0x5Fu, 0x01u},
 561:Generated_Source\PSoC4/cyfitter_cfg.c **** 			{0x60u, 0x40u},
 562:Generated_Source\PSoC4/cyfitter_cfg.c **** 			{0x62u, 0xC0u},
 563:Generated_Source\PSoC4/cyfitter_cfg.c **** 			{0x64u, 0x40u},
 564:Generated_Source\PSoC4/cyfitter_cfg.c **** 			{0x65u, 0x40u},
 565:Generated_Source\PSoC4/cyfitter_cfg.c **** 			{0x66u, 0xC0u},
 566:Generated_Source\PSoC4/cyfitter_cfg.c **** 			{0x68u, 0xC0u},
ARM GAS  C:\Users\juano\AppData\Local\Temp\ccvSFdbH.s 			page 18


 567:Generated_Source\PSoC4/cyfitter_cfg.c **** 			{0x6Au, 0xC0u},
 568:Generated_Source\PSoC4/cyfitter_cfg.c **** 			{0x6Cu, 0xC0u},
 569:Generated_Source\PSoC4/cyfitter_cfg.c **** 			{0x6Eu, 0xC0u},
 570:Generated_Source\PSoC4/cyfitter_cfg.c **** 			{0x00u, 0x06u},
 571:Generated_Source\PSoC4/cyfitter_cfg.c **** 			{0x02u, 0x01u},
 572:Generated_Source\PSoC4/cyfitter_cfg.c **** 			{0x03u, 0x08u},
 573:Generated_Source\PSoC4/cyfitter_cfg.c **** 			{0x04u, 0x0Cu},
 574:Generated_Source\PSoC4/cyfitter_cfg.c **** 			{0x0Au, 0x40u},
 575:Generated_Source\PSoC4/cyfitter_cfg.c **** 			{0x0Bu, 0x10u},
 576:Generated_Source\PSoC4/cyfitter_cfg.c **** 			{0x0Eu, 0x11u},
 577:Generated_Source\PSoC4/cyfitter_cfg.c **** 			{0x0Fu, 0x08u},
 578:Generated_Source\PSoC4/cyfitter_cfg.c **** 			{0x10u, 0xA8u},
 579:Generated_Source\PSoC4/cyfitter_cfg.c **** 			{0x12u, 0x02u},
 580:Generated_Source\PSoC4/cyfitter_cfg.c **** 			{0x17u, 0x80u},
 581:Generated_Source\PSoC4/cyfitter_cfg.c **** 			{0x19u, 0xA1u},
 582:Generated_Source\PSoC4/cyfitter_cfg.c **** 			{0x1Au, 0x40u},
 583:Generated_Source\PSoC4/cyfitter_cfg.c **** 			{0x1Bu, 0x08u},
 584:Generated_Source\PSoC4/cyfitter_cfg.c **** 			{0x1Cu, 0x08u},
 585:Generated_Source\PSoC4/cyfitter_cfg.c **** 			{0x1Du, 0x80u},
 586:Generated_Source\PSoC4/cyfitter_cfg.c **** 			{0x1Eu, 0x11u},
 587:Generated_Source\PSoC4/cyfitter_cfg.c **** 			{0x1Fu, 0x01u},
 588:Generated_Source\PSoC4/cyfitter_cfg.c **** 			{0x20u, 0x05u},
 589:Generated_Source\PSoC4/cyfitter_cfg.c **** 			{0x22u, 0x05u},
 590:Generated_Source\PSoC4/cyfitter_cfg.c **** 			{0x24u, 0x40u},
 591:Generated_Source\PSoC4/cyfitter_cfg.c **** 			{0x26u, 0x0Au},
 592:Generated_Source\PSoC4/cyfitter_cfg.c **** 			{0x27u, 0x08u},
 593:Generated_Source\PSoC4/cyfitter_cfg.c **** 			{0x2Du, 0x80u},
 594:Generated_Source\PSoC4/cyfitter_cfg.c **** 			{0x32u, 0x05u},
 595:Generated_Source\PSoC4/cyfitter_cfg.c **** 			{0x39u, 0x54u},
 596:Generated_Source\PSoC4/cyfitter_cfg.c **** 			{0x3Au, 0x01u},
 597:Generated_Source\PSoC4/cyfitter_cfg.c **** 			{0x3Eu, 0x01u},
 598:Generated_Source\PSoC4/cyfitter_cfg.c **** 			{0x3Fu, 0x84u},
 599:Generated_Source\PSoC4/cyfitter_cfg.c **** 			{0x40u, 0x65u},
 600:Generated_Source\PSoC4/cyfitter_cfg.c **** 			{0x45u, 0x80u},
 601:Generated_Source\PSoC4/cyfitter_cfg.c **** 			{0x49u, 0x80u},
 602:Generated_Source\PSoC4/cyfitter_cfg.c **** 			{0x4Bu, 0x04u},
 603:Generated_Source\PSoC4/cyfitter_cfg.c **** 			{0x4Du, 0x01u},
 604:Generated_Source\PSoC4/cyfitter_cfg.c **** 			{0x4Fu, 0x88u},
 605:Generated_Source\PSoC4/cyfitter_cfg.c **** 			{0x52u, 0x80u},
 606:Generated_Source\PSoC4/cyfitter_cfg.c **** 			{0x57u, 0x40u},
 607:Generated_Source\PSoC4/cyfitter_cfg.c **** 			{0x59u, 0x20u},
 608:Generated_Source\PSoC4/cyfitter_cfg.c **** 			{0x5Cu, 0x80u},
 609:Generated_Source\PSoC4/cyfitter_cfg.c **** 			{0x5Du, 0x01u},
 610:Generated_Source\PSoC4/cyfitter_cfg.c **** 			{0x5Fu, 0x08u},
 611:Generated_Source\PSoC4/cyfitter_cfg.c **** 			{0x69u, 0x54u},
 612:Generated_Source\PSoC4/cyfitter_cfg.c **** 			{0x70u, 0xA8u},
 613:Generated_Source\PSoC4/cyfitter_cfg.c **** 			{0x71u, 0x14u},
 614:Generated_Source\PSoC4/cyfitter_cfg.c **** 			{0x77u, 0x80u},
 615:Generated_Source\PSoC4/cyfitter_cfg.c **** 			{0x82u, 0x01u},
 616:Generated_Source\PSoC4/cyfitter_cfg.c **** 			{0x84u, 0xA5u},
 617:Generated_Source\PSoC4/cyfitter_cfg.c **** 			{0x88u, 0x10u},
 618:Generated_Source\PSoC4/cyfitter_cfg.c **** 			{0x8Au, 0x49u},
 619:Generated_Source\PSoC4/cyfitter_cfg.c **** 			{0x8Fu, 0x01u},
 620:Generated_Source\PSoC4/cyfitter_cfg.c **** 			{0x93u, 0x10u},
 621:Generated_Source\PSoC4/cyfitter_cfg.c **** 			{0x94u, 0x48u},
 622:Generated_Source\PSoC4/cyfitter_cfg.c **** 			{0x96u, 0x08u},
 623:Generated_Source\PSoC4/cyfitter_cfg.c **** 			{0x9Cu, 0x10u},
ARM GAS  C:\Users\juano\AppData\Local\Temp\ccvSFdbH.s 			page 19


 624:Generated_Source\PSoC4/cyfitter_cfg.c **** 			{0x9Du, 0x15u},
 625:Generated_Source\PSoC4/cyfitter_cfg.c **** 			{0x9Eu, 0x41u},
 626:Generated_Source\PSoC4/cyfitter_cfg.c **** 			{0xA0u, 0x01u},
 627:Generated_Source\PSoC4/cyfitter_cfg.c **** 			{0xA4u, 0x80u},
 628:Generated_Source\PSoC4/cyfitter_cfg.c **** 			{0xA6u, 0x80u},
 629:Generated_Source\PSoC4/cyfitter_cfg.c **** 			{0xAAu, 0x88u},
 630:Generated_Source\PSoC4/cyfitter_cfg.c **** 			{0xABu, 0x22u},
 631:Generated_Source\PSoC4/cyfitter_cfg.c **** 			{0xAFu, 0x40u},
 632:Generated_Source\PSoC4/cyfitter_cfg.c **** 			{0xC0u, 0x0Fu},
 633:Generated_Source\PSoC4/cyfitter_cfg.c **** 			{0xC2u, 0xECu},
 634:Generated_Source\PSoC4/cyfitter_cfg.c **** 			{0xC4u, 0x8Fu},
 635:Generated_Source\PSoC4/cyfitter_cfg.c **** 			{0xCAu, 0x10u},
 636:Generated_Source\PSoC4/cyfitter_cfg.c **** 			{0xCCu, 0x03u},
 637:Generated_Source\PSoC4/cyfitter_cfg.c **** 			{0xCEu, 0xDFu},
 638:Generated_Source\PSoC4/cyfitter_cfg.c **** 			{0xD0u, 0x1Fu},
 639:Generated_Source\PSoC4/cyfitter_cfg.c **** 			{0xD2u, 0x18u},
 640:Generated_Source\PSoC4/cyfitter_cfg.c **** 			{0xD6u, 0xD4u},
 641:Generated_Source\PSoC4/cyfitter_cfg.c **** 			{0x86u, 0x40u},
 642:Generated_Source\PSoC4/cyfitter_cfg.c **** 			{0xE6u, 0x40u},
 643:Generated_Source\PSoC4/cyfitter_cfg.c **** 			{0x0Au, 0x40u},
 644:Generated_Source\PSoC4/cyfitter_cfg.c **** 			{0x63u, 0x10u},
 645:Generated_Source\PSoC4/cyfitter_cfg.c **** 			{0x6Eu, 0x80u},
 646:Generated_Source\PSoC4/cyfitter_cfg.c **** 			{0x82u, 0x40u},
 647:Generated_Source\PSoC4/cyfitter_cfg.c **** 			{0x93u, 0x10u},
 648:Generated_Source\PSoC4/cyfitter_cfg.c **** 			{0xA2u, 0x40u},
 649:Generated_Source\PSoC4/cyfitter_cfg.c **** 			{0xAFu, 0x10u},
 650:Generated_Source\PSoC4/cyfitter_cfg.c **** 			{0xC2u, 0x10u},
 651:Generated_Source\PSoC4/cyfitter_cfg.c **** 			{0xD8u, 0x40u},
 652:Generated_Source\PSoC4/cyfitter_cfg.c **** 			{0xDAu, 0x80u},
 653:Generated_Source\PSoC4/cyfitter_cfg.c **** 			{0xE0u, 0x20u},
 654:Generated_Source\PSoC4/cyfitter_cfg.c **** 			{0xEAu, 0x10u},
 655:Generated_Source\PSoC4/cyfitter_cfg.c **** 			{0x60u, 0x20u},
 656:Generated_Source\PSoC4/cyfitter_cfg.c **** 			{0xD8u, 0x02u},
 657:Generated_Source\PSoC4/cyfitter_cfg.c **** 			{0x8Cu, 0x20u},
 658:Generated_Source\PSoC4/cyfitter_cfg.c **** 			{0x9Cu, 0x20u},
 659:Generated_Source\PSoC4/cyfitter_cfg.c **** 			{0xE0u, 0x02u},
 660:Generated_Source\PSoC4/cyfitter_cfg.c **** 			{0x10u, 0x0Au},
 661:Generated_Source\PSoC4/cyfitter_cfg.c **** 			{0x11u, 0x01u},
 662:Generated_Source\PSoC4/cyfitter_cfg.c **** 		};
 663:Generated_Source\PSoC4/cyfitter_cfg.c **** 
 664:Generated_Source\PSoC4/cyfitter_cfg.c **** 
 665:Generated_Source\PSoC4/cyfitter_cfg.c **** 
 666:Generated_Source\PSoC4/cyfitter_cfg.c **** 		CYPACKED typedef struct {
 667:Generated_Source\PSoC4/cyfitter_cfg.c **** 			void CYFAR *address;
 668:Generated_Source\PSoC4/cyfitter_cfg.c **** 			uint16 size;
 669:Generated_Source\PSoC4/cyfitter_cfg.c **** 		} CYPACKED_ATTR cfg_memset_t;
 670:Generated_Source\PSoC4/cyfitter_cfg.c **** 
 671:Generated_Source\PSoC4/cyfitter_cfg.c **** 
 672:Generated_Source\PSoC4/cyfitter_cfg.c **** 		CYPACKED typedef struct {
 673:Generated_Source\PSoC4/cyfitter_cfg.c **** 			void CYFAR *dest;
 674:Generated_Source\PSoC4/cyfitter_cfg.c **** 			const void CYCODE *src;
 675:Generated_Source\PSoC4/cyfitter_cfg.c **** 			uint16 size;
 676:Generated_Source\PSoC4/cyfitter_cfg.c **** 		} CYPACKED_ATTR cfg_memcpy_t;
 677:Generated_Source\PSoC4/cyfitter_cfg.c **** 
 678:Generated_Source\PSoC4/cyfitter_cfg.c **** 		static const cfg_memset_t CYCODE cfg_memset_list[] = {
 679:Generated_Source\PSoC4/cyfitter_cfg.c **** 			/* address, size */
 680:Generated_Source\PSoC4/cyfitter_cfg.c **** 			{(void CYFAR *)(CYDEV_UDB_P0_U0_BASE), 640u},
ARM GAS  C:\Users\juano\AppData\Local\Temp\ccvSFdbH.s 			page 20


 681:Generated_Source\PSoC4/cyfitter_cfg.c **** 			{(void CYFAR *)(CYDEV_UDB_P1_ROUTE_BASE), 256u},
 682:Generated_Source\PSoC4/cyfitter_cfg.c **** 			{(void CYFAR *)(CYDEV_UDB_DSI0_BASE), 1024u},
 683:Generated_Source\PSoC4/cyfitter_cfg.c **** 		};
 684:Generated_Source\PSoC4/cyfitter_cfg.c **** 
 685:Generated_Source\PSoC4/cyfitter_cfg.c **** 		/* UDB_0_0_0_CONFIG Address: CYDEV_UDB_P1_U1_BASE Size (bytes): 128 */
 686:Generated_Source\PSoC4/cyfitter_cfg.c **** 		static const uint8 CYCODE BS_UDB_0_0_0_CONFIG_VAL[] = {
 687:Generated_Source\PSoC4/cyfitter_cfg.c **** 			0x67u, 0x09u, 0x18u, 0x46u, 0x00u, 0x9Fu, 0x23u, 0x00u, 0x00u, 0x9Fu, 0x04u, 0x00u, 0x04u, 0x80u
 688:Generated_Source\PSoC4/cyfitter_cfg.c **** 			0x7Cu, 0x12u, 0x02u, 0x45u, 0x5Cu, 0x04u, 0x21u, 0x38u, 0x00u, 0x00u, 0x00u, 0x00u, 0x00u, 0x00u
 689:Generated_Source\PSoC4/cyfitter_cfg.c **** 			0x10u, 0x00u, 0x00u, 0x00u, 0x08u, 0x00u, 0x00u, 0x00u, 0x18u, 0x00u, 0x00u, 0x00u, 0x7Fu, 0x00u
 690:Generated_Source\PSoC4/cyfitter_cfg.c **** 			0x1Fu, 0x03u, 0x80u, 0x1Cu, 0x40u, 0x80u, 0x38u, 0x60u, 0x00u, 0x00u, 0x02u, 0x00u, 0x00u, 0x00u
 691:Generated_Source\PSoC4/cyfitter_cfg.c **** 			0x32u, 0x04u, 0x05u, 0x00u, 0x01u, 0x0Cu, 0x0Eu, 0x00u, 0x05u, 0xFFu, 0xFFu, 0xFFu, 0x62u, 0xA0u
 692:Generated_Source\PSoC4/cyfitter_cfg.c **** 			0x0Cu, 0x00u, 0x00u, 0x00u, 0x00u, 0x00u, 0x02u, 0x11u, 0x04u, 0x04u, 0x04u, 0x04u, 0x11u, 0x11u
 693:Generated_Source\PSoC4/cyfitter_cfg.c **** 			0x00u, 0x00u, 0x00u, 0x00u, 0x00u, 0x00u, 0x40u, 0x02u, 0x00u, 0x10u, 0x30u, 0x10u, 0x00u, 0x10u
 694:Generated_Source\PSoC4/cyfitter_cfg.c **** 			0x00u, 0x00u, 0x00u, 0x00u, 0x00u, 0x00u, 0x00u, 0x00u, 0x00u, 0x00u, 0x00u, 0x00u, 0x00u, 0x00u
 695:Generated_Source\PSoC4/cyfitter_cfg.c **** 
 696:Generated_Source\PSoC4/cyfitter_cfg.c **** 		static const cfg_memcpy_t CYCODE cfg_memcpy_list [] = {
 697:Generated_Source\PSoC4/cyfitter_cfg.c **** 			/* dest, src, size */
 698:Generated_Source\PSoC4/cyfitter_cfg.c **** 			{(void CYFAR *)(CYDEV_UDB_P1_U1_BASE), BS_UDB_0_0_0_CONFIG_VAL, 128u},
 699:Generated_Source\PSoC4/cyfitter_cfg.c **** 		};
 700:Generated_Source\PSoC4/cyfitter_cfg.c **** 
 701:Generated_Source\PSoC4/cyfitter_cfg.c **** 		uint8 CYDATA i;
 702:Generated_Source\PSoC4/cyfitter_cfg.c **** 
 703:Generated_Source\PSoC4/cyfitter_cfg.c **** 		/* Zero out critical memory blocks before beginning configuration */
 704:Generated_Source\PSoC4/cyfitter_cfg.c **** 		for (i = 0u; i < (sizeof(cfg_memset_list)/sizeof(cfg_memset_list[0])); i++)
 369              		.loc 1 704 0
 370 0108 0024     		movs	r4, #0
 371 010a 0FE0     		b	.L15
 372              	.LVL26:
 373              	.L16:
 374              	.LBB4:
 705:Generated_Source\PSoC4/cyfitter_cfg.c **** 		{
 706:Generated_Source\PSoC4/cyfitter_cfg.c **** 			const cfg_memset_t CYCODE * CYDATA ms = &cfg_memset_list[i];
 707:Generated_Source\PSoC4/cyfitter_cfg.c **** 			CYMEMZERO(ms->address, (size_t)(uint32)(ms->size));
 375              		.loc 1 707 0 discriminator 3
 376 010c 4148     		ldr	r0, .L19+8
 377 010e 6200     		lsls	r2, r4, #1
 378 0110 1319     		adds	r3, r2, r4
 379 0112 5900     		lsls	r1, r3, #1
 380 0114 0B00     		movs	r3, r1
 381 0116 4118     		adds	r1, r0, r1
 382 0118 8988     		ldrh	r1, [r1, #4]
 383 011a 1A5A     		ldrh	r2, [r3, r0]
 384 011c C318     		adds	r3, r0, r3
 385 011e 5888     		ldrh	r0, [r3, #2]
 386 0120 0004     		lsls	r0, r0, #16
 387 0122 1043     		orrs	r0, r2
 388 0124 FFF7FEFF 		bl	CYMEMZERO
 389              	.LVL27:
 390              	.LBE4:
 704:Generated_Source\PSoC4/cyfitter_cfg.c **** 		{
 391              		.loc 1 704 0 discriminator 3
 392 0128 0134     		adds	r4, r4, #1
 393              	.LVL28:
 394 012a E4B2     		uxtb	r4, r4
 395              	.LVL29:
 396              	.L15:
 704:Generated_Source\PSoC4/cyfitter_cfg.c **** 		{
ARM GAS  C:\Users\juano\AppData\Local\Temp\ccvSFdbH.s 			page 21


 397              		.loc 1 704 0 is_stmt 0 discriminator 1
 398 012c 022C     		cmp	r4, #2
 399 012e EDD9     		bls	.L16
 400 0130 0024     		movs	r4, #0
 401              	.LVL30:
 402 0132 11E0     		b	.L17
 403              	.LVL31:
 404              	.L18:
 405              	.LBB5:
 708:Generated_Source\PSoC4/cyfitter_cfg.c **** 		}
 709:Generated_Source\PSoC4/cyfitter_cfg.c **** 
 710:Generated_Source\PSoC4/cyfitter_cfg.c **** 		/* Copy device configuration data into registers */
 711:Generated_Source\PSoC4/cyfitter_cfg.c **** 		for (i = 0u; i < (sizeof(cfg_memcpy_list)/sizeof(cfg_memcpy_list[0])); i++)
 712:Generated_Source\PSoC4/cyfitter_cfg.c **** 		{
 713:Generated_Source\PSoC4/cyfitter_cfg.c **** 			const cfg_memcpy_t CYCODE * CYDATA mc = &cfg_memcpy_list[i];
 714:Generated_Source\PSoC4/cyfitter_cfg.c **** 			void * CYDATA destPtr = mc->dest;
 406              		.loc 1 714 0 is_stmt 1 discriminator 3
 407 0134 374E     		ldr	r6, .L19+8
 408 0136 A200     		lsls	r2, r4, #2
 409 0138 1319     		adds	r3, r2, r4
 410 013a 5900     		lsls	r1, r3, #1
 411 013c 7118     		adds	r1, r6, r1
 412 013e 8D8A     		ldrh	r5, [r1, #20]
 413 0140 C88A     		ldrh	r0, [r1, #22]
 414 0142 0004     		lsls	r0, r0, #16
 415 0144 2843     		orrs	r0, r5
 416              	.LVL32:
 715:Generated_Source\PSoC4/cyfitter_cfg.c **** 			const void CYCODE * CYDATA srcPtr = mc->src;
 417              		.loc 1 715 0 discriminator 3
 418 0146 0A8B     		ldrh	r2, [r1, #24]
 419 0148 498B     		ldrh	r1, [r1, #26]
 420 014a 0904     		lsls	r1, r1, #16
 421 014c 1143     		orrs	r1, r2
 422              	.LVL33:
 716:Generated_Source\PSoC4/cyfitter_cfg.c **** 			uint16 CYDATA numBytes = mc->size;
 717:Generated_Source\PSoC4/cyfitter_cfg.c **** 			CYCONFIGCPYCODE(destPtr, srcPtr, numBytes);
 423              		.loc 1 717 0 discriminator 3
 424 014e 8022     		movs	r2, #128
 425 0150 FFF7FEFF 		bl	CYCONFIGCPYCODE
 426              	.LVL34:
 427              	.LBE5:
 711:Generated_Source\PSoC4/cyfitter_cfg.c **** 		{
 428              		.loc 1 711 0 discriminator 3
 429 0154 0134     		adds	r4, r4, #1
 430              	.LVL35:
 431 0156 E4B2     		uxtb	r4, r4
 432              	.LVL36:
 433              	.L17:
 711:Generated_Source\PSoC4/cyfitter_cfg.c **** 		{
 434              		.loc 1 711 0 is_stmt 0 discriminator 1
 435 0158 002C     		cmp	r4, #0
 436 015a EBD0     		beq	.L18
 718:Generated_Source\PSoC4/cyfitter_cfg.c **** 		}
 719:Generated_Source\PSoC4/cyfitter_cfg.c **** 
 720:Generated_Source\PSoC4/cyfitter_cfg.c **** 		cfg_write_bytes32(cy_cfg_addr_table, cy_cfg_data_table);
 437              		.loc 1 720 0 is_stmt 1
 438 015c 2D49     		ldr	r1, .L19+8
ARM GAS  C:\Users\juano\AppData\Local\Temp\ccvSFdbH.s 			page 22


 439 015e 2031     		adds	r1, r1, #32
 440 0160 2D48     		ldr	r0, .L19+12
 441 0162 2C30     		adds	r0, r0, #44
 442 0164 FFF7FEFF 		bl	cfg_write_bytes32
 443              	.LVL37:
 721:Generated_Source\PSoC4/cyfitter_cfg.c **** 
 722:Generated_Source\PSoC4/cyfitter_cfg.c **** 		/* Perform normal device configuration. Order is not critical for these items. */
 723:Generated_Source\PSoC4/cyfitter_cfg.c **** 		CY_SET_REG16((void *)(CYREG_UDB_BCTL0_DRV), 0x0A00u);
 444              		.loc 1 723 0
 445 0168 A022     		movs	r2, #160
 446 016a 1201     		lsls	r2, r2, #4
 447 016c 2B4B     		ldr	r3, .L19+16
 448 016e 1A80     		strh	r2, [r3]
 724:Generated_Source\PSoC4/cyfitter_cfg.c **** 		CY_SET_REG8((void *)(CYREG_UDB_BCTL0_DRV + 0x2u), 0x01u);
 449              		.loc 1 724 0
 450 0170 0122     		movs	r2, #1
 451 0172 2B4B     		ldr	r3, .L19+20
 452 0174 1A70     		strb	r2, [r3]
 725:Generated_Source\PSoC4/cyfitter_cfg.c **** 
 726:Generated_Source\PSoC4/cyfitter_cfg.c **** 		/* HSIOM Starting address: CYDEV_HSIOM_BASE */
 727:Generated_Source\PSoC4/cyfitter_cfg.c **** 		CY_SET_REG32((void *)(CYDEV_HSIOM_BASE), 0xEE000000u);
 453              		.loc 1 727 0
 454 0176 EE22     		movs	r2, #238
 455 0178 1206     		lsls	r2, r2, #24
 456 017a 2A4B     		ldr	r3, .L19+24
 457 017c 1A60     		str	r2, [r3]
 728:Generated_Source\PSoC4/cyfitter_cfg.c **** 		CY_SET_REG32((void *)(CYREG_HSIOM_PORT_SEL1), 0x00300000u);
 458              		.loc 1 728 0
 459 017e C023     		movs	r3, #192
 460 0180 9B03     		lsls	r3, r3, #14
 461 0182 294A     		ldr	r2, .L19+28
 462 0184 1360     		str	r3, [r2]
 729:Generated_Source\PSoC4/cyfitter_cfg.c **** 		CY_SET_REG32((void *)(CYREG_HSIOM_PORT_SEL2), 0x00300000u);
 463              		.loc 1 729 0
 464 0186 294A     		ldr	r2, .L19+32
 465 0188 1360     		str	r3, [r2]
 730:Generated_Source\PSoC4/cyfitter_cfg.c **** 
 731:Generated_Source\PSoC4/cyfitter_cfg.c **** 		/* UDB_PA_0 Starting address: CYDEV_UDB_PA0_BASE */
 732:Generated_Source\PSoC4/cyfitter_cfg.c **** 		CY_SET_REG32((void *)(CYDEV_UDB_PA0_BASE), 0x00990000u);
 466              		.loc 1 732 0
 467 018a 9923     		movs	r3, #153
 468 018c 1B04     		lsls	r3, r3, #16
 469 018e 284A     		ldr	r2, .L19+36
 470 0190 1360     		str	r3, [r2]
 733:Generated_Source\PSoC4/cyfitter_cfg.c **** 
 734:Generated_Source\PSoC4/cyfitter_cfg.c **** 		/* UDB_PA_1 Starting address: CYDEV_UDB_PA1_BASE */
 735:Generated_Source\PSoC4/cyfitter_cfg.c **** 		CY_SET_REG32((void *)(CYDEV_UDB_PA1_BASE), 0x00990004u);
 471              		.loc 1 735 0
 472 0192 2849     		ldr	r1, .L19+40
 473 0194 284A     		ldr	r2, .L19+44
 474 0196 1160     		str	r1, [r2]
 736:Generated_Source\PSoC4/cyfitter_cfg.c **** 		CY_SET_REG32((void *)(CYREG_UDB_PA1_CFG4), 0x02000000u);
 475              		.loc 1 736 0
 476 0198 8021     		movs	r1, #128
 477 019a 8904     		lsls	r1, r1, #18
 478 019c 274A     		ldr	r2, .L19+48
 479 019e 1160     		str	r1, [r2]
ARM GAS  C:\Users\juano\AppData\Local\Temp\ccvSFdbH.s 			page 23


 737:Generated_Source\PSoC4/cyfitter_cfg.c **** 		CY_SET_REG32((void *)(CYREG_UDB_PA1_CFG8), 0x08000000u);
 480              		.loc 1 737 0
 481 01a0 8022     		movs	r2, #128
 482 01a2 1205     		lsls	r2, r2, #20
 483 01a4 2649     		ldr	r1, .L19+52
 484 01a6 0A60     		str	r2, [r1]
 738:Generated_Source\PSoC4/cyfitter_cfg.c **** 
 739:Generated_Source\PSoC4/cyfitter_cfg.c **** 		/* UDB_PA_2 Starting address: CYDEV_UDB_PA2_BASE */
 740:Generated_Source\PSoC4/cyfitter_cfg.c **** 		CY_SET_REG32((void *)(CYDEV_UDB_PA2_BASE), 0x00990000u);
 485              		.loc 1 740 0
 486 01a8 2649     		ldr	r1, .L19+56
 487 01aa 0B60     		str	r3, [r1]
 741:Generated_Source\PSoC4/cyfitter_cfg.c **** 		CY_SET_REG32((void *)(CYREG_UDB_PA2_CFG8), 0x08000000u);
 488              		.loc 1 741 0
 489 01ac 2649     		ldr	r1, .L19+60
 490 01ae 0A60     		str	r2, [r1]
 742:Generated_Source\PSoC4/cyfitter_cfg.c **** 
 743:Generated_Source\PSoC4/cyfitter_cfg.c **** 		/* UDB_PA_3 Starting address: CYDEV_UDB_PA3_BASE */
 744:Generated_Source\PSoC4/cyfitter_cfg.c **** 		CY_SET_REG32((void *)(CYDEV_UDB_PA3_BASE), 0x00990000u);
 491              		.loc 1 744 0
 492 01b0 264A     		ldr	r2, .L19+64
 493 01b2 1360     		str	r3, [r2]
 745:Generated_Source\PSoC4/cyfitter_cfg.c **** 
 746:Generated_Source\PSoC4/cyfitter_cfg.c **** 		/* INT_SELECT Starting address: CYDEV_CPUSS_INT_SEL */
 747:Generated_Source\PSoC4/cyfitter_cfg.c **** 		CY_SET_REG32((void *)(CYREG_CPUSS_INT_SEL), 0x00000002u);
 494              		.loc 1 747 0
 495 01b4 0223     		movs	r3, #2
 496 01b6 264A     		ldr	r2, .L19+68
 497 01b8 1360     		str	r3, [r2]
 748:Generated_Source\PSoC4/cyfitter_cfg.c **** 
 749:Generated_Source\PSoC4/cyfitter_cfg.c **** 		/* INT_CONFIG Starting address: CYDEV_UDB_INT_CFG */
 750:Generated_Source\PSoC4/cyfitter_cfg.c **** 		CY_SET_REG32((void *)(CYREG_UDB_INT_CFG), 0x00000002u);
 498              		.loc 1 750 0
 499 01ba 264A     		ldr	r2, .L19+72
 500 01bc 1360     		str	r3, [r2]
 751:Generated_Source\PSoC4/cyfitter_cfg.c **** 
 752:Generated_Source\PSoC4/cyfitter_cfg.c **** 		/* Enable UDB array and digital routing */
 753:Generated_Source\PSoC4/cyfitter_cfg.c **** 		CY_SET_XTND_REG8((void *)CYREG_UDB_UDBIF_WAIT_CFG, (uint8)((CY_GET_XTND_REG8((void *)CYREG_UDB_UD
 501              		.loc 1 753 0
 502 01be 2649     		ldr	r1, .L19+76
 503 01c0 0B78     		ldrb	r3, [r1]
 504 01c2 3C22     		movs	r2, #60
 505 01c4 9343     		bics	r3, r2
 506 01c6 1422     		movs	r2, #20
 507 01c8 1343     		orrs	r3, r2
 508 01ca DBB2     		uxtb	r3, r3
 509 01cc 0B70     		strb	r3, [r1]
 754:Generated_Source\PSoC4/cyfitter_cfg.c **** 		CY_SET_XTND_REG8((void *)CYREG_UDB_UDBIF_BANK_CTL, (uint8)(CY_GET_XTND_REG8((void *)CYREG_UDB_UDB
 510              		.loc 1 754 0
 511 01ce 234A     		ldr	r2, .L19+80
 512 01d0 1178     		ldrb	r1, [r2]
 513 01d2 1623     		movs	r3, #22
 514 01d4 0B43     		orrs	r3, r1
 515 01d6 DBB2     		uxtb	r3, r3
 516 01d8 1370     		strb	r3, [r2]
 517              	.LBE3:
 755:Generated_Source\PSoC4/cyfitter_cfg.c **** 	}
ARM GAS  C:\Users\juano\AppData\Local\Temp\ccvSFdbH.s 			page 24


 756:Generated_Source\PSoC4/cyfitter_cfg.c **** 
 757:Generated_Source\PSoC4/cyfitter_cfg.c **** 	/* Perform second pass device configuration. These items must be configured in specific order afte
 758:Generated_Source\PSoC4/cyfitter_cfg.c **** 	/* IOPINS0_0 Starting address: CYDEV_GPIO_PRT0_BASE */
 759:Generated_Source\PSoC4/cyfitter_cfg.c **** 	CY_SET_REG32((void *)(CYREG_GPIO_PRT0_PC), 0x00D80000u);
 518              		.loc 1 759 0
 519 01da D822     		movs	r2, #216
 520 01dc 1204     		lsls	r2, r2, #16
 521 01de 204B     		ldr	r3, .L19+84
 522 01e0 1A60     		str	r2, [r3]
 760:Generated_Source\PSoC4/cyfitter_cfg.c **** 
 761:Generated_Source\PSoC4/cyfitter_cfg.c **** 	/* IOPINS0_1 Starting address: CYDEV_GPIO_PRT1_BASE */
 762:Generated_Source\PSoC4/cyfitter_cfg.c **** 	CY_SET_REG32((void *)(CYDEV_GPIO_PRT1_BASE), 0x00000020u);
 523              		.loc 1 762 0
 524 01e2 2023     		movs	r3, #32
 525 01e4 1F4A     		ldr	r2, .L19+88
 526 01e6 1360     		str	r3, [r2]
 763:Generated_Source\PSoC4/cyfitter_cfg.c **** 	CY_SET_REG32((void *)(CYREG_GPIO_PRT1_PC), 0x00031000u);
 527              		.loc 1 763 0
 528 01e8 C421     		movs	r1, #196
 529 01ea 8902     		lsls	r1, r1, #10
 530 01ec 1E4A     		ldr	r2, .L19+92
 531 01ee 1160     		str	r1, [r2]
 764:Generated_Source\PSoC4/cyfitter_cfg.c **** 
 765:Generated_Source\PSoC4/cyfitter_cfg.c **** 	/* IOPINS0_2 Starting address: CYDEV_GPIO_PRT2_BASE */
 766:Generated_Source\PSoC4/cyfitter_cfg.c **** 	CY_SET_REG32((void *)(CYDEV_GPIO_PRT2_BASE), 0x00000020u);
 532              		.loc 1 766 0
 533 01f0 1E4A     		ldr	r2, .L19+96
 534 01f2 1360     		str	r3, [r2]
 767:Generated_Source\PSoC4/cyfitter_cfg.c **** 	CY_SET_REG32((void *)(CYREG_GPIO_PRT2_PC), 0x000301B6u);
 535              		.loc 1 767 0
 536 01f4 1E4A     		ldr	r2, .L19+100
 537 01f6 1F4B     		ldr	r3, .L19+104
 538 01f8 1A60     		str	r2, [r3]
 768:Generated_Source\PSoC4/cyfitter_cfg.c **** 
 769:Generated_Source\PSoC4/cyfitter_cfg.c **** 	/* IOPINS0_3 Starting address: CYDEV_GPIO_PRT3_BASE */
 770:Generated_Source\PSoC4/cyfitter_cfg.c **** 	CY_SET_REG32((void *)(CYREG_GPIO_PRT3_PC), 0x001B6DB6u);
 539              		.loc 1 770 0
 540 01fa 1F4A     		ldr	r2, .L19+108
 541 01fc 1F4B     		ldr	r3, .L19+112
 542 01fe 1A60     		str	r2, [r3]
 771:Generated_Source\PSoC4/cyfitter_cfg.c **** 
 772:Generated_Source\PSoC4/cyfitter_cfg.c **** 
 773:Generated_Source\PSoC4/cyfitter_cfg.c **** 	/* Setup clocks based on selections from Clock DWR */
 774:Generated_Source\PSoC4/cyfitter_cfg.c **** 	ClockSetup();
 543              		.loc 1 774 0
 544 0200 FFF7FEFE 		bl	ClockSetup
 545              	.LVL38:
 775:Generated_Source\PSoC4/cyfitter_cfg.c **** 
 776:Generated_Source\PSoC4/cyfitter_cfg.c **** 	/* Perform basic analog initialization to defaults */
 777:Generated_Source\PSoC4/cyfitter_cfg.c **** 	AnalogSetDefault();
 546              		.loc 1 777 0
 547 0204 FFF7FEFF 		bl	AnalogSetDefault
 548              	.LVL39:
 778:Generated_Source\PSoC4/cyfitter_cfg.c **** 
 779:Generated_Source\PSoC4/cyfitter_cfg.c **** }
 549              		.loc 1 779 0
 550              		@ sp needed
ARM GAS  C:\Users\juano\AppData\Local\Temp\ccvSFdbH.s 			page 25


 551              	.LVL40:
 552 0208 70BD     		pop	{r4, r5, r6, pc}
 553              	.L20:
 554 020a C046     		.align	2
 555              	.L19:
 556 020c 6CF02E40 		.word	1076818028
 557 0210 1C700F40 		.word	1074753564
 558 0214 00000000 		.word	.LANCHOR0
 559 0218 80020000 		.word	.LANCHOR1
 560 021c 00600F40 		.word	1074749440
 561 0220 02600F40 		.word	1074749442
 562 0224 00000240 		.word	1073872896
 563 0228 00010240 		.word	1073873152
 564 022c 00020240 		.word	1073873408
 565 0230 00500F40 		.word	1074745344
 566 0234 04009900 		.word	10027012
 567 0238 10500F40 		.word	1074745360
 568 023c 14500F40 		.word	1074745364
 569 0240 18500F40 		.word	1074745368
 570 0244 20500F40 		.word	1074745376
 571 0248 28500F40 		.word	1074745384
 572 024c 30500F40 		.word	1074745392
 573 0250 20001040 		.word	1074790432
 574 0254 00800F40 		.word	1074757632
 575 0258 01700F40 		.word	1074753537
 576 025c 00700F40 		.word	1074753536
 577 0260 08000440 		.word	1074003976
 578 0264 00010440 		.word	1074004224
 579 0268 08010440 		.word	1074004232
 580 026c 00020440 		.word	1074004480
 581 0270 B6010300 		.word	197046
 582 0274 08020440 		.word	1074004488
 583 0278 B66D1B00 		.word	1797558
 584 027c 08030440 		.word	1074004744
 585              		.cfi_endproc
 586              	.LFE8:
 587              		.size	cyfitter_cfg, .-cyfitter_cfg
 588              		.section	.rodata
 589              		.align	2
 590              		.set	.LANCHOR0,. + 0
 591              		.set	.LANCHOR1,. + 640
 592              		.type	cfg_memset_list.4921, %object
 593              		.size	cfg_memset_list.4921, 18
 594              	cfg_memset_list.4921:
 595 0000 00300F40 		.word	1074737152
 596 0004 8002     		.short	640
 597 0006 00330F40 		.4byte	1074737920
 598 000a 0001     		.short	256
 599 000c 00400F40 		.word	1074741248
 600 0010 0004     		.short	1024
 601 0012 0000     		.space	2
 602              		.type	cfg_memcpy_list.4923, %object
 603              		.size	cfg_memcpy_list.4923, 10
 604              	cfg_memcpy_list.4923:
 605 0014 80320F40 		.word	1074737792
 606 0018 D4020000 		.word	BS_UDB_0_0_0_CONFIG_VAL.4922
 607 001c 8000     		.short	128
ARM GAS  C:\Users\juano\AppData\Local\Temp\ccvSFdbH.s 			page 26


 608 001e 0000     		.space	2
 609              		.type	cy_cfg_data_table.4911, %object
 610              		.size	cy_cfg_data_table.4911, 652
 611              	cy_cfg_data_table.4911:
 612 0020 80       		.byte	-128
 613 0021 38       		.byte	56
 614 0022 81       		.byte	-127
 615 0023 0F       		.byte	15
 616 0024 82       		.byte	-126
 617 0025 0D       		.byte	13
 618 0026 83       		.byte	-125
 619 0027 72       		.byte	114
 620 0028 01       		.byte	1
 621 0029 41       		.byte	65
 622 002a 02       		.byte	2
 623 002b 20       		.byte	32
 624 002c 04       		.byte	4
 625 002d 01       		.byte	1
 626 002e 06       		.byte	6
 627 002f 0E       		.byte	14
 628 0030 07       		.byte	7
 629 0031 E3       		.byte	-29
 630 0032 09       		.byte	9
 631 0033 0F       		.byte	15
 632 0034 0B       		.byte	11
 633 0035 F0       		.byte	-16
 634 0036 0D       		.byte	13
 635 0037 FF       		.byte	-1
 636 0038 10       		.byte	16
 637 0039 1C       		.byte	28
 638 003a 12       		.byte	18
 639 003b 03       		.byte	3
 640 003c 15       		.byte	21
 641 003d C3       		.byte	-61
 642 003e 16       		.byte	22
 643 003f 08       		.byte	8
 644 0040 19       		.byte	25
 645 0041 82       		.byte	-126
 646 0042 1A       		.byte	26
 647 0043 20       		.byte	32
 648 0044 1D       		.byte	29
 649 0045 08       		.byte	8
 650 0046 21       		.byte	33
 651 0047 0C       		.byte	12
 652 0048 22       		.byte	34
 653 0049 1C       		.byte	28
 654 004a 23       		.byte	35
 655 004b F3       		.byte	-13
 656 004c 24       		.byte	36
 657 004d 01       		.byte	1
 658 004e 25       		.byte	37
 659 004f 0C       		.byte	12
 660 0050 26       		.byte	38
 661 0051 16       		.byte	22
 662 0052 29       		.byte	41
 663 0053 04       		.byte	4
 664 0054 2A       		.byte	42
ARM GAS  C:\Users\juano\AppData\Local\Temp\ccvSFdbH.s 			page 27


 665 0055 03       		.byte	3
 666 0056 2D       		.byte	45
 667 0057 F3       		.byte	-13
 668 0058 2F       		.byte	47
 669 0059 0C       		.byte	12
 670 005a 30       		.byte	48
 671 005b 0F       		.byte	15
 672 005c 31       		.byte	49
 673 005d C0       		.byte	-64
 674 005e 32       		.byte	50
 675 005f 1A       		.byte	26
 676 0060 33       		.byte	51
 677 0061 2C       		.byte	44
 678 0062 34       		.byte	52
 679 0063 20       		.byte	32
 680 0064 35       		.byte	53
 681 0065 10       		.byte	16
 682 0066 37       		.byte	55
 683 0067 0F       		.byte	15
 684 0068 39       		.byte	57
 685 0069 20       		.byte	32
 686 006a 3A       		.byte	58
 687 006b 0A       		.byte	10
 688 006c 3B       		.byte	59
 689 006d 88       		.byte	-120
 690 006e 3E       		.byte	62
 691 006f 10       		.byte	16
 692 0070 40       		.byte	64
 693 0071 02       		.byte	2
 694 0072 46       		.byte	70
 695 0073 40       		.byte	64
 696 0074 49       		.byte	73
 697 0075 FF       		.byte	-1
 698 0076 4A       		.byte	74
 699 0077 07       		.byte	7
 700 0078 4B       		.byte	75
 701 0079 FF       		.byte	-1
 702 007a 4C       		.byte	76
 703 007b 40       		.byte	64
 704 007c 4D       		.byte	77
 705 007d 20       		.byte	32
 706 007e 4E       		.byte	78
 707 007f F0       		.byte	-16
 708 0080 4F       		.byte	79
 709 0081 05       		.byte	5
 710 0082 50       		.byte	80
 711 0083 08       		.byte	8
 712 0084 54       		.byte	84
 713 0085 18       		.byte	24
 714 0086 56       		.byte	86
 715 0087 04       		.byte	4
 716 0088 58       		.byte	88
 717 0089 04       		.byte	4
 718 008a 59       		.byte	89
 719 008b 04       		.byte	4
 720 008c 5A       		.byte	90
 721 008d 04       		.byte	4
ARM GAS  C:\Users\juano\AppData\Local\Temp\ccvSFdbH.s 			page 28


 722 008e 5B       		.byte	91
 723 008f 04       		.byte	4
 724 0090 5C       		.byte	92
 725 0091 11       		.byte	17
 726 0092 5D       		.byte	93
 727 0093 11       		.byte	17
 728 0094 5F       		.byte	95
 729 0095 01       		.byte	1
 730 0096 60       		.byte	96
 731 0097 40       		.byte	64
 732 0098 61       		.byte	97
 733 0099 A8       		.byte	-88
 734 009a 62       		.byte	98
 735 009b 40       		.byte	64
 736 009c 63       		.byte	99
 737 009d 20       		.byte	32
 738 009e 82       		.byte	-126
 739 009f 20       		.byte	32
 740 00a0 84       		.byte	-124
 741 00a1 2C       		.byte	44
 742 00a2 86       		.byte	-122
 743 00a3 11       		.byte	17
 744 00a4 88       		.byte	-120
 745 00a5 40       		.byte	64
 746 00a6 8C       		.byte	-116
 747 00a7 1C       		.byte	28
 748 00a8 8D       		.byte	-115
 749 00a9 03       		.byte	3
 750 00aa 8E       		.byte	-114
 751 00ab 22       		.byte	34
 752 00ac 8F       		.byte	-113
 753 00ad 04       		.byte	4
 754 00ae 90       		.byte	-112
 755 00af 80       		.byte	-128
 756 00b0 92       		.byte	-110
 757 00b1 03       		.byte	3
 758 00b2 93       		.byte	-109
 759 00b3 08       		.byte	8
 760 00b4 94       		.byte	-108
 761 00b5 30       		.byte	48
 762 00b6 95       		.byte	-107
 763 00b7 20       		.byte	32
 764 00b8 96       		.byte	-106
 765 00b9 0C       		.byte	12
 766 00ba 97       		.byte	-105
 767 00bb 45       		.byte	69
 768 00bc 99       		.byte	-103
 769 00bd D3       		.byte	-45
 770 00be 9B       		.byte	-101
 771 00bf 0C       		.byte	12
 772 00c0 9C       		.byte	-100
 773 00c1 14       		.byte	20
 774 00c2 A0       		.byte	-96
 775 00c3 09       		.byte	9
 776 00c4 A1       		.byte	-95
 777 00c5 8A       		.byte	-118
 778 00c6 A2       		.byte	-94
ARM GAS  C:\Users\juano\AppData\Local\Temp\ccvSFdbH.s 			page 29


 779 00c7 10       		.byte	16
 780 00c8 A3       		.byte	-93
 781 00c9 14       		.byte	20
 782 00ca A6       		.byte	-90
 783 00cb 20       		.byte	32
 784 00cc A8       		.byte	-88
 785 00cd 10       		.byte	16
 786 00ce A9       		.byte	-87
 787 00cf D3       		.byte	-45
 788 00d0 AB       		.byte	-85
 789 00d1 04       		.byte	4
 790 00d2 B0       		.byte	-80
 791 00d3 1F       		.byte	31
 792 00d4 B2       		.byte	-78
 793 00d5 20       		.byte	32
 794 00d6 B3       		.byte	-77
 795 00d7 C0       		.byte	-64
 796 00d8 B4       		.byte	-76
 797 00d9 40       		.byte	64
 798 00da B5       		.byte	-75
 799 00db 0F       		.byte	15
 800 00dc B6       		.byte	-74
 801 00dd 80       		.byte	-128
 802 00de B7       		.byte	-73
 803 00df 30       		.byte	48
 804 00e0 B9       		.byte	-71
 805 00e1 88       		.byte	-120
 806 00e2 BB       		.byte	-69
 807 00e3 20       		.byte	32
 808 00e4 BE       		.byte	-66
 809 00e5 54       		.byte	84
 810 00e6 BF       		.byte	-65
 811 00e7 04       		.byte	4
 812 00e8 C0       		.byte	-64
 813 00e9 32       		.byte	50
 814 00ea C1       		.byte	-63
 815 00eb 06       		.byte	6
 816 00ec C6       		.byte	-58
 817 00ed 0C       		.byte	12
 818 00ee C7       		.byte	-57
 819 00ef BE       		.byte	-66
 820 00f0 C8       		.byte	-56
 821 00f1 34       		.byte	52
 822 00f2 C9       		.byte	-55
 823 00f3 FF       		.byte	-1
 824 00f4 CA       		.byte	-54
 825 00f5 FF       		.byte	-1
 826 00f6 CB       		.byte	-53
 827 00f7 FF       		.byte	-1
 828 00f8 CE       		.byte	-50
 829 00f9 F0       		.byte	-16
 830 00fa CF       		.byte	-49
 831 00fb 44       		.byte	68
 832 00fc D0       		.byte	-48
 833 00fd 0C       		.byte	12
 834 00fe D4       		.byte	-44
 835 00ff 01       		.byte	1
ARM GAS  C:\Users\juano\AppData\Local\Temp\ccvSFdbH.s 			page 30


 836 0100 D8       		.byte	-40
 837 0101 04       		.byte	4
 838 0102 D9       		.byte	-39
 839 0103 04       		.byte	4
 840 0104 DA       		.byte	-38
 841 0105 04       		.byte	4
 842 0106 DB       		.byte	-37
 843 0107 04       		.byte	4
 844 0108 DC       		.byte	-36
 845 0109 11       		.byte	17
 846 010a DD       		.byte	-35
 847 010b 11       		.byte	17
 848 010c DF       		.byte	-33
 849 010d 01       		.byte	1
 850 010e E6       		.byte	-26
 851 010f C0       		.byte	-64
 852 0110 EA       		.byte	-22
 853 0111 40       		.byte	64
 854 0112 EB       		.byte	-21
 855 0113 02       		.byte	2
 856 0114 01       		.byte	1
 857 0115 08       		.byte	8
 858 0116 02       		.byte	2
 859 0117 80       		.byte	-128
 860 0118 04       		.byte	4
 861 0119 80       		.byte	-128
 862 011a 05       		.byte	5
 863 011b 08       		.byte	8
 864 011c 06       		.byte	6
 865 011d 88       		.byte	-120
 866 011e 0A       		.byte	10
 867 011f 80       		.byte	-128
 868 0120 0B       		.byte	11
 869 0121 24       		.byte	36
 870 0122 0E       		.byte	14
 871 0123 60       		.byte	96
 872 0124 0F       		.byte	15
 873 0125 02       		.byte	2
 874 0126 10       		.byte	16
 875 0127 40       		.byte	64
 876 0128 12       		.byte	18
 877 0129 08       		.byte	8
 878 012a 13       		.byte	19
 879 012b 08       		.byte	8
 880 012c 14       		.byte	20
 881 012d 40       		.byte	64
 882 012e 15       		.byte	21
 883 012f 28       		.byte	40
 884 0130 17       		.byte	23
 885 0131 01       		.byte	1
 886 0132 18       		.byte	24
 887 0133 84       		.byte	-124
 888 0134 19       		.byte	25
 889 0135 0A       		.byte	10
 890 0136 1A       		.byte	26
 891 0137 80       		.byte	-128
 892 0138 1B       		.byte	27
ARM GAS  C:\Users\juano\AppData\Local\Temp\ccvSFdbH.s 			page 31


 893 0139 08       		.byte	8
 894 013a 1E       		.byte	30
 895 013b 58       		.byte	88
 896 013c 1F       		.byte	31
 897 013d 40       		.byte	64
 898 013e 20       		.byte	32
 899 013f 02       		.byte	2
 900 0140 22       		.byte	34
 901 0141 01       		.byte	1
 902 0142 23       		.byte	35
 903 0143 14       		.byte	20
 904 0144 26       		.byte	38
 905 0145 10       		.byte	16
 906 0146 27       		.byte	39
 907 0147 19       		.byte	25
 908 0148 29       		.byte	41
 909 0149 55       		.byte	85
 910 014a 2D       		.byte	45
 911 014b 22       		.byte	34
 912 014c 2F       		.byte	47
 913 014d 08       		.byte	8
 914 014e 30       		.byte	48
 915 014f 90       		.byte	-112
 916 0150 32       		.byte	50
 917 0151 04       		.byte	4
 918 0152 36       		.byte	54
 919 0153 18       		.byte	24
 920 0154 37       		.byte	55
 921 0155 01       		.byte	1
 922 0156 38       		.byte	56
 923 0157 48       		.byte	72
 924 0158 3A       		.byte	58
 925 0159 01       		.byte	1
 926 015a 3B       		.byte	59
 927 015b 10       		.byte	16
 928 015c 3E       		.byte	62
 929 015d 80       		.byte	-128
 930 015e 43       		.byte	67
 931 015f 10       		.byte	16
 932 0160 46       		.byte	70
 933 0161 04       		.byte	4
 934 0162 47       		.byte	71
 935 0163 08       		.byte	8
 936 0164 48       		.byte	72
 937 0165 01       		.byte	1
 938 0166 49       		.byte	73
 939 0167 40       		.byte	64
 940 0168 4D       		.byte	77
 941 0169 20       		.byte	32
 942 016a 51       		.byte	81
 943 016b 14       		.byte	20
 944 016c 52       		.byte	82
 945 016d 0C       		.byte	12
 946 016e 53       		.byte	83
 947 016f 10       		.byte	16
 948 0170 56       		.byte	86
 949 0171 88       		.byte	-120
ARM GAS  C:\Users\juano\AppData\Local\Temp\ccvSFdbH.s 			page 32


 950 0172 57       		.byte	87
 951 0173 01       		.byte	1
 952 0174 5A       		.byte	90
 953 0175 02       		.byte	2
 954 0176 5E       		.byte	94
 955 0177 08       		.byte	8
 956 0178 5F       		.byte	95
 957 0179 A2       		.byte	-94
 958 017a 60       		.byte	96
 959 017b 04       		.byte	4
 960 017c 62       		.byte	98
 961 017d 40       		.byte	64
 962 017e 63       		.byte	99
 963 017f 40       		.byte	64
 964 0180 82       		.byte	-126
 965 0181 10       		.byte	16
 966 0182 83       		.byte	-125
 967 0183 80       		.byte	-128
 968 0184 87       		.byte	-121
 969 0185 40       		.byte	64
 970 0186 C0       		.byte	-64
 971 0187 FC       		.byte	-4
 972 0188 C2       		.byte	-62
 973 0189 BE       		.byte	-66
 974 018a C4       		.byte	-60
 975 018b 7E       		.byte	126
 976 018c CA       		.byte	-54
 977 018d AF       		.byte	-81
 978 018e CC       		.byte	-52
 979 018f EE       		.byte	-18
 980 0190 CE       		.byte	-50
 981 0191 1F       		.byte	31
 982 0192 D0       		.byte	-48
 983 0193 64       		.byte	100
 984 0194 D2       		.byte	-46
 985 0195 20       		.byte	32
 986 0196 D6       		.byte	-42
 987 0197 F1       		.byte	-15
 988 0198 D8       		.byte	-40
 989 0199 0D       		.byte	13
 990 019a 03       		.byte	3
 991 019b 01       		.byte	1
 992 019c 07       		.byte	7
 993 019d 02       		.byte	2
 994 019e 0F       		.byte	15
 995 019f 01       		.byte	1
 996 01a0 14       		.byte	20
 997 01a1 04       		.byte	4
 998 01a2 1A       		.byte	26
 999 01a3 07       		.byte	7
 1000 01a4 1E       		.byte	30
 1001 01a5 01       		.byte	1
 1002 01a6 2E       		.byte	46
 1003 01a7 08       		.byte	8
 1004 01a8 2F       		.byte	47
 1005 01a9 02       		.byte	2
 1006 01aa 30       		.byte	48
ARM GAS  C:\Users\juano\AppData\Local\Temp\ccvSFdbH.s 			page 33


 1007 01ab 01       		.byte	1
 1008 01ac 32       		.byte	50
 1009 01ad 02       		.byte	2
 1010 01ae 33       		.byte	51
 1011 01af 02       		.byte	2
 1012 01b0 34       		.byte	52
 1013 01b1 04       		.byte	4
 1014 01b2 35       		.byte	53
 1015 01b3 01       		.byte	1
 1016 01b4 36       		.byte	54
 1017 01b5 08       		.byte	8
 1018 01b6 3B       		.byte	59
 1019 01b7 02       		.byte	2
 1020 01b8 3F       		.byte	63
 1021 01b9 14       		.byte	20
 1022 01ba 40       		.byte	64
 1023 01bb 10       		.byte	16
 1024 01bc 41       		.byte	65
 1025 01bd 05       		.byte	5
 1026 01be 45       		.byte	69
 1027 01bf D1       		.byte	-47
 1028 01c0 46       		.byte	70
 1029 01c1 02       		.byte	2
 1030 01c2 48       		.byte	72
 1031 01c3 07       		.byte	7
 1032 01c4 49       		.byte	73
 1033 01c5 FF       		.byte	-1
 1034 01c6 4A       		.byte	74
 1035 01c7 FF       		.byte	-1
 1036 01c8 4B       		.byte	75
 1037 01c9 FF       		.byte	-1
 1038 01ca 4D       		.byte	77
 1039 01cb A0       		.byte	-96
 1040 01cc 4F       		.byte	79
 1041 01cd 04       		.byte	4
 1042 01ce 50       		.byte	80
 1043 01cf 18       		.byte	24
 1044 01d0 52       		.byte	82
 1045 01d1 80       		.byte	-128
 1046 01d2 54       		.byte	84
 1047 01d3 05       		.byte	5
 1048 01d4 58       		.byte	88
 1049 01d5 04       		.byte	4
 1050 01d6 59       		.byte	89
 1051 01d7 04       		.byte	4
 1052 01d8 5A       		.byte	90
 1053 01d9 04       		.byte	4
 1054 01da 5B       		.byte	91
 1055 01db 04       		.byte	4
 1056 01dc 5C       		.byte	92
 1057 01dd 13       		.byte	19
 1058 01de 5D       		.byte	93
 1059 01df 33       		.byte	51
 1060 01e0 5F       		.byte	95
 1061 01e1 01       		.byte	1
 1062 01e2 60       		.byte	96
 1063 01e3 40       		.byte	64
ARM GAS  C:\Users\juano\AppData\Local\Temp\ccvSFdbH.s 			page 34


 1064 01e4 62       		.byte	98
 1065 01e5 C0       		.byte	-64
 1066 01e6 64       		.byte	100
 1067 01e7 40       		.byte	64
 1068 01e8 65       		.byte	101
 1069 01e9 40       		.byte	64
 1070 01ea 66       		.byte	102
 1071 01eb C0       		.byte	-64
 1072 01ec 68       		.byte	104
 1073 01ed C0       		.byte	-64
 1074 01ee 6A       		.byte	106
 1075 01ef C0       		.byte	-64
 1076 01f0 6C       		.byte	108
 1077 01f1 C0       		.byte	-64
 1078 01f2 6E       		.byte	110
 1079 01f3 C0       		.byte	-64
 1080 01f4 00       		.byte	0
 1081 01f5 06       		.byte	6
 1082 01f6 02       		.byte	2
 1083 01f7 01       		.byte	1
 1084 01f8 03       		.byte	3
 1085 01f9 08       		.byte	8
 1086 01fa 04       		.byte	4
 1087 01fb 0C       		.byte	12
 1088 01fc 0A       		.byte	10
 1089 01fd 40       		.byte	64
 1090 01fe 0B       		.byte	11
 1091 01ff 10       		.byte	16
 1092 0200 0E       		.byte	14
 1093 0201 11       		.byte	17
 1094 0202 0F       		.byte	15
 1095 0203 08       		.byte	8
 1096 0204 10       		.byte	16
 1097 0205 A8       		.byte	-88
 1098 0206 12       		.byte	18
 1099 0207 02       		.byte	2
 1100 0208 17       		.byte	23
 1101 0209 80       		.byte	-128
 1102 020a 19       		.byte	25
 1103 020b A1       		.byte	-95
 1104 020c 1A       		.byte	26
 1105 020d 40       		.byte	64
 1106 020e 1B       		.byte	27
 1107 020f 08       		.byte	8
 1108 0210 1C       		.byte	28
 1109 0211 08       		.byte	8
 1110 0212 1D       		.byte	29
 1111 0213 80       		.byte	-128
 1112 0214 1E       		.byte	30
 1113 0215 11       		.byte	17
 1114 0216 1F       		.byte	31
 1115 0217 01       		.byte	1
 1116 0218 20       		.byte	32
 1117 0219 05       		.byte	5
 1118 021a 22       		.byte	34
 1119 021b 05       		.byte	5
 1120 021c 24       		.byte	36
ARM GAS  C:\Users\juano\AppData\Local\Temp\ccvSFdbH.s 			page 35


 1121 021d 40       		.byte	64
 1122 021e 26       		.byte	38
 1123 021f 0A       		.byte	10
 1124 0220 27       		.byte	39
 1125 0221 08       		.byte	8
 1126 0222 2D       		.byte	45
 1127 0223 80       		.byte	-128
 1128 0224 32       		.byte	50
 1129 0225 05       		.byte	5
 1130 0226 39       		.byte	57
 1131 0227 54       		.byte	84
 1132 0228 3A       		.byte	58
 1133 0229 01       		.byte	1
 1134 022a 3E       		.byte	62
 1135 022b 01       		.byte	1
 1136 022c 3F       		.byte	63
 1137 022d 84       		.byte	-124
 1138 022e 40       		.byte	64
 1139 022f 65       		.byte	101
 1140 0230 45       		.byte	69
 1141 0231 80       		.byte	-128
 1142 0232 49       		.byte	73
 1143 0233 80       		.byte	-128
 1144 0234 4B       		.byte	75
 1145 0235 04       		.byte	4
 1146 0236 4D       		.byte	77
 1147 0237 01       		.byte	1
 1148 0238 4F       		.byte	79
 1149 0239 88       		.byte	-120
 1150 023a 52       		.byte	82
 1151 023b 80       		.byte	-128
 1152 023c 57       		.byte	87
 1153 023d 40       		.byte	64
 1154 023e 59       		.byte	89
 1155 023f 20       		.byte	32
 1156 0240 5C       		.byte	92
 1157 0241 80       		.byte	-128
 1158 0242 5D       		.byte	93
 1159 0243 01       		.byte	1
 1160 0244 5F       		.byte	95
 1161 0245 08       		.byte	8
 1162 0246 69       		.byte	105
 1163 0247 54       		.byte	84
 1164 0248 70       		.byte	112
 1165 0249 A8       		.byte	-88
 1166 024a 71       		.byte	113
 1167 024b 14       		.byte	20
 1168 024c 77       		.byte	119
 1169 024d 80       		.byte	-128
 1170 024e 82       		.byte	-126
 1171 024f 01       		.byte	1
 1172 0250 84       		.byte	-124
 1173 0251 A5       		.byte	-91
 1174 0252 88       		.byte	-120
 1175 0253 10       		.byte	16
 1176 0254 8A       		.byte	-118
 1177 0255 49       		.byte	73
ARM GAS  C:\Users\juano\AppData\Local\Temp\ccvSFdbH.s 			page 36


 1178 0256 8F       		.byte	-113
 1179 0257 01       		.byte	1
 1180 0258 93       		.byte	-109
 1181 0259 10       		.byte	16
 1182 025a 94       		.byte	-108
 1183 025b 48       		.byte	72
 1184 025c 96       		.byte	-106
 1185 025d 08       		.byte	8
 1186 025e 9C       		.byte	-100
 1187 025f 10       		.byte	16
 1188 0260 9D       		.byte	-99
 1189 0261 15       		.byte	21
 1190 0262 9E       		.byte	-98
 1191 0263 41       		.byte	65
 1192 0264 A0       		.byte	-96
 1193 0265 01       		.byte	1
 1194 0266 A4       		.byte	-92
 1195 0267 80       		.byte	-128
 1196 0268 A6       		.byte	-90
 1197 0269 80       		.byte	-128
 1198 026a AA       		.byte	-86
 1199 026b 88       		.byte	-120
 1200 026c AB       		.byte	-85
 1201 026d 22       		.byte	34
 1202 026e AF       		.byte	-81
 1203 026f 40       		.byte	64
 1204 0270 C0       		.byte	-64
 1205 0271 0F       		.byte	15
 1206 0272 C2       		.byte	-62
 1207 0273 EC       		.byte	-20
 1208 0274 C4       		.byte	-60
 1209 0275 8F       		.byte	-113
 1210 0276 CA       		.byte	-54
 1211 0277 10       		.byte	16
 1212 0278 CC       		.byte	-52
 1213 0279 03       		.byte	3
 1214 027a CE       		.byte	-50
 1215 027b DF       		.byte	-33
 1216 027c D0       		.byte	-48
 1217 027d 1F       		.byte	31
 1218 027e D2       		.byte	-46
 1219 027f 18       		.byte	24
 1220 0280 D6       		.byte	-42
 1221 0281 D4       		.byte	-44
 1222 0282 86       		.byte	-122
 1223 0283 40       		.byte	64
 1224 0284 E6       		.byte	-26
 1225 0285 40       		.byte	64
 1226 0286 0A       		.byte	10
 1227 0287 40       		.byte	64
 1228 0288 63       		.byte	99
 1229 0289 10       		.byte	16
 1230 028a 6E       		.byte	110
 1231 028b 80       		.byte	-128
 1232 028c 82       		.byte	-126
 1233 028d 40       		.byte	64
 1234 028e 93       		.byte	-109
ARM GAS  C:\Users\juano\AppData\Local\Temp\ccvSFdbH.s 			page 37


 1235 028f 10       		.byte	16
 1236 0290 A2       		.byte	-94
 1237 0291 40       		.byte	64
 1238 0292 AF       		.byte	-81
 1239 0293 10       		.byte	16
 1240 0294 C2       		.byte	-62
 1241 0295 10       		.byte	16
 1242 0296 D8       		.byte	-40
 1243 0297 40       		.byte	64
 1244 0298 DA       		.byte	-38
 1245 0299 80       		.byte	-128
 1246 029a E0       		.byte	-32
 1247 029b 20       		.byte	32
 1248 029c EA       		.byte	-22
 1249 029d 10       		.byte	16
 1250 029e 60       		.byte	96
 1251 029f 20       		.byte	32
 1252 02a0 D8       		.byte	-40
 1253 02a1 02       		.byte	2
 1254 02a2 8C       		.byte	-116
 1255 02a3 20       		.byte	32
 1256 02a4 9C       		.byte	-100
 1257 02a5 20       		.byte	32
 1258 02a6 E0       		.byte	-32
 1259 02a7 02       		.byte	2
 1260 02a8 10       		.byte	16
 1261 02a9 0A       		.byte	10
 1262 02aa 11       		.byte	17
 1263 02ab 01       		.byte	1
 1264              		.type	cy_cfg_addr_table.4910, %object
 1265              		.size	cy_cfg_addr_table.4910, 40
 1266              	cy_cfg_addr_table.4910:
 1267 02ac 04000F40 		.word	1074724868
 1268 02b0 76300F40 		.word	1074737270
 1269 02b4 43310F40 		.word	1074737475
 1270 02b8 2D320F40 		.word	1074737709
 1271 02bc 47330F40 		.word	1074737991
 1272 02c0 02400F40 		.word	1074741250
 1273 02c4 0C410F40 		.word	1074741516
 1274 02c8 02420F40 		.word	1074741762
 1275 02cc 03430F40 		.word	1074742019
 1276 02d0 02600F40 		.word	1074749442
 1277              		.type	BS_UDB_0_0_0_CONFIG_VAL.4922, %object
 1278              		.size	BS_UDB_0_0_0_CONFIG_VAL.4922, 128
 1279              	BS_UDB_0_0_0_CONFIG_VAL.4922:
 1280 02d4 67       		.byte	103
 1281 02d5 09       		.byte	9
 1282 02d6 18       		.byte	24
 1283 02d7 46       		.byte	70
 1284 02d8 00       		.byte	0
 1285 02d9 9F       		.byte	-97
 1286 02da 23       		.byte	35
 1287 02db 00       		.byte	0
 1288 02dc 00       		.byte	0
 1289 02dd 9F       		.byte	-97
 1290 02de 04       		.byte	4
 1291 02df 00       		.byte	0
ARM GAS  C:\Users\juano\AppData\Local\Temp\ccvSFdbH.s 			page 38


 1292 02e0 04       		.byte	4
 1293 02e1 80       		.byte	-128
 1294 02e2 80       		.byte	-128
 1295 02e3 00       		.byte	0
 1296 02e4 7C       		.byte	124
 1297 02e5 12       		.byte	18
 1298 02e6 02       		.byte	2
 1299 02e7 45       		.byte	69
 1300 02e8 5C       		.byte	92
 1301 02e9 04       		.byte	4
 1302 02ea 21       		.byte	33
 1303 02eb 38       		.byte	56
 1304 02ec 00       		.byte	0
 1305 02ed 00       		.byte	0
 1306 02ee 00       		.byte	0
 1307 02ef 00       		.byte	0
 1308 02f0 00       		.byte	0
 1309 02f1 00       		.byte	0
 1310 02f2 00       		.byte	0
 1311 02f3 00       		.byte	0
 1312 02f4 10       		.byte	16
 1313 02f5 00       		.byte	0
 1314 02f6 00       		.byte	0
 1315 02f7 00       		.byte	0
 1316 02f8 08       		.byte	8
 1317 02f9 00       		.byte	0
 1318 02fa 00       		.byte	0
 1319 02fb 00       		.byte	0
 1320 02fc 18       		.byte	24
 1321 02fd 00       		.byte	0
 1322 02fe 00       		.byte	0
 1323 02ff 00       		.byte	0
 1324 0300 7F       		.byte	127
 1325 0301 00       		.byte	0
 1326 0302 00       		.byte	0
 1327 0303 00       		.byte	0
 1328 0304 1F       		.byte	31
 1329 0305 03       		.byte	3
 1330 0306 80       		.byte	-128
 1331 0307 1C       		.byte	28
 1332 0308 40       		.byte	64
 1333 0309 80       		.byte	-128
 1334 030a 38       		.byte	56
 1335 030b 60       		.byte	96
 1336 030c 00       		.byte	0
 1337 030d 00       		.byte	0
 1338 030e 02       		.byte	2
 1339 030f 00       		.byte	0
 1340 0310 00       		.byte	0
 1341 0311 00       		.byte	0
 1342 0312 10       		.byte	16
 1343 0313 40       		.byte	64
 1344 0314 32       		.byte	50
 1345 0315 04       		.byte	4
 1346 0316 05       		.byte	5
 1347 0317 00       		.byte	0
 1348 0318 01       		.byte	1
ARM GAS  C:\Users\juano\AppData\Local\Temp\ccvSFdbH.s 			page 39


 1349 0319 0C       		.byte	12
 1350 031a 0E       		.byte	14
 1351 031b 00       		.byte	0
 1352 031c 05       		.byte	5
 1353 031d FF       		.byte	-1
 1354 031e FF       		.byte	-1
 1355 031f FF       		.byte	-1
 1356 0320 62       		.byte	98
 1357 0321 A0       		.byte	-96
 1358 0322 F0       		.byte	-16
 1359 0323 41       		.byte	65
 1360 0324 0C       		.byte	12
 1361 0325 00       		.byte	0
 1362 0326 00       		.byte	0
 1363 0327 00       		.byte	0
 1364 0328 00       		.byte	0
 1365 0329 00       		.byte	0
 1366 032a 02       		.byte	2
 1367 032b 11       		.byte	17
 1368 032c 04       		.byte	4
 1369 032d 04       		.byte	4
 1370 032e 04       		.byte	4
 1371 032f 04       		.byte	4
 1372 0330 11       		.byte	17
 1373 0331 11       		.byte	17
 1374 0332 00       		.byte	0
 1375 0333 01       		.byte	1
 1376 0334 00       		.byte	0
 1377 0335 00       		.byte	0
 1378 0336 00       		.byte	0
 1379 0337 00       		.byte	0
 1380 0338 00       		.byte	0
 1381 0339 00       		.byte	0
 1382 033a 40       		.byte	64
 1383 033b 02       		.byte	2
 1384 033c 00       		.byte	0
 1385 033d 10       		.byte	16
 1386 033e 30       		.byte	48
 1387 033f 10       		.byte	16
 1388 0340 00       		.byte	0
 1389 0341 10       		.byte	16
 1390 0342 10       		.byte	16
 1391 0343 12       		.byte	18
 1392 0344 00       		.byte	0
 1393 0345 00       		.byte	0
 1394 0346 00       		.byte	0
 1395 0347 00       		.byte	0
 1396 0348 00       		.byte	0
 1397 0349 00       		.byte	0
 1398 034a 00       		.byte	0
 1399 034b 00       		.byte	0
 1400 034c 00       		.byte	0
 1401 034d 00       		.byte	0
 1402 034e 00       		.byte	0
 1403 034f 00       		.byte	0
 1404 0350 00       		.byte	0
 1405 0351 00       		.byte	0
ARM GAS  C:\Users\juano\AppData\Local\Temp\ccvSFdbH.s 			page 40


 1406 0352 00       		.byte	0
 1407 0353 00       		.byte	0
 1408              		.text
 1409              	.Letext0:
 1410              		.file 2 "c:\\program files (x86)\\cypress\\psoc creator\\4.4\\psoc creator\\import\\gnu\\arm\\5.4.
 1411              		.file 3 "Generated_Source\\PSoC4\\cytypes.h"
 1412              		.file 4 "Generated_Source\\PSoC4\\CyLFClk.h"
 1413              		.file 5 "Generated_Source\\PSoC4\\CyLib.h"
