ARM GAS  C:\Users\juano\AppData\Local\Temp\cc6zp2zl.s 			page 1


   1              		.syntax unified
   2              		.cpu cortex-m0
   3              		.fpu softvfp
   4              		.eabi_attribute 20, 1
   5              		.eabi_attribute 21, 1
   6              		.eabi_attribute 23, 3
   7              		.eabi_attribute 24, 1
   8              		.eabi_attribute 25, 1
   9              		.eabi_attribute 26, 1
  10              		.eabi_attribute 30, 1
  11              		.eabi_attribute 34, 0
  12              		.eabi_attribute 18, 4
  13              		.thumb
  14              		.syntax unified
  15              		.file	"LCD.c"
  16              		.text
  17              	.Ltext0:
  18              		.cfi_sections	.debug_frame
  19              		.section	.text.LCD_WrCntrlNib,"ax",%progbits
  20              		.align	2
  21              		.code	16
  22              		.thumb_func
  23              		.type	LCD_WrCntrlNib, %function
  24              	LCD_WrCntrlNib:
  25              	.LFB13:
  26              		.file 1 "Generated_Source\\PSoC4\\LCD.c"
   1:Generated_Source\PSoC4/LCD.c **** /*******************************************************************************
   2:Generated_Source\PSoC4/LCD.c **** * File Name: LCD.c
   3:Generated_Source\PSoC4/LCD.c **** * Version 2.20
   4:Generated_Source\PSoC4/LCD.c **** *
   5:Generated_Source\PSoC4/LCD.c **** * Description:
   6:Generated_Source\PSoC4/LCD.c **** *  This file provides source code for the Character LCD component's API.
   7:Generated_Source\PSoC4/LCD.c **** *
   8:Generated_Source\PSoC4/LCD.c **** * Note:
   9:Generated_Source\PSoC4/LCD.c **** *
  10:Generated_Source\PSoC4/LCD.c **** ********************************************************************************
  11:Generated_Source\PSoC4/LCD.c **** * Copyright 2008-2014, Cypress Semiconductor Corporation.  All rights reserved.
  12:Generated_Source\PSoC4/LCD.c **** * You may use this file only in accordance with the license, terms, conditions,
  13:Generated_Source\PSoC4/LCD.c **** * disclaimers, and limitations in the end user license agreement accompanying
  14:Generated_Source\PSoC4/LCD.c **** * the software package with which this file was provided.
  15:Generated_Source\PSoC4/LCD.c **** *******************************************************************************/
  16:Generated_Source\PSoC4/LCD.c **** 
  17:Generated_Source\PSoC4/LCD.c **** #include "CyLib.h"
  18:Generated_Source\PSoC4/LCD.c **** #include "LCD.h"
  19:Generated_Source\PSoC4/LCD.c **** 
  20:Generated_Source\PSoC4/LCD.c **** 
  21:Generated_Source\PSoC4/LCD.c **** static void LCD_WrDatNib(uint8 nibble) ;
  22:Generated_Source\PSoC4/LCD.c **** static void LCD_WrCntrlNib(uint8 nibble) ;
  23:Generated_Source\PSoC4/LCD.c **** 
  24:Generated_Source\PSoC4/LCD.c **** /* Stores state of component. Indicates whether component is or not
  25:Generated_Source\PSoC4/LCD.c **** * in enable state.
  26:Generated_Source\PSoC4/LCD.c **** */
  27:Generated_Source\PSoC4/LCD.c **** uint8 LCD_enableState = 0u;
  28:Generated_Source\PSoC4/LCD.c **** 
  29:Generated_Source\PSoC4/LCD.c **** uint8 LCD_initVar = 0u;
  30:Generated_Source\PSoC4/LCD.c **** 
  31:Generated_Source\PSoC4/LCD.c **** 
ARM GAS  C:\Users\juano\AppData\Local\Temp\cc6zp2zl.s 			page 2


  32:Generated_Source\PSoC4/LCD.c **** /*******************************************************************************
  33:Generated_Source\PSoC4/LCD.c **** * Function Name: LCD_Init
  34:Generated_Source\PSoC4/LCD.c **** ********************************************************************************
  35:Generated_Source\PSoC4/LCD.c **** *
  36:Generated_Source\PSoC4/LCD.c **** * Summary:
  37:Generated_Source\PSoC4/LCD.c **** *  Performs initialization required for the components normal work.
  38:Generated_Source\PSoC4/LCD.c **** *  This function initializes the LCD hardware module as follows:
  39:Generated_Source\PSoC4/LCD.c **** *        Enables a 4-bit interface
  40:Generated_Source\PSoC4/LCD.c **** *        Clears the display
  41:Generated_Source\PSoC4/LCD.c **** *        Enables the auto cursor increment
  42:Generated_Source\PSoC4/LCD.c **** *        Resets the cursor to start position
  43:Generated_Source\PSoC4/LCD.c **** *  Also, it loads a custom character set to the LCD if it was defined in the customizer.
  44:Generated_Source\PSoC4/LCD.c **** *
  45:Generated_Source\PSoC4/LCD.c **** * Parameters:
  46:Generated_Source\PSoC4/LCD.c **** *  None.
  47:Generated_Source\PSoC4/LCD.c **** *
  48:Generated_Source\PSoC4/LCD.c **** * Return:
  49:Generated_Source\PSoC4/LCD.c **** *  None.
  50:Generated_Source\PSoC4/LCD.c **** *
  51:Generated_Source\PSoC4/LCD.c **** * Reentrant:
  52:Generated_Source\PSoC4/LCD.c **** *  No.
  53:Generated_Source\PSoC4/LCD.c **** *
  54:Generated_Source\PSoC4/LCD.c **** *******************************************************************************/
  55:Generated_Source\PSoC4/LCD.c **** void LCD_Init(void) 
  56:Generated_Source\PSoC4/LCD.c **** {
  57:Generated_Source\PSoC4/LCD.c ****     /* INIT CODE */
  58:Generated_Source\PSoC4/LCD.c ****     CyDelay(40u);                                                        /* Delay 40 ms */
  59:Generated_Source\PSoC4/LCD.c ****     LCD_WrCntrlNib(LCD_DISPLAY_8_BIT_INIT);    /* Selects 8-bit mode */
  60:Generated_Source\PSoC4/LCD.c ****     CyDelay(5u);                                                         /* Delay 5 ms */
  61:Generated_Source\PSoC4/LCD.c ****     LCD_WrCntrlNib(LCD_DISPLAY_8_BIT_INIT);    /* Selects 8-bit mode */
  62:Generated_Source\PSoC4/LCD.c ****     CyDelay(15u);                                                        /* Delay 15 ms */
  63:Generated_Source\PSoC4/LCD.c ****     LCD_WrCntrlNib(LCD_DISPLAY_8_BIT_INIT);    /* Selects 8-bit mode */
  64:Generated_Source\PSoC4/LCD.c ****     CyDelay(1u);                                                         /* Delay 1 ms */
  65:Generated_Source\PSoC4/LCD.c ****     LCD_WrCntrlNib(LCD_DISPLAY_4_BIT_INIT);    /* Selects 4-bit mode */
  66:Generated_Source\PSoC4/LCD.c ****     CyDelay(5u);                                                         /* Delay 5 ms */
  67:Generated_Source\PSoC4/LCD.c **** 
  68:Generated_Source\PSoC4/LCD.c ****     LCD_WriteControl(LCD_CURSOR_AUTO_INCR_ON);    /* Incr Cursor After Writes */
  69:Generated_Source\PSoC4/LCD.c ****     LCD_WriteControl(LCD_DISPLAY_CURSOR_ON);      /* Turn Display, Cursor ON */
  70:Generated_Source\PSoC4/LCD.c ****     LCD_WriteControl(LCD_DISPLAY_2_LINES_5x10);   /* 2 Lines by 5x10 Characters */
  71:Generated_Source\PSoC4/LCD.c ****     LCD_WriteControl(LCD_DISPLAY_CURSOR_OFF);     /* Turn Display, Cursor OFF */
  72:Generated_Source\PSoC4/LCD.c ****     LCD_WriteControl(LCD_CLEAR_DISPLAY);          /* Clear LCD Screen */
  73:Generated_Source\PSoC4/LCD.c ****     LCD_WriteControl(LCD_DISPLAY_ON_CURSOR_OFF);  /* Turn Display ON, Cursor OFF */
  74:Generated_Source\PSoC4/LCD.c ****     LCD_WriteControl(LCD_RESET_CURSOR_POSITION);  /* Set Cursor to 0,0 */
  75:Generated_Source\PSoC4/LCD.c ****     CyDelay(5u);
  76:Generated_Source\PSoC4/LCD.c **** 
  77:Generated_Source\PSoC4/LCD.c ****     #if(LCD_CUSTOM_CHAR_SET != LCD_NONE)
  78:Generated_Source\PSoC4/LCD.c ****         LCD_LoadCustomFonts(LCD_customFonts);
  79:Generated_Source\PSoC4/LCD.c ****     #endif /* LCD_CUSTOM_CHAR_SET != LCD_NONE */
  80:Generated_Source\PSoC4/LCD.c **** }
  81:Generated_Source\PSoC4/LCD.c **** 
  82:Generated_Source\PSoC4/LCD.c **** 
  83:Generated_Source\PSoC4/LCD.c **** /*******************************************************************************
  84:Generated_Source\PSoC4/LCD.c **** * Function Name: LCD_Enable
  85:Generated_Source\PSoC4/LCD.c **** ********************************************************************************
  86:Generated_Source\PSoC4/LCD.c **** *
  87:Generated_Source\PSoC4/LCD.c **** * Summary:
  88:Generated_Source\PSoC4/LCD.c **** *  Turns on the display.
ARM GAS  C:\Users\juano\AppData\Local\Temp\cc6zp2zl.s 			page 3


  89:Generated_Source\PSoC4/LCD.c **** *
  90:Generated_Source\PSoC4/LCD.c **** * Parameters:
  91:Generated_Source\PSoC4/LCD.c **** *  None.
  92:Generated_Source\PSoC4/LCD.c **** *
  93:Generated_Source\PSoC4/LCD.c **** * Return:
  94:Generated_Source\PSoC4/LCD.c **** *  None.
  95:Generated_Source\PSoC4/LCD.c **** *
  96:Generated_Source\PSoC4/LCD.c **** * Reentrant:
  97:Generated_Source\PSoC4/LCD.c **** *  No.
  98:Generated_Source\PSoC4/LCD.c **** *
  99:Generated_Source\PSoC4/LCD.c **** * Theory:
 100:Generated_Source\PSoC4/LCD.c **** *  This function has no effect when it is called the first time as
 101:Generated_Source\PSoC4/LCD.c **** *  LCD_Init() turns on the LCD.
 102:Generated_Source\PSoC4/LCD.c **** *
 103:Generated_Source\PSoC4/LCD.c **** *******************************************************************************/
 104:Generated_Source\PSoC4/LCD.c **** void LCD_Enable(void) 
 105:Generated_Source\PSoC4/LCD.c **** {
 106:Generated_Source\PSoC4/LCD.c ****     LCD_DisplayOn();
 107:Generated_Source\PSoC4/LCD.c ****     LCD_enableState = 1u;
 108:Generated_Source\PSoC4/LCD.c **** }
 109:Generated_Source\PSoC4/LCD.c **** 
 110:Generated_Source\PSoC4/LCD.c **** 
 111:Generated_Source\PSoC4/LCD.c **** /*******************************************************************************
 112:Generated_Source\PSoC4/LCD.c **** * Function Name: LCD_Start
 113:Generated_Source\PSoC4/LCD.c **** ********************************************************************************
 114:Generated_Source\PSoC4/LCD.c **** *
 115:Generated_Source\PSoC4/LCD.c **** * Summary:
 116:Generated_Source\PSoC4/LCD.c **** *  Performs initialization required for the components normal work.
 117:Generated_Source\PSoC4/LCD.c **** *  This function initializes the LCD hardware module as follows:
 118:Generated_Source\PSoC4/LCD.c **** *        Enables 4-bit interface
 119:Generated_Source\PSoC4/LCD.c **** *        Clears the display
 120:Generated_Source\PSoC4/LCD.c **** *        Enables auto cursor increment
 121:Generated_Source\PSoC4/LCD.c **** *        Resets the cursor to start position
 122:Generated_Source\PSoC4/LCD.c **** *  Also, it loads a custom character set to the LCD if it was defined in the customizer.
 123:Generated_Source\PSoC4/LCD.c **** *  If it was not the first call in this project, then it just turns on the
 124:Generated_Source\PSoC4/LCD.c **** *  display
 125:Generated_Source\PSoC4/LCD.c **** *
 126:Generated_Source\PSoC4/LCD.c **** *
 127:Generated_Source\PSoC4/LCD.c **** * Parameters:
 128:Generated_Source\PSoC4/LCD.c **** *  LCD_initVar - global variable.
 129:Generated_Source\PSoC4/LCD.c **** *
 130:Generated_Source\PSoC4/LCD.c **** * Return:
 131:Generated_Source\PSoC4/LCD.c **** *  LCD_initVar - global variable.
 132:Generated_Source\PSoC4/LCD.c **** *
 133:Generated_Source\PSoC4/LCD.c **** * Reentrant:
 134:Generated_Source\PSoC4/LCD.c **** *  No.
 135:Generated_Source\PSoC4/LCD.c **** *
 136:Generated_Source\PSoC4/LCD.c **** *******************************************************************************/
 137:Generated_Source\PSoC4/LCD.c **** void LCD_Start(void) 
 138:Generated_Source\PSoC4/LCD.c **** {
 139:Generated_Source\PSoC4/LCD.c ****     /* If not initialized, perform initialization */
 140:Generated_Source\PSoC4/LCD.c ****     if(LCD_initVar == 0u)
 141:Generated_Source\PSoC4/LCD.c ****     {
 142:Generated_Source\PSoC4/LCD.c ****         LCD_Init();
 143:Generated_Source\PSoC4/LCD.c ****         LCD_initVar = 1u;
 144:Generated_Source\PSoC4/LCD.c ****     }
 145:Generated_Source\PSoC4/LCD.c **** 
ARM GAS  C:\Users\juano\AppData\Local\Temp\cc6zp2zl.s 			page 4


 146:Generated_Source\PSoC4/LCD.c ****     /* Turn on the LCD */
 147:Generated_Source\PSoC4/LCD.c ****     LCD_Enable();
 148:Generated_Source\PSoC4/LCD.c **** }
 149:Generated_Source\PSoC4/LCD.c **** 
 150:Generated_Source\PSoC4/LCD.c **** 
 151:Generated_Source\PSoC4/LCD.c **** /*******************************************************************************
 152:Generated_Source\PSoC4/LCD.c **** * Function Name: LCD_Stop
 153:Generated_Source\PSoC4/LCD.c **** ********************************************************************************
 154:Generated_Source\PSoC4/LCD.c **** *
 155:Generated_Source\PSoC4/LCD.c **** * Summary:
 156:Generated_Source\PSoC4/LCD.c **** *  Turns off the display of the LCD screen.
 157:Generated_Source\PSoC4/LCD.c **** *
 158:Generated_Source\PSoC4/LCD.c **** * Parameters:
 159:Generated_Source\PSoC4/LCD.c **** *  None.
 160:Generated_Source\PSoC4/LCD.c **** *
 161:Generated_Source\PSoC4/LCD.c **** * Return:
 162:Generated_Source\PSoC4/LCD.c **** *  None.
 163:Generated_Source\PSoC4/LCD.c **** *
 164:Generated_Source\PSoC4/LCD.c **** * Reentrant:
 165:Generated_Source\PSoC4/LCD.c **** *  No.
 166:Generated_Source\PSoC4/LCD.c **** *
 167:Generated_Source\PSoC4/LCD.c **** *******************************************************************************/
 168:Generated_Source\PSoC4/LCD.c **** void LCD_Stop(void) 
 169:Generated_Source\PSoC4/LCD.c **** {
 170:Generated_Source\PSoC4/LCD.c ****     /* Calls LCD Off Macro */
 171:Generated_Source\PSoC4/LCD.c ****     LCD_DisplayOff();
 172:Generated_Source\PSoC4/LCD.c ****     LCD_enableState = 0u;
 173:Generated_Source\PSoC4/LCD.c **** }
 174:Generated_Source\PSoC4/LCD.c **** 
 175:Generated_Source\PSoC4/LCD.c **** 
 176:Generated_Source\PSoC4/LCD.c **** /*******************************************************************************
 177:Generated_Source\PSoC4/LCD.c **** *  Function Name: LCD_Position
 178:Generated_Source\PSoC4/LCD.c **** ********************************************************************************
 179:Generated_Source\PSoC4/LCD.c **** *
 180:Generated_Source\PSoC4/LCD.c **** * Summary:
 181:Generated_Source\PSoC4/LCD.c **** *  Moves the active cursor location to a point specified by the input arguments
 182:Generated_Source\PSoC4/LCD.c **** *
 183:Generated_Source\PSoC4/LCD.c **** * Parameters:
 184:Generated_Source\PSoC4/LCD.c **** *  row:    Specific row of LCD module to be written
 185:Generated_Source\PSoC4/LCD.c **** *  column: Column of LCD module to be written
 186:Generated_Source\PSoC4/LCD.c **** *
 187:Generated_Source\PSoC4/LCD.c **** * Return:
 188:Generated_Source\PSoC4/LCD.c **** *  None.
 189:Generated_Source\PSoC4/LCD.c **** *
 190:Generated_Source\PSoC4/LCD.c **** * Note:
 191:Generated_Source\PSoC4/LCD.c **** *  This only applies for LCD displays that use the 2X40 address mode.
 192:Generated_Source\PSoC4/LCD.c **** *  In this case Row 2 starts with a 0x28 offset from Row 1.
 193:Generated_Source\PSoC4/LCD.c **** *  When there are more than 2 rows, each row must be fewer than 20 characters.
 194:Generated_Source\PSoC4/LCD.c **** *
 195:Generated_Source\PSoC4/LCD.c **** *******************************************************************************/
 196:Generated_Source\PSoC4/LCD.c **** void LCD_Position(uint8 row, uint8 column) 
 197:Generated_Source\PSoC4/LCD.c **** {
 198:Generated_Source\PSoC4/LCD.c ****     switch (row)
 199:Generated_Source\PSoC4/LCD.c ****     {
 200:Generated_Source\PSoC4/LCD.c ****         case (uint8)0:
 201:Generated_Source\PSoC4/LCD.c ****             LCD_WriteControl(LCD_ROW_0_START + column);
 202:Generated_Source\PSoC4/LCD.c ****             break;
ARM GAS  C:\Users\juano\AppData\Local\Temp\cc6zp2zl.s 			page 5


 203:Generated_Source\PSoC4/LCD.c ****         case (uint8) 1:
 204:Generated_Source\PSoC4/LCD.c ****             LCD_WriteControl(LCD_ROW_1_START + column);
 205:Generated_Source\PSoC4/LCD.c ****             break;
 206:Generated_Source\PSoC4/LCD.c ****         case (uint8) 2:
 207:Generated_Source\PSoC4/LCD.c ****             LCD_WriteControl(LCD_ROW_2_START + column);
 208:Generated_Source\PSoC4/LCD.c ****             break;
 209:Generated_Source\PSoC4/LCD.c ****         case (uint8) 3:
 210:Generated_Source\PSoC4/LCD.c ****             LCD_WriteControl(LCD_ROW_3_START + column);
 211:Generated_Source\PSoC4/LCD.c ****             break;
 212:Generated_Source\PSoC4/LCD.c ****         default:
 213:Generated_Source\PSoC4/LCD.c ****             /* if default case is hit, invalid row argument was passed.*/
 214:Generated_Source\PSoC4/LCD.c ****             break;
 215:Generated_Source\PSoC4/LCD.c ****     }
 216:Generated_Source\PSoC4/LCD.c **** }
 217:Generated_Source\PSoC4/LCD.c **** 
 218:Generated_Source\PSoC4/LCD.c **** 
 219:Generated_Source\PSoC4/LCD.c **** /*******************************************************************************
 220:Generated_Source\PSoC4/LCD.c **** * Function Name: LCD_PrintString
 221:Generated_Source\PSoC4/LCD.c **** ********************************************************************************
 222:Generated_Source\PSoC4/LCD.c **** *
 223:Generated_Source\PSoC4/LCD.c **** * Summary:
 224:Generated_Source\PSoC4/LCD.c **** *  Writes a zero terminated string to the LCD.
 225:Generated_Source\PSoC4/LCD.c **** *
 226:Generated_Source\PSoC4/LCD.c **** * Parameters:
 227:Generated_Source\PSoC4/LCD.c **** *  string: Pointer to head of char8 array to be written to the LCD module
 228:Generated_Source\PSoC4/LCD.c **** *
 229:Generated_Source\PSoC4/LCD.c **** * Return:
 230:Generated_Source\PSoC4/LCD.c **** *  None.
 231:Generated_Source\PSoC4/LCD.c **** *
 232:Generated_Source\PSoC4/LCD.c **** *******************************************************************************/
 233:Generated_Source\PSoC4/LCD.c **** void LCD_PrintString(char8 const string[]) 
 234:Generated_Source\PSoC4/LCD.c **** {
 235:Generated_Source\PSoC4/LCD.c ****     uint8 indexU8 = 1u;
 236:Generated_Source\PSoC4/LCD.c ****     char8 current = *string;
 237:Generated_Source\PSoC4/LCD.c **** 
 238:Generated_Source\PSoC4/LCD.c ****     /* Until null is reached, print next character */
 239:Generated_Source\PSoC4/LCD.c ****     while((char8) '\0' != current)
 240:Generated_Source\PSoC4/LCD.c ****     {
 241:Generated_Source\PSoC4/LCD.c ****         LCD_WriteData((uint8)current);
 242:Generated_Source\PSoC4/LCD.c ****         current = string[indexU8];
 243:Generated_Source\PSoC4/LCD.c ****         indexU8++;
 244:Generated_Source\PSoC4/LCD.c ****     }
 245:Generated_Source\PSoC4/LCD.c **** }
 246:Generated_Source\PSoC4/LCD.c **** 
 247:Generated_Source\PSoC4/LCD.c **** 
 248:Generated_Source\PSoC4/LCD.c **** /*******************************************************************************
 249:Generated_Source\PSoC4/LCD.c **** *  Function Name: LCD_PutChar
 250:Generated_Source\PSoC4/LCD.c **** ********************************************************************************
 251:Generated_Source\PSoC4/LCD.c **** *
 252:Generated_Source\PSoC4/LCD.c **** * Summary:
 253:Generated_Source\PSoC4/LCD.c **** *  Writes a single character to the current cursor position of the LCD module.
 254:Generated_Source\PSoC4/LCD.c **** *  Custom character names (_CUSTOM_0 through
 255:Generated_Source\PSoC4/LCD.c **** *  _CUSTOM_7) are acceptable as inputs.
 256:Generated_Source\PSoC4/LCD.c **** *
 257:Generated_Source\PSoC4/LCD.c **** * Parameters:
 258:Generated_Source\PSoC4/LCD.c **** *  character: Character to be written to LCD
 259:Generated_Source\PSoC4/LCD.c **** *
ARM GAS  C:\Users\juano\AppData\Local\Temp\cc6zp2zl.s 			page 6


 260:Generated_Source\PSoC4/LCD.c **** * Return:
 261:Generated_Source\PSoC4/LCD.c **** *  None.
 262:Generated_Source\PSoC4/LCD.c **** *
 263:Generated_Source\PSoC4/LCD.c **** *******************************************************************************/
 264:Generated_Source\PSoC4/LCD.c **** void LCD_PutChar(char8 character) 
 265:Generated_Source\PSoC4/LCD.c **** {
 266:Generated_Source\PSoC4/LCD.c ****     LCD_WriteData((uint8)character);
 267:Generated_Source\PSoC4/LCD.c **** }
 268:Generated_Source\PSoC4/LCD.c **** 
 269:Generated_Source\PSoC4/LCD.c **** 
 270:Generated_Source\PSoC4/LCD.c **** /*******************************************************************************
 271:Generated_Source\PSoC4/LCD.c **** *  Function Name: LCD_WriteData
 272:Generated_Source\PSoC4/LCD.c **** ********************************************************************************
 273:Generated_Source\PSoC4/LCD.c **** *
 274:Generated_Source\PSoC4/LCD.c **** * Summary:
 275:Generated_Source\PSoC4/LCD.c **** *  Writes a data byte to the LCD module's Data Display RAM.
 276:Generated_Source\PSoC4/LCD.c **** *
 277:Generated_Source\PSoC4/LCD.c **** * Parameters:
 278:Generated_Source\PSoC4/LCD.c **** *  dByte: Byte to be written to the LCD module
 279:Generated_Source\PSoC4/LCD.c **** *
 280:Generated_Source\PSoC4/LCD.c **** * Return:
 281:Generated_Source\PSoC4/LCD.c **** *  None.
 282:Generated_Source\PSoC4/LCD.c **** *
 283:Generated_Source\PSoC4/LCD.c **** *******************************************************************************/
 284:Generated_Source\PSoC4/LCD.c **** void LCD_WriteData(uint8 dByte) 
 285:Generated_Source\PSoC4/LCD.c **** {
 286:Generated_Source\PSoC4/LCD.c ****     uint8 nibble;
 287:Generated_Source\PSoC4/LCD.c **** 
 288:Generated_Source\PSoC4/LCD.c ****     LCD_IsReady();
 289:Generated_Source\PSoC4/LCD.c ****     nibble = dByte >> LCD_NIBBLE_SHIFT;
 290:Generated_Source\PSoC4/LCD.c **** 
 291:Generated_Source\PSoC4/LCD.c ****     /* Write high nibble */
 292:Generated_Source\PSoC4/LCD.c ****     LCD_WrDatNib(nibble);
 293:Generated_Source\PSoC4/LCD.c **** 
 294:Generated_Source\PSoC4/LCD.c ****     nibble = dByte & LCD_NIBBLE_MASK;
 295:Generated_Source\PSoC4/LCD.c ****     /* Write low nibble */
 296:Generated_Source\PSoC4/LCD.c ****     LCD_WrDatNib(nibble);
 297:Generated_Source\PSoC4/LCD.c **** }
 298:Generated_Source\PSoC4/LCD.c **** 
 299:Generated_Source\PSoC4/LCD.c **** 
 300:Generated_Source\PSoC4/LCD.c **** /*******************************************************************************
 301:Generated_Source\PSoC4/LCD.c **** *  Function Name: LCD_WriteControl
 302:Generated_Source\PSoC4/LCD.c **** ********************************************************************************
 303:Generated_Source\PSoC4/LCD.c **** *
 304:Generated_Source\PSoC4/LCD.c **** * Summary:
 305:Generated_Source\PSoC4/LCD.c **** *  Writes a command byte to the LCD module.
 306:Generated_Source\PSoC4/LCD.c **** *
 307:Generated_Source\PSoC4/LCD.c **** * Parameters:
 308:Generated_Source\PSoC4/LCD.c **** *  cByte:  The byte to be written to theLCD module
 309:Generated_Source\PSoC4/LCD.c **** * 
 310:Generated_Source\PSoC4/LCD.c **** * Return:
 311:Generated_Source\PSoC4/LCD.c **** *  None.
 312:Generated_Source\PSoC4/LCD.c **** *
 313:Generated_Source\PSoC4/LCD.c **** *******************************************************************************/
 314:Generated_Source\PSoC4/LCD.c **** void LCD_WriteControl(uint8 cByte) 
 315:Generated_Source\PSoC4/LCD.c **** {
 316:Generated_Source\PSoC4/LCD.c ****     uint8 nibble;
ARM GAS  C:\Users\juano\AppData\Local\Temp\cc6zp2zl.s 			page 7


 317:Generated_Source\PSoC4/LCD.c **** 
 318:Generated_Source\PSoC4/LCD.c ****     LCD_IsReady();
 319:Generated_Source\PSoC4/LCD.c **** 
 320:Generated_Source\PSoC4/LCD.c ****     nibble = cByte >> LCD_NIBBLE_SHIFT;
 321:Generated_Source\PSoC4/LCD.c ****     
 322:Generated_Source\PSoC4/LCD.c ****     /* WrCntrlNib(High Nibble) */
 323:Generated_Source\PSoC4/LCD.c ****     LCD_WrCntrlNib(nibble);
 324:Generated_Source\PSoC4/LCD.c ****     nibble = cByte & LCD_NIBBLE_MASK;
 325:Generated_Source\PSoC4/LCD.c **** 
 326:Generated_Source\PSoC4/LCD.c ****     /* WrCntrlNib(Low Nibble) */
 327:Generated_Source\PSoC4/LCD.c ****     LCD_WrCntrlNib(nibble);
 328:Generated_Source\PSoC4/LCD.c **** }
 329:Generated_Source\PSoC4/LCD.c **** 
 330:Generated_Source\PSoC4/LCD.c **** 
 331:Generated_Source\PSoC4/LCD.c **** /*******************************************************************************
 332:Generated_Source\PSoC4/LCD.c **** * Function Name: LCD_IsReady
 333:Generated_Source\PSoC4/LCD.c **** ********************************************************************************
 334:Generated_Source\PSoC4/LCD.c **** *
 335:Generated_Source\PSoC4/LCD.c **** * Summary:
 336:Generated_Source\PSoC4/LCD.c **** *  Polls the LCD until the ready bit is set or a timeout occurs.
 337:Generated_Source\PSoC4/LCD.c **** *
 338:Generated_Source\PSoC4/LCD.c **** * Parameters:
 339:Generated_Source\PSoC4/LCD.c **** *  None.
 340:Generated_Source\PSoC4/LCD.c **** *
 341:Generated_Source\PSoC4/LCD.c **** * Return:
 342:Generated_Source\PSoC4/LCD.c **** *  None.
 343:Generated_Source\PSoC4/LCD.c **** *
 344:Generated_Source\PSoC4/LCD.c **** * Note:
 345:Generated_Source\PSoC4/LCD.c **** *  Changes the pins to High-Z.
 346:Generated_Source\PSoC4/LCD.c **** *
 347:Generated_Source\PSoC4/LCD.c **** *******************************************************************************/
 348:Generated_Source\PSoC4/LCD.c **** void LCD_IsReady(void) 
 349:Generated_Source\PSoC4/LCD.c **** {
 350:Generated_Source\PSoC4/LCD.c ****     uint32 value;
 351:Generated_Source\PSoC4/LCD.c ****     uint32 timeout;
 352:Generated_Source\PSoC4/LCD.c ****     timeout = LCD_READY_DELAY;
 353:Generated_Source\PSoC4/LCD.c **** 
 354:Generated_Source\PSoC4/LCD.c ****     /* Clear LCD port*/
 355:Generated_Source\PSoC4/LCD.c ****     LCD_PORT_DR_REG &= ((uint32)(~LCD_PORT_MASK));
 356:Generated_Source\PSoC4/LCD.c **** 
 357:Generated_Source\PSoC4/LCD.c ****     /* PSoC4 has a little different from PSoC3/5 port/pin organization for setting Drive Modes.
 358:Generated_Source\PSoC4/LCD.c ****   
 359:Generated_Source\PSoC4/LCD.c ****     */
 360:Generated_Source\PSoC4/LCD.c ****     #if (CY_PSOC4)
 361:Generated_Source\PSoC4/LCD.c ****         
 362:Generated_Source\PSoC4/LCD.c ****         /* Mask off data pins to clear old values out */
 363:Generated_Source\PSoC4/LCD.c ****         value = LCD_PORT_PC_REG & ((uint32) (~ LCD_DM_DATA_MASK));
 364:Generated_Source\PSoC4/LCD.c ****         /* Load in high Z values for data pins, others unchanged */
 365:Generated_Source\PSoC4/LCD.c ****         LCD_PORT_PC_REG = value | LCD_HIGH_Z_DATA_DM;
 366:Generated_Source\PSoC4/LCD.c **** 
 367:Generated_Source\PSoC4/LCD.c ****     #else
 368:Generated_Source\PSoC4/LCD.c ****     
 369:Generated_Source\PSoC4/LCD.c ****         /* Change Port to High-Z Status on data pins */
 370:Generated_Source\PSoC4/LCD.c **** 
 371:Generated_Source\PSoC4/LCD.c ****         /* Mask off data pins to clear old values out */
 372:Generated_Source\PSoC4/LCD.c ****         value = LCD_PORT_DM0_REG & ((uint8)(~LCD_DATA_MASK));
 373:Generated_Source\PSoC4/LCD.c ****         /* Load in high Z values for data pins, others unchanged */
ARM GAS  C:\Users\juano\AppData\Local\Temp\cc6zp2zl.s 			page 8


 374:Generated_Source\PSoC4/LCD.c ****         LCD_PORT_DM0_REG = value | (LCD_HIGH_Z_DM0 & LCD_DATA_MASK);
 375:Generated_Source\PSoC4/LCD.c **** 
 376:Generated_Source\PSoC4/LCD.c ****         /* Mask off data pins to clear old values out */
 377:Generated_Source\PSoC4/LCD.c ****         value = LCD_PORT_DM1_REG & ((uint8)(~LCD_DATA_MASK));
 378:Generated_Source\PSoC4/LCD.c ****         /* Load in high Z values for data pins, others unchanged */
 379:Generated_Source\PSoC4/LCD.c ****         LCD_PORT_DM1_REG = value;
 380:Generated_Source\PSoC4/LCD.c **** 
 381:Generated_Source\PSoC4/LCD.c ****         /* Mask off data pins to clear old values out */
 382:Generated_Source\PSoC4/LCD.c ****         value = LCD_PORT_DM2_REG & ((uint8)(~LCD_DATA_MASK));
 383:Generated_Source\PSoC4/LCD.c ****         /* Load in high Z values for data pins, others unchanged */
 384:Generated_Source\PSoC4/LCD.c ****         LCD_PORT_DM2_REG = value;
 385:Generated_Source\PSoC4/LCD.c ****     
 386:Generated_Source\PSoC4/LCD.c ****     #endif /* CY_PSOC4 */
 387:Generated_Source\PSoC4/LCD.c ****     
 388:Generated_Source\PSoC4/LCD.c ****     /* Make sure RS is low */
 389:Generated_Source\PSoC4/LCD.c ****     LCD_PORT_DR_REG &= ((uint32)(~LCD_RS));
 390:Generated_Source\PSoC4/LCD.c **** 
 391:Generated_Source\PSoC4/LCD.c ****     /* Set R/W high to read */
 392:Generated_Source\PSoC4/LCD.c ****     LCD_PORT_DR_REG |= LCD_RW;
 393:Generated_Source\PSoC4/LCD.c **** 
 394:Generated_Source\PSoC4/LCD.c ****     do
 395:Generated_Source\PSoC4/LCD.c ****     {
 396:Generated_Source\PSoC4/LCD.c ****         /* 40 ns delay required before rising Enable and 500ns between neighbour Enables */
 397:Generated_Source\PSoC4/LCD.c ****         CyDelayUs(0u);
 398:Generated_Source\PSoC4/LCD.c **** 
 399:Generated_Source\PSoC4/LCD.c ****         /* Set E high */
 400:Generated_Source\PSoC4/LCD.c ****         LCD_PORT_DR_REG |= LCD_E;
 401:Generated_Source\PSoC4/LCD.c **** 
 402:Generated_Source\PSoC4/LCD.c ****         /* 360 ns delay setup time for data pins */
 403:Generated_Source\PSoC4/LCD.c ****         CyDelayUs(1u);
 404:Generated_Source\PSoC4/LCD.c **** 
 405:Generated_Source\PSoC4/LCD.c ****         /* Get port state */
 406:Generated_Source\PSoC4/LCD.c ****         value = LCD_PORT_PS_REG;
 407:Generated_Source\PSoC4/LCD.c **** 
 408:Generated_Source\PSoC4/LCD.c ****         /* Set enable low */
 409:Generated_Source\PSoC4/LCD.c ****         LCD_PORT_DR_REG &= ((uint32)(~LCD_E));
 410:Generated_Source\PSoC4/LCD.c **** 
 411:Generated_Source\PSoC4/LCD.c ****         /* This gives true delay between disabling Enable bit and polling Ready bit */
 412:Generated_Source\PSoC4/LCD.c ****         CyDelayUs(0u);
 413:Generated_Source\PSoC4/LCD.c **** 
 414:Generated_Source\PSoC4/LCD.c ****         /* Extract ready bit */
 415:Generated_Source\PSoC4/LCD.c ****         value &= LCD_READY_BIT;
 416:Generated_Source\PSoC4/LCD.c **** 
 417:Generated_Source\PSoC4/LCD.c ****         /* Set E high as we in 4-bit interface we need extra operation */
 418:Generated_Source\PSoC4/LCD.c ****         LCD_PORT_DR_REG |= LCD_E;
 419:Generated_Source\PSoC4/LCD.c **** 
 420:Generated_Source\PSoC4/LCD.c ****         /* 360 ns delay setup time for data pins */
 421:Generated_Source\PSoC4/LCD.c ****         CyDelayUs(1u);
 422:Generated_Source\PSoC4/LCD.c **** 
 423:Generated_Source\PSoC4/LCD.c ****         /* Set enable low */
 424:Generated_Source\PSoC4/LCD.c ****         LCD_PORT_DR_REG &= ((uint32)(~LCD_E));
 425:Generated_Source\PSoC4/LCD.c **** 
 426:Generated_Source\PSoC4/LCD.c ****         /* If LCD is not ready make a delay */
 427:Generated_Source\PSoC4/LCD.c ****         if (value == 0u)
 428:Generated_Source\PSoC4/LCD.c ****         {
 429:Generated_Source\PSoC4/LCD.c ****             CyDelayUs(10u);
 430:Generated_Source\PSoC4/LCD.c ****         }
ARM GAS  C:\Users\juano\AppData\Local\Temp\cc6zp2zl.s 			page 9


 431:Generated_Source\PSoC4/LCD.c **** 
 432:Generated_Source\PSoC4/LCD.c ****         /* Repeat until bit 4 is not zero or until timeout. */
 433:Generated_Source\PSoC4/LCD.c ****         timeout--;
 434:Generated_Source\PSoC4/LCD.c **** 
 435:Generated_Source\PSoC4/LCD.c ****     } while ((value != 0u) && (timeout > 0u));
 436:Generated_Source\PSoC4/LCD.c **** 
 437:Generated_Source\PSoC4/LCD.c ****     /* Set R/W low to write */
 438:Generated_Source\PSoC4/LCD.c ****     LCD_PORT_DR_REG &= ((uint32)(~LCD_RW));
 439:Generated_Source\PSoC4/LCD.c **** 
 440:Generated_Source\PSoC4/LCD.c ****     /* Clear LCD port*/
 441:Generated_Source\PSoC4/LCD.c ****     LCD_PORT_DR_REG &= ((uint32)(~LCD_PORT_MASK));
 442:Generated_Source\PSoC4/LCD.c **** 
 443:Generated_Source\PSoC4/LCD.c ****     #if (CY_PSOC4)
 444:Generated_Source\PSoC4/LCD.c ****         
 445:Generated_Source\PSoC4/LCD.c ****         /* Mask off data pins to clear old values out */
 446:Generated_Source\PSoC4/LCD.c ****         value = LCD_PORT_PC_REG & ((uint32)(~ LCD_DM_DATA_MASK));
 447:Generated_Source\PSoC4/LCD.c ****         /* Load in high Z values for data pins, others unchanged */
 448:Generated_Source\PSoC4/LCD.c ****         LCD_PORT_PC_REG = value | LCD_STRONG_DATA_DM;
 449:Generated_Source\PSoC4/LCD.c **** 
 450:Generated_Source\PSoC4/LCD.c ****     #else
 451:Generated_Source\PSoC4/LCD.c **** 
 452:Generated_Source\PSoC4/LCD.c ****         /* Change Port to Output (Strong) on data pins */
 453:Generated_Source\PSoC4/LCD.c ****         /* Mask off data pins to clear high z values out. Configure data pins 
 454:Generated_Source\PSoC4/LCD.c ****         * to Strong Drive, others unchanged.
 455:Generated_Source\PSoC4/LCD.c ****         */
 456:Generated_Source\PSoC4/LCD.c ****         LCD_PORT_DM0_REG &= ((uint8)(~LCD_DATA_MASK));
 457:Generated_Source\PSoC4/LCD.c ****         /* Mask off data pins to clear high z values out */
 458:Generated_Source\PSoC4/LCD.c ****         value = LCD_PORT_DM1_REG & ((uint8)(~LCD_DATA_MASK));
 459:Generated_Source\PSoC4/LCD.c ****         /* Configure data pins to Strong Drive, others unchanged */
 460:Generated_Source\PSoC4/LCD.c ****         LCD_PORT_DM1_REG = value | (LCD_STRONG_DM1 & LCD_DATA_MASK);
 461:Generated_Source\PSoC4/LCD.c **** 
 462:Generated_Source\PSoC4/LCD.c ****         /* Mask off data pins to clear high z values out */
 463:Generated_Source\PSoC4/LCD.c ****         value = LCD_PORT_DM2_REG & ((uint8)(~LCD_DATA_MASK));
 464:Generated_Source\PSoC4/LCD.c ****         /* Configure data pins to Strong Drive, others unchanged */
 465:Generated_Source\PSoC4/LCD.c ****         LCD_PORT_DM2_REG = value | (LCD_STRONG_DM2 & LCD_DATA_MASK);
 466:Generated_Source\PSoC4/LCD.c ****     
 467:Generated_Source\PSoC4/LCD.c ****     #endif /* CY_PSOC4 */
 468:Generated_Source\PSoC4/LCD.c **** }
 469:Generated_Source\PSoC4/LCD.c **** 
 470:Generated_Source\PSoC4/LCD.c **** 
 471:Generated_Source\PSoC4/LCD.c **** /*******************************************************************************
 472:Generated_Source\PSoC4/LCD.c **** *  Function Name: LCD_WrDatNib
 473:Generated_Source\PSoC4/LCD.c **** ********************************************************************************
 474:Generated_Source\PSoC4/LCD.c **** *
 475:Generated_Source\PSoC4/LCD.c **** * Summary:
 476:Generated_Source\PSoC4/LCD.c **** *  Writes a data nibble to the LCD module.
 477:Generated_Source\PSoC4/LCD.c **** *
 478:Generated_Source\PSoC4/LCD.c **** * Parameters:
 479:Generated_Source\PSoC4/LCD.c **** *  nibble:  Byte containing nibble in the least significant nibble to be
 480:Generated_Source\PSoC4/LCD.c **** *           written to the LCD module.
 481:Generated_Source\PSoC4/LCD.c **** *
 482:Generated_Source\PSoC4/LCD.c **** * Return:
 483:Generated_Source\PSoC4/LCD.c **** *  None.
 484:Generated_Source\PSoC4/LCD.c **** *
 485:Generated_Source\PSoC4/LCD.c **** *******************************************************************************/
 486:Generated_Source\PSoC4/LCD.c **** static void LCD_WrDatNib(uint8 nibble) 
 487:Generated_Source\PSoC4/LCD.c **** {
ARM GAS  C:\Users\juano\AppData\Local\Temp\cc6zp2zl.s 			page 10


 488:Generated_Source\PSoC4/LCD.c ****     /* RS should be low to select data register */
 489:Generated_Source\PSoC4/LCD.c ****     LCD_PORT_DR_REG |= LCD_RS;
 490:Generated_Source\PSoC4/LCD.c ****     /* Reset RW for write operation */
 491:Generated_Source\PSoC4/LCD.c ****     LCD_PORT_DR_REG &= ((uint32)(~LCD_RW));
 492:Generated_Source\PSoC4/LCD.c **** 
 493:Generated_Source\PSoC4/LCD.c ****     /* Guaranteed delay between Setting RS and RW and setting E bits */
 494:Generated_Source\PSoC4/LCD.c ****     CyDelayUs(0u);
 495:Generated_Source\PSoC4/LCD.c ****     
 496:Generated_Source\PSoC4/LCD.c ****     /* Clear data pins */
 497:Generated_Source\PSoC4/LCD.c ****     LCD_PORT_DR_REG &= ((uint32)(~LCD_DATA_MASK));
 498:Generated_Source\PSoC4/LCD.c **** 
 499:Generated_Source\PSoC4/LCD.c ****     /* Write data, bring E high */
 500:Generated_Source\PSoC4/LCD.c ****     #if(0u != LCD_PORT_SHIFT) /* MISRA forbids shift by 0 so need to handle that */
 501:Generated_Source\PSoC4/LCD.c ****         LCD_PORT_DR_REG |= 
 502:Generated_Source\PSoC4/LCD.c ****             (LCD_E | ((uint8)(((uint8) nibble) << LCD_PORT_SHIFT)));
 503:Generated_Source\PSoC4/LCD.c ****     #else
 504:Generated_Source\PSoC4/LCD.c ****         LCD_PORT_DR_REG |= (LCD_E | nibble);
 505:Generated_Source\PSoC4/LCD.c ****     #endif /* (0u != LCD_PORT_SHIFT) */
 506:Generated_Source\PSoC4/LCD.c **** 
 507:Generated_Source\PSoC4/LCD.c ****     /* Minimum of 230 ns delay */
 508:Generated_Source\PSoC4/LCD.c ****     CyDelayUs(1u);
 509:Generated_Source\PSoC4/LCD.c **** 
 510:Generated_Source\PSoC4/LCD.c ****     LCD_PORT_DR_REG &= ((uint32)(~LCD_E));
 511:Generated_Source\PSoC4/LCD.c **** }
 512:Generated_Source\PSoC4/LCD.c **** 
 513:Generated_Source\PSoC4/LCD.c **** 
 514:Generated_Source\PSoC4/LCD.c **** /*******************************************************************************
 515:Generated_Source\PSoC4/LCD.c **** *  Function Name: LCD_WrCntrlNib
 516:Generated_Source\PSoC4/LCD.c **** ********************************************************************************
 517:Generated_Source\PSoC4/LCD.c **** *
 518:Generated_Source\PSoC4/LCD.c **** * Summary:
 519:Generated_Source\PSoC4/LCD.c **** *  Writes a control nibble to the LCD module.
 520:Generated_Source\PSoC4/LCD.c **** *
 521:Generated_Source\PSoC4/LCD.c **** * Parameters:
 522:Generated_Source\PSoC4/LCD.c **** *  nibble: The byte containing a nibble in the four least significant bits.????
 523:Generated_Source\PSoC4/LCD.c **** *
 524:Generated_Source\PSoC4/LCD.c **** * Return:
 525:Generated_Source\PSoC4/LCD.c **** *  None.
 526:Generated_Source\PSoC4/LCD.c **** *
 527:Generated_Source\PSoC4/LCD.c **** *******************************************************************************/
 528:Generated_Source\PSoC4/LCD.c **** static void LCD_WrCntrlNib(uint8 nibble) 
 529:Generated_Source\PSoC4/LCD.c **** {
  27              		.loc 1 529 0
  28              		.cfi_startproc
  29              		@ args = 0, pretend = 0, frame = 0
  30              		@ frame_needed = 0, uses_anonymous_args = 0
  31              	.LVL0:
  32 0000 10B5     		push	{r4, lr}
  33              		.cfi_def_cfa_offset 8
  34              		.cfi_offset 4, -8
  35              		.cfi_offset 14, -4
 530:Generated_Source\PSoC4/LCD.c ****     /* RS and RW should be low to select instruction register and  write operation respectively */
 531:Generated_Source\PSoC4/LCD.c ****     LCD_PORT_DR_REG &= ((uint32)(~(LCD_RS | LCD_RW)));
  36              		.loc 1 531 0
  37 0002 0B4C     		ldr	r4, .L2
  38 0004 2268     		ldr	r2, [r4]
  39 0006 6023     		movs	r3, #96
ARM GAS  C:\Users\juano\AppData\Local\Temp\cc6zp2zl.s 			page 11


  40 0008 9A43     		bics	r2, r3
  41 000a 2260     		str	r2, [r4]
 532:Generated_Source\PSoC4/LCD.c **** 
 533:Generated_Source\PSoC4/LCD.c ****     /* Two following lines of code will give 40ns delay */
 534:Generated_Source\PSoC4/LCD.c ****     /* Clear data pins */
 535:Generated_Source\PSoC4/LCD.c ****     LCD_PORT_DR_REG &= ((uint32)(~LCD_DATA_MASK));
  42              		.loc 1 535 0
  43 000c 2268     		ldr	r2, [r4]
  44 000e 513B     		subs	r3, r3, #81
  45 0010 9A43     		bics	r2, r3
  46 0012 2260     		str	r2, [r4]
 536:Generated_Source\PSoC4/LCD.c **** 
 537:Generated_Source\PSoC4/LCD.c ****     /* Write control data and set enable signal */
 538:Generated_Source\PSoC4/LCD.c ****     #if(0u != LCD_PORT_SHIFT) /* MISRA forbids shift by 0 so need to handle that */
 539:Generated_Source\PSoC4/LCD.c ****         LCD_PORT_DR_REG |= 
 540:Generated_Source\PSoC4/LCD.c ****             (LCD_E | ((uint8)(((uint8) nibble) << LCD_PORT_SHIFT)));
 541:Generated_Source\PSoC4/LCD.c ****     #else
 542:Generated_Source\PSoC4/LCD.c ****         LCD_PORT_DR_REG |= (LCD_E | nibble);
  47              		.loc 1 542 0
  48 0014 2268     		ldr	r2, [r4]
  49 0016 1023     		movs	r3, #16
  50 0018 0343     		orrs	r3, r0
  51 001a D8B2     		uxtb	r0, r3
  52              	.LVL1:
  53 001c 1043     		orrs	r0, r2
  54 001e 2060     		str	r0, [r4]
 543:Generated_Source\PSoC4/LCD.c ****     #endif /* (0u != LCD_PORT_SHIFT) */
 544:Generated_Source\PSoC4/LCD.c **** 
 545:Generated_Source\PSoC4/LCD.c ****     /* Minimum of 230 ns delay */
 546:Generated_Source\PSoC4/LCD.c ****     CyDelayUs(1u);
  55              		.loc 1 546 0
  56 0020 0120     		movs	r0, #1
  57 0022 FFF7FEFF 		bl	CyDelayUs
  58              	.LVL2:
 547:Generated_Source\PSoC4/LCD.c **** 
 548:Generated_Source\PSoC4/LCD.c ****     LCD_PORT_DR_REG &= ((uint32)(~LCD_E));
  59              		.loc 1 548 0
  60 0026 2368     		ldr	r3, [r4]
  61 0028 1022     		movs	r2, #16
  62 002a 9343     		bics	r3, r2
  63 002c 2360     		str	r3, [r4]
 549:Generated_Source\PSoC4/LCD.c **** }
  64              		.loc 1 549 0
  65              		@ sp needed
  66 002e 10BD     		pop	{r4, pc}
  67              	.L3:
  68              		.align	2
  69              	.L2:
  70 0030 00030440 		.word	1074004736
  71              		.cfi_endproc
  72              	.LFE13:
  73              		.size	LCD_WrCntrlNib, .-LCD_WrCntrlNib
  74              		.section	.text.LCD_WrDatNib,"ax",%progbits
  75              		.align	2
  76              		.code	16
  77              		.thumb_func
  78              		.type	LCD_WrDatNib, %function
ARM GAS  C:\Users\juano\AppData\Local\Temp\cc6zp2zl.s 			page 12


  79              	LCD_WrDatNib:
  80              	.LFB12:
 487:Generated_Source\PSoC4/LCD.c ****     /* RS should be low to select data register */
  81              		.loc 1 487 0
  82              		.cfi_startproc
  83              		@ args = 0, pretend = 0, frame = 0
  84              		@ frame_needed = 0, uses_anonymous_args = 0
  85              	.LVL3:
  86 0000 70B5     		push	{r4, r5, r6, lr}
  87              		.cfi_def_cfa_offset 16
  88              		.cfi_offset 4, -16
  89              		.cfi_offset 5, -12
  90              		.cfi_offset 6, -8
  91              		.cfi_offset 14, -4
  92 0002 0500     		movs	r5, r0
 489:Generated_Source\PSoC4/LCD.c ****     /* Reset RW for write operation */
  93              		.loc 1 489 0
  94 0004 0E4C     		ldr	r4, .L5
  95 0006 2268     		ldr	r2, [r4]
  96 0008 2023     		movs	r3, #32
  97 000a 1343     		orrs	r3, r2
  98 000c 2360     		str	r3, [r4]
 491:Generated_Source\PSoC4/LCD.c **** 
  99              		.loc 1 491 0
 100 000e 2368     		ldr	r3, [r4]
 101 0010 4022     		movs	r2, #64
 102 0012 9343     		bics	r3, r2
 103 0014 2360     		str	r3, [r4]
 494:Generated_Source\PSoC4/LCD.c ****     
 104              		.loc 1 494 0
 105 0016 0020     		movs	r0, #0
 106              	.LVL4:
 107 0018 FFF7FEFF 		bl	CyDelayUs
 108              	.LVL5:
 497:Generated_Source\PSoC4/LCD.c **** 
 109              		.loc 1 497 0
 110 001c 2368     		ldr	r3, [r4]
 111 001e 0F22     		movs	r2, #15
 112 0020 9343     		bics	r3, r2
 113 0022 2360     		str	r3, [r4]
 504:Generated_Source\PSoC4/LCD.c ****     #endif /* (0u != LCD_PORT_SHIFT) */
 114              		.loc 1 504 0
 115 0024 2268     		ldr	r2, [r4]
 116 0026 1023     		movs	r3, #16
 117 0028 2B43     		orrs	r3, r5
 118 002a D8B2     		uxtb	r0, r3
 119 002c 1043     		orrs	r0, r2
 120 002e 2060     		str	r0, [r4]
 508:Generated_Source\PSoC4/LCD.c **** 
 121              		.loc 1 508 0
 122 0030 0120     		movs	r0, #1
 123 0032 FFF7FEFF 		bl	CyDelayUs
 124              	.LVL6:
 510:Generated_Source\PSoC4/LCD.c **** }
 125              		.loc 1 510 0
 126 0036 2368     		ldr	r3, [r4]
 127 0038 1022     		movs	r2, #16
ARM GAS  C:\Users\juano\AppData\Local\Temp\cc6zp2zl.s 			page 13


 128 003a 9343     		bics	r3, r2
 129 003c 2360     		str	r3, [r4]
 511:Generated_Source\PSoC4/LCD.c **** 
 130              		.loc 1 511 0
 131              		@ sp needed
 132 003e 70BD     		pop	{r4, r5, r6, pc}
 133              	.L6:
 134              		.align	2
 135              	.L5:
 136 0040 00030440 		.word	1074004736
 137              		.cfi_endproc
 138              	.LFE12:
 139              		.size	LCD_WrDatNib, .-LCD_WrDatNib
 140              		.section	.text.LCD_IsReady,"ax",%progbits
 141              		.align	2
 142              		.global	LCD_IsReady
 143              		.code	16
 144              		.thumb_func
 145              		.type	LCD_IsReady, %function
 146              	LCD_IsReady:
 147              	.LFB11:
 349:Generated_Source\PSoC4/LCD.c ****     uint32 value;
 148              		.loc 1 349 0
 149              		.cfi_startproc
 150              		@ args = 0, pretend = 0, frame = 0
 151              		@ frame_needed = 0, uses_anonymous_args = 0
 152 0000 F8B5     		push	{r3, r4, r5, r6, r7, lr}
 153              		.cfi_def_cfa_offset 24
 154              		.cfi_offset 3, -24
 155              		.cfi_offset 4, -20
 156              		.cfi_offset 5, -16
 157              		.cfi_offset 6, -12
 158              		.cfi_offset 7, -8
 159              		.cfi_offset 14, -4
 160              	.LVL7:
 355:Generated_Source\PSoC4/LCD.c **** 
 161              		.loc 1 355 0
 162 0002 274A     		ldr	r2, .L11
 163 0004 1368     		ldr	r3, [r2]
 164 0006 7F21     		movs	r1, #127
 165 0008 8B43     		bics	r3, r1
 166 000a 1360     		str	r3, [r2]
 363:Generated_Source\PSoC4/LCD.c ****         /* Load in high Z values for data pins, others unchanged */
 167              		.loc 1 363 0
 168 000c 2549     		ldr	r1, .L11+4
 169 000e 0B68     		ldr	r3, [r1]
 170 0010 1B0B     		lsrs	r3, r3, #12
 171 0012 1B03     		lsls	r3, r3, #12
 172              	.LVL8:
 365:Generated_Source\PSoC4/LCD.c **** 
 173              		.loc 1 365 0
 174 0014 2448     		ldr	r0, .L11+8
 175 0016 0343     		orrs	r3, r0
 176              	.LVL9:
 177 0018 0B60     		str	r3, [r1]
 389:Generated_Source\PSoC4/LCD.c **** 
 178              		.loc 1 389 0
ARM GAS  C:\Users\juano\AppData\Local\Temp\cc6zp2zl.s 			page 14


 179 001a 1368     		ldr	r3, [r2]
 180 001c 2021     		movs	r1, #32
 181 001e 8B43     		bics	r3, r1
 182 0020 1360     		str	r3, [r2]
 392:Generated_Source\PSoC4/LCD.c **** 
 183              		.loc 1 392 0
 184 0022 1168     		ldr	r1, [r2]
 185 0024 4023     		movs	r3, #64
 186 0026 0B43     		orrs	r3, r1
 187 0028 1360     		str	r3, [r2]
 352:Generated_Source\PSoC4/LCD.c **** 
 188              		.loc 1 352 0
 189 002a CA27     		movs	r7, #202
 190 002c 7F00     		lsls	r7, r7, #1
 191              	.LVL10:
 192              	.L10:
 397:Generated_Source\PSoC4/LCD.c **** 
 193              		.loc 1 397 0
 194 002e 0020     		movs	r0, #0
 195 0030 FFF7FEFF 		bl	CyDelayUs
 196              	.LVL11:
 400:Generated_Source\PSoC4/LCD.c **** 
 197              		.loc 1 400 0
 198 0034 1A4C     		ldr	r4, .L11
 199 0036 2368     		ldr	r3, [r4]
 200 0038 1026     		movs	r6, #16
 201 003a 3343     		orrs	r3, r6
 202 003c 2360     		str	r3, [r4]
 403:Generated_Source\PSoC4/LCD.c **** 
 203              		.loc 1 403 0
 204 003e 0120     		movs	r0, #1
 205 0040 FFF7FEFF 		bl	CyDelayUs
 206              	.LVL12:
 406:Generated_Source\PSoC4/LCD.c **** 
 207              		.loc 1 406 0
 208 0044 194B     		ldr	r3, .L11+12
 209 0046 1D68     		ldr	r5, [r3]
 210              	.LVL13:
 409:Generated_Source\PSoC4/LCD.c **** 
 211              		.loc 1 409 0
 212 0048 2368     		ldr	r3, [r4]
 213 004a B343     		bics	r3, r6
 214 004c 2360     		str	r3, [r4]
 412:Generated_Source\PSoC4/LCD.c **** 
 215              		.loc 1 412 0
 216 004e 0020     		movs	r0, #0
 217 0050 FFF7FEFF 		bl	CyDelayUs
 218              	.LVL14:
 415:Generated_Source\PSoC4/LCD.c **** 
 219              		.loc 1 415 0
 220 0054 0823     		movs	r3, #8
 221 0056 1D40     		ands	r5, r3
 222              	.LVL15:
 418:Generated_Source\PSoC4/LCD.c **** 
 223              		.loc 1 418 0
 224 0058 2368     		ldr	r3, [r4]
 225 005a 3343     		orrs	r3, r6
ARM GAS  C:\Users\juano\AppData\Local\Temp\cc6zp2zl.s 			page 15


 226 005c 2360     		str	r3, [r4]
 421:Generated_Source\PSoC4/LCD.c **** 
 227              		.loc 1 421 0
 228 005e 0120     		movs	r0, #1
 229 0060 FFF7FEFF 		bl	CyDelayUs
 230              	.LVL16:
 424:Generated_Source\PSoC4/LCD.c **** 
 231              		.loc 1 424 0
 232 0064 2368     		ldr	r3, [r4]
 233 0066 B343     		bics	r3, r6
 234 0068 2360     		str	r3, [r4]
 427:Generated_Source\PSoC4/LCD.c ****         {
 235              		.loc 1 427 0
 236 006a 002D     		cmp	r5, #0
 237 006c 02D1     		bne	.L8
 429:Generated_Source\PSoC4/LCD.c ****         }
 238              		.loc 1 429 0
 239 006e 0A20     		movs	r0, #10
 240 0070 FFF7FEFF 		bl	CyDelayUs
 241              	.LVL17:
 242              	.L8:
 433:Generated_Source\PSoC4/LCD.c **** 
 243              		.loc 1 433 0
 244 0074 013F     		subs	r7, r7, #1
 245              	.LVL18:
 435:Generated_Source\PSoC4/LCD.c **** 
 246              		.loc 1 435 0
 247 0076 002D     		cmp	r5, #0
 248 0078 01D0     		beq	.L9
 435:Generated_Source\PSoC4/LCD.c **** 
 249              		.loc 1 435 0 is_stmt 0 discriminator 1
 250 007a 002F     		cmp	r7, #0
 251 007c D7D1     		bne	.L10
 252              	.L9:
 438:Generated_Source\PSoC4/LCD.c **** 
 253              		.loc 1 438 0 is_stmt 1
 254 007e 084B     		ldr	r3, .L11
 255 0080 1A68     		ldr	r2, [r3]
 256 0082 4021     		movs	r1, #64
 257 0084 8A43     		bics	r2, r1
 258 0086 1A60     		str	r2, [r3]
 441:Generated_Source\PSoC4/LCD.c **** 
 259              		.loc 1 441 0
 260 0088 1A68     		ldr	r2, [r3]
 261 008a 3F31     		adds	r1, r1, #63
 262 008c 8A43     		bics	r2, r1
 263 008e 1A60     		str	r2, [r3]
 446:Generated_Source\PSoC4/LCD.c ****         /* Load in high Z values for data pins, others unchanged */
 264              		.loc 1 446 0
 265 0090 044A     		ldr	r2, .L11+4
 266 0092 1368     		ldr	r3, [r2]
 267 0094 1B0B     		lsrs	r3, r3, #12
 268 0096 1B03     		lsls	r3, r3, #12
 269              	.LVL19:
 448:Generated_Source\PSoC4/LCD.c **** 
 270              		.loc 1 448 0
 271 0098 0549     		ldr	r1, .L11+16
ARM GAS  C:\Users\juano\AppData\Local\Temp\cc6zp2zl.s 			page 16


 272 009a 0B43     		orrs	r3, r1
 273              	.LVL20:
 274 009c 1360     		str	r3, [r2]
 468:Generated_Source\PSoC4/LCD.c **** 
 275              		.loc 1 468 0
 276              		@ sp needed
 277              	.LVL21:
 278 009e F8BD     		pop	{r3, r4, r5, r6, r7, pc}
 279              	.L12:
 280              		.align	2
 281              	.L11:
 282 00a0 00030440 		.word	1074004736
 283 00a4 08030440 		.word	1074004744
 284 00a8 49020000 		.word	585
 285 00ac 04030440 		.word	1074004740
 286 00b0 B60D0000 		.word	3510
 287              		.cfi_endproc
 288              	.LFE11:
 289              		.size	LCD_IsReady, .-LCD_IsReady
 290              		.section	.text.LCD_WriteData,"ax",%progbits
 291              		.align	2
 292              		.global	LCD_WriteData
 293              		.code	16
 294              		.thumb_func
 295              		.type	LCD_WriteData, %function
 296              	LCD_WriteData:
 297              	.LFB9:
 285:Generated_Source\PSoC4/LCD.c ****     uint8 nibble;
 298              		.loc 1 285 0
 299              		.cfi_startproc
 300              		@ args = 0, pretend = 0, frame = 0
 301              		@ frame_needed = 0, uses_anonymous_args = 0
 302              	.LVL22:
 303 0000 10B5     		push	{r4, lr}
 304              		.cfi_def_cfa_offset 8
 305              		.cfi_offset 4, -8
 306              		.cfi_offset 14, -4
 307 0002 0400     		movs	r4, r0
 288:Generated_Source\PSoC4/LCD.c ****     nibble = dByte >> LCD_NIBBLE_SHIFT;
 308              		.loc 1 288 0
 309 0004 FFF7FEFF 		bl	LCD_IsReady
 310              	.LVL23:
 289:Generated_Source\PSoC4/LCD.c **** 
 311              		.loc 1 289 0
 312 0008 2009     		lsrs	r0, r4, #4
 313              	.LVL24:
 292:Generated_Source\PSoC4/LCD.c **** 
 314              		.loc 1 292 0
 315 000a FFF7FEFF 		bl	LCD_WrDatNib
 316              	.LVL25:
 294:Generated_Source\PSoC4/LCD.c ****     /* Write low nibble */
 317              		.loc 1 294 0
 318 000e 0F20     		movs	r0, #15
 319 0010 2040     		ands	r0, r4
 320              	.LVL26:
 296:Generated_Source\PSoC4/LCD.c **** }
 321              		.loc 1 296 0
ARM GAS  C:\Users\juano\AppData\Local\Temp\cc6zp2zl.s 			page 17


 322 0012 FFF7FEFF 		bl	LCD_WrDatNib
 323              	.LVL27:
 297:Generated_Source\PSoC4/LCD.c **** 
 324              		.loc 1 297 0
 325              		@ sp needed
 326              	.LVL28:
 327 0016 10BD     		pop	{r4, pc}
 328              		.cfi_endproc
 329              	.LFE9:
 330              		.size	LCD_WriteData, .-LCD_WriteData
 331              		.section	.text.LCD_PrintString,"ax",%progbits
 332              		.align	2
 333              		.global	LCD_PrintString
 334              		.code	16
 335              		.thumb_func
 336              		.type	LCD_PrintString, %function
 337              	LCD_PrintString:
 338              	.LFB7:
 234:Generated_Source\PSoC4/LCD.c ****     uint8 indexU8 = 1u;
 339              		.loc 1 234 0
 340              		.cfi_startproc
 341              		@ args = 0, pretend = 0, frame = 0
 342              		@ frame_needed = 0, uses_anonymous_args = 0
 343              	.LVL29:
 344 0000 70B5     		push	{r4, r5, r6, lr}
 345              		.cfi_def_cfa_offset 16
 346              		.cfi_offset 4, -16
 347              		.cfi_offset 5, -12
 348              		.cfi_offset 6, -8
 349              		.cfi_offset 14, -4
 350 0002 0500     		movs	r5, r0
 351              	.LVL30:
 236:Generated_Source\PSoC4/LCD.c **** 
 352              		.loc 1 236 0
 353 0004 0078     		ldrb	r0, [r0]
 354              	.LVL31:
 235:Generated_Source\PSoC4/LCD.c ****     char8 current = *string;
 355              		.loc 1 235 0
 356 0006 0124     		movs	r4, #1
 239:Generated_Source\PSoC4/LCD.c ****     {
 357              		.loc 1 239 0
 358 0008 04E0     		b	.L15
 359              	.LVL32:
 360              	.L16:
 241:Generated_Source\PSoC4/LCD.c ****         current = string[indexU8];
 361              		.loc 1 241 0
 362 000a FFF7FEFF 		bl	LCD_WriteData
 363              	.LVL33:
 242:Generated_Source\PSoC4/LCD.c ****         indexU8++;
 364              		.loc 1 242 0
 365 000e 285D     		ldrb	r0, [r5, r4]
 366              	.LVL34:
 243:Generated_Source\PSoC4/LCD.c ****     }
 367              		.loc 1 243 0
 368 0010 0134     		adds	r4, r4, #1
 369              	.LVL35:
 370 0012 E4B2     		uxtb	r4, r4
ARM GAS  C:\Users\juano\AppData\Local\Temp\cc6zp2zl.s 			page 18


 371              	.LVL36:
 372              	.L15:
 239:Generated_Source\PSoC4/LCD.c ****     {
 373              		.loc 1 239 0
 374 0014 0028     		cmp	r0, #0
 375 0016 F8D1     		bne	.L16
 245:Generated_Source\PSoC4/LCD.c **** 
 376              		.loc 1 245 0
 377              		@ sp needed
 378              	.LVL37:
 379              	.LVL38:
 380 0018 70BD     		pop	{r4, r5, r6, pc}
 381              		.cfi_endproc
 382              	.LFE7:
 383              		.size	LCD_PrintString, .-LCD_PrintString
 384 001a C046     		.section	.text.LCD_PutChar,"ax",%progbits
 385              		.align	2
 386              		.global	LCD_PutChar
 387              		.code	16
 388              		.thumb_func
 389              		.type	LCD_PutChar, %function
 390              	LCD_PutChar:
 391              	.LFB8:
 265:Generated_Source\PSoC4/LCD.c ****     LCD_WriteData((uint8)character);
 392              		.loc 1 265 0
 393              		.cfi_startproc
 394              		@ args = 0, pretend = 0, frame = 0
 395              		@ frame_needed = 0, uses_anonymous_args = 0
 396              	.LVL39:
 397 0000 10B5     		push	{r4, lr}
 398              		.cfi_def_cfa_offset 8
 399              		.cfi_offset 4, -8
 400              		.cfi_offset 14, -4
 266:Generated_Source\PSoC4/LCD.c **** }
 401              		.loc 1 266 0
 402 0002 FFF7FEFF 		bl	LCD_WriteData
 403              	.LVL40:
 267:Generated_Source\PSoC4/LCD.c **** 
 404              		.loc 1 267 0
 405              		@ sp needed
 406 0006 10BD     		pop	{r4, pc}
 407              		.cfi_endproc
 408              	.LFE8:
 409              		.size	LCD_PutChar, .-LCD_PutChar
 410              		.section	.text.LCD_WriteControl,"ax",%progbits
 411              		.align	2
 412              		.global	LCD_WriteControl
 413              		.code	16
 414              		.thumb_func
 415              		.type	LCD_WriteControl, %function
 416              	LCD_WriteControl:
 417              	.LFB10:
 315:Generated_Source\PSoC4/LCD.c ****     uint8 nibble;
 418              		.loc 1 315 0
 419              		.cfi_startproc
 420              		@ args = 0, pretend = 0, frame = 0
 421              		@ frame_needed = 0, uses_anonymous_args = 0
ARM GAS  C:\Users\juano\AppData\Local\Temp\cc6zp2zl.s 			page 19


 422              	.LVL41:
 423 0000 10B5     		push	{r4, lr}
 424              		.cfi_def_cfa_offset 8
 425              		.cfi_offset 4, -8
 426              		.cfi_offset 14, -4
 427 0002 0400     		movs	r4, r0
 318:Generated_Source\PSoC4/LCD.c **** 
 428              		.loc 1 318 0
 429 0004 FFF7FEFF 		bl	LCD_IsReady
 430              	.LVL42:
 320:Generated_Source\PSoC4/LCD.c ****     
 431              		.loc 1 320 0
 432 0008 2009     		lsrs	r0, r4, #4
 433              	.LVL43:
 323:Generated_Source\PSoC4/LCD.c ****     nibble = cByte & LCD_NIBBLE_MASK;
 434              		.loc 1 323 0
 435 000a FFF7FEFF 		bl	LCD_WrCntrlNib
 436              	.LVL44:
 324:Generated_Source\PSoC4/LCD.c **** 
 437              		.loc 1 324 0
 438 000e 0F20     		movs	r0, #15
 439 0010 2040     		ands	r0, r4
 440              	.LVL45:
 327:Generated_Source\PSoC4/LCD.c **** }
 441              		.loc 1 327 0
 442 0012 FFF7FEFF 		bl	LCD_WrCntrlNib
 443              	.LVL46:
 328:Generated_Source\PSoC4/LCD.c **** 
 444              		.loc 1 328 0
 445              		@ sp needed
 446              	.LVL47:
 447 0016 10BD     		pop	{r4, pc}
 448              		.cfi_endproc
 449              	.LFE10:
 450              		.size	LCD_WriteControl, .-LCD_WriteControl
 451              		.section	.text.LCD_Init,"ax",%progbits
 452              		.align	2
 453              		.global	LCD_Init
 454              		.code	16
 455              		.thumb_func
 456              		.type	LCD_Init, %function
 457              	LCD_Init:
 458              	.LFB2:
  56:Generated_Source\PSoC4/LCD.c ****     /* INIT CODE */
 459              		.loc 1 56 0
 460              		.cfi_startproc
 461              		@ args = 0, pretend = 0, frame = 0
 462              		@ frame_needed = 0, uses_anonymous_args = 0
 463 0000 10B5     		push	{r4, lr}
 464              		.cfi_def_cfa_offset 8
 465              		.cfi_offset 4, -8
 466              		.cfi_offset 14, -4
  58:Generated_Source\PSoC4/LCD.c ****     LCD_WrCntrlNib(LCD_DISPLAY_8_BIT_INIT);    /* Selects 8-bit mode */
 467              		.loc 1 58 0
 468 0002 2820     		movs	r0, #40
 469 0004 FFF7FEFF 		bl	CyDelay
 470              	.LVL48:
ARM GAS  C:\Users\juano\AppData\Local\Temp\cc6zp2zl.s 			page 20


  59:Generated_Source\PSoC4/LCD.c ****     CyDelay(5u);                                                         /* Delay 5 ms */
 471              		.loc 1 59 0
 472 0008 0320     		movs	r0, #3
 473 000a FFF7FEFF 		bl	LCD_WrCntrlNib
 474              	.LVL49:
  60:Generated_Source\PSoC4/LCD.c ****     LCD_WrCntrlNib(LCD_DISPLAY_8_BIT_INIT);    /* Selects 8-bit mode */
 475              		.loc 1 60 0
 476 000e 0520     		movs	r0, #5
 477 0010 FFF7FEFF 		bl	CyDelay
 478              	.LVL50:
  61:Generated_Source\PSoC4/LCD.c ****     CyDelay(15u);                                                        /* Delay 15 ms */
 479              		.loc 1 61 0
 480 0014 0320     		movs	r0, #3
 481 0016 FFF7FEFF 		bl	LCD_WrCntrlNib
 482              	.LVL51:
  62:Generated_Source\PSoC4/LCD.c ****     LCD_WrCntrlNib(LCD_DISPLAY_8_BIT_INIT);    /* Selects 8-bit mode */
 483              		.loc 1 62 0
 484 001a 0F20     		movs	r0, #15
 485 001c FFF7FEFF 		bl	CyDelay
 486              	.LVL52:
  63:Generated_Source\PSoC4/LCD.c ****     CyDelay(1u);                                                         /* Delay 1 ms */
 487              		.loc 1 63 0
 488 0020 0320     		movs	r0, #3
 489 0022 FFF7FEFF 		bl	LCD_WrCntrlNib
 490              	.LVL53:
  64:Generated_Source\PSoC4/LCD.c ****     LCD_WrCntrlNib(LCD_DISPLAY_4_BIT_INIT);    /* Selects 4-bit mode */
 491              		.loc 1 64 0
 492 0026 0120     		movs	r0, #1
 493 0028 FFF7FEFF 		bl	CyDelay
 494              	.LVL54:
  65:Generated_Source\PSoC4/LCD.c ****     CyDelay(5u);                                                         /* Delay 5 ms */
 495              		.loc 1 65 0
 496 002c 0220     		movs	r0, #2
 497 002e FFF7FEFF 		bl	LCD_WrCntrlNib
 498              	.LVL55:
  66:Generated_Source\PSoC4/LCD.c **** 
 499              		.loc 1 66 0
 500 0032 0520     		movs	r0, #5
 501 0034 FFF7FEFF 		bl	CyDelay
 502              	.LVL56:
  68:Generated_Source\PSoC4/LCD.c ****     LCD_WriteControl(LCD_DISPLAY_CURSOR_ON);      /* Turn Display, Cursor ON */
 503              		.loc 1 68 0
 504 0038 0620     		movs	r0, #6
 505 003a FFF7FEFF 		bl	LCD_WriteControl
 506              	.LVL57:
  69:Generated_Source\PSoC4/LCD.c ****     LCD_WriteControl(LCD_DISPLAY_2_LINES_5x10);   /* 2 Lines by 5x10 Characters */
 507              		.loc 1 69 0
 508 003e 0E20     		movs	r0, #14
 509 0040 FFF7FEFF 		bl	LCD_WriteControl
 510              	.LVL58:
  70:Generated_Source\PSoC4/LCD.c ****     LCD_WriteControl(LCD_DISPLAY_CURSOR_OFF);     /* Turn Display, Cursor OFF */
 511              		.loc 1 70 0
 512 0044 2C20     		movs	r0, #44
 513 0046 FFF7FEFF 		bl	LCD_WriteControl
 514              	.LVL59:
  71:Generated_Source\PSoC4/LCD.c ****     LCD_WriteControl(LCD_CLEAR_DISPLAY);          /* Clear LCD Screen */
 515              		.loc 1 71 0
ARM GAS  C:\Users\juano\AppData\Local\Temp\cc6zp2zl.s 			page 21


 516 004a 0820     		movs	r0, #8
 517 004c FFF7FEFF 		bl	LCD_WriteControl
 518              	.LVL60:
  72:Generated_Source\PSoC4/LCD.c ****     LCD_WriteControl(LCD_DISPLAY_ON_CURSOR_OFF);  /* Turn Display ON, Cursor OFF */
 519              		.loc 1 72 0
 520 0050 0120     		movs	r0, #1
 521 0052 FFF7FEFF 		bl	LCD_WriteControl
 522              	.LVL61:
  73:Generated_Source\PSoC4/LCD.c ****     LCD_WriteControl(LCD_RESET_CURSOR_POSITION);  /* Set Cursor to 0,0 */
 523              		.loc 1 73 0
 524 0056 0C20     		movs	r0, #12
 525 0058 FFF7FEFF 		bl	LCD_WriteControl
 526              	.LVL62:
  74:Generated_Source\PSoC4/LCD.c ****     CyDelay(5u);
 527              		.loc 1 74 0
 528 005c 0320     		movs	r0, #3
 529 005e FFF7FEFF 		bl	LCD_WriteControl
 530              	.LVL63:
  75:Generated_Source\PSoC4/LCD.c **** 
 531              		.loc 1 75 0
 532 0062 0520     		movs	r0, #5
 533 0064 FFF7FEFF 		bl	CyDelay
 534              	.LVL64:
  78:Generated_Source\PSoC4/LCD.c ****     #endif /* LCD_CUSTOM_CHAR_SET != LCD_NONE */
 535              		.loc 1 78 0
 536 0068 0148     		ldr	r0, .L20
 537 006a FFF7FEFF 		bl	LCD_LoadCustomFonts
 538              	.LVL65:
  80:Generated_Source\PSoC4/LCD.c **** 
 539              		.loc 1 80 0
 540              		@ sp needed
 541 006e 10BD     		pop	{r4, pc}
 542              	.L21:
 543              		.align	2
 544              	.L20:
 545 0070 00000000 		.word	LCD_customFonts
 546              		.cfi_endproc
 547              	.LFE2:
 548              		.size	LCD_Init, .-LCD_Init
 549              		.section	.text.LCD_Enable,"ax",%progbits
 550              		.align	2
 551              		.global	LCD_Enable
 552              		.code	16
 553              		.thumb_func
 554              		.type	LCD_Enable, %function
 555              	LCD_Enable:
 556              	.LFB3:
 105:Generated_Source\PSoC4/LCD.c ****     LCD_DisplayOn();
 557              		.loc 1 105 0
 558              		.cfi_startproc
 559              		@ args = 0, pretend = 0, frame = 0
 560              		@ frame_needed = 0, uses_anonymous_args = 0
 561 0000 10B5     		push	{r4, lr}
 562              		.cfi_def_cfa_offset 8
 563              		.cfi_offset 4, -8
 564              		.cfi_offset 14, -4
 106:Generated_Source\PSoC4/LCD.c ****     LCD_enableState = 1u;
ARM GAS  C:\Users\juano\AppData\Local\Temp\cc6zp2zl.s 			page 22


 565              		.loc 1 106 0
 566 0002 0C20     		movs	r0, #12
 567 0004 FFF7FEFF 		bl	LCD_WriteControl
 568              	.LVL66:
 107:Generated_Source\PSoC4/LCD.c **** }
 569              		.loc 1 107 0
 570 0008 0122     		movs	r2, #1
 571 000a 014B     		ldr	r3, .L23
 572 000c 1A70     		strb	r2, [r3]
 108:Generated_Source\PSoC4/LCD.c **** 
 573              		.loc 1 108 0
 574              		@ sp needed
 575 000e 10BD     		pop	{r4, pc}
 576              	.L24:
 577              		.align	2
 578              	.L23:
 579 0010 00000000 		.word	.LANCHOR0
 580              		.cfi_endproc
 581              	.LFE3:
 582              		.size	LCD_Enable, .-LCD_Enable
 583              		.section	.text.LCD_Start,"ax",%progbits
 584              		.align	2
 585              		.global	LCD_Start
 586              		.code	16
 587              		.thumb_func
 588              		.type	LCD_Start, %function
 589              	LCD_Start:
 590              	.LFB4:
 138:Generated_Source\PSoC4/LCD.c ****     /* If not initialized, perform initialization */
 591              		.loc 1 138 0
 592              		.cfi_startproc
 593              		@ args = 0, pretend = 0, frame = 0
 594              		@ frame_needed = 0, uses_anonymous_args = 0
 595 0000 10B5     		push	{r4, lr}
 596              		.cfi_def_cfa_offset 8
 597              		.cfi_offset 4, -8
 598              		.cfi_offset 14, -4
 140:Generated_Source\PSoC4/LCD.c ****     {
 599              		.loc 1 140 0
 600 0002 064B     		ldr	r3, .L27
 601 0004 5B78     		ldrb	r3, [r3, #1]
 602 0006 002B     		cmp	r3, #0
 603 0008 04D1     		bne	.L26
 142:Generated_Source\PSoC4/LCD.c ****         LCD_initVar = 1u;
 604              		.loc 1 142 0
 605 000a FFF7FEFF 		bl	LCD_Init
 606              	.LVL67:
 143:Generated_Source\PSoC4/LCD.c ****     }
 607              		.loc 1 143 0
 608 000e 0122     		movs	r2, #1
 609 0010 024B     		ldr	r3, .L27
 610 0012 5A70     		strb	r2, [r3, #1]
 611              	.L26:
 147:Generated_Source\PSoC4/LCD.c **** }
 612              		.loc 1 147 0
 613 0014 FFF7FEFF 		bl	LCD_Enable
 614              	.LVL68:
ARM GAS  C:\Users\juano\AppData\Local\Temp\cc6zp2zl.s 			page 23


 148:Generated_Source\PSoC4/LCD.c **** 
 615              		.loc 1 148 0
 616              		@ sp needed
 617 0018 10BD     		pop	{r4, pc}
 618              	.L28:
 619 001a C046     		.align	2
 620              	.L27:
 621 001c 00000000 		.word	.LANCHOR0
 622              		.cfi_endproc
 623              	.LFE4:
 624              		.size	LCD_Start, .-LCD_Start
 625              		.section	.text.LCD_Stop,"ax",%progbits
 626              		.align	2
 627              		.global	LCD_Stop
 628              		.code	16
 629              		.thumb_func
 630              		.type	LCD_Stop, %function
 631              	LCD_Stop:
 632              	.LFB5:
 169:Generated_Source\PSoC4/LCD.c ****     /* Calls LCD Off Macro */
 633              		.loc 1 169 0
 634              		.cfi_startproc
 635              		@ args = 0, pretend = 0, frame = 0
 636              		@ frame_needed = 0, uses_anonymous_args = 0
 637 0000 10B5     		push	{r4, lr}
 638              		.cfi_def_cfa_offset 8
 639              		.cfi_offset 4, -8
 640              		.cfi_offset 14, -4
 171:Generated_Source\PSoC4/LCD.c ****     LCD_enableState = 0u;
 641              		.loc 1 171 0
 642 0002 0820     		movs	r0, #8
 643 0004 FFF7FEFF 		bl	LCD_WriteControl
 644              	.LVL69:
 172:Generated_Source\PSoC4/LCD.c **** }
 645              		.loc 1 172 0
 646 0008 0022     		movs	r2, #0
 647 000a 014B     		ldr	r3, .L30
 648 000c 1A70     		strb	r2, [r3]
 173:Generated_Source\PSoC4/LCD.c **** 
 649              		.loc 1 173 0
 650              		@ sp needed
 651 000e 10BD     		pop	{r4, pc}
 652              	.L31:
 653              		.align	2
 654              	.L30:
 655 0010 00000000 		.word	.LANCHOR0
 656              		.cfi_endproc
 657              	.LFE5:
 658              		.size	LCD_Stop, .-LCD_Stop
 659              		.section	.text.LCD_Position,"ax",%progbits
 660              		.align	2
 661              		.global	LCD_Position
 662              		.code	16
 663              		.thumb_func
 664              		.type	LCD_Position, %function
 665              	LCD_Position:
 666              	.LFB6:
ARM GAS  C:\Users\juano\AppData\Local\Temp\cc6zp2zl.s 			page 24


 197:Generated_Source\PSoC4/LCD.c ****     switch (row)
 667              		.loc 1 197 0
 668              		.cfi_startproc
 669              		@ args = 0, pretend = 0, frame = 0
 670              		@ frame_needed = 0, uses_anonymous_args = 0
 671              	.LVL70:
 672 0000 10B5     		push	{r4, lr}
 673              		.cfi_def_cfa_offset 8
 674              		.cfi_offset 4, -8
 675              		.cfi_offset 14, -4
 198:Generated_Source\PSoC4/LCD.c ****     {
 676              		.loc 1 198 0
 677 0002 0128     		cmp	r0, #1
 678 0004 0BD0     		beq	.L34
 679 0006 0028     		cmp	r0, #0
 680 0008 04D0     		beq	.L35
 681 000a 0228     		cmp	r0, #2
 682 000c 0CD0     		beq	.L36
 683 000e 0328     		cmp	r0, #3
 684 0010 0FD0     		beq	.L37
 685 0012 12E0     		b	.L32
 686              	.L35:
 201:Generated_Source\PSoC4/LCD.c ****             break;
 687              		.loc 1 201 0
 688 0014 8039     		subs	r1, r1, #128
 689              	.LVL71:
 690 0016 C8B2     		uxtb	r0, r1
 691              	.LVL72:
 692 0018 FFF7FEFF 		bl	LCD_WriteControl
 693              	.LVL73:
 202:Generated_Source\PSoC4/LCD.c ****         case (uint8) 1:
 694              		.loc 1 202 0
 695 001c 0DE0     		b	.L32
 696              	.LVL74:
 697              	.L34:
 204:Generated_Source\PSoC4/LCD.c ****             break;
 698              		.loc 1 204 0
 699 001e 4039     		subs	r1, r1, #64
 700              	.LVL75:
 701 0020 C8B2     		uxtb	r0, r1
 702              	.LVL76:
 703 0022 FFF7FEFF 		bl	LCD_WriteControl
 704              	.LVL77:
 205:Generated_Source\PSoC4/LCD.c ****         case (uint8) 2:
 705              		.loc 1 205 0
 706 0026 08E0     		b	.L32
 707              	.LVL78:
 708              	.L36:
 207:Generated_Source\PSoC4/LCD.c ****             break;
 709              		.loc 1 207 0
 710 0028 6C39     		subs	r1, r1, #108
 711              	.LVL79:
 712 002a C8B2     		uxtb	r0, r1
 713              	.LVL80:
 714 002c FFF7FEFF 		bl	LCD_WriteControl
 715              	.LVL81:
 208:Generated_Source\PSoC4/LCD.c ****         case (uint8) 3:
ARM GAS  C:\Users\juano\AppData\Local\Temp\cc6zp2zl.s 			page 25


 716              		.loc 1 208 0
 717 0030 03E0     		b	.L32
 718              	.LVL82:
 719              	.L37:
 210:Generated_Source\PSoC4/LCD.c ****             break;
 720              		.loc 1 210 0
 721 0032 2C39     		subs	r1, r1, #44
 722              	.LVL83:
 723 0034 C8B2     		uxtb	r0, r1
 724              	.LVL84:
 725 0036 FFF7FEFF 		bl	LCD_WriteControl
 726              	.LVL85:
 727              	.L32:
 216:Generated_Source\PSoC4/LCD.c **** 
 728              		.loc 1 216 0
 729              		@ sp needed
 730 003a 10BD     		pop	{r4, pc}
 731              		.cfi_endproc
 732              	.LFE6:
 733              		.size	LCD_Position, .-LCD_Position
 734              		.section	.text.LCD_PrintInt8,"ax",%progbits
 735              		.align	2
 736              		.global	LCD_PrintInt8
 737              		.code	16
 738              		.thumb_func
 739              		.type	LCD_PrintInt8, %function
 740              	LCD_PrintInt8:
 741              	.LFB14:
 550:Generated_Source\PSoC4/LCD.c **** 
 551:Generated_Source\PSoC4/LCD.c **** 
 552:Generated_Source\PSoC4/LCD.c **** #if(LCD_CONVERSION_ROUTINES == 1u)
 553:Generated_Source\PSoC4/LCD.c **** 
 554:Generated_Source\PSoC4/LCD.c ****     /*******************************************************************************
 555:Generated_Source\PSoC4/LCD.c ****     *  Function Name: LCD_PrintInt8
 556:Generated_Source\PSoC4/LCD.c ****     ********************************************************************************
 557:Generated_Source\PSoC4/LCD.c ****     *
 558:Generated_Source\PSoC4/LCD.c ****     * Summary:
 559:Generated_Source\PSoC4/LCD.c ****     *  Print a byte as two ASCII characters.
 560:Generated_Source\PSoC4/LCD.c ****     *
 561:Generated_Source\PSoC4/LCD.c ****     * Parameters:
 562:Generated_Source\PSoC4/LCD.c ****     *  value: The byte to be printed out as ASCII characters.
 563:Generated_Source\PSoC4/LCD.c ****     *
 564:Generated_Source\PSoC4/LCD.c ****     * Return:
 565:Generated_Source\PSoC4/LCD.c ****     *  None.
 566:Generated_Source\PSoC4/LCD.c ****     *
 567:Generated_Source\PSoC4/LCD.c ****     *******************************************************************************/
 568:Generated_Source\PSoC4/LCD.c ****     void LCD_PrintInt8(uint8 value) 
 569:Generated_Source\PSoC4/LCD.c ****     {
 742              		.loc 1 569 0
 743              		.cfi_startproc
 744              		@ args = 0, pretend = 0, frame = 0
 745              		@ frame_needed = 0, uses_anonymous_args = 0
 746              	.LVL86:
 747 0000 70B5     		push	{r4, r5, r6, lr}
 748              		.cfi_def_cfa_offset 16
 749              		.cfi_offset 4, -16
 750              		.cfi_offset 5, -12
ARM GAS  C:\Users\juano\AppData\Local\Temp\cc6zp2zl.s 			page 26


 751              		.cfi_offset 6, -8
 752              		.cfi_offset 14, -4
 753 0002 0400     		movs	r4, r0
 570:Generated_Source\PSoC4/LCD.c ****         static char8 const CYCODE LCD_hex[16u] = "0123456789ABCDEF";
 571:Generated_Source\PSoC4/LCD.c ****         
 572:Generated_Source\PSoC4/LCD.c ****         LCD_PutChar((char8) LCD_hex[value >> LCD_BYTE_UPPER_NIBBLE_SHIFT]);
 754              		.loc 1 572 0
 755 0004 0309     		lsrs	r3, r0, #4
 756 0006 054D     		ldr	r5, .L39
 757 0008 E85C     		ldrb	r0, [r5, r3]
 758              	.LVL87:
 759 000a FFF7FEFF 		bl	LCD_PutChar
 760              	.LVL88:
 573:Generated_Source\PSoC4/LCD.c ****         LCD_PutChar((char8) LCD_hex[value & LCD_BYTE_LOWER_NIBBLE_MASK]);
 761              		.loc 1 573 0
 762 000e 0F23     		movs	r3, #15
 763 0010 1C40     		ands	r4, r3
 764 0012 285D     		ldrb	r0, [r5, r4]
 765 0014 FFF7FEFF 		bl	LCD_PutChar
 766              	.LVL89:
 574:Generated_Source\PSoC4/LCD.c ****     }
 767              		.loc 1 574 0
 768              		@ sp needed
 769 0018 70BD     		pop	{r4, r5, r6, pc}
 770              	.L40:
 771 001a C046     		.align	2
 772              	.L39:
 773 001c 00000000 		.word	.LANCHOR1
 774              		.cfi_endproc
 775              	.LFE14:
 776              		.size	LCD_PrintInt8, .-LCD_PrintInt8
 777              		.section	.text.LCD_PrintInt16,"ax",%progbits
 778              		.align	2
 779              		.global	LCD_PrintInt16
 780              		.code	16
 781              		.thumb_func
 782              		.type	LCD_PrintInt16, %function
 783              	LCD_PrintInt16:
 784              	.LFB15:
 575:Generated_Source\PSoC4/LCD.c **** 
 576:Generated_Source\PSoC4/LCD.c **** 
 577:Generated_Source\PSoC4/LCD.c ****     /*******************************************************************************
 578:Generated_Source\PSoC4/LCD.c ****     *  Function Name: LCD_PrintInt16
 579:Generated_Source\PSoC4/LCD.c ****     ********************************************************************************
 580:Generated_Source\PSoC4/LCD.c ****     *
 581:Generated_Source\PSoC4/LCD.c ****     * Summary:
 582:Generated_Source\PSoC4/LCD.c ****     *  Print a uint16 as four ASCII characters.
 583:Generated_Source\PSoC4/LCD.c ****     *
 584:Generated_Source\PSoC4/LCD.c ****     * Parameters:
 585:Generated_Source\PSoC4/LCD.c ****     *  value: The uint16 to be printed out as ASCII characters.
 586:Generated_Source\PSoC4/LCD.c ****     *
 587:Generated_Source\PSoC4/LCD.c ****     * Return:
 588:Generated_Source\PSoC4/LCD.c ****     *  None.
 589:Generated_Source\PSoC4/LCD.c ****     *
 590:Generated_Source\PSoC4/LCD.c ****     *******************************************************************************/
 591:Generated_Source\PSoC4/LCD.c ****     void LCD_PrintInt16(uint16 value) 
 592:Generated_Source\PSoC4/LCD.c ****     {
ARM GAS  C:\Users\juano\AppData\Local\Temp\cc6zp2zl.s 			page 27


 785              		.loc 1 592 0
 786              		.cfi_startproc
 787              		@ args = 0, pretend = 0, frame = 0
 788              		@ frame_needed = 0, uses_anonymous_args = 0
 789              	.LVL90:
 790 0000 10B5     		push	{r4, lr}
 791              		.cfi_def_cfa_offset 8
 792              		.cfi_offset 4, -8
 793              		.cfi_offset 14, -4
 794 0002 0400     		movs	r4, r0
 593:Generated_Source\PSoC4/LCD.c ****         LCD_PrintInt8((uint8)(value >> LCD_U16_UPPER_BYTE_SHIFT));
 795              		.loc 1 593 0
 796 0004 000A     		lsrs	r0, r0, #8
 797              	.LVL91:
 798 0006 FFF7FEFF 		bl	LCD_PrintInt8
 799              	.LVL92:
 594:Generated_Source\PSoC4/LCD.c ****         LCD_PrintInt8((uint8)(value & LCD_U16_LOWER_BYTE_MASK));
 800              		.loc 1 594 0
 801 000a E0B2     		uxtb	r0, r4
 802 000c FFF7FEFF 		bl	LCD_PrintInt8
 803              	.LVL93:
 595:Generated_Source\PSoC4/LCD.c ****     }
 804              		.loc 1 595 0
 805              		@ sp needed
 806 0010 10BD     		pop	{r4, pc}
 807              		.cfi_endproc
 808              	.LFE15:
 809              		.size	LCD_PrintInt16, .-LCD_PrintInt16
 810 0012 C046     		.section	.text.LCD_PrintInt32,"ax",%progbits
 811              		.align	2
 812              		.global	LCD_PrintInt32
 813              		.code	16
 814              		.thumb_func
 815              		.type	LCD_PrintInt32, %function
 816              	LCD_PrintInt32:
 817              	.LFB16:
 596:Generated_Source\PSoC4/LCD.c **** 
 597:Generated_Source\PSoC4/LCD.c ****     
 598:Generated_Source\PSoC4/LCD.c ****     /*******************************************************************************
 599:Generated_Source\PSoC4/LCD.c ****     *  Function Name: LCD_PrintInt32
 600:Generated_Source\PSoC4/LCD.c ****     ********************************************************************************
 601:Generated_Source\PSoC4/LCD.c ****     *
 602:Generated_Source\PSoC4/LCD.c ****     * Summary:
 603:Generated_Source\PSoC4/LCD.c ****     *  Print a uint32 hexadecimal number as eight ASCII characters.
 604:Generated_Source\PSoC4/LCD.c ****     *
 605:Generated_Source\PSoC4/LCD.c ****     * Parameters:
 606:Generated_Source\PSoC4/LCD.c ****     *  value: The uint32 to be printed out as ASCII characters.
 607:Generated_Source\PSoC4/LCD.c ****     *
 608:Generated_Source\PSoC4/LCD.c ****     * Return:
 609:Generated_Source\PSoC4/LCD.c ****     *  None.
 610:Generated_Source\PSoC4/LCD.c ****     *
 611:Generated_Source\PSoC4/LCD.c ****     *******************************************************************************/
 612:Generated_Source\PSoC4/LCD.c ****     void LCD_PrintInt32(uint32 value) 
 613:Generated_Source\PSoC4/LCD.c ****     {
 818              		.loc 1 613 0
 819              		.cfi_startproc
 820              		@ args = 0, pretend = 0, frame = 0
ARM GAS  C:\Users\juano\AppData\Local\Temp\cc6zp2zl.s 			page 28


 821              		@ frame_needed = 0, uses_anonymous_args = 0
 822              	.LVL94:
 823 0000 70B5     		push	{r4, r5, r6, lr}
 824              		.cfi_def_cfa_offset 16
 825              		.cfi_offset 4, -16
 826              		.cfi_offset 5, -12
 827              		.cfi_offset 6, -8
 828              		.cfi_offset 14, -4
 829 0002 0500     		movs	r5, r0
 830              	.LVL95:
 614:Generated_Source\PSoC4/LCD.c ****         uint8 shift = LCD_32_BIT_SHIFT;
 831              		.loc 1 614 0
 832 0004 2024     		movs	r4, #32
 615:Generated_Source\PSoC4/LCD.c ****         
 616:Generated_Source\PSoC4/LCD.c ****         while (shift != 0u)
 833              		.loc 1 616 0
 834 0006 06E0     		b	.L43
 835              	.LVL96:
 836              	.L44:
 617:Generated_Source\PSoC4/LCD.c ****         {
 618:Generated_Source\PSoC4/LCD.c ****             /* "shift" var is to be subtracted by 8 prior shifting. This implements 
 619:Generated_Source\PSoC4/LCD.c ****             * shifting by 24, 16, 8 and 0u. 
 620:Generated_Source\PSoC4/LCD.c ****             */
 621:Generated_Source\PSoC4/LCD.c ****             shift -= LCD_8_BIT_SHIFT;
 837              		.loc 1 621 0
 838 0008 083C     		subs	r4, r4, #8
 839              	.LVL97:
 840 000a E4B2     		uxtb	r4, r4
 841              	.LVL98:
 622:Generated_Source\PSoC4/LCD.c ****             
 623:Generated_Source\PSoC4/LCD.c ****             /* Print 8 bits of uint32 hex number */
 624:Generated_Source\PSoC4/LCD.c ****             LCD_PrintInt8((uint8) ((uint32) (value >> shift)));
 842              		.loc 1 624 0
 843 000c 2800     		movs	r0, r5
 844 000e E040     		lsrs	r0, r0, r4
 845 0010 C0B2     		uxtb	r0, r0
 846 0012 FFF7FEFF 		bl	LCD_PrintInt8
 847              	.LVL99:
 848              	.L43:
 616:Generated_Source\PSoC4/LCD.c ****         {
 849              		.loc 1 616 0
 850 0016 002C     		cmp	r4, #0
 851 0018 F6D1     		bne	.L44
 625:Generated_Source\PSoC4/LCD.c ****         }
 626:Generated_Source\PSoC4/LCD.c ****     }
 852              		.loc 1 626 0
 853              		@ sp needed
 854              	.LVL100:
 855              	.LVL101:
 856 001a 70BD     		pop	{r4, r5, r6, pc}
 857              		.cfi_endproc
 858              	.LFE16:
 859              		.size	LCD_PrintInt32, .-LCD_PrintInt32
 860              		.global	__aeabi_uidivmod
 861              		.global	__aeabi_uidiv
 862              		.section	.text.LCD_PrintU32Number,"ax",%progbits
 863              		.align	2
ARM GAS  C:\Users\juano\AppData\Local\Temp\cc6zp2zl.s 			page 29


 864              		.global	LCD_PrintU32Number
 865              		.code	16
 866              		.thumb_func
 867              		.type	LCD_PrintU32Number, %function
 868              	LCD_PrintU32Number:
 869              	.LFB17:
 627:Generated_Source\PSoC4/LCD.c ****     
 628:Generated_Source\PSoC4/LCD.c ****     
 629:Generated_Source\PSoC4/LCD.c ****     /*******************************************************************************
 630:Generated_Source\PSoC4/LCD.c ****     *  Function Name: LCD_PrintNumber
 631:Generated_Source\PSoC4/LCD.c ****     ********************************************************************************
 632:Generated_Source\PSoC4/LCD.c ****     *
 633:Generated_Source\PSoC4/LCD.c ****     * Summary:
 634:Generated_Source\PSoC4/LCD.c ****     *  Print an uint16 value as a left-justified decimal value.
 635:Generated_Source\PSoC4/LCD.c ****     *
 636:Generated_Source\PSoC4/LCD.c ****     * Parameters:
 637:Generated_Source\PSoC4/LCD.c ****     *  value: A 16-bit value to be printed in ASCII characters as a decimal number
 638:Generated_Source\PSoC4/LCD.c ****     *
 639:Generated_Source\PSoC4/LCD.c ****     * Return:
 640:Generated_Source\PSoC4/LCD.c ****     *  None.
 641:Generated_Source\PSoC4/LCD.c ****     *
 642:Generated_Source\PSoC4/LCD.c ****     * Note:
 643:Generated_Source\PSoC4/LCD.c ****     *  This function is implemented as a macro.
 644:Generated_Source\PSoC4/LCD.c ****     *
 645:Generated_Source\PSoC4/LCD.c ****     *******************************************************************************/
 646:Generated_Source\PSoC4/LCD.c **** 
 647:Generated_Source\PSoC4/LCD.c ****     
 648:Generated_Source\PSoC4/LCD.c ****     /*******************************************************************************
 649:Generated_Source\PSoC4/LCD.c ****     *  Function Name: LCD_PrintU32Number
 650:Generated_Source\PSoC4/LCD.c ****     ********************************************************************************
 651:Generated_Source\PSoC4/LCD.c ****     *
 652:Generated_Source\PSoC4/LCD.c ****     * Summary:
 653:Generated_Source\PSoC4/LCD.c ****     *  Print an uint32 value as a left-justified decimal value.
 654:Generated_Source\PSoC4/LCD.c ****     *
 655:Generated_Source\PSoC4/LCD.c ****     * Parameters:
 656:Generated_Source\PSoC4/LCD.c ****     *  value: A 32-bit value to be printed in ASCII characters as a decimal number
 657:Generated_Source\PSoC4/LCD.c ****     *
 658:Generated_Source\PSoC4/LCD.c ****     * Return:
 659:Generated_Source\PSoC4/LCD.c ****     *  None.
 660:Generated_Source\PSoC4/LCD.c ****     *
 661:Generated_Source\PSoC4/LCD.c ****     *******************************************************************************/
 662:Generated_Source\PSoC4/LCD.c ****     void LCD_PrintU32Number(uint32 value) 
 663:Generated_Source\PSoC4/LCD.c ****     {
 870              		.loc 1 663 0
 871              		.cfi_startproc
 872              		@ args = 0, pretend = 0, frame = 16
 873              		@ frame_needed = 0, uses_anonymous_args = 0
 874              	.LVL102:
 875 0000 30B5     		push	{r4, r5, lr}
 876              		.cfi_def_cfa_offset 12
 877              		.cfi_offset 4, -12
 878              		.cfi_offset 5, -8
 879              		.cfi_offset 14, -4
 880 0002 85B0     		sub	sp, sp, #20
 881              		.cfi_def_cfa_offset 32
 882 0004 0400     		movs	r4, r0
 883              	.LVL103:
ARM GAS  C:\Users\juano\AppData\Local\Temp\cc6zp2zl.s 			page 30


 664:Generated_Source\PSoC4/LCD.c ****         uint8 tmpDigit;
 665:Generated_Source\PSoC4/LCD.c ****         char8 number[LCD_NUMBER_OF_REMAINDERS_U32 + 1u];
 666:Generated_Source\PSoC4/LCD.c ****         uint8 digIndex = LCD_NUMBER_OF_REMAINDERS_U32;
 667:Generated_Source\PSoC4/LCD.c ****         
 668:Generated_Source\PSoC4/LCD.c ****         /* This API will output a decimal number as a string and that string will be 
 669:Generated_Source\PSoC4/LCD.c ****         * filled from end to start. Set Null termination character first.
 670:Generated_Source\PSoC4/LCD.c ****         */
 671:Generated_Source\PSoC4/LCD.c ****         number[digIndex] = (char8) '\0';
 884              		.loc 1 671 0
 885 0006 0022     		movs	r2, #0
 886 0008 01AB     		add	r3, sp, #4
 887 000a 9A72     		strb	r2, [r3, #10]
 888              	.LVL104:
 672:Generated_Source\PSoC4/LCD.c ****         digIndex--;
 889              		.loc 1 672 0
 890 000c 0925     		movs	r5, #9
 673:Generated_Source\PSoC4/LCD.c ****         
 674:Generated_Source\PSoC4/LCD.c ****         /* Load these in reverse order */
 675:Generated_Source\PSoC4/LCD.c ****         while(value >= LCD_TEN)
 891              		.loc 1 675 0
 892 000e 0EE0     		b	.L46
 893              	.LVL105:
 894              	.L47:
 676:Generated_Source\PSoC4/LCD.c ****         {
 677:Generated_Source\PSoC4/LCD.c ****             /* Extract decimal digit, indexed by 'digIndex', from 'value' and
 678:Generated_Source\PSoC4/LCD.c ****             * convert it to ASCII character.
 679:Generated_Source\PSoC4/LCD.c ****             */
 680:Generated_Source\PSoC4/LCD.c ****             tmpDigit = (uint8) (((uint8) (value % LCD_TEN)) + (uint8) LCD_ZERO_CHAR_ASCII);
 895              		.loc 1 680 0
 896 0010 0A21     		movs	r1, #10
 897 0012 2000     		movs	r0, r4
 898              	.LVL106:
 899 0014 FFF7FEFF 		bl	__aeabi_uidivmod
 900              	.LVL107:
 901 0018 C9B2     		uxtb	r1, r1
 902 001a 3031     		adds	r1, r1, #48
 903              	.LVL108:
 681:Generated_Source\PSoC4/LCD.c ****             
 682:Generated_Source\PSoC4/LCD.c ****             /* Temporary variable 'tmpDigit' is used to avoid Violation of MISRA rule 
 683:Generated_Source\PSoC4/LCD.c ****             * #10.3.
 684:Generated_Source\PSoC4/LCD.c ****             */
 685:Generated_Source\PSoC4/LCD.c ****             number[digIndex] = (char8) tmpDigit;
 904              		.loc 1 685 0
 905 001c 01AB     		add	r3, sp, #4
 906 001e 5955     		strb	r1, [r3, r5]
 686:Generated_Source\PSoC4/LCD.c ****             value /= LCD_TEN;
 907              		.loc 1 686 0
 908 0020 0A21     		movs	r1, #10
 909              	.LVL109:
 910 0022 2000     		movs	r0, r4
 911 0024 FFF7FEFF 		bl	__aeabi_uidiv
 912              	.LVL110:
 913 0028 0400     		movs	r4, r0
 914              	.LVL111:
 687:Generated_Source\PSoC4/LCD.c ****             digIndex--;
 915              		.loc 1 687 0
 916 002a 013D     		subs	r5, r5, #1
ARM GAS  C:\Users\juano\AppData\Local\Temp\cc6zp2zl.s 			page 31


 917              	.LVL112:
 918 002c EDB2     		uxtb	r5, r5
 919              	.LVL113:
 920              	.L46:
 675:Generated_Source\PSoC4/LCD.c ****         {
 921              		.loc 1 675 0
 922 002e 092C     		cmp	r4, #9
 923 0030 EED8     		bhi	.L47
 688:Generated_Source\PSoC4/LCD.c ****         }
 689:Generated_Source\PSoC4/LCD.c ****         
 690:Generated_Source\PSoC4/LCD.c ****         /* Extract last decimal digit 'digIndex', from the 'value' and convert it
 691:Generated_Source\PSoC4/LCD.c ****         * to ASCII character.
 692:Generated_Source\PSoC4/LCD.c ****         */
 693:Generated_Source\PSoC4/LCD.c ****         tmpDigit = (uint8) (((uint8)(value % LCD_TEN)) + (uint8) LCD_ZERO_CHAR_ASCII);
 924              		.loc 1 693 0
 925 0032 0A21     		movs	r1, #10
 926 0034 2000     		movs	r0, r4
 927 0036 FFF7FEFF 		bl	__aeabi_uidivmod
 928              	.LVL114:
 929 003a C9B2     		uxtb	r1, r1
 930 003c 3031     		adds	r1, r1, #48
 931              	.LVL115:
 694:Generated_Source\PSoC4/LCD.c ****         number[digIndex] = (char8) tmpDigit;
 932              		.loc 1 694 0
 933 003e 01A8     		add	r0, sp, #4
 934 0040 4155     		strb	r1, [r0, r5]
 695:Generated_Source\PSoC4/LCD.c **** 
 696:Generated_Source\PSoC4/LCD.c ****         /* Print out number */
 697:Generated_Source\PSoC4/LCD.c ****         LCD_PrintString(&number[digIndex]);
 935              		.loc 1 697 0
 936 0042 4019     		adds	r0, r0, r5
 937 0044 FFF7FEFF 		bl	LCD_PrintString
 938              	.LVL116:
 698:Generated_Source\PSoC4/LCD.c ****     }
 939              		.loc 1 698 0
 940 0048 05B0     		add	sp, sp, #20
 941              		@ sp needed
 942              	.LVL117:
 943              	.LVL118:
 944 004a 30BD     		pop	{r4, r5, pc}
 945              		.cfi_endproc
 946              	.LFE17:
 947              		.size	LCD_PrintU32Number, .-LCD_PrintU32Number
 948              		.global	LCD_initVar
 949              		.global	LCD_enableState
 950              		.section	.rodata
 951              		.align	2
 952              		.set	.LANCHOR1,. + 0
 953              		.type	LCD_hex.4969, %object
 954              		.size	LCD_hex.4969, 16
 955              	LCD_hex.4969:
 956 0000 30313233 		.ascii	"0123456789ABCDEF"
 956      34353637 
 956      38394142 
 956      43444546 
 957              		.bss
 958              		.set	.LANCHOR0,. + 0
ARM GAS  C:\Users\juano\AppData\Local\Temp\cc6zp2zl.s 			page 32


 959              		.type	LCD_enableState, %object
 960              		.size	LCD_enableState, 1
 961              	LCD_enableState:
 962 0000 00       		.space	1
 963              		.type	LCD_initVar, %object
 964              		.size	LCD_initVar, 1
 965              	LCD_initVar:
 966 0001 00       		.space	1
 967              		.text
 968              	.Letext0:
 969              		.file 2 "Generated_Source\\PSoC4\\cytypes.h"
 970              		.file 3 "Generated_Source\\PSoC4\\LCD.h"
 971              		.file 4 "Generated_Source\\PSoC4\\CyLib.h"
