ARM GAS  C:\Users\juano\AppData\Local\Temp\ccicpn4E.s 			page 1


   1              		.syntax unified
   2              		.cpu cortex-m0
   3              		.fpu softvfp
   4              		.eabi_attribute 20, 1
   5              		.eabi_attribute 21, 1
   6              		.eabi_attribute 23, 3
   7              		.eabi_attribute 24, 1
   8              		.eabi_attribute 25, 1
   9              		.eabi_attribute 26, 1
  10              		.eabi_attribute 30, 1
  11              		.eabi_attribute 34, 0
  12              		.eabi_attribute 18, 4
  13              		.thumb
  14              		.syntax unified
  15              		.file	"LCD_BarGraph.c"
  16              		.text
  17              	.Ltext0:
  18              		.cfi_sections	.debug_frame
  19              		.section	.text.LCD_LoadCustomFonts,"ax",%progbits
  20              		.align	2
  21              		.global	LCD_LoadCustomFonts
  22              		.code	16
  23              		.thumb_func
  24              		.type	LCD_LoadCustomFonts, %function
  25              	LCD_LoadCustomFonts:
  26              	.LFB0:
  27              		.file 1 "Generated_Source\\PSoC4\\LCD_BarGraph.c"
   1:Generated_Source\PSoC4/LCD_BarGraph.c **** /*******************************************************************************
   2:Generated_Source\PSoC4/LCD_BarGraph.c **** * File Name: LCD_BarGraph.c
   3:Generated_Source\PSoC4/LCD_BarGraph.c **** * Version 2.20
   4:Generated_Source\PSoC4/LCD_BarGraph.c **** *
   5:Generated_Source\PSoC4/LCD_BarGraph.c **** * Description:
   6:Generated_Source\PSoC4/LCD_BarGraph.c **** *  This file provides the custom character data and API for creating and using
   7:Generated_Source\PSoC4/LCD_BarGraph.c **** *  bar graphs with the Character LCD component.
   8:Generated_Source\PSoC4/LCD_BarGraph.c **** *
   9:Generated_Source\PSoC4/LCD_BarGraph.c **** * Note:
  10:Generated_Source\PSoC4/LCD_BarGraph.c **** *
  11:Generated_Source\PSoC4/LCD_BarGraph.c **** ********************************************************************************
  12:Generated_Source\PSoC4/LCD_BarGraph.c **** * Copyright 2008-2014, Cypress Semiconductor Corporation.  All rights reserved.
  13:Generated_Source\PSoC4/LCD_BarGraph.c **** * You may use this file only in accordance with the license, terms, conditions,
  14:Generated_Source\PSoC4/LCD_BarGraph.c **** * disclaimers, and limitations in the end user license agreement accompanying
  15:Generated_Source\PSoC4/LCD_BarGraph.c **** * the software package with which this file was provided.
  16:Generated_Source\PSoC4/LCD_BarGraph.c **** *******************************************************************************/
  17:Generated_Source\PSoC4/LCD_BarGraph.c **** 
  18:Generated_Source\PSoC4/LCD_BarGraph.c **** #include "LCD.h"
  19:Generated_Source\PSoC4/LCD_BarGraph.c **** 
  20:Generated_Source\PSoC4/LCD_BarGraph.c **** 
  21:Generated_Source\PSoC4/LCD_BarGraph.c **** uint8 const CYCODE LCD_customFonts[] = \
  22:Generated_Source\PSoC4/LCD_BarGraph.c **** {
  23:Generated_Source\PSoC4/LCD_BarGraph.c ****     /* Character LCD_CUSTOM_0   */
  24:Generated_Source\PSoC4/LCD_BarGraph.c ****     0x00u,    0x00u,    0x00u,    0x00u,    0x00u,    0x00u,    0x00u,    0x1Fu, \
  25:Generated_Source\PSoC4/LCD_BarGraph.c ****     /* Character LCD_CUSTOM_1   */
  26:Generated_Source\PSoC4/LCD_BarGraph.c ****     0x00u,    0x00u,    0x00u,    0x00u,    0x00u,    0x00u,    0x1Fu,    0x1Fu, \
  27:Generated_Source\PSoC4/LCD_BarGraph.c ****     /* Character LCD_CUSTOM_2   */
  28:Generated_Source\PSoC4/LCD_BarGraph.c ****     0x00u,    0x00u,    0x00u,    0x00u,    0x00u,    0x1Fu,    0x1Fu,    0x1Fu, \
  29:Generated_Source\PSoC4/LCD_BarGraph.c ****     /* Character LCD_CUSTOM_3   */
  30:Generated_Source\PSoC4/LCD_BarGraph.c ****     0x00u,    0x00u,    0x00u,    0x00u,    0x1Fu,    0x1Fu,    0x1Fu,    0x1Fu, \
ARM GAS  C:\Users\juano\AppData\Local\Temp\ccicpn4E.s 			page 2


  31:Generated_Source\PSoC4/LCD_BarGraph.c ****     /* Character LCD_CUSTOM_4   */
  32:Generated_Source\PSoC4/LCD_BarGraph.c ****     0x00u,    0x00u,    0x00u,    0x1Fu,    0x1Fu,    0x1Fu,    0x1Fu,    0x1Fu, \
  33:Generated_Source\PSoC4/LCD_BarGraph.c ****     /* Character LCD_CUSTOM_5   */
  34:Generated_Source\PSoC4/LCD_BarGraph.c ****     0x00u,    0x00u,    0x1Fu,    0x1Fu,    0x1Fu,    0x1Fu,    0x1Fu,    0x1Fu, \
  35:Generated_Source\PSoC4/LCD_BarGraph.c ****     /* Character LCD_CUSTOM_6   */
  36:Generated_Source\PSoC4/LCD_BarGraph.c ****     0x00u,    0x1Fu,    0x1Fu,    0x1Fu,    0x1Fu,    0x1Fu,    0x1Fu,    0x1Fu, \
  37:Generated_Source\PSoC4/LCD_BarGraph.c ****     /* Character LCD_CUSTOM_7   */
  38:Generated_Source\PSoC4/LCD_BarGraph.c ****     0x1Fu,    0x1Fu,    0x1Fu,    0x1Fu,    0x1Fu,    0x1Fu,    0x1Fu,    0x1Fu \
  39:Generated_Source\PSoC4/LCD_BarGraph.c **** };
  40:Generated_Source\PSoC4/LCD_BarGraph.c **** 
  41:Generated_Source\PSoC4/LCD_BarGraph.c **** 
  42:Generated_Source\PSoC4/LCD_BarGraph.c **** /*******************************************************************************
  43:Generated_Source\PSoC4/LCD_BarGraph.c **** * Function Name: LCD_LoadCustomFonts
  44:Generated_Source\PSoC4/LCD_BarGraph.c **** ********************************************************************************
  45:Generated_Source\PSoC4/LCD_BarGraph.c **** *
  46:Generated_Source\PSoC4/LCD_BarGraph.c **** * Summary:
  47:Generated_Source\PSoC4/LCD_BarGraph.c **** *  Loads 8 custom font characters into the LCD Module for use.  Cannot use
  48:Generated_Source\PSoC4/LCD_BarGraph.c **** *  characters from two different font sets at once, but font sets can be
  49:Generated_Source\PSoC4/LCD_BarGraph.c **** *  switched out during runtime.
  50:Generated_Source\PSoC4/LCD_BarGraph.c **** *
  51:Generated_Source\PSoC4/LCD_BarGraph.c **** * Parameters:
  52:Generated_Source\PSoC4/LCD_BarGraph.c **** *  customData:  pointer to a constant array of 64 bytes representing 8 custom
  53:Generated_Source\PSoC4/LCD_BarGraph.c **** *               font characters.
  54:Generated_Source\PSoC4/LCD_BarGraph.c **** * Return:
  55:Generated_Source\PSoC4/LCD_BarGraph.c **** *  None.
  56:Generated_Source\PSoC4/LCD_BarGraph.c **** *
  57:Generated_Source\PSoC4/LCD_BarGraph.c **** * Theory:
  58:Generated_Source\PSoC4/LCD_BarGraph.c **** *  Prior to using this function user need to import the pointer to custom
  59:Generated_Source\PSoC4/LCD_BarGraph.c **** *  font array to your project by writting the following in the source code file
  60:Generated_Source\PSoC4/LCD_BarGraph.c **** *  where custom font will be used:
  61:Generated_Source\PSoC4/LCD_BarGraph.c **** *       extern uint8 const CYCODE LCD_Char_customFonts[];
  62:Generated_Source\PSoC4/LCD_BarGraph.c **** *  This function is not automatically called by the Start() routine and must be
  63:Generated_Source\PSoC4/LCD_BarGraph.c **** *  called manually by the user.
  64:Generated_Source\PSoC4/LCD_BarGraph.c **** *******************************************************************************/
  65:Generated_Source\PSoC4/LCD_BarGraph.c **** void LCD_LoadCustomFonts(uint8 const customData[]) 
  66:Generated_Source\PSoC4/LCD_BarGraph.c **** {
  28              		.loc 1 66 0
  29              		.cfi_startproc
  30              		@ args = 0, pretend = 0, frame = 0
  31              		@ frame_needed = 0, uses_anonymous_args = 0
  32              	.LVL0:
  33 0000 70B5     		push	{r4, r5, r6, lr}
  34              		.cfi_def_cfa_offset 16
  35              		.cfi_offset 4, -16
  36              		.cfi_offset 5, -12
  37              		.cfi_offset 6, -8
  38              		.cfi_offset 14, -4
  39 0002 0500     		movs	r5, r0
  67:Generated_Source\PSoC4/LCD_BarGraph.c ****     uint8 indexU8;
  68:Generated_Source\PSoC4/LCD_BarGraph.c **** 
  69:Generated_Source\PSoC4/LCD_BarGraph.c ****     LCD_IsReady();
  40              		.loc 1 69 0
  41 0004 FFF7FEFF 		bl	LCD_IsReady
  42              	.LVL1:
  70:Generated_Source\PSoC4/LCD_BarGraph.c ****     /* Set starting address in the LCD Module */
  71:Generated_Source\PSoC4/LCD_BarGraph.c ****     /* Optionally: Read the current address to restore at a later time */
  72:Generated_Source\PSoC4/LCD_BarGraph.c ****     LCD_WriteControl(LCD_CGRAM_0);
ARM GAS  C:\Users\juano\AppData\Local\Temp\ccicpn4E.s 			page 3


  43              		.loc 1 72 0
  44 0008 4020     		movs	r0, #64
  45 000a FFF7FEFF 		bl	LCD_WriteControl
  46              	.LVL2:
  73:Generated_Source\PSoC4/LCD_BarGraph.c **** 
  74:Generated_Source\PSoC4/LCD_BarGraph.c ****     /* Load in the 64 bytes of CustomChar Data */
  75:Generated_Source\PSoC4/LCD_BarGraph.c ****     for(indexU8 = 0u; indexU8 < LCD_CUSTOM_CHAR_SET_LEN; indexU8++)
  47              		.loc 1 75 0
  48 000e 0024     		movs	r4, #0
  49 0010 04E0     		b	.L2
  50              	.LVL3:
  51              	.L3:
  76:Generated_Source\PSoC4/LCD_BarGraph.c ****     {
  77:Generated_Source\PSoC4/LCD_BarGraph.c ****         /* Delay between each write */
  78:Generated_Source\PSoC4/LCD_BarGraph.c ****         LCD_WriteData(customData[indexU8]);
  52              		.loc 1 78 0 discriminator 3
  53 0012 285D     		ldrb	r0, [r5, r4]
  54 0014 FFF7FEFF 		bl	LCD_WriteData
  55              	.LVL4:
  75:Generated_Source\PSoC4/LCD_BarGraph.c ****     {
  56              		.loc 1 75 0 discriminator 3
  57 0018 0134     		adds	r4, r4, #1
  58              	.LVL5:
  59 001a E4B2     		uxtb	r4, r4
  60              	.LVL6:
  61              	.L2:
  75:Generated_Source\PSoC4/LCD_BarGraph.c ****     {
  62              		.loc 1 75 0 is_stmt 0 discriminator 1
  63 001c 3F2C     		cmp	r4, #63
  64 001e F8D9     		bls	.L3
  79:Generated_Source\PSoC4/LCD_BarGraph.c ****     }
  80:Generated_Source\PSoC4/LCD_BarGraph.c **** 
  81:Generated_Source\PSoC4/LCD_BarGraph.c ****     LCD_IsReady();
  65              		.loc 1 81 0 is_stmt 1
  66 0020 FFF7FEFF 		bl	LCD_IsReady
  67              	.LVL7:
  82:Generated_Source\PSoC4/LCD_BarGraph.c ****     LCD_WriteControl(LCD_DDRAM_0);
  68              		.loc 1 82 0
  69 0024 8020     		movs	r0, #128
  70 0026 FFF7FEFF 		bl	LCD_WriteControl
  71              	.LVL8:
  83:Generated_Source\PSoC4/LCD_BarGraph.c **** }
  72              		.loc 1 83 0
  73              		@ sp needed
  74              	.LVL9:
  75              	.LVL10:
  76 002a 70BD     		pop	{r4, r5, r6, pc}
  77              		.cfi_endproc
  78              	.LFE0:
  79              		.size	LCD_LoadCustomFonts, .-LCD_LoadCustomFonts
  80              		.section	.text.LCD_DrawVerticalBG,"ax",%progbits
  81              		.align	2
  82              		.global	LCD_DrawVerticalBG
  83              		.code	16
  84              		.thumb_func
  85              		.type	LCD_DrawVerticalBG, %function
  86              	LCD_DrawVerticalBG:
ARM GAS  C:\Users\juano\AppData\Local\Temp\ccicpn4E.s 			page 4


  87              	.LFB1:
  84:Generated_Source\PSoC4/LCD_BarGraph.c **** 
  85:Generated_Source\PSoC4/LCD_BarGraph.c **** 
  86:Generated_Source\PSoC4/LCD_BarGraph.c **** #if (LCD_CUSTOM_CHAR_SET == LCD_HORIZONTAL_BG)
  87:Generated_Source\PSoC4/LCD_BarGraph.c **** 
  88:Generated_Source\PSoC4/LCD_BarGraph.c ****     /*******************************************************************************
  89:Generated_Source\PSoC4/LCD_BarGraph.c ****     * Function Name: LCD_DrawHorizontalBG
  90:Generated_Source\PSoC4/LCD_BarGraph.c ****     ********************************************************************************
  91:Generated_Source\PSoC4/LCD_BarGraph.c ****     *
  92:Generated_Source\PSoC4/LCD_BarGraph.c ****     * Summary:
  93:Generated_Source\PSoC4/LCD_BarGraph.c ****     *  Draws the horizontal bargraph.
  94:Generated_Source\PSoC4/LCD_BarGraph.c ****     *
  95:Generated_Source\PSoC4/LCD_BarGraph.c ****     * Parameters:
  96:Generated_Source\PSoC4/LCD_BarGraph.c ****     *  row:            The row in which the bar graph starts.
  97:Generated_Source\PSoC4/LCD_BarGraph.c ****     *  column:         The column in which the bar graph starts.
  98:Generated_Source\PSoC4/LCD_BarGraph.c ****     *  maxCharacters:  The max length of the graph in whole characters.
  99:Generated_Source\PSoC4/LCD_BarGraph.c ****     *  value:          The current length or height of the graph in pixels.
 100:Generated_Source\PSoC4/LCD_BarGraph.c ****     *
 101:Generated_Source\PSoC4/LCD_BarGraph.c ****     * Return:
 102:Generated_Source\PSoC4/LCD_BarGraph.c ****     *  void.
 103:Generated_Source\PSoC4/LCD_BarGraph.c ****     *
 104:Generated_Source\PSoC4/LCD_BarGraph.c ****     *******************************************************************************/
 105:Generated_Source\PSoC4/LCD_BarGraph.c ****     void LCD_DrawHorizontalBG(uint8 row, uint8 column, uint8 maxCharacters, uint8 value) \
 106:Generated_Source\PSoC4/LCD_BarGraph.c ****                                                             
 107:Generated_Source\PSoC4/LCD_BarGraph.c ****     {
 108:Generated_Source\PSoC4/LCD_BarGraph.c ****         /* 8-bit Counter */
 109:Generated_Source\PSoC4/LCD_BarGraph.c ****         uint8 count8;
 110:Generated_Source\PSoC4/LCD_BarGraph.c ****         uint8 fullChars;
 111:Generated_Source\PSoC4/LCD_BarGraph.c ****         uint8 remainingPixels;
 112:Generated_Source\PSoC4/LCD_BarGraph.c **** 
 113:Generated_Source\PSoC4/LCD_BarGraph.c ****         /* Number of full characters to draw */
 114:Generated_Source\PSoC4/LCD_BarGraph.c ****         fullChars = value / LCD_CHARACTER_WIDTH;
 115:Generated_Source\PSoC4/LCD_BarGraph.c **** 
 116:Generated_Source\PSoC4/LCD_BarGraph.c ****         /* Number of remaining pixels to draw */
 117:Generated_Source\PSoC4/LCD_BarGraph.c ****         remainingPixels = value % LCD_CHARACTER_WIDTH;
 118:Generated_Source\PSoC4/LCD_BarGraph.c **** 
 119:Generated_Source\PSoC4/LCD_BarGraph.c ****         /* Ensure that the maximum character limit is followed. */
 120:Generated_Source\PSoC4/LCD_BarGraph.c ****         if(fullChars >= maxCharacters)
 121:Generated_Source\PSoC4/LCD_BarGraph.c ****         {
 122:Generated_Source\PSoC4/LCD_BarGraph.c ****             fullChars = maxCharacters;
 123:Generated_Source\PSoC4/LCD_BarGraph.c ****         }
 124:Generated_Source\PSoC4/LCD_BarGraph.c **** 
 125:Generated_Source\PSoC4/LCD_BarGraph.c ****         /* Put Cursor at start position */
 126:Generated_Source\PSoC4/LCD_BarGraph.c ****         LCD_Position(row, column);
 127:Generated_Source\PSoC4/LCD_BarGraph.c **** 
 128:Generated_Source\PSoC4/LCD_BarGraph.c ****         /* Write full characters */
 129:Generated_Source\PSoC4/LCD_BarGraph.c ****         for(count8 = 0u; count8 < fullChars; count8++)
 130:Generated_Source\PSoC4/LCD_BarGraph.c ****         {
 131:Generated_Source\PSoC4/LCD_BarGraph.c ****             LCD_WriteData(LCD_CUSTOM_5);
 132:Generated_Source\PSoC4/LCD_BarGraph.c ****         }
 133:Generated_Source\PSoC4/LCD_BarGraph.c **** 
 134:Generated_Source\PSoC4/LCD_BarGraph.c ****         if(fullChars < maxCharacters)
 135:Generated_Source\PSoC4/LCD_BarGraph.c ****         {
 136:Generated_Source\PSoC4/LCD_BarGraph.c ****             /* Write remaining pixels */
 137:Generated_Source\PSoC4/LCD_BarGraph.c ****             LCD_WriteData(remainingPixels);
 138:Generated_Source\PSoC4/LCD_BarGraph.c **** 
 139:Generated_Source\PSoC4/LCD_BarGraph.c ****             if(fullChars < (maxCharacters - 1u))
ARM GAS  C:\Users\juano\AppData\Local\Temp\ccicpn4E.s 			page 5


 140:Generated_Source\PSoC4/LCD_BarGraph.c ****             {
 141:Generated_Source\PSoC4/LCD_BarGraph.c ****                 /* Fill with whitespace to end of bar graph */
 142:Generated_Source\PSoC4/LCD_BarGraph.c ****                 for(count8 = 0u; count8 < (maxCharacters - fullChars - 1u); count8++)
 143:Generated_Source\PSoC4/LCD_BarGraph.c ****                 {
 144:Generated_Source\PSoC4/LCD_BarGraph.c ****                     LCD_WriteData(LCD_CUSTOM_0);
 145:Generated_Source\PSoC4/LCD_BarGraph.c ****                 }
 146:Generated_Source\PSoC4/LCD_BarGraph.c ****             }
 147:Generated_Source\PSoC4/LCD_BarGraph.c ****         }
 148:Generated_Source\PSoC4/LCD_BarGraph.c ****     }
 149:Generated_Source\PSoC4/LCD_BarGraph.c **** 
 150:Generated_Source\PSoC4/LCD_BarGraph.c **** #endif /* LCD_CUSTOM_CHAR_SET == LCD_HORIZONTAL_BG */
 151:Generated_Source\PSoC4/LCD_BarGraph.c **** 
 152:Generated_Source\PSoC4/LCD_BarGraph.c **** 
 153:Generated_Source\PSoC4/LCD_BarGraph.c **** #if (LCD_CUSTOM_CHAR_SET == LCD_VERTICAL_BG)
 154:Generated_Source\PSoC4/LCD_BarGraph.c **** 
 155:Generated_Source\PSoC4/LCD_BarGraph.c ****     /*******************************************************************************
 156:Generated_Source\PSoC4/LCD_BarGraph.c ****     *  Function Name: LCD_DrawVerticalBG
 157:Generated_Source\PSoC4/LCD_BarGraph.c ****     ********************************************************************************
 158:Generated_Source\PSoC4/LCD_BarGraph.c ****     *
 159:Generated_Source\PSoC4/LCD_BarGraph.c ****     * Summary:
 160:Generated_Source\PSoC4/LCD_BarGraph.c ****     *  Draws the vertical bargraph.
 161:Generated_Source\PSoC4/LCD_BarGraph.c ****     *
 162:Generated_Source\PSoC4/LCD_BarGraph.c ****     * Parameters:
 163:Generated_Source\PSoC4/LCD_BarGraph.c ****     *  row:            The row in which the bar graph starts.
 164:Generated_Source\PSoC4/LCD_BarGraph.c ****     *  column:         The column in which the bar graph starts.
 165:Generated_Source\PSoC4/LCD_BarGraph.c ****     *  maxCharacters:  The max height of the graph in whole characters.
 166:Generated_Source\PSoC4/LCD_BarGraph.c ****     *  value:          The current length or height of the graph in pixels.
 167:Generated_Source\PSoC4/LCD_BarGraph.c ****     *
 168:Generated_Source\PSoC4/LCD_BarGraph.c ****     * Return:
 169:Generated_Source\PSoC4/LCD_BarGraph.c ****     *  void.
 170:Generated_Source\PSoC4/LCD_BarGraph.c ****     *
 171:Generated_Source\PSoC4/LCD_BarGraph.c ****     *******************************************************************************/
 172:Generated_Source\PSoC4/LCD_BarGraph.c ****     void LCD_DrawVerticalBG(uint8 row, uint8 column, uint8 maxCharacters, uint8 value) \
 173:Generated_Source\PSoC4/LCD_BarGraph.c ****                                                             
 174:Generated_Source\PSoC4/LCD_BarGraph.c ****     {
  88              		.loc 1 174 0
  89              		.cfi_startproc
  90              		@ args = 0, pretend = 0, frame = 8
  91              		@ frame_needed = 0, uses_anonymous_args = 0
  92              	.LVL11:
  93 0000 F0B5     		push	{r4, r5, r6, r7, lr}
  94              		.cfi_def_cfa_offset 20
  95              		.cfi_offset 4, -20
  96              		.cfi_offset 5, -16
  97              		.cfi_offset 6, -12
  98              		.cfi_offset 7, -8
  99              		.cfi_offset 14, -4
 100 0002 4F46     		mov	r7, r9
 101 0004 80B4     		push	{r7}
 102              		.cfi_def_cfa_offset 24
 103              		.cfi_offset 9, -24
 104 0006 82B0     		sub	sp, sp, #8
 105              		.cfi_def_cfa_offset 32
 106 0008 0600     		movs	r6, r0
 107 000a 0191     		str	r1, [sp, #4]
 108 000c 1500     		movs	r5, r2
 109              	.LVL12:
ARM GAS  C:\Users\juano\AppData\Local\Temp\ccicpn4E.s 			page 6


 175:Generated_Source\PSoC4/LCD_BarGraph.c ****         /* 8-bit Counter */
 176:Generated_Source\PSoC4/LCD_BarGraph.c ****         uint8 count8 = 0u;
 177:Generated_Source\PSoC4/LCD_BarGraph.c ****         /* Current Row Tracker */
 178:Generated_Source\PSoC4/LCD_BarGraph.c ****         int8 currentRow;
 179:Generated_Source\PSoC4/LCD_BarGraph.c ****         uint8 fullChars;
 180:Generated_Source\PSoC4/LCD_BarGraph.c ****         uint8 remainingPixels;
 181:Generated_Source\PSoC4/LCD_BarGraph.c **** 
 182:Generated_Source\PSoC4/LCD_BarGraph.c ****         /* Number of full characters to draw */
 183:Generated_Source\PSoC4/LCD_BarGraph.c ****         fullChars = value / LCD_CHARACTER_HEIGHT;
 110              		.loc 1 183 0
 111 000e DF08     		lsrs	r7, r3, #3
 112              	.LVL13:
 184:Generated_Source\PSoC4/LCD_BarGraph.c **** 
 185:Generated_Source\PSoC4/LCD_BarGraph.c ****         /* Number of remaining pixels to draw */
 186:Generated_Source\PSoC4/LCD_BarGraph.c ****         remainingPixels = value % LCD_CHARACTER_HEIGHT;
 113              		.loc 1 186 0
 114 0010 0720     		movs	r0, #7
 115              	.LVL14:
 116 0012 1840     		ands	r0, r3
 117 0014 8146     		mov	r9, r0
 118              	.LVL15:
 187:Generated_Source\PSoC4/LCD_BarGraph.c **** 
 188:Generated_Source\PSoC4/LCD_BarGraph.c ****         /* Put Cursor at start position */
 189:Generated_Source\PSoC4/LCD_BarGraph.c ****         LCD_Position(row, column);
 119              		.loc 1 189 0
 120 0016 3000     		movs	r0, r6
 121 0018 FFF7FEFF 		bl	LCD_Position
 122              	.LVL16:
 190:Generated_Source\PSoC4/LCD_BarGraph.c **** 
 191:Generated_Source\PSoC4/LCD_BarGraph.c ****         /* Make sure the bar graph fits inside the space allotted */
 192:Generated_Source\PSoC4/LCD_BarGraph.c ****         if(fullChars >= maxCharacters)
 123              		.loc 1 192 0
 124 001c AF42     		cmp	r7, r5
 125 001e 00D3     		bcc	.L5
 193:Generated_Source\PSoC4/LCD_BarGraph.c ****         {
 194:Generated_Source\PSoC4/LCD_BarGraph.c ****             fullChars = maxCharacters;
 126              		.loc 1 194 0
 127 0020 2F00     		movs	r7, r5
 128              	.LVL17:
 129              	.L5:
 130 0022 0024     		movs	r4, #0
 131 0024 0DE0     		b	.L6
 132              	.LVL18:
 133              	.L8:
 195:Generated_Source\PSoC4/LCD_BarGraph.c ****         }
 196:Generated_Source\PSoC4/LCD_BarGraph.c **** 
 197:Generated_Source\PSoC4/LCD_BarGraph.c ****         /*  Write full characters */
 198:Generated_Source\PSoC4/LCD_BarGraph.c ****         while(count8 < fullChars)
 199:Generated_Source\PSoC4/LCD_BarGraph.c ****         {
 200:Generated_Source\PSoC4/LCD_BarGraph.c ****             LCD_WriteData(LCD_CUSTOM_7);
 134              		.loc 1 200 0
 135 0026 0720     		movs	r0, #7
 136 0028 FFF7FEFF 		bl	LCD_WriteData
 137              	.LVL19:
 201:Generated_Source\PSoC4/LCD_BarGraph.c **** 
 202:Generated_Source\PSoC4/LCD_BarGraph.c ****             count8++;
 138              		.loc 1 202 0
ARM GAS  C:\Users\juano\AppData\Local\Temp\ccicpn4E.s 			page 7


 139 002c 0134     		adds	r4, r4, #1
 140              	.LVL20:
 141 002e E4B2     		uxtb	r4, r4
 142              	.LVL21:
 203:Generated_Source\PSoC4/LCD_BarGraph.c **** 
 204:Generated_Source\PSoC4/LCD_BarGraph.c ****             /* Each pass through, move one row higher */
 205:Generated_Source\PSoC4/LCD_BarGraph.c ****             if((((int8) row) - ((int8) count8)) >= 0)
 143              		.loc 1 205 0
 144 0030 72B2     		sxtb	r2, r6
 145 0032 63B2     		sxtb	r3, r4
 146 0034 D21A     		subs	r2, r2, r3
 147 0036 06D4     		bmi	.L7
 206:Generated_Source\PSoC4/LCD_BarGraph.c ****             {
 207:Generated_Source\PSoC4/LCD_BarGraph.c ****                 LCD_Position(row - count8, column);
 148              		.loc 1 207 0
 149 0038 301B     		subs	r0, r6, r4
 150 003a C0B2     		uxtb	r0, r0
 151 003c 0199     		ldr	r1, [sp, #4]
 152 003e FFF7FEFF 		bl	LCD_Position
 153              	.LVL22:
 154              	.L6:
 198:Generated_Source\PSoC4/LCD_BarGraph.c ****         {
 155              		.loc 1 198 0
 156 0042 BC42     		cmp	r4, r7
 157 0044 EFD3     		bcc	.L8
 158              	.L7:
 208:Generated_Source\PSoC4/LCD_BarGraph.c ****             }
 209:Generated_Source\PSoC4/LCD_BarGraph.c ****             else
 210:Generated_Source\PSoC4/LCD_BarGraph.c ****             {
 211:Generated_Source\PSoC4/LCD_BarGraph.c ****                 break;
 212:Generated_Source\PSoC4/LCD_BarGraph.c ****             }
 213:Generated_Source\PSoC4/LCD_BarGraph.c ****         }
 214:Generated_Source\PSoC4/LCD_BarGraph.c **** 
 215:Generated_Source\PSoC4/LCD_BarGraph.c ****         if(((((int8) row) - ((int8) count8)) >= 0) && (fullChars < maxCharacters))
 159              		.loc 1 215 0
 160 0046 73B2     		sxtb	r3, r6
 161 0048 62B2     		sxtb	r2, r4
 162 004a 9B1A     		subs	r3, r3, r2
 163 004c 25D4     		bmi	.L4
 164              		.loc 1 215 0 is_stmt 0 discriminator 1
 165 004e BD42     		cmp	r5, r7
 166 0050 23D9     		bls	.L4
 216:Generated_Source\PSoC4/LCD_BarGraph.c ****         {
 217:Generated_Source\PSoC4/LCD_BarGraph.c ****             /* Write remaining pixels */
 218:Generated_Source\PSoC4/LCD_BarGraph.c ****             if(remainingPixels == 0u)
 167              		.loc 1 218 0 is_stmt 1
 168 0052 4B46     		mov	r3, r9
 169 0054 002B     		cmp	r3, #0
 170 0056 03D1     		bne	.L10
 219:Generated_Source\PSoC4/LCD_BarGraph.c ****             {
 220:Generated_Source\PSoC4/LCD_BarGraph.c ****                 LCD_WriteData((uint8) ' ');
 171              		.loc 1 220 0
 172 0058 2020     		movs	r0, #32
 173 005a FFF7FEFF 		bl	LCD_WriteData
 174              	.LVL23:
 175 005e 04E0     		b	.L11
 176              	.L10:
ARM GAS  C:\Users\juano\AppData\Local\Temp\ccicpn4E.s 			page 8


 221:Generated_Source\PSoC4/LCD_BarGraph.c ****             }
 222:Generated_Source\PSoC4/LCD_BarGraph.c ****             else
 223:Generated_Source\PSoC4/LCD_BarGraph.c ****             {
 224:Generated_Source\PSoC4/LCD_BarGraph.c ****                 LCD_WriteData(remainingPixels - 1u);
 177              		.loc 1 224 0
 178 0060 4B46     		mov	r3, r9
 179 0062 013B     		subs	r3, r3, #1
 180 0064 D8B2     		uxtb	r0, r3
 181 0066 FFF7FEFF 		bl	LCD_WriteData
 182              	.LVL24:
 183              	.L11:
 225:Generated_Source\PSoC4/LCD_BarGraph.c ****             }
 226:Generated_Source\PSoC4/LCD_BarGraph.c **** 
 227:Generated_Source\PSoC4/LCD_BarGraph.c ****             currentRow = ((int8) row) - ((int8) count8) - 1;
 184              		.loc 1 227 0
 185 006a 341B     		subs	r4, r6, r4
 186              	.LVL25:
 187 006c 013C     		subs	r4, r4, #1
 188 006e 64B2     		sxtb	r4, r4
 189              	.LVL26:
 228:Generated_Source\PSoC4/LCD_BarGraph.c **** 
 229:Generated_Source\PSoC4/LCD_BarGraph.c ****             if(currentRow >= 0)
 190              		.loc 1 229 0
 191 0070 002C     		cmp	r4, #0
 192 0072 0DDA     		bge	.L15
 193 0074 11E0     		b	.L4
 194              	.LVL27:
 195              	.L13:
 230:Generated_Source\PSoC4/LCD_BarGraph.c ****             {
 231:Generated_Source\PSoC4/LCD_BarGraph.c ****                 /* Move up one row and fill with whitespace till top of bar graph */
 232:Generated_Source\PSoC4/LCD_BarGraph.c ****                 for(count8 = 0u; count8 < (maxCharacters - fullChars - 1u); count8++)
 233:Generated_Source\PSoC4/LCD_BarGraph.c ****                 {
 234:Generated_Source\PSoC4/LCD_BarGraph.c ****                     LCD_Position((uint8)currentRow, column);
 196              		.loc 1 234 0 discriminator 3
 197 0076 E4B2     		uxtb	r4, r4
 198 0078 0199     		ldr	r1, [sp, #4]
 199 007a 2000     		movs	r0, r4
 200 007c FFF7FEFF 		bl	LCD_Position
 201              	.LVL28:
 235:Generated_Source\PSoC4/LCD_BarGraph.c ****                     LCD_WriteData((uint8) ' ');
 202              		.loc 1 235 0 discriminator 3
 203 0080 2020     		movs	r0, #32
 204 0082 FFF7FEFF 		bl	LCD_WriteData
 205              	.LVL29:
 236:Generated_Source\PSoC4/LCD_BarGraph.c ****                     currentRow --;
 206              		.loc 1 236 0 discriminator 3
 207 0086 013C     		subs	r4, r4, #1
 208              	.LVL30:
 209 0088 64B2     		sxtb	r4, r4
 210              	.LVL31:
 232:Generated_Source\PSoC4/LCD_BarGraph.c ****                 {
 211              		.loc 1 232 0 discriminator 3
 212 008a 0136     		adds	r6, r6, #1
 213              	.LVL32:
 214 008c F6B2     		uxtb	r6, r6
 215              	.LVL33:
 216 008e 00E0     		b	.L12
ARM GAS  C:\Users\juano\AppData\Local\Temp\ccicpn4E.s 			page 9


 217              	.LVL34:
 218              	.L15:
 219 0090 0026     		movs	r6, #0
 220              	.L12:
 221              	.LVL35:
 232:Generated_Source\PSoC4/LCD_BarGraph.c ****                 {
 222              		.loc 1 232 0 is_stmt 0 discriminator 1
 223 0092 EB1B     		subs	r3, r5, r7
 224 0094 013B     		subs	r3, r3, #1
 225 0096 9E42     		cmp	r6, r3
 226 0098 EDD3     		bcc	.L13
 227              	.LVL36:
 228              	.L4:
 237:Generated_Source\PSoC4/LCD_BarGraph.c ****                 }
 238:Generated_Source\PSoC4/LCD_BarGraph.c ****             }
 239:Generated_Source\PSoC4/LCD_BarGraph.c ****         }
 240:Generated_Source\PSoC4/LCD_BarGraph.c ****     }
 229              		.loc 1 240 0 is_stmt 1
 230 009a 02B0     		add	sp, sp, #8
 231              		@ sp needed
 232              	.LVL37:
 233              	.LVL38:
 234 009c 04BC     		pop	{r2}
 235 009e 9146     		mov	r9, r2
 236 00a0 F0BD     		pop	{r4, r5, r6, r7, pc}
 237              		.cfi_endproc
 238              	.LFE1:
 239              		.size	LCD_DrawVerticalBG, .-LCD_DrawVerticalBG
 240              		.global	LCD_customFonts
 241 00a2 C046     		.section	.rodata
 242              		.align	2
 243              		.type	LCD_customFonts, %object
 244              		.size	LCD_customFonts, 64
 245              	LCD_customFonts:
 246 0000 00       		.byte	0
 247 0001 00       		.byte	0
 248 0002 00       		.byte	0
 249 0003 00       		.byte	0
 250 0004 00       		.byte	0
 251 0005 00       		.byte	0
 252 0006 00       		.byte	0
 253 0007 1F       		.byte	31
 254 0008 00       		.byte	0
 255 0009 00       		.byte	0
 256 000a 00       		.byte	0
 257 000b 00       		.byte	0
 258 000c 00       		.byte	0
 259 000d 00       		.byte	0
 260 000e 1F       		.byte	31
 261 000f 1F       		.byte	31
 262 0010 00       		.byte	0
 263 0011 00       		.byte	0
 264 0012 00       		.byte	0
 265 0013 00       		.byte	0
 266 0014 00       		.byte	0
 267 0015 1F       		.byte	31
 268 0016 1F       		.byte	31
ARM GAS  C:\Users\juano\AppData\Local\Temp\ccicpn4E.s 			page 10


 269 0017 1F       		.byte	31
 270 0018 00       		.byte	0
 271 0019 00       		.byte	0
 272 001a 00       		.byte	0
 273 001b 00       		.byte	0
 274 001c 1F       		.byte	31
 275 001d 1F       		.byte	31
 276 001e 1F       		.byte	31
 277 001f 1F       		.byte	31
 278 0020 00       		.byte	0
 279 0021 00       		.byte	0
 280 0022 00       		.byte	0
 281 0023 1F       		.byte	31
 282 0024 1F       		.byte	31
 283 0025 1F       		.byte	31
 284 0026 1F       		.byte	31
 285 0027 1F       		.byte	31
 286 0028 00       		.byte	0
 287 0029 00       		.byte	0
 288 002a 1F       		.byte	31
 289 002b 1F       		.byte	31
 290 002c 1F       		.byte	31
 291 002d 1F       		.byte	31
 292 002e 1F       		.byte	31
 293 002f 1F       		.byte	31
 294 0030 00       		.byte	0
 295 0031 1F       		.byte	31
 296 0032 1F       		.byte	31
 297 0033 1F       		.byte	31
 298 0034 1F       		.byte	31
 299 0035 1F       		.byte	31
 300 0036 1F       		.byte	31
 301 0037 1F       		.byte	31
 302 0038 1F       		.byte	31
 303 0039 1F       		.byte	31
 304 003a 1F       		.byte	31
 305 003b 1F       		.byte	31
 306 003c 1F       		.byte	31
 307 003d 1F       		.byte	31
 308 003e 1F       		.byte	31
 309 003f 1F       		.byte	31
 310              		.text
 311              	.Letext0:
 312              		.file 2 "Generated_Source\\PSoC4\\cytypes.h"
 313              		.file 3 "Generated_Source\\PSoC4\\LCD.h"
